{
  "address": "0x34C4cC4CAffB85ffC70cc367B2A776FF7c918b3d",
  "abi": [
    {
      "inputs": [
        {
          "internalType": "string",
          "name": "_name",
          "type": "string"
        },
        {
          "internalType": "string",
          "name": "_symbol",
          "type": "string"
        },
        {
          "internalType": "uint256",
          "name": "_price",
          "type": "uint256"
        },
        {
          "internalType": "uint256",
          "name": "_timedSalePrice",
          "type": "uint256"
        },
        {
          "internalType": "address",
          "name": "_renderer",
          "type": "address"
        }
      ],
      "stateMutability": "nonpayable",
      "type": "constructor"
    },
    {
      "inputs": [],
      "name": "ApprovalCallerNotOwnerNorApproved",
      "type": "error"
    },
    {
      "inputs": [],
      "name": "ApprovalQueryForNonexistentToken",
      "type": "error"
    },
    {
      "inputs": [],
      "name": "BalanceQueryForZeroAddress",
      "type": "error"
    },
    {
      "inputs": [],
      "name": "MintERC2309QuantityExceedsLimit",
      "type": "error"
    },
    {
      "inputs": [],
      "name": "MintToZeroAddress",
      "type": "error"
    },
    {
      "inputs": [],
      "name": "MintZeroQuantity",
      "type": "error"
    },
    {
      "inputs": [],
      "name": "OwnerQueryForNonexistentToken",
      "type": "error"
    },
    {
      "inputs": [],
      "name": "OwnershipNotInitializedForExtraData",
      "type": "error"
    },
    {
      "inputs": [],
      "name": "TransferCallerNotOwnerNorApproved",
      "type": "error"
    },
    {
      "inputs": [],
      "name": "TransferFromIncorrectOwner",
      "type": "error"
    },
    {
      "inputs": [],
      "name": "TransferToNonERC721ReceiverImplementer",
      "type": "error"
    },
    {
      "inputs": [],
      "name": "TransferToZeroAddress",
      "type": "error"
    },
    {
      "inputs": [],
      "name": "URIQueryForNonexistentToken",
      "type": "error"
    },
    {
      "anonymous": false,
      "inputs": [
        {
          "indexed": true,
          "internalType": "address",
          "name": "owner",
          "type": "address"
        },
        {
          "indexed": true,
          "internalType": "address",
          "name": "approved",
          "type": "address"
        },
        {
          "indexed": true,
          "internalType": "uint256",
          "name": "tokenId",
          "type": "uint256"
        }
      ],
      "name": "Approval",
      "type": "event"
    },
    {
      "anonymous": false,
      "inputs": [
        {
          "indexed": true,
          "internalType": "address",
          "name": "owner",
          "type": "address"
        },
        {
          "indexed": true,
          "internalType": "address",
          "name": "operator",
          "type": "address"
        },
        {
          "indexed": false,
          "internalType": "bool",
          "name": "approved",
          "type": "bool"
        }
      ],
      "name": "ApprovalForAll",
      "type": "event"
    },
    {
      "anonymous": false,
      "inputs": [
        {
          "indexed": true,
          "internalType": "uint256",
          "name": "fromTokenId",
          "type": "uint256"
        },
        {
          "indexed": false,
          "internalType": "uint256",
          "name": "toTokenId",
          "type": "uint256"
        },
        {
          "indexed": true,
          "internalType": "address",
          "name": "from",
          "type": "address"
        },
        {
          "indexed": true,
          "internalType": "address",
          "name": "to",
          "type": "address"
        }
      ],
      "name": "ConsecutiveTransfer",
      "type": "event"
    },
    {
      "anonymous": false,
      "inputs": [
        {
          "indexed": false,
          "internalType": "uint256",
          "name": "_tokenId",
          "type": "uint256"
        }
      ],
      "name": "MetadataUpdate",
      "type": "event"
    },
    {
      "anonymous": false,
      "inputs": [
        {
          "indexed": true,
          "internalType": "address",
          "name": "previousOwner",
          "type": "address"
        },
        {
          "indexed": true,
          "internalType": "address",
          "name": "newOwner",
          "type": "address"
        }
      ],
      "name": "OwnershipTransferred",
      "type": "event"
    },
    {
      "anonymous": false,
      "inputs": [],
      "name": "TimedSaleStarted",
      "type": "event"
    },
    {
      "anonymous": false,
      "inputs": [
        {
          "indexed": true,
          "internalType": "address",
          "name": "from",
          "type": "address"
        },
        {
          "indexed": true,
          "internalType": "address",
          "name": "to",
          "type": "address"
        },
        {
          "indexed": true,
          "internalType": "uint256",
          "name": "tokenId",
          "type": "uint256"
        }
      ],
      "name": "Transfer",
      "type": "event"
    },
    {
      "inputs": [
        {
          "internalType": "uint256",
          "name": "",
          "type": "uint256"
        }
      ],
      "name": "BLACK_HOLE_NAMES",
      "outputs": [
        {
          "internalType": "string",
          "name": "",
          "type": "string"
        }
      ],
      "stateMutability": "view",
      "type": "function"
    },
    {
      "inputs": [],
      "name": "MAX_LEVEL",
      "outputs": [
        {
          "internalType": "uint256",
          "name": "",
          "type": "uint256"
        }
      ],
      "stateMutability": "view",
      "type": "function"
    },
    {
      "inputs": [],
      "name": "MAX_SUPPLY_OF_INTERSTELLAR",
      "outputs": [
        {
          "internalType": "uint256",
          "name": "",
          "type": "uint256"
        }
      ],
      "stateMutability": "view",
      "type": "function"
    },
    {
      "inputs": [],
      "name": "TIMED_SALE_THRESHOLD",
      "outputs": [
        {
          "internalType": "uint256",
          "name": "",
          "type": "uint256"
        }
      ],
      "stateMutability": "view",
      "type": "function"
    },
    {
      "inputs": [
        {
          "internalType": "address[]",
          "name": "_recipients",
          "type": "address[]"
        },
        {
          "internalType": "uint256",
          "name": "_quantity",
          "type": "uint256"
        }
      ],
      "name": "airdrop",
      "outputs": [],
      "stateMutability": "payable",
      "type": "function"
    },
    {
      "inputs": [],
      "name": "allBlackHoleLevelNames",
      "outputs": [
        {
          "internalType": "string[]",
          "name": "",
          "type": "string[]"
        }
      ],
      "stateMutability": "view",
      "type": "function"
    },
    {
      "inputs": [
        {
          "internalType": "address",
          "name": "to",
          "type": "address"
        },
        {
          "internalType": "uint256",
          "name": "tokenId",
          "type": "uint256"
        }
      ],
      "name": "approve",
      "outputs": [],
      "stateMutability": "payable",
      "type": "function"
    },
    {
      "inputs": [
        {
          "internalType": "address",
          "name": "owner",
          "type": "address"
        }
      ],
      "name": "balanceOf",
      "outputs": [
        {
          "internalType": "uint256",
          "name": "",
          "type": "uint256"
        }
      ],
      "stateMutability": "view",
      "type": "function"
    },
    {
      "inputs": [
        {
          "internalType": "uint256",
          "name": "_tokenId",
          "type": "uint256"
        }
      ],
      "name": "blackHoleForTokenId",
      "outputs": [
        {
          "components": [
            {
              "internalType": "uint256",
              "name": "tokenId",
              "type": "uint256"
            },
            {
              "internalType": "uint256",
              "name": "level",
              "type": "uint256"
            },
            {
              "internalType": "uint256",
              "name": "size",
              "type": "uint256"
            },
            {
              "internalType": "uint256",
              "name": "mass",
              "type": "uint256"
            },
            {
              "internalType": "uint256",
              "name": "adjustment",
              "type": "uint256"
            },
            {
              "internalType": "string",
              "name": "name",
              "type": "string"
            }
          ],
          "internalType": "struct BlackHole",
          "name": "",
          "type": "tuple"
        }
      ],
      "stateMutability": "view",
      "type": "function"
    },
    {
      "inputs": [
        {
          "internalType": "uint256[]",
          "name": "tokenIds",
          "type": "uint256[]"
        }
      ],
      "name": "blackHolesForTokenIds",
      "outputs": [
        {
          "components": [
            {
              "internalType": "uint256",
              "name": "tokenId",
              "type": "uint256"
            },
            {
              "internalType": "uint256",
              "name": "level",
              "type": "uint256"
            },
            {
              "internalType": "uint256",
              "name": "size",
              "type": "uint256"
            },
            {
              "internalType": "uint256",
              "name": "mass",
              "type": "uint256"
            },
            {
              "internalType": "uint256",
              "name": "adjustment",
              "type": "uint256"
            },
            {
              "internalType": "string",
              "name": "name",
              "type": "string"
            }
          ],
          "internalType": "struct BlackHole[]",
          "name": "",
          "type": "tuple[]"
        }
      ],
      "stateMutability": "view",
      "type": "function"
    },
    {
      "inputs": [
        {
          "internalType": "uint256",
          "name": "_mass",
          "type": "uint256"
        }
      ],
      "name": "getAdjustmentForMass",
      "outputs": [
        {
          "internalType": "uint256",
          "name": "",
          "type": "uint256"
        }
      ],
      "stateMutability": "view",
      "type": "function"
    },
    {
      "inputs": [
        {
          "internalType": "uint256",
          "name": "tokenId",
          "type": "uint256"
        }
      ],
      "name": "getApproved",
      "outputs": [
        {
          "internalType": "address",
          "name": "",
          "type": "address"
        }
      ],
      "stateMutability": "view",
      "type": "function"
    },
    {
      "inputs": [],
      "name": "getBaseUpgradeMass",
      "outputs": [
        {
          "internalType": "uint256",
          "name": "",
          "type": "uint256"
        }
      ],
      "stateMutability": "view",
      "type": "function"
    },
    {
      "inputs": [],
      "name": "getMintState",
      "outputs": [
        {
          "internalType": "enum BlackHoles.MintState",
          "name": "",
          "type": "uint8"
        }
      ],
      "stateMutability": "view",
      "type": "function"
    },
    {
      "inputs": [],
      "name": "getPrice",
      "outputs": [
        {
          "internalType": "uint256",
          "name": "",
          "type": "uint256"
        }
      ],
      "stateMutability": "view",
      "type": "function"
    },
    {
      "inputs": [
        {
          "internalType": "address",
          "name": "owner",
          "type": "address"
        },
        {
          "internalType": "address",
          "name": "operator",
          "type": "address"
        }
      ],
      "name": "isApprovedForAll",
      "outputs": [
        {
          "internalType": "bool",
          "name": "",
          "type": "bool"
        }
      ],
      "stateMutability": "view",
      "type": "function"
    },
    {
      "inputs": [],
      "name": "isMergingEnabled",
      "outputs": [
        {
          "internalType": "bool",
          "name": "",
          "type": "bool"
        }
      ],
      "stateMutability": "view",
      "type": "function"
    },
    {
      "inputs": [
        {
          "internalType": "uint256",
          "name": "_mass",
          "type": "uint256"
        }
      ],
      "name": "levelForMass",
      "outputs": [
        {
          "internalType": "uint256",
          "name": "",
          "type": "uint256"
        }
      ],
      "stateMutability": "view",
      "type": "function"
    },
    {
      "inputs": [
        {
          "internalType": "uint256",
          "name": "_tokenId",
          "type": "uint256"
        }
      ],
      "name": "massForTokenId",
      "outputs": [
        {
          "internalType": "uint256",
          "name": "",
          "type": "uint256"
        }
      ],
      "stateMutability": "view",
      "type": "function"
    },
    {
      "inputs": [
        {
          "internalType": "uint256",
          "name": "",
          "type": "uint256"
        }
      ],
      "name": "massesConsumed",
      "outputs": [
        {
          "internalType": "uint256",
          "name": "",
          "type": "uint256"
        }
      ],
      "stateMutability": "view",
      "type": "function"
    },
    {
      "inputs": [
        {
          "internalType": "uint256[]",
          "name": "tokens",
          "type": "uint256[]"
        }
      ],
      "name": "merge",
      "outputs": [],
      "stateMutability": "nonpayable",
      "type": "function"
    },
    {
      "inputs": [],
      "name": "mergingDelay",
      "outputs": [
        {
          "internalType": "uint256",
          "name": "",
          "type": "uint256"
        }
      ],
      "stateMutability": "view",
      "type": "function"
    },
    {
      "inputs": [
        {
          "internalType": "uint256",
          "name": "_quantity",
          "type": "uint256"
        }
      ],
      "name": "mint",
      "outputs": [],
      "stateMutability": "payable",
      "type": "function"
    },
    {
      "inputs": [],
      "name": "name",
      "outputs": [
        {
          "internalType": "string",
          "name": "",
          "type": "string"
        }
      ],
      "stateMutability": "view",
      "type": "function"
    },
    {
      "inputs": [
        {
          "internalType": "uint256",
          "name": "_level",
          "type": "uint256"
        }
      ],
      "name": "nameForBlackHoleLevel",
      "outputs": [
        {
          "internalType": "string",
          "name": "",
          "type": "string"
        }
      ],
      "stateMutability": "view",
      "type": "function"
    },
    {
      "inputs": [],
      "name": "owner",
      "outputs": [
        {
          "internalType": "address",
          "name": "",
          "type": "address"
        }
      ],
      "stateMutability": "view",
      "type": "function"
    },
    {
      "inputs": [
        {
          "internalType": "uint256",
          "name": "tokenId",
          "type": "uint256"
        }
      ],
      "name": "ownerOf",
      "outputs": [
        {
          "internalType": "address",
          "name": "",
          "type": "address"
        }
      ],
      "stateMutability": "view",
      "type": "function"
    },
    {
      "inputs": [],
      "name": "price",
      "outputs": [
        {
          "internalType": "uint256",
          "name": "",
          "type": "uint256"
        }
      ],
      "stateMutability": "view",
      "type": "function"
    },
    {
      "inputs": [],
      "name": "renderer",
      "outputs": [
        {
          "internalType": "contract Renderer",
          "name": "",
          "type": "address"
        }
      ],
      "stateMutability": "view",
      "type": "function"
    },
    {
      "inputs": [],
      "name": "renounceOwnership",
      "outputs": [],
      "stateMutability": "nonpayable",
      "type": "function"
    },
    {
      "inputs": [
        {
          "internalType": "address",
          "name": "from",
          "type": "address"
        },
        {
          "internalType": "address",
          "name": "to",
          "type": "address"
        },
        {
          "internalType": "uint256",
          "name": "tokenId",
          "type": "uint256"
        }
      ],
      "name": "safeTransferFrom",
      "outputs": [],
      "stateMutability": "payable",
      "type": "function"
    },
    {
      "inputs": [
        {
          "internalType": "address",
          "name": "from",
          "type": "address"
        },
        {
          "internalType": "address",
          "name": "to",
          "type": "address"
        },
        {
          "internalType": "uint256",
          "name": "tokenId",
          "type": "uint256"
        },
        {
          "internalType": "bytes",
          "name": "_data",
          "type": "bytes"
        }
      ],
      "name": "safeTransferFrom",
      "outputs": [],
      "stateMutability": "payable",
      "type": "function"
    },
    {
      "inputs": [
        {
          "internalType": "address",
          "name": "operator",
          "type": "address"
        },
        {
          "internalType": "bool",
          "name": "approved",
          "type": "bool"
        }
      ],
      "name": "setApprovalForAll",
      "outputs": [],
      "stateMutability": "nonpayable",
      "type": "function"
    },
    {
      "inputs": [
        {
          "internalType": "uint256",
          "name": "_mergingDelay",
          "type": "uint256"
        }
      ],
      "name": "setMergingDelay",
      "outputs": [],
      "stateMutability": "nonpayable",
      "type": "function"
    },
    {
      "inputs": [
        {
          "internalType": "uint256",
          "name": "_price",
          "type": "uint256"
        }
      ],
      "name": "setPrice",
      "outputs": [],
      "stateMutability": "nonpayable",
      "type": "function"
    },
    {
      "inputs": [
        {
          "internalType": "uint256",
          "name": "_timedSaleDuration",
          "type": "uint256"
        }
      ],
      "name": "setTimedSaleDuration",
      "outputs": [],
      "stateMutability": "nonpayable",
      "type": "function"
    },
    {
      "inputs": [
        {
          "internalType": "uint256",
          "name": "_timedSalePrice",
          "type": "uint256"
        }
      ],
      "name": "setTimedSalePrice",
      "outputs": [],
      "stateMutability": "nonpayable",
      "type": "function"
    },
    {
      "inputs": [
        {
          "internalType": "bytes4",
          "name": "interfaceId",
          "type": "bytes4"
        }
      ],
      "name": "supportsInterface",
      "outputs": [
        {
          "internalType": "bool",
          "name": "",
          "type": "bool"
        }
      ],
      "stateMutability": "view",
      "type": "function"
    },
    {
      "inputs": [],
      "name": "symbol",
      "outputs": [
        {
          "internalType": "string",
          "name": "",
          "type": "string"
        }
      ],
      "stateMutability": "view",
      "type": "function"
    },
    {
      "inputs": [],
      "name": "timedSaleDuration",
      "outputs": [
        {
          "internalType": "uint256",
          "name": "",
          "type": "uint256"
        }
      ],
      "stateMutability": "view",
      "type": "function"
    },
    {
      "inputs": [],
      "name": "timedSaleEndTimestamp",
      "outputs": [
        {
          "internalType": "uint256",
          "name": "",
          "type": "uint256"
        }
      ],
      "stateMutability": "view",
      "type": "function"
    },
    {
      "inputs": [],
      "name": "timedSalePrice",
      "outputs": [
        {
          "internalType": "uint256",
          "name": "",
          "type": "uint256"
        }
      ],
      "stateMutability": "view",
      "type": "function"
    },
    {
      "inputs": [
        {
          "internalType": "uint256",
          "name": "_tokenId",
          "type": "uint256"
        }
      ],
      "name": "tokenURI",
      "outputs": [
        {
          "internalType": "string",
          "name": "",
          "type": "string"
        }
      ],
      "stateMutability": "view",
      "type": "function"
    },
    {
      "inputs": [],
      "name": "totalBurned",
      "outputs": [
        {
          "internalType": "uint256",
          "name": "",
          "type": "uint256"
        }
      ],
      "stateMutability": "view",
      "type": "function"
    },
    {
      "inputs": [],
      "name": "totalMinted",
      "outputs": [
        {
          "internalType": "uint256",
          "name": "",
          "type": "uint256"
        }
      ],
      "stateMutability": "view",
      "type": "function"
    },
    {
      "inputs": [],
      "name": "totalSupply",
      "outputs": [
        {
          "internalType": "uint256",
          "name": "",
          "type": "uint256"
        }
      ],
      "stateMutability": "view",
      "type": "function"
    },
    {
      "inputs": [
        {
          "internalType": "address",
          "name": "from",
          "type": "address"
        },
        {
          "internalType": "address",
          "name": "to",
          "type": "address"
        },
        {
          "internalType": "uint256",
          "name": "tokenId",
          "type": "uint256"
        }
      ],
      "name": "transferFrom",
      "outputs": [],
      "stateMutability": "payable",
      "type": "function"
    },
    {
      "inputs": [
        {
          "internalType": "address",
          "name": "newOwner",
          "type": "address"
        }
      ],
      "name": "transferOwnership",
      "outputs": [],
      "stateMutability": "nonpayable",
      "type": "function"
    },
    {
      "inputs": [],
      "name": "upgradeIntervals",
      "outputs": [
        {
          "internalType": "uint256[]",
          "name": "",
          "type": "uint256[]"
        }
      ],
      "stateMutability": "view",
      "type": "function"
    },
    {
      "inputs": [],
      "name": "withdraw",
      "outputs": [],
      "stateMutability": "nonpayable",
      "type": "function"
    }
  ],
  "transactionHash": "0x75dbfaa5f75b50f705482516b4c4a863c01e94ee41d7f5a5267ece116824db07",
  "args": [
    "Test",
    "TEST",
    "3000000000000000",
    "4000000000000000",
    "0x855D67f631B3Ba6f8DbC6Faf79913a390AFF9572"
  ],
  "numDeployments": 1,
  "solcInputHash": "cfc764dbb3ae053c2e0e36196439c7c1",
  "bytecode": "0x60e06040526103e8608090815250600460a090815250602a60c0908152506040518060a001604052806040518060400160405280600581526020017f4d6963726f00000000000000000000000000000000000000000000000000000081525081526020016040518060400160405280600781526020017f5374656c6c61720000000000000000000000000000000000000000000000000081525081526020016040518060400160405280600c81526020017f496e7465726d656469617465000000000000000000000000000000000000000081525081526020016040518060400160405280600c81526020017f53757065726d617373697665000000000000000000000000000000000000000081525081526020016040518060400160405280600a81526020017f5072696d6f726469616c0000000000000000000000000000000000000000000081525081525060099060056200015f92919062000330565b5062015180600d5562069780600e553480156200017b57600080fd5b5060405162005cf438038062005cf48339818101604052810190620001a1919062000650565b84848160029081620001b4919062000957565b508060039081620001c6919062000957565b50620001d76200025960201b60201c565b6000819055505050620001ff620001f36200026260201b60201c565b6200026a60201b60201c565b82600a8190555081600b8190555080601060006101000a81548173ffffffffffffffffffffffffffffffffffffffff021916908373ffffffffffffffffffffffffffffffffffffffff160217905550505050505062000a3e565b60006001905090565b600033905090565b6000600860009054906101000a900473ffffffffffffffffffffffffffffffffffffffff16905081600860006101000a81548173ffffffffffffffffffffffffffffffffffffffff021916908373ffffffffffffffffffffffffffffffffffffffff1602179055508173ffffffffffffffffffffffffffffffffffffffff168173ffffffffffffffffffffffffffffffffffffffff167f8be0079c531659141344cd1fd0a4f28419497f9722a3daafe3b4186f6b6457e060405160405180910390a35050565b8280548282559060005260206000209081019282156200037d579160200282015b828111156200037c5782518290816200036b919062000957565b509160200191906001019062000351565b5b5090506200038c919062000390565b5090565b5b80821115620003b45760008181620003aa9190620003b8565b5060010162000391565b5090565b508054620003c69062000750565b6000825580601f10620003da5750620003fb565b601f016020900490600052602060002090810190620003fa9190620003fe565b5b50565b5b8082111562000419576000816000905550600101620003ff565b5090565b6000604051905090565b600080fd5b600080fd5b600080fd5b600080fd5b6000601f19601f8301169050919050565b7f4e487b7100000000000000000000000000000000000000000000000000000000600052604160045260246000fd5b62000486826200043b565b810181811067ffffffffffffffff82111715620004a857620004a76200044c565b5b80604052505050565b6000620004bd6200041d565b9050620004cb82826200047b565b919050565b600067ffffffffffffffff821115620004ee57620004ed6200044c565b5b620004f9826200043b565b9050602081019050919050565b60005b838110156200052657808201518184015260208101905062000509565b60008484015250505050565b6000620005496200054384620004d0565b620004b1565b90508281526020810184848401111562000568576200056762000436565b5b6200057584828562000506565b509392505050565b600082601f83011262000595576200059462000431565b5b8151620005a784826020860162000532565b91505092915050565b6000819050919050565b620005c581620005b0565b8114620005d157600080fd5b50565b600081519050620005e581620005ba565b92915050565b600073ffffffffffffffffffffffffffffffffffffffff82169050919050565b60006200061882620005eb565b9050919050565b6200062a816200060b565b81146200063657600080fd5b50565b6000815190506200064a816200061f565b92915050565b600080600080600060a086880312156200066f576200066e62000427565b5b600086015167ffffffffffffffff81111562000690576200068f6200042c565b5b6200069e888289016200057d565b955050602086015167ffffffffffffffff811115620006c257620006c16200042c565b5b620006d0888289016200057d565b9450506040620006e388828901620005d4565b9350506060620006f688828901620005d4565b9250506080620007098882890162000639565b9150509295509295909350565b600081519050919050565b7f4e487b7100000000000000000000000000000000000000000000000000000000600052602260045260246000fd5b600060028204905060018216806200076957607f821691505b6020821081036200077f576200077e62000721565b5b50919050565b60008190508160005260206000209050919050565b60006020601f8301049050919050565b600082821b905092915050565b600060088302620007e97fffffffffffffffffffffffffffffffffffffffffffffffffffffffffffffffff82620007aa565b620007f58683620007aa565b95508019841693508086168417925050509392505050565b6000819050919050565b600062000838620008326200082c84620005b0565b6200080d565b620005b0565b9050919050565b6000819050919050565b620008548362000817565b6200086c62000863826200083f565b848454620007b7565b825550505050565b600090565b6200088362000874565b6200089081848462000849565b505050565b5b81811015620008b857620008ac60008262000879565b60018101905062000896565b5050565b601f8211156200090757620008d18162000785565b620008dc846200079a565b81016020851015620008ec578190505b62000904620008fb856200079a565b83018262000895565b50505b505050565b600082821c905092915050565b60006200092c600019846008026200090c565b1980831691505092915050565b600062000947838362000919565b9150826002028217905092915050565b620009628262000716565b67ffffffffffffffff8111156200097e576200097d6200044c565b5b6200098a825462000750565b62000997828285620008bc565b600060209050601f831160018114620009cf5760008415620009ba578287015190505b620009c6858262000939565b86555062000a36565b601f198416620009df8662000785565b60005b8281101562000a0957848901518255600182019150602085019450602081019050620009e2565b8683101562000a29578489015162000a25601f89168262000919565b8355505b6001600288020188555050505b505050505050565b60805160a05160c05161525c62000a98600039600081816113e601526115d40152600081816113b9015281816114af0152611dd301526000818161106e0152818161170c01528181611aa30152611acf015261525c6000f3fe6080604052600436106102c95760003560e01c806389327f2811610175578063a2309ff8116100dc578063ca714e5b11610095578063d89135cd1161006f578063d89135cd14610ae6578063de62d84214610b11578063e985e9c514610b3a578063f2fde38b14610b77576102c9565b8063ca714e5b14610a2f578063cbad784914610a6c578063d3dedd6314610aa9576102c9565b8063a2309ff814610927578063a49062d414610952578063b4449b261461097d578063b88d4fde146109ba578063c204642c146109d6578063c87b56dd146109f2576102c9565b806395d89b411161012e57806395d89b411461083857806398d5fdca146108635780639fc8d6ae1461088e578063a035b1fe146108b7578063a0712d68146108e2578063a22cb465146108fe576102c9565b806389327f28146107265780638ada6b0f146107635780638b3578c61461078e5780638da5cb5b146107b957806391b7f5ed146107e457806393d57dd41461080d576102c9565b806323b872dd116102345780635056af05116101ed57806370a08231116101c757806370a082311461066a578063715018a6146106a7578063774a8835146106be5780637752e368146106e9576102c9565b80635056af05146105c55780635e23a763146105f05780636352211e1461062d576102c9565b806323b872dd146104f5578063310c1813146105115780633ccfd60b1461053c57806342842e0e1461055357806348019b861461056f5780634ca7880c1461059a576102c9565b806318160ddd1161028657806318160ddd146103e357806318f58b731461040e5780631d22dc6f1461044b5780631df4b97214610476578063208d12f5146104a1578063222a7a08146104ca576102c9565b806301ffc9a7146102ce57806304ec7ed01461030b57806306fdde0314610334578063081812fc1461035f578063095ea7b31461039c5780630ed89bf0146103b8575b600080fd5b3480156102da57600080fd5b506102f560048036038101906102f09190613508565b610ba0565b6040516103029190613550565b60405180910390f35b34801561031757600080fd5b50610332600480360381019061032d91906135a1565b610c32565b005b34801561034057600080fd5b50610349610c44565b604051610356919061365e565b60405180910390f35b34801561036b57600080fd5b50610386600480360381019061038191906135a1565b610cd6565b60405161039391906136c1565b60405180910390f35b6103b660048036038101906103b19190613708565b610d55565b005b3480156103c457600080fd5b506103cd610e99565b6040516103da9190613854565b60405180910390f35b3480156103ef57600080fd5b506103f8610f72565b6040516104059190613885565b60405180910390f35b34801561041a57600080fd5b50610435600480360381019061043091906139e8565b610f89565b6040516104429190613b8b565b60405180910390f35b34801561045757600080fd5b5061046061104e565b60405161046d9190613885565b60405180910390f35b34801561048257600080fd5b5061048b611054565b6040516104989190613885565b60405180910390f35b3480156104ad57600080fd5b506104c860048036038101906104c391906135a1565b61105a565b005b3480156104d657600080fd5b506104df61106c565b6040516104ec9190613885565b60405180910390f35b61050f600480360381019061050a9190613bad565b611090565b005b34801561051d57600080fd5b506105266113b2565b6040516105339190613885565b60405180910390f35b34801561054857600080fd5b5061055161142d565b005b61056d60048036038101906105689190613bad565b611475565b005b34801561057b57600080fd5b50610584611495565b6040516105919190613885565b60405180910390f35b3480156105a657600080fd5b506105af61149b565b6040516105bc9190613caf565b60405180910390f35b3480156105d157600080fd5b506105da6115d2565b6040516105e79190613885565b60405180910390f35b3480156105fc57600080fd5b50610617600480360381019061061291906135a1565b6115f6565b6040516106249190613885565b60405180910390f35b34801561063957600080fd5b50610654600480360381019061064f91906135a1565b61161f565b60405161066191906136c1565b60405180910390f35b34801561067657600080fd5b50610691600480360381019061068c9190613cd1565b611631565b60405161069e9190613885565b60405180910390f35b3480156106b357600080fd5b506106bc6116e9565b005b3480156106ca57600080fd5b506106d36116fd565b6040516106e09190613d75565b60405180910390f35b3480156106f557600080fd5b50610710600480360381019061070b91906135a1565b611759565b60405161071d9190613885565b60405180910390f35b34801561073257600080fd5b5061074d600480360381019061074891906135a1565b611771565b60405161075a9190613885565b60405180910390f35b34801561076f57600080fd5b5061077861181f565b6040516107859190613def565b60405180910390f35b34801561079a57600080fd5b506107a3611845565b6040516107b09190613550565b60405180910390f35b3480156107c557600080fd5b506107ce611894565b6040516107db91906136c1565b60405180910390f35b3480156107f057600080fd5b5061080b600480360381019061080691906135a1565b6118be565b005b34801561081957600080fd5b506108226118d0565b60405161082f9190613885565b60405180910390f35b34801561084457600080fd5b5061084d6118d6565b60405161085a919061365e565b60405180910390f35b34801561086f57600080fd5b50610878611968565b6040516108859190613885565b60405180910390f35b34801561089a57600080fd5b506108b560048036038101906108b091906135a1565b6119b0565b005b3480156108c357600080fd5b506108cc6119c2565b6040516108d99190613885565b60405180910390f35b6108fc60048036038101906108f791906135a1565b6119c8565b005b34801561090a57600080fd5b5061092560048036038101906109209190613e36565b611cb7565b005b34801561093357600080fd5b5061093c611dc2565b6040516109499190613885565b60405180910390f35b34801561095e57600080fd5b50610967611dd1565b6040516109749190613885565b60405180910390f35b34801561098957600080fd5b506109a4600480360381019061099f91906135a1565b611df5565b6040516109b1919061365e565b60405180910390f35b6109d460048036038101906109cf9190613f2b565b611ea5565b005b6109f060048036038101906109eb9190614009565b611f18565b005b3480156109fe57600080fd5b50610a196004803603810190610a1491906135a1565b611fe5565b604051610a26919061365e565b60405180910390f35b348015610a3b57600080fd5b50610a566004803603810190610a5191906135a1565b6121cc565b604051610a6391906140f2565b60405180910390f35b348015610a7857600080fd5b50610a936004803603810190610a8e91906135a1565b6122f3565b604051610aa09190613885565b60405180910390f35b348015610ab557600080fd5b50610ad06004803603810190610acb91906135a1565b6123bf565b604051610add919061365e565b60405180910390f35b348015610af257600080fd5b50610afb61246b565b604051610b089190613885565b60405180910390f35b348015610b1d57600080fd5b50610b386004803603810190610b3391906139e8565b61247a565b005b348015610b4657600080fd5b50610b616004803603810190610b5c9190614114565b612724565b604051610b6e9190613550565b60405180910390f35b348015610b8357600080fd5b50610b9e6004803603810190610b999190613cd1565b6127b8565b005b60006301ffc9a760e01b827bffffffffffffffffffffffffffffffffffffffffffffffffffffffff19161480610bfb57506380ac58cd60e01b827bffffffffffffffffffffffffffffffffffffffffffffffffffffffff1916145b80610c2b5750635b5e139f60e01b827bffffffffffffffffffffffffffffffffffffffffffffffffffffffff1916145b9050919050565b610c3a61283b565b80600d8190555050565b606060028054610c5390614183565b80601f0160208091040260200160405190810160405280929190818152602001828054610c7f90614183565b8015610ccc5780601f10610ca157610100808354040283529160200191610ccc565b820191906000526020600020905b815481529060010190602001808311610caf57829003601f168201915b5050505050905090565b6000610ce1826128b9565b610d17576040517fcf4700e400000000000000000000000000000000000000000000000000000000815260040160405180910390fd5b6006600083815260200190815260200160002060000160009054906101000a900473ffffffffffffffffffffffffffffffffffffffff169050919050565b6000610d608261161f565b90508073ffffffffffffffffffffffffffffffffffffffff16610d81612918565b73ffffffffffffffffffffffffffffffffffffffff1614610de457610dad81610da8612918565b612724565b610de3576040517fcfb3b94200000000000000000000000000000000000000000000000000000000815260040160405180910390fd5b5b826006600084815260200190815260200160002060000160006101000a81548173ffffffffffffffffffffffffffffffffffffffff021916908373ffffffffffffffffffffffffffffffffffffffff160217905550818373ffffffffffffffffffffffffffffffffffffffff168273ffffffffffffffffffffffffffffffffffffffff167f8c5be1e5ebec7d5bd14f71427d1e84f3dd0314c0f7b2291e5b200ac8c7c3b92560405160405180910390a4505050565b60606009805480602002602001604051908101604052809291908181526020016000905b82821015610f69578382906000526020600020018054610edc90614183565b80601f0160208091040260200160405190810160405280929190818152602001828054610f0890614183565b8015610f555780601f10610f2a57610100808354040283529160200191610f55565b820191906000526020600020905b815481529060010190602001808311610f3857829003601f168201915b505050505081526020019060010190610ebd565b50505050905090565b6000610f7c612920565b6001546000540303905090565b60606000825167ffffffffffffffff811115610fa857610fa76138a5565b5b604051908082528060200260200182016040528015610fe157816020015b610fce613466565b815260200190600190039081610fc65790505b50905060005b835181101561104457611013848281518110611006576110056141b4565b5b60200260200101516121cc565b828281518110611026576110256141b4565b5b6020026020010181905250808061103c90614212565b915050610fe7565b5080915050919050565b600d5481565b600e5481565b61106261283b565b80600b8190555050565b7f000000000000000000000000000000000000000000000000000000000000000081565b600061109b82612929565b90508373ffffffffffffffffffffffffffffffffffffffff168173ffffffffffffffffffffffffffffffffffffffff1614611102576040517fa114810000000000000000000000000000000000000000000000000000000000815260040160405180910390fd5b60008061110e846129f5565b91509150611124818761111f612918565b612a1c565b6111705761113986611134612918565b612724565b61116f576040517f59c896be00000000000000000000000000000000000000000000000000000000815260040160405180910390fd5b5b600073ffffffffffffffffffffffffffffffffffffffff168573ffffffffffffffffffffffffffffffffffffffff16036111d6576040517fea553b3400000000000000000000000000000000000000000000000000000000815260040160405180910390fd5b6111e38686866001612a60565b80156111ee57600082555b600560008773ffffffffffffffffffffffffffffffffffffffff1673ffffffffffffffffffffffffffffffffffffffff168152602001908152602001600020600081546001900391905081905550600560008673ffffffffffffffffffffffffffffffffffffffff1673ffffffffffffffffffffffffffffffffffffffff16815260200190815260200160002060008154600101919050819055506112bc85611298888887612a66565b7c020000000000000000000000000000000000000000000000000000000017612a8e565b600460008681526020019081526020016000208190555060007c0200000000000000000000000000000000000000000000000000000000841603611342576000600185019050600060046000838152602001908152602001600020540361134057600054811461133f578360046000838152602001908152602001600020819055505b5b505b838573ffffffffffffffffffffffffffffffffffffffff168773ffffffffffffffffffffffffffffffffffffffff167fddf252ad1be2c89b69c2b068fc378daa952ba7f163c4a11628f55a4df523b3ef60405160405180910390a46113aa8686866001612ab9565b505050505050565b60006114287f000000000000000000000000000000000000000000000000000000000000000060026113e4919061438d565b7f000000000000000000000000000000000000000000000000000000000000000061140d612abf565b6114179190614407565b6114219190614407565b6002612ad2565b905090565b61143561283b565b3373ffffffffffffffffffffffffffffffffffffffff166108fc479081150290604051600060405180830381858888f1935050505061147357600080fd5b565b61149083838360405180602001604052806000815250611ea5565b505050565b600c5481565b606060006114a76113b2565b9050600060017f00000000000000000000000000000000000000000000000000000000000000006114d89190614438565b67ffffffffffffffff8111156114f1576114f06138a5565b5b60405190808252806020026020018201604052801561151f5781602001602082028036833780820191505090505b5090508181600081518110611537576115366141b4565b5b602002602001018181525050600282611550919061446c565b81600181518110611564576115636141b4565b5b60200260200101818152505060048261157d919061446c565b81600281518110611591576115906141b4565b5b6020026020010181815250506008826115aa919061446c565b816003815181106115be576115bd6141b4565b5b602002602001018181525050809250505090565b7f000000000000000000000000000000000000000000000000000000000000000081565b60006001600f6000848152602001908152602001600020546116189190614438565b9050919050565b600061162a82612929565b9050919050565b60008073ffffffffffffffffffffffffffffffffffffffff168273ffffffffffffffffffffffffffffffffffffffff1603611698576040517f8f4eb60400000000000000000000000000000000000000000000000000000000815260040160405180910390fd5b67ffffffffffffffff600560008473ffffffffffffffffffffffffffffffffffffffff1673ffffffffffffffffffffffffffffffffffffffff16815260200190815260200160002054169050919050565b6116f161283b565b6116fb6000612aeb565b565b600080611708612abf565b90507f000000000000000000000000000000000000000000000000000000000000000081101561173c576000915050611756565b600c54421015611750576001915050611756565b60029150505b90565b600f6020528060005260406000206000915090505481565b60008061177c6113b2565b90506000611789846122f3565b905060006001808361179b9190614438565b60026117a7919061438d565b846117b2919061446c565b6117bc91906144c6565b905060008260026117cd919061438d565b846117d8919061446c565b9050600081836117e891906144c6565b905060008188856117f991906144c6565b6014611805919061446c565b61180f9190614407565b9050809650505050505050919050565b601060009054906101000a900473ffffffffffffffffffffffffffffffffffffffff1681565b600060028081111561185a57611859613cfe565b5b6118626116fd565b600281111561187457611873613cfe565b5b14801561188f5750600e54600c5461188c9190614438565b42115b905090565b6000600860009054906101000a900473ffffffffffffffffffffffffffffffffffffffff16905090565b6118c661283b565b80600a8190555050565b600b5481565b6060600380546118e590614183565b80601f016020809104026020016040519081016040528092919081815260200182805461191190614183565b801561195e5780601f106119335761010080835404028352916020019161195e565b820191906000526020600020905b81548152906001019060200180831161194157829003601f168201915b5050505050905090565b60006001600281111561197e5761197d613cfe565b5b6119866116fd565b600281111561199857611997613cfe565b5b036119a757600b5490506119ad565b600a5490505b90565b6119b861283b565b80600e8190555050565b600a5481565b60006119d2611968565b905060006119de612abf565b905060006119ea6116fd565b90506002808111156119ff576119fe613cfe565b5b816002811115611a1257611a11613cfe565b5b03611a52576040517f08c379a0000000000000000000000000000000000000000000000000000000008152600401611a4990614546565b60405180910390fd5b60008483611a609190614438565b905060008585611a70919061446c565b905060006002811115611a8657611a85613cfe565b5b836002811115611a9957611a98613cfe565b5b148015611ac657507f00000000000000000000000000000000000000000000000000000000000000008210155b15611ba15760007f000000000000000000000000000000000000000000000000000000000000000083611af991906144c6565b905060008188611b0991906144c6565b90508681611b17919061446c565b9250600b548334611b2891906144c6565b611b329190614407565b9150600b5482611b42919061446c565b83611b4d9190614438565b92508181611b5b9190614438565b97506201518042611b6c9190614438565b600c819055507f6829347062e9f3db38e85deaf425a1d7ea05e95e20362d8b3889a08745d144cb60405160405180910390a150505b80341015611be4576040517f08c379a0000000000000000000000000000000000000000000000000000000008152600401611bdb906145b2565b60405180910390fd5b611bee3387612bb1565b80341115611caf5760003373ffffffffffffffffffffffffffffffffffffffff168234611c1b91906144c6565b604051611c2790614603565b60006040518083038185875af1925050503d8060008114611c64576040519150601f19603f3d011682016040523d82523d6000602084013e611c69565b606091505b5050905080611cad576040517f08c379a0000000000000000000000000000000000000000000000000000000008152600401611ca490614664565b60405180910390fd5b505b505050505050565b8060076000611cc4612918565b73ffffffffffffffffffffffffffffffffffffffff1673ffffffffffffffffffffffffffffffffffffffff16815260200190815260200160002060008473ffffffffffffffffffffffffffffffffffffffff1673ffffffffffffffffffffffffffffffffffffffff16815260200190815260200160002060006101000a81548160ff0219169083151502179055508173ffffffffffffffffffffffffffffffffffffffff16611d71612918565b73ffffffffffffffffffffffffffffffffffffffff167f17307eab39ab6107e8899845ad3d59bd9653f200f220920489ca2b5937696c3183604051611db69190613550565b60405180910390a35050565b6000611dcc612abf565b905090565b7f000000000000000000000000000000000000000000000000000000000000000081565b606060098281548110611e0b57611e0a6141b4565b5b906000526020600020018054611e2090614183565b80601f0160208091040260200160405190810160405280929190818152602001828054611e4c90614183565b8015611e995780601f10611e6e57610100808354040283529160200191611e99565b820191906000526020600020905b815481529060010190602001808311611e7c57829003601f168201915b50505050509050919050565b611eb0848484611090565b60008373ffffffffffffffffffffffffffffffffffffffff163b14611f1257611edb84848484612d6c565b611f11576040517fd1a57ed600000000000000000000000000000000000000000000000000000000815260040160405180910390fd5b5b50505050565b611f2061283b565b600280811115611f3357611f32613cfe565b5b611f3b6116fd565b6002811115611f4d57611f4c613cfe565b5b03611f8d576040517f08c379a0000000000000000000000000000000000000000000000000000000008152600401611f84906146d0565b60405180910390fd5b60005b83839050811015611fdf57611fcc848483818110611fb157611fb06141b4565b5b9050602002016020810190611fc69190613cd1565b83612bb1565b8080611fd790614212565b915050611f90565b50505050565b6060611ff0826128b9565b612026576040517fa14c4b5000000000000000000000000000000000000000000000000000000000815260040160405180910390fd5b600061203183612ebc565b6040516020016120419190614778565b604051602081830303815290604052905060006040518060600160405280603d81526020016151aa603d91399050600061207a856121cc565b90506000601060009054906101000a900473ffffffffffffffffffffffffffffffffffffffff1673ffffffffffffffffffffffffffffffffffffffff1663cfeb9a02836040518263ffffffff1660e01b81526004016120d991906140f2565b600060405180830381865afa1580156120f6573d6000803e3d6000fd5b505050506040513d6000823e3d601f19601f8201168201806040525081019061211f919061483b565b905060006121308360200151612ebc565b8360a001516121428560600151612ebc565b60405160200161215493929190614a26565b6040516020818303038152906040529050600085858361217386613044565b6040516020016121869493929190614ca6565b60405160208183030381529060405290506121a081613044565b6040516020016121b09190614d72565b6040516020818303038152906040529650505050505050919050565b6121d4613466565b60006121df836115f6565b905060006121ec826122f3565b905060006121f982611df5565b9050600061220684611771565b90506040518060c0016040528087815260200184815260200184600a61222c91906144c6565b6002601060009054906101000a900473ffffffffffffffffffffffffffffffffffffffff1673ffffffffffffffffffffffffffffffffffffffff1663030ac5256040518163ffffffff1660e01b8152600401602060405180830381865afa15801561229b573d6000803e3d6000fd5b505050506040513d601f19601f820116820180604052508101906122bf9190614da9565b6122c99190614407565b6122d391906144c6565b815260200185815260200182815260200183815250945050505050919050565b6000806122fe61149b565b905080600081518110612314576123136141b4565b5b602002602001015183101561232d5760009150506123ba565b80600181518110612341576123406141b4565b5b602002602001015183101561235a5760019150506123ba565b8060028151811061236e5761236d6141b4565b5b60200260200101518310156123875760029150506123ba565b8060038151811061239b5761239a6141b4565b5b60200260200101518310156123b45760039150506123ba565b60049150505b919050565b600981815481106123cf57600080fd5b9060005260206000200160009150905080546123ea90614183565b80601f016020809104026020016040519081016040528092919081815260200182805461241690614183565b80156124635780601f1061243857610100808354040283529160200191612463565b820191906000526020600020905b81548152906001019060200180831161244657829003601f168201915b505050505081565b60006124756131db565b905090565b612482611845565b6124c1576040517f08c379a00000000000000000000000000000000000000000000000000000000081526004016124b890614e22565b60405180910390fd5b6001815111612505576040517f08c379a00000000000000000000000000000000000000000000000000000000081526004016124fc90614e8e565b60405180910390fd5b60008160008151811061251b5761251a6141b4565b5b602002602001015190503373ffffffffffffffffffffffffffffffffffffffff1661256083600081518110612553576125526141b4565b5b602002602001015161161f565b73ffffffffffffffffffffffffffffffffffffffff16146125b6576040517f08c379a00000000000000000000000000000000000000000000000000000000081526004016125ad90614efa565b60405180910390fd5b600080600190505b83518110156126bd573373ffffffffffffffffffffffffffffffffffffffff166126018583815181106125f4576125f36141b4565b5b602002602001015161161f565b73ffffffffffffffffffffffffffffffffffffffff1614612657576040517f08c379a000000000000000000000000000000000000000000000000000000000815260040161264e90614f66565b60405180910390fd5b61267a84828151811061266d5761266c6141b4565b5b60200260200101516115f6565b826126859190614438565b91506126aa84828151811061269d5761269c6141b4565b5b60200260200101516131e5565b80806126b590614212565b9150506125be565b5080600f600084815260200190815260200160002060008282546126e19190614438565b925050819055507ff8e1a15aba9398e019f0b49df1a4fde98ee17ae345cb5f6b5e2c27f5033e8ce7826040516127179190613885565b60405180910390a1505050565b6000600760008473ffffffffffffffffffffffffffffffffffffffff1673ffffffffffffffffffffffffffffffffffffffff16815260200190815260200160002060008373ffffffffffffffffffffffffffffffffffffffff1673ffffffffffffffffffffffffffffffffffffffff16815260200190815260200160002060009054906101000a900460ff16905092915050565b6127c061283b565b600073ffffffffffffffffffffffffffffffffffffffff168173ffffffffffffffffffffffffffffffffffffffff160361282f576040517f08c379a000000000000000000000000000000000000000000000000000000000815260040161282690614ff8565b60405180910390fd5b61283881612aeb565b50565b6128436131f3565b73ffffffffffffffffffffffffffffffffffffffff16612861611894565b73ffffffffffffffffffffffffffffffffffffffff16146128b7576040517f08c379a00000000000000000000000000000000000000000000000000000000081526004016128ae90615064565b60405180910390fd5b565b6000816128c4612920565b111580156128d3575060005482105b8015612911575060007c0100000000000000000000000000000000000000000000000000000000600460008581526020019081526020016000205416145b9050919050565b600033905090565b60006001905090565b60008082905080612938612920565b116129be576000548110156129bd5760006004600083815260200190815260200160002054905060007c01000000000000000000000000000000000000000000000000000000008216036129bb575b600081036129b1576004600083600190039350838152602001908152602001600020549050612987565b80925050506129f0565b505b5b6040517fdf2d9b4200000000000000000000000000000000000000000000000000000000815260040160405180910390fd5b919050565b60008060006006600085815260200190815260200160002090508092508254915050915091565b600073ffffffffffffffffffffffffffffffffffffffff8316925073ffffffffffffffffffffffffffffffffffffffff821691508382148383141790509392505050565b50505050565b60008060e883901c905060e8612a7d8686846131fb565b62ffffff16901b9150509392505050565b600073ffffffffffffffffffffffffffffffffffffffff83169250814260a01b178317905092915050565b50505050565b6000612ac9612920565b60005403905090565b6000818311612ae15781612ae3565b825b905092915050565b6000600860009054906101000a900473ffffffffffffffffffffffffffffffffffffffff16905081600860006101000a81548173ffffffffffffffffffffffffffffffffffffffff021916908373ffffffffffffffffffffffffffffffffffffffff1602179055508173ffffffffffffffffffffffffffffffffffffffff168173ffffffffffffffffffffffffffffffffffffffff167f8be0079c531659141344cd1fd0a4f28419497f9722a3daafe3b4186f6b6457e060405160405180910390a35050565b60008054905060008203612bf1576040517fb562e8dd00000000000000000000000000000000000000000000000000000000815260040160405180910390fd5b612bfe6000848385612a60565b600160406001901b178202600560008573ffffffffffffffffffffffffffffffffffffffff1673ffffffffffffffffffffffffffffffffffffffff16815260200190815260200160002060008282540192505081905550612c7583612c666000866000612a66565b612c6f85613204565b17612a8e565b6004600083815260200190815260200160002081905550600080838301905073ffffffffffffffffffffffffffffffffffffffff85169150828260007fddf252ad1be2c89b69c2b068fc378daa952ba7f163c4a11628f55a4df523b3ef600080a4600183015b818114612d1657808360007fddf252ad1be2c89b69c2b068fc378daa952ba7f163c4a11628f55a4df523b3ef600080a4600181019050612cdb565b5060008203612d51576040517f2e07630000000000000000000000000000000000000000000000000000000000815260040160405180910390fd5b806000819055505050612d676000848385612ab9565b505050565b60008373ffffffffffffffffffffffffffffffffffffffff1663150b7a02612d92612918565b8786866040518563ffffffff1660e01b8152600401612db494939291906150d9565b6020604051808303816000875af1925050508015612df057506040513d601f19601f82011682018060405250810190612ded919061513a565b60015b612e69573d8060008114612e20576040519150601f19603f3d011682016040523d82523d6000602084013e612e25565b606091505b506000815103612e61576040517fd1a57ed600000000000000000000000000000000000000000000000000000000815260040160405180910390fd5b805181602001fd5b63150b7a0260e01b7bffffffffffffffffffffffffffffffffffffffffffffffffffffffff1916817bffffffffffffffffffffffffffffffffffffffffffffffffffffffff191614915050949350505050565b606060008203612f03576040518060400160405280600181526020017f3000000000000000000000000000000000000000000000000000000000000000815250905061303f565b600082905060005b60008214612f35578080612f1e90614212565b915050600a82612f2e9190614407565b9150612f0b565b60008167ffffffffffffffff811115612f5157612f506138a5565b5b6040519080825280601f01601f191660200182016040528015612f835781602001600182028036833780820191505090505b50905060008290505b6000861461303757600181612fa191906144c6565b90506000600a8088612fb39190614407565b612fbd919061446c565b87612fc891906144c6565b6030612fd49190615174565b905060008160f81b905080848481518110612ff257612ff16141b4565b5b60200101907effffffffffffffffffffffffffffffffffffffffffffffffffffffffffffff1916908160001a905350600a8861302e9190614407565b97505050612f8c565b819450505050505b919050565b60606000825190506000810361306c57604051806020016040528060008152509150506131d6565b6000600360028361307d9190614438565b6130879190614407565b6004613093919061446c565b905060006020826130a49190614438565b67ffffffffffffffff8111156130bd576130bc6138a5565b5b6040519080825280601f01601f1916602001820160405280156130ef5781602001600182028036833780820191505090505b50905060006040518060600160405280604081526020016151e7604091399050600181016020830160005b868110156131935760038101905062ffffff818a015116603f8160121c168401518060081b905060ff603f83600c1c1686015116810190508060081b905060ff603f8360061c1686015116810190508060081b905060ff603f831686015116810190508060e01b9050808452600484019350505061311a565b5060038606600181146131ad57600281146131bd576131c8565b613d3d60f01b60028303526131c8565b603d60f81b60018303525b508484525050819450505050505b919050565b6000600154905090565b6131f0816000613214565b50565b600033905090565b60009392505050565b60006001821460e11b9050919050565b600061321f83612929565b90506000819050600080613232866129f5565b91509150841561329b5761324e8184613249612918565b612a1c565b61329a576132638361325e612918565b612724565b613299576040517f59c896be00000000000000000000000000000000000000000000000000000000815260040160405180910390fd5b5b5b6132a9836000886001612a60565b80156132b457600082555b600160806001901b03600560008573ffffffffffffffffffffffffffffffffffffffff1673ffffffffffffffffffffffffffffffffffffffff1681526020019081526020016000206000828254019250508190555061335c8361331985600088612a66565b7c02000000000000000000000000000000000000000000000000000000007c01000000000000000000000000000000000000000000000000000000001717612a8e565b600460008881526020019081526020016000208190555060007c02000000000000000000000000000000000000000000000000000000008516036133e257600060018701905060006004600083815260200190815260200160002054036133e05760005481146133df578460046000838152602001908152602001600020819055505b5b505b85600073ffffffffffffffffffffffffffffffffffffffff168473ffffffffffffffffffffffffffffffffffffffff167fddf252ad1be2c89b69c2b068fc378daa952ba7f163c4a11628f55a4df523b3ef60405160405180910390a461344c836000886001612ab9565b600160008154809291906001019190505550505050505050565b6040518060c001604052806000815260200160008152602001600081526020016000815260200160008152602001606081525090565b6000604051905090565b600080fd5b600080fd5b60007fffffffff0000000000000000000000000000000000000000000000000000000082169050919050565b6134e5816134b0565b81146134f057600080fd5b50565b600081359050613502816134dc565b92915050565b60006020828403121561351e5761351d6134a6565b5b600061352c848285016134f3565b91505092915050565b60008115159050919050565b61354a81613535565b82525050565b60006020820190506135656000830184613541565b92915050565b6000819050919050565b61357e8161356b565b811461358957600080fd5b50565b60008135905061359b81613575565b92915050565b6000602082840312156135b7576135b66134a6565b5b60006135c58482850161358c565b91505092915050565b600081519050919050565b600082825260208201905092915050565b60005b838110156136085780820151818401526020810190506135ed565b60008484015250505050565b6000601f19601f8301169050919050565b6000613630826135ce565b61363a81856135d9565b935061364a8185602086016135ea565b61365381613614565b840191505092915050565b600060208201905081810360008301526136788184613625565b905092915050565b600073ffffffffffffffffffffffffffffffffffffffff82169050919050565b60006136ab82613680565b9050919050565b6136bb816136a0565b82525050565b60006020820190506136d660008301846136b2565b92915050565b6136e5816136a0565b81146136f057600080fd5b50565b600081359050613702816136dc565b92915050565b6000806040838503121561371f5761371e6134a6565b5b600061372d858286016136f3565b925050602061373e8582860161358c565b9150509250929050565b600081519050919050565b600082825260208201905092915050565b6000819050602082019050919050565b600082825260208201905092915050565b6000613790826135ce565b61379a8185613774565b93506137aa8185602086016135ea565b6137b381613614565b840191505092915050565b60006137ca8383613785565b905092915050565b6000602082019050919050565b60006137ea82613748565b6137f48185613753565b93508360208202850161380685613764565b8060005b85811015613842578484038952815161382385826137be565b945061382e836137d2565b925060208a0199505060018101905061380a565b50829750879550505050505092915050565b6000602082019050818103600083015261386e81846137df565b905092915050565b61387f8161356b565b82525050565b600060208201905061389a6000830184613876565b92915050565b600080fd5b7f4e487b7100000000000000000000000000000000000000000000000000000000600052604160045260246000fd5b6138dd82613614565b810181811067ffffffffffffffff821117156138fc576138fb6138a5565b5b80604052505050565b600061390f61349c565b905061391b82826138d4565b919050565b600067ffffffffffffffff82111561393b5761393a6138a5565b5b602082029050602081019050919050565b600080fd5b600061396461395f84613920565b613905565b905080838252602082019050602084028301858111156139875761398661394c565b5b835b818110156139b0578061399c888261358c565b845260208401935050602081019050613989565b5050509392505050565b600082601f8301126139cf576139ce6138a0565b5b81356139df848260208601613951565b91505092915050565b6000602082840312156139fe576139fd6134a6565b5b600082013567ffffffffffffffff811115613a1c57613a1b6134ab565b5b613a28848285016139ba565b91505092915050565b600081519050919050565b600082825260208201905092915050565b6000819050602082019050919050565b613a668161356b565b82525050565b600060c083016000830151613a846000860182613a5d565b506020830151613a976020860182613a5d565b506040830151613aaa6040860182613a5d565b506060830151613abd6060860182613a5d565b506080830151613ad06080860182613a5d565b5060a083015184820360a0860152613ae88282613785565b9150508091505092915050565b6000613b018383613a6c565b905092915050565b6000602082019050919050565b6000613b2182613a31565b613b2b8185613a3c565b935083602082028501613b3d85613a4d565b8060005b85811015613b795784840389528151613b5a8582613af5565b9450613b6583613b09565b925060208a01995050600181019050613b41565b50829750879550505050505092915050565b60006020820190508181036000830152613ba58184613b16565b905092915050565b600080600060608486031215613bc657613bc56134a6565b5b6000613bd4868287016136f3565b9350506020613be5868287016136f3565b9250506040613bf68682870161358c565b9150509250925092565b600081519050919050565b600082825260208201905092915050565b6000819050602082019050919050565b6000613c388383613a5d565b60208301905092915050565b6000602082019050919050565b6000613c5c82613c00565b613c668185613c0b565b9350613c7183613c1c565b8060005b83811015613ca2578151613c898882613c2c565b9750613c9483613c44565b925050600181019050613c75565b5085935050505092915050565b60006020820190508181036000830152613cc98184613c51565b905092915050565b600060208284031215613ce757613ce66134a6565b5b6000613cf5848285016136f3565b91505092915050565b7f4e487b7100000000000000000000000000000000000000000000000000000000600052602160045260246000fd5b60038110613d3e57613d3d613cfe565b5b50565b6000819050613d4f82613d2d565b919050565b6000613d5f82613d41565b9050919050565b613d6f81613d54565b82525050565b6000602082019050613d8a6000830184613d66565b92915050565b6000819050919050565b6000613db5613db0613dab84613680565b613d90565b613680565b9050919050565b6000613dc782613d9a565b9050919050565b6000613dd982613dbc565b9050919050565b613de981613dce565b82525050565b6000602082019050613e046000830184613de0565b92915050565b613e1381613535565b8114613e1e57600080fd5b50565b600081359050613e3081613e0a565b92915050565b60008060408385031215613e4d57613e4c6134a6565b5b6000613e5b858286016136f3565b9250506020613e6c85828601613e21565b9150509250929050565b600080fd5b600067ffffffffffffffff821115613e9657613e956138a5565b5b613e9f82613614565b9050602081019050919050565b82818337600083830152505050565b6000613ece613ec984613e7b565b613905565b905082815260208101848484011115613eea57613ee9613e76565b5b613ef5848285613eac565b509392505050565b600082601f830112613f1257613f116138a0565b5b8135613f22848260208601613ebb565b91505092915050565b60008060008060808587031215613f4557613f446134a6565b5b6000613f53878288016136f3565b9450506020613f64878288016136f3565b9350506040613f758782880161358c565b925050606085013567ffffffffffffffff811115613f9657613f956134ab565b5b613fa287828801613efd565b91505092959194509250565b600080fd5b60008083601f840112613fc957613fc86138a0565b5b8235905067ffffffffffffffff811115613fe657613fe5613fae565b5b6020830191508360208202830111156140025761400161394c565b5b9250929050565b600080600060408486031215614022576140216134a6565b5b600084013567ffffffffffffffff8111156140405761403f6134ab565b5b61404c86828701613fb3565b9350935050602061405f8682870161358c565b9150509250925092565b600060c0830160008301516140816000860182613a5d565b5060208301516140946020860182613a5d565b5060408301516140a76040860182613a5d565b5060608301516140ba6060860182613a5d565b5060808301516140cd6080860182613a5d565b5060a083015184820360a08601526140e58282613785565b9150508091505092915050565b6000602082019050818103600083015261410c8184614069565b905092915050565b6000806040838503121561412b5761412a6134a6565b5b6000614139858286016136f3565b925050602061414a858286016136f3565b9150509250929050565b7f4e487b7100000000000000000000000000000000000000000000000000000000600052602260045260246000fd5b6000600282049050600182168061419b57607f821691505b6020821081036141ae576141ad614154565b5b50919050565b7f4e487b7100000000000000000000000000000000000000000000000000000000600052603260045260246000fd5b7f4e487b7100000000000000000000000000000000000000000000000000000000600052601160045260246000fd5b600061421d8261356b565b91507fffffffffffffffffffffffffffffffffffffffffffffffffffffffffffffffff820361424f5761424e6141e3565b5b600182019050919050565b60008160011c9050919050565b6000808291508390505b60018511156142b15780860481111561428d5761428c6141e3565b5b600185161561429c5780820291505b80810290506142aa8561425a565b9450614271565b94509492505050565b6000826142ca5760019050614386565b816142d85760009050614386565b81600181146142ee57600281146142f857614327565b6001915050614386565b60ff84111561430a576143096141e3565b5b8360020a915084821115614321576143206141e3565b5b50614386565b5060208310610133831016604e8410600b841016171561435c5782820a905083811115614357576143566141e3565b5b614386565b6143698484846001614267565b925090508184048111156143805761437f6141e3565b5b81810290505b9392505050565b60006143988261356b565b91506143a38361356b565b92506143d07fffffffffffffffffffffffffffffffffffffffffffffffffffffffffffffffff84846142ba565b905092915050565b7f4e487b7100000000000000000000000000000000000000000000000000000000600052601260045260246000fd5b60006144128261356b565b915061441d8361356b565b92508261442d5761442c6143d8565b5b828204905092915050565b60006144438261356b565b915061444e8361356b565b9250828201905080821115614466576144656141e3565b5b92915050565b60006144778261356b565b91506144828361356b565b9250817fffffffffffffffffffffffffffffffffffffffffffffffffffffffffffffffff04831182151516156144bb576144ba6141e3565b5b828202905092915050565b60006144d18261356b565b91506144dc8361356b565b92508282039050818111156144f4576144f36141e3565b5b92915050565b7f4d696e7420697320636c6f736564000000000000000000000000000000000000600082015250565b6000614530600e836135d9565b915061453b826144fa565b602082019050919050565b6000602082019050818103600083015261455f81614523565b9050919050565b7f496e73756666696369656e742066656500000000000000000000000000000000600082015250565b600061459c6010836135d9565b91506145a782614566565b602082019050919050565b600060208201905081810360008301526145cb8161458f565b9050919050565b600081905092915050565b50565b60006145ed6000836145d2565b91506145f8826145dd565b600082019050919050565b600061460e826145e0565b9150819050919050565b7f526566756e64206661696c656400000000000000000000000000000000000000600082015250565b600061464e600d836135d9565b915061465982614618565b602082019050919050565b6000602082019050818103600083015261467d81614641565b9050919050565b7f45786365656473206d617820737570706c790000000000000000000000000000600082015250565b60006146ba6012836135d9565b91506146c582614684565b602082019050919050565b600060208201905081810360008301526146e9816146ad565b9050919050565b600081905092915050565b7f426c61636b486f6c652023000000000000000000000000000000000000000000600082015250565b6000614731600b836146f0565b915061473c826146fb565b600b82019050919050565b6000614752826135ce565b61475c81856146f0565b935061476c8185602086016135ea565b80840191505092915050565b600061478382614724565b915061478f8284614747565b915081905092915050565b600067ffffffffffffffff8211156147b5576147b46138a5565b5b6147be82613614565b9050602081019050919050565b60006147de6147d98461479a565b613905565b9050828152602081018484840111156147fa576147f9613e76565b5b6148058482856135ea565b509392505050565b600082601f830112614822576148216138a0565b5b81516148328482602086016147cb565b91505092915050565b600060208284031215614851576148506134a6565b5b600082015167ffffffffffffffff81111561486f5761486e6134ab565b5b61487b8482850161480d565b91505092915050565b7f5b00000000000000000000000000000000000000000000000000000000000000815250565b7f7b2274726169745f74797065223a20224c6576656c222c202276616c7565223a60008201527f2000000000000000000000000000000000000000000000000000000000000000602082015250565b60006149066021836146f0565b9150614911826148aa565b602182019050919050565b7f7d2c000000000000000000000000000000000000000000000000000000000000815250565b7f7b2274726169745f74797065223a20224e616d65222c202276616c7565223a2060008201527f2200000000000000000000000000000000000000000000000000000000000000602082015250565b600061499e6021836146f0565b91506149a982614942565b602182019050919050565b7f227d2c0000000000000000000000000000000000000000000000000000000000815250565b7f7b2274726169745f74797065223a20224d617373222c202276616c7565223a20815250565b7f7d5d000000000000000000000000000000000000000000000000000000000000815250565b6000614a3182614884565b600182019150614a40826148f9565b9150614a4c8286614747565b9150614a578261491c565b600282019150614a6682614991565b9150614a728285614747565b9150614a7d826149b4565b600382019150614a8c826149da565b602082019150614a9c8284614747565b9150614aa782614a00565b600282019150819050949350505050565b7f7b226e616d65223a220000000000000000000000000000000000000000000000600082015250565b6000614aee6009836146f0565b9150614af982614ab8565b600982019050919050565b7f222c226465736372697074696f6e223a22000000000000000000000000000000600082015250565b6000614b3a6011836146f0565b9150614b4582614b04565b601182019050919050565b7f222c000000000000000000000000000000000000000000000000000000000000600082015250565b6000614b866002836146f0565b9150614b9182614b50565b600282019050919050565b7f2261747472696275746573223a20000000000000000000000000000000000000600082015250565b6000614bd2600e836146f0565b9150614bdd82614b9c565b600e82019050919050565b7f2c2022696d616765223a2022646174613a696d6167652f7376672b786d6c3b6260008201527f61736536342c0000000000000000000000000000000000000000000000000000602082015250565b6000614c446026836146f0565b9150614c4f82614be8565b602682019050919050565b7f227d000000000000000000000000000000000000000000000000000000000000600082015250565b6000614c906002836146f0565b9150614c9b82614c5a565b600282019050919050565b6000614cb182614ae1565b9150614cbd8287614747565b9150614cc882614b2d565b9150614cd48286614747565b9150614cdf82614b79565b9150614cea82614bc5565b9150614cf68285614747565b9150614d0182614c37565b9150614d0d8284614747565b9150614d1882614c83565b915081905095945050505050565b7f646174613a6170706c69636174696f6e2f6a736f6e3b6261736536342c000000600082015250565b6000614d5c601d836146f0565b9150614d6782614d26565b601d82019050919050565b6000614d7d82614d4f565b9150614d898284614747565b915081905092915050565b600081519050614da381613575565b92915050565b600060208284031215614dbf57614dbe6134a6565b5b6000614dcd84828501614d94565b91505092915050565b7f4d657267696e67206e6f7420656e61626c656400000000000000000000000000600082015250565b6000614e0c6013836135d9565b9150614e1782614dd6565b602082019050919050565b60006020820190508181036000830152614e3b81614dff565b9050919050565b7f4d757374206d65726765206174206c65617374203220746f6b656e7300000000600082015250565b6000614e78601c836135d9565b9150614e8382614e42565b602082019050919050565b60006020820190508181036000830152614ea781614e6b565b9050919050565b7f4d757374206f776e20616c6c20746f6b656e7320287461726765742900000000600082015250565b6000614ee4601c836135d9565b9150614eef82614eae565b602082019050919050565b60006020820190508181036000830152614f1381614ed7565b9050919050565b7f4d757374206f776e20616c6c20746f6b656e7320286275726e29000000000000600082015250565b6000614f50601a836135d9565b9150614f5b82614f1a565b602082019050919050565b60006020820190508181036000830152614f7f81614f43565b9050919050565b7f4f776e61626c653a206e6577206f776e657220697320746865207a65726f206160008201527f6464726573730000000000000000000000000000000000000000000000000000602082015250565b6000614fe26026836135d9565b9150614fed82614f86565b604082019050919050565b6000602082019050818103600083015261501181614fd5565b9050919050565b7f4f776e61626c653a2063616c6c6572206973206e6f7420746865206f776e6572600082015250565b600061504e6020836135d9565b915061505982615018565b602082019050919050565b6000602082019050818103600083015261507d81615041565b9050919050565b600081519050919050565b600082825260208201905092915050565b60006150ab82615084565b6150b5818561508f565b93506150c58185602086016135ea565b6150ce81613614565b840191505092915050565b60006080820190506150ee60008301876136b2565b6150fb60208301866136b2565b6151086040830185613876565b818103606083015261511a81846150a0565b905095945050505050565b600081519050615134816134dc565b92915050565b6000602082840312156151505761514f6134a6565b5b600061515e84828501615125565b91505092915050565b600060ff82169050919050565b600061517f82615167565b915061518a83615167565b9250828201905060ff8111156151a3576151a26141e3565b5b9291505056fe46756c6c79206f6e2d636861696e2c2070726f6365647572616c6c792067656e6572617465642c20616e696d6174656420626c61636b20686f6c65732e4142434445464748494a4b4c4d4e4f505152535455565758595a6162636465666768696a6b6c6d6e6f707172737475767778797a303132333435363738392b2fa2646970667358221220935cd8e4da53ce16f165e9a89297d9bae64b0c8ba5955df9620d430a70f9734364736f6c63430008100033",
  "libraries": {
    "utils": "0x80893606b8DC27d5aF15ae07587Ba4790586A6a8"
  },
  "devdoc": {
    "kind": "dev",
    "methods": {
      "airdrop(address[],uint256)": {
        "params": {
          "_quantity": "Quantity of tokens to airdrop to each recipient.",
          "_recipients": "List of recipients to receive the airdrop."
        }
      },
      "approve(address,uint256)": {
        "details": "Gives permission to `to` to transfer `tokenId` token to another account. The approval is cleared when the token is transferred. Only a single account can be approved at a time, so approving the zero address clears previous approvals. Requirements: - The caller must own the token or be an approved operator. - `tokenId` must exist. Emits an {Approval} event."
      },
      "balanceOf(address)": {
        "details": "Returns the number of tokens in `owner`'s account."
      },
      "blackHoleForTokenId(uint256)": {
        "params": {
          "_tokenId": "ID of the token."
        },
        "returns": {
          "_0": "BlackHole Structured representation of the token."
        }
      },
      "constructor": {
        "details": "Constructs a new instance of the contract.",
        "params": {
          "_name": "Name of the ERC721 token.",
          "_price": "Price of each token in wei.",
          "_renderer": "Address of the Renderer contract.",
          "_symbol": "Symbol of the ERC721 token."
        }
      },
      "getAdjustmentForMass(uint256)": {
        "params": {
          "_mass": "Mass to calculate the adjustment for."
        },
        "returns": {
          "_0": "Adjustment."
        }
      },
      "getApproved(uint256)": {
        "details": "Returns the account approved for `tokenId` token. Requirements: - `tokenId` must exist."
      },
      "isApprovedForAll(address,address)": {
        "details": "Returns if the `operator` is allowed to manage all of the assets of `owner`. See {setApprovalForAll}."
      },
      "merge(uint256[])": {
        "params": {
          "tokens": "List of tokens to merge. The first token in the list is the target."
        }
      },
      "mint(uint256)": {
        "params": {
          "_quantity": "Quantity of tokens to mint."
        }
      },
      "name()": {
        "details": "Returns the token collection name."
      },
      "nameForBlackHoleLevel(uint256)": {
        "params": {
          "_level": "Level of the black hole."
        },
        "returns": {
          "_0": "name of the black hole level."
        }
      },
      "owner()": {
        "details": "Returns the address of the current owner."
      },
      "ownerOf(uint256)": {
        "details": "Returns the owner of the `tokenId` token. Requirements: - `tokenId` must exist."
      },
      "renounceOwnership()": {
        "details": "Leaves the contract without owner. It will not be possible to call `onlyOwner` functions anymore. Can only be called by the current owner. NOTE: Renouncing ownership will leave the contract without an owner, thereby removing any functionality that is only available to the owner."
      },
      "safeTransferFrom(address,address,uint256)": {
        "details": "Equivalent to `safeTransferFrom(from, to, tokenId, '')`."
      },
      "safeTransferFrom(address,address,uint256,bytes)": {
        "details": "Safely transfers `tokenId` token from `from` to `to`. Requirements: - `from` cannot be the zero address. - `to` cannot be the zero address. - `tokenId` token must exist and be owned by `from`. - If the caller is not `from`, it must be approved to move this token by either {approve} or {setApprovalForAll}. - If `to` refers to a smart contract, it must implement {IERC721Receiver-onERC721Received}, which is called upon a safe transfer. Emits a {Transfer} event."
      },
      "setApprovalForAll(address,bool)": {
        "details": "Approve or remove `operator` as an operator for the caller. Operators can call {transferFrom} or {safeTransferFrom} for any token owned by the caller. Requirements: - The `operator` cannot be the caller. Emits an {ApprovalForAll} event."
      },
      "setMergingDelay(uint256)": {
        "params": {
          "_mergingDelay": "Delay in seconds before a token can be merged after the timed sale."
        }
      },
      "setPrice(uint256)": {
        "params": {
          "_price": "Price of each token in wei."
        }
      },
      "setTimedSaleDuration(uint256)": {
        "params": {
          "_timedSaleDuration": "Duration of the timed sale in seconds."
        }
      },
      "setTimedSalePrice(uint256)": {
        "params": {
          "_timedSalePrice": "Price of each token in wei."
        }
      },
      "supportsInterface(bytes4)": {
        "details": "Returns true if this contract implements the interface defined by `interfaceId`. See the corresponding [EIP section](https://eips.ethereum.org/EIPS/eip-165#how-interfaces-are-identified) to learn more about how these ids are created. This function call must use less than 30000 gas."
      },
      "symbol()": {
        "details": "Returns the token collection symbol."
      },
      "tokenURI(uint256)": {
        "params": {
          "_tokenId": "ID of the token to get the URI for."
        },
        "returns": {
          "_0": "Token URI."
        }
      },
      "totalSupply()": {
        "details": "Returns the total number of tokens in existence. Burned tokens will reduce the count. To get the total number of tokens minted, please see {_totalMinted}."
      },
      "transferFrom(address,address,uint256)": {
        "details": "Transfers `tokenId` from `from` to `to`. Requirements: - `from` cannot be the zero address. - `to` cannot be the zero address. - `tokenId` token must be owned by `from`. - If the caller is not `from`, it must be approved to move this token by either {approve} or {setApprovalForAll}. Emits a {Transfer} event."
      },
      "transferOwnership(address)": {
        "details": "Transfers ownership of the contract to a new account (`newOwner`). Can only be called by the current owner."
      }
    },
    "version": 1
  },
  "userdoc": {
    "errors": {
      "ApprovalCallerNotOwnerNorApproved()": [
        {
          "notice": "The caller must own the token or be an approved operator."
        }
      ],
      "ApprovalQueryForNonexistentToken()": [
        {
          "notice": "The token does not exist."
        }
      ],
      "BalanceQueryForZeroAddress()": [
        {
          "notice": "Cannot query the balance for the zero address."
        }
      ],
      "MintERC2309QuantityExceedsLimit()": [
        {
          "notice": "The `quantity` minted with ERC2309 exceeds the safety limit."
        }
      ],
      "MintToZeroAddress()": [
        {
          "notice": "Cannot mint to the zero address."
        }
      ],
      "MintZeroQuantity()": [
        {
          "notice": "The quantity of tokens minted must be more than zero."
        }
      ],
      "OwnerQueryForNonexistentToken()": [
        {
          "notice": "The token does not exist."
        }
      ],
      "OwnershipNotInitializedForExtraData()": [
        {
          "notice": "The `extraData` cannot be set on an unintialized ownership slot."
        }
      ],
      "TransferCallerNotOwnerNorApproved()": [
        {
          "notice": "The caller must own the token or be an approved operator."
        }
      ],
      "TransferFromIncorrectOwner()": [
        {
          "notice": "The token must be owned by `from`."
        }
      ],
      "TransferToNonERC721ReceiverImplementer()": [
        {
          "notice": "Cannot safely transfer to a contract that does not implement the ERC721Receiver interface."
        }
      ],
      "TransferToZeroAddress()": [
        {
          "notice": "Cannot transfer to the zero address."
        }
      ],
      "URIQueryForNonexistentToken()": [
        {
          "notice": "The token does not exist."
        }
      ]
    },
    "kind": "user",
    "methods": {
      "airdrop(address[],uint256)": {
        "notice": "Airdrops tokens to a list of recipients. Only callable by the contract owner."
      },
      "blackHoleForTokenId(uint256)": {
        "notice": "Get the structured representation of a token by its ID."
      },
      "getAdjustmentForMass(uint256)": {
        "notice": "Gets adjustment for a given mass."
      },
      "getMintState()": {
        "notice": "Returns the current mint state."
      },
      "getPrice()": {
        "notice": "Gets the current price of a token."
      },
      "isMergingEnabled()": {
        "notice": "Returns whether merging is enabled or not."
      },
      "merge(uint256[])": {
        "notice": "Merges a list of tokens into a single token."
      },
      "mint(uint256)": {
        "notice": "Mints new tokens for the caller. If the caller mints tokens across the TIMED_SALE_THRESHOLD, it will mint as many as it can with the given amount of ETH."
      },
      "nameForBlackHoleLevel(uint256)": {
        "notice": "Returns the name of a black hole level."
      },
      "setMergingDelay(uint256)": {
        "notice": "Sets the merging delay."
      },
      "setPrice(uint256)": {
        "notice": "Sets the price of each token in wei."
      },
      "setTimedSaleDuration(uint256)": {
        "notice": "Sets the timed sale duration."
      },
      "setTimedSalePrice(uint256)": {
        "notice": "Sets the price of a token during the timed sale."
      },
      "tokenURI(uint256)": {
        "notice": "Returns the token URI for a given token ID."
      },
      "withdraw()": {
        "notice": "Withdraws the contract's balance. Only callable by the contract owner."
      }
    },
    "version": 1
  },
  "storageLayout": {
    "storage": [
      {
        "astId": 3017,
        "contract": "contracts/BlackHoles.sol:BlackHoles",
        "label": "_currentIndex",
        "offset": 0,
        "slot": "0",
        "type": "t_uint256"
      },
      {
        "astId": 3019,
        "contract": "contracts/BlackHoles.sol:BlackHoles",
        "label": "_burnCounter",
        "offset": 0,
        "slot": "1",
        "type": "t_uint256"
      },
      {
        "astId": 3021,
        "contract": "contracts/BlackHoles.sol:BlackHoles",
        "label": "_name",
        "offset": 0,
        "slot": "2",
        "type": "t_string_storage"
      },
      {
        "astId": 3023,
        "contract": "contracts/BlackHoles.sol:BlackHoles",
        "label": "_symbol",
        "offset": 0,
        "slot": "3",
        "type": "t_string_storage"
      },
      {
        "astId": 3027,
        "contract": "contracts/BlackHoles.sol:BlackHoles",
        "label": "_packedOwnerships",
        "offset": 0,
        "slot": "4",
        "type": "t_mapping(t_uint256,t_uint256)"
      },
      {
        "astId": 3031,
        "contract": "contracts/BlackHoles.sol:BlackHoles",
        "label": "_packedAddressData",
        "offset": 0,
        "slot": "5",
        "type": "t_mapping(t_address,t_uint256)"
      },
      {
        "astId": 3036,
        "contract": "contracts/BlackHoles.sol:BlackHoles",
        "label": "_tokenApprovals",
        "offset": 0,
        "slot": "6",
        "type": "t_mapping(t_uint256,t_struct(TokenApprovalRef)2949_storage)"
      },
      {
        "astId": 3042,
        "contract": "contracts/BlackHoles.sol:BlackHoles",
        "label": "_operatorApprovals",
        "offset": 0,
        "slot": "7",
        "type": "t_mapping(t_address,t_mapping(t_address,t_bool))"
      },
      {
        "astId": 7,
        "contract": "contracts/BlackHoles.sol:BlackHoles",
        "label": "_owner",
        "offset": 0,
        "slot": "8",
        "type": "t_address"
      },
      {
        "astId": 170,
        "contract": "contracts/BlackHoles.sol:BlackHoles",
        "label": "BLACK_HOLE_NAMES",
        "offset": 0,
        "slot": "9",
        "type": "t_array(t_string_storage)dyn_storage"
      },
      {
        "astId": 172,
        "contract": "contracts/BlackHoles.sol:BlackHoles",
        "label": "price",
        "offset": 0,
        "slot": "10",
        "type": "t_uint256"
      },
      {
        "astId": 174,
        "contract": "contracts/BlackHoles.sol:BlackHoles",
        "label": "timedSalePrice",
        "offset": 0,
        "slot": "11",
        "type": "t_uint256"
      },
      {
        "astId": 176,
        "contract": "contracts/BlackHoles.sol:BlackHoles",
        "label": "timedSaleEndTimestamp",
        "offset": 0,
        "slot": "12",
        "type": "t_uint256"
      },
      {
        "astId": 179,
        "contract": "contracts/BlackHoles.sol:BlackHoles",
        "label": "timedSaleDuration",
        "offset": 0,
        "slot": "13",
        "type": "t_uint256"
      },
      {
        "astId": 182,
        "contract": "contracts/BlackHoles.sol:BlackHoles",
        "label": "mergingDelay",
        "offset": 0,
        "slot": "14",
        "type": "t_uint256"
      },
      {
        "astId": 186,
        "contract": "contracts/BlackHoles.sol:BlackHoles",
        "label": "massesConsumed",
        "offset": 0,
        "slot": "15",
        "type": "t_mapping(t_uint256,t_uint256)"
      },
      {
        "astId": 189,
        "contract": "contracts/BlackHoles.sol:BlackHoles",
        "label": "renderer",
        "offset": 0,
        "slot": "16",
        "type": "t_contract(Renderer)2470"
      }
    ],
    "types": {
      "t_address": {
        "encoding": "inplace",
        "label": "address",
        "numberOfBytes": "20"
      },
      "t_array(t_string_storage)dyn_storage": {
        "base": "t_string_storage",
        "encoding": "dynamic_array",
        "label": "string[]",
        "numberOfBytes": "32"
      },
      "t_bool": {
        "encoding": "inplace",
        "label": "bool",
        "numberOfBytes": "1"
      },
      "t_contract(Renderer)2470": {
        "encoding": "inplace",
        "label": "contract Renderer",
        "numberOfBytes": "20"
      },
      "t_mapping(t_address,t_bool)": {
        "encoding": "mapping",
        "key": "t_address",
        "label": "mapping(address => bool)",
        "numberOfBytes": "32",
        "value": "t_bool"
      },
      "t_mapping(t_address,t_mapping(t_address,t_bool))": {
        "encoding": "mapping",
        "key": "t_address",
        "label": "mapping(address => mapping(address => bool))",
        "numberOfBytes": "32",
        "value": "t_mapping(t_address,t_bool)"
      },
      "t_mapping(t_address,t_uint256)": {
        "encoding": "mapping",
        "key": "t_address",
        "label": "mapping(address => uint256)",
        "numberOfBytes": "32",
        "value": "t_uint256"
      },
      "t_mapping(t_uint256,t_struct(TokenApprovalRef)2949_storage)": {
        "encoding": "mapping",
        "key": "t_uint256",
        "label": "mapping(uint256 => struct ERC721A.TokenApprovalRef)",
        "numberOfBytes": "32",
        "value": "t_struct(TokenApprovalRef)2949_storage"
      },
      "t_mapping(t_uint256,t_uint256)": {
        "encoding": "mapping",
        "key": "t_uint256",
        "label": "mapping(uint256 => uint256)",
        "numberOfBytes": "32",
        "value": "t_uint256"
      },
      "t_string_storage": {
        "encoding": "bytes",
        "label": "string",
        "numberOfBytes": "32"
      },
      "t_struct(TokenApprovalRef)2949_storage": {
        "encoding": "inplace",
        "label": "struct ERC721A.TokenApprovalRef",
        "members": [
          {
            "astId": 2948,
            "contract": "contracts/BlackHoles.sol:BlackHoles",
            "label": "value",
            "offset": 0,
            "slot": "0",
            "type": "t_address"
          }
        ],
        "numberOfBytes": "32"
      },
      "t_uint256": {
        "encoding": "inplace",
        "label": "uint256",
        "numberOfBytes": "32"
      }
    }
  }
}