{
  "address": "0x80893606b8DC27d5aF15ae07587Ba4790586A6a8",
  "abi": [
    {
      "inputs": [
        {
          "internalType": "bytes",
          "name": "_input",
          "type": "bytes"
        }
      ],
      "name": "assemblyKeccak",
      "outputs": [
        {
          "internalType": "bytes32",
          "name": "x",
          "type": "bytes32"
        }
      ],
      "stateMutability": "pure",
      "type": "function"
    },
    {
      "inputs": [
        {
          "internalType": "uint256[3]",
          "name": "_hsl",
          "type": "uint256[3]"
        }
      ],
      "name": "getHslString",
      "outputs": [
        {
          "internalType": "string",
          "name": "",
          "type": "string"
        }
      ],
      "stateMutability": "pure",
      "type": "function"
    },
    {
      "inputs": [
        {
          "internalType": "uint256",
          "name": "_packedHsl",
          "type": "uint256"
        }
      ],
      "name": "getHslString",
      "outputs": [
        {
          "internalType": "string",
          "name": "",
          "type": "string"
        }
      ],
      "stateMutability": "pure",
      "type": "function"
    },
    {
      "inputs": [
        {
          "internalType": "uint256",
          "name": "_packedHsl",
          "type": "uint256"
        }
      ],
      "name": "unpackHsl",
      "outputs": [
        {
          "internalType": "uint256[3]",
          "name": "",
          "type": "uint256[3]"
        }
      ],
      "stateMutability": "pure",
      "type": "function"
    }
  ],
  "transactionHash": "0x4286de4e40d5a11457d0ce9947e54c57e0d924101ad066e16885966a41d27f8c",
  "args": [],
  "numDeployments": 1,
  "solcInputHash": "cfc764dbb3ae053c2e0e36196439c7c1",
  "bytecode": "0x610c5a610053600b82828239805160001a607314610046577f4e487b7100000000000000000000000000000000000000000000000000000000600052600060045260246000fd5b30600052607381538281f3fe73000000000000000000000000000000000000000030146080604052600436106100565760003560e01c8063204b34d81461005b5780632f2b565e1461008b5780636fdfe6ea146100bb578063ad4f5fd4146100eb575b600080fd5b61007560048036038101906100709190610592565b61011b565b604051610082919061063e565b60405180910390f35b6100a560048036038101906100a09190610660565b6101a8565b6040516100b2919061063e565b60405180910390f35b6100d560048036038101906100d09190610660565b610205565b6040516100e29190610738565b60405180910390f35b61010560048036038101906101009190610808565b610247565b604051610112919061086a565b60405180910390f35b606061013e8260006003811061013457610133610885565b5b6020020151610257565b61015f8360016003811061015557610154610885565b5b6020020151610257565b6101808460026003811061017657610175610885565b5b6020020151610257565b60405160200161019293929190610a20565b6040516020818303038152906040529050919050565b60606101bb610fff601884901c16610257565b6101cc610fff600c85901c16610257565b6101dd610fff600086901c16610257565b6040516020016101ef93929190610a20565b6040516020818303038152906040529050919050565b61020d6103df565b6040518060600160405280610fff601885901c168152602001610fff600c85901c168152602001610fff600085901c168152509050919050565b6000815160208301209050919050565b60606000820361029e576040518060400160405280600181526020017f300000000000000000000000000000000000000000000000000000000000000081525090506103da565b600082905060005b600082146102d05780806102b990610aac565b915050600a826102c99190610b23565b91506102a6565b60008167ffffffffffffffff8111156102ec576102eb61042b565b5b6040519080825280601f01601f19166020018201604052801561031e5781602001600182028036833780820191505090505b50905060008290505b600086146103d25760018161033c9190610b54565b90506000600a808861034e9190610b23565b6103589190610b88565b876103639190610b54565b603061036f9190610bef565b905060008160f81b90508084848151811061038d5761038c610885565b5b60200101907effffffffffffffffffffffffffffffffffffffffffffffffffffffffffffff1916908160001a905350600a886103c99190610b23565b97505050610327565b819450505050505b919050565b6040518060600160405280600390602082028036833780820191505090505090565b6000604051905090565b600080fd5b600080fd5b600080fd5b6000601f19601f8301169050919050565b7f4e487b7100000000000000000000000000000000000000000000000000000000600052604160045260246000fd5b6104638261041a565b810181811067ffffffffffffffff821117156104825761048161042b565b5b80604052505050565b6000610495610401565b90506104a1828261045a565b919050565b600067ffffffffffffffff8211156104c1576104c061042b565b5b602082029050919050565b600080fd5b6000819050919050565b6104e4816104d1565b81146104ef57600080fd5b50565b600081359050610501816104db565b92915050565b600061051a610515846104a6565b61048b565b90508060208402830185811115610534576105336104cc565b5b835b8181101561055d578061054988826104f2565b845260208401935050602081019050610536565b5050509392505050565b600082601f83011261057c5761057b610415565b5b6003610589848285610507565b91505092915050565b6000606082840312156105a8576105a761040b565b5b60006105b684828501610567565b91505092915050565b600081519050919050565b600082825260208201905092915050565b60005b838110156105f95780820151818401526020810190506105de565b60008484015250505050565b6000610610826105bf565b61061a81856105ca565b935061062a8185602086016105db565b6106338161041a565b840191505092915050565b600060208201905081810360008301526106588184610605565b905092915050565b6000602082840312156106765761067561040b565b5b6000610684848285016104f2565b91505092915050565b600060039050919050565b600081905092915050565b6000819050919050565b6106b6816104d1565b82525050565b60006106c883836106ad565b60208301905092915050565b6000602082019050919050565b6106ea8161068d565b6106f48184610698565b92506106ff826106a3565b8060005b8381101561073057815161071787826106bc565b9650610722836106d4565b925050600181019050610703565b505050505050565b600060608201905061074d60008301846106e1565b92915050565b600080fd5b600067ffffffffffffffff8211156107735761077261042b565b5b61077c8261041a565b9050602081019050919050565b82818337600083830152505050565b60006107ab6107a684610758565b61048b565b9050828152602081018484840111156107c7576107c6610753565b5b6107d2848285610789565b509392505050565b600082601f8301126107ef576107ee610415565b5b81356107ff848260208601610798565b91505092915050565b60006020828403121561081e5761081d61040b565b5b600082013567ffffffffffffffff81111561083c5761083b610410565b5b610848848285016107da565b91505092915050565b6000819050919050565b61086481610851565b82525050565b600060208201905061087f600083018461085b565b92915050565b7f4e487b7100000000000000000000000000000000000000000000000000000000600052603260045260246000fd5b600081905092915050565b7f68736c2800000000000000000000000000000000000000000000000000000000600082015250565b60006108f56004836108b4565b9150610900826108bf565b600482019050919050565b6000610916826105bf565b61092081856108b4565b93506109308185602086016105db565b80840191505092915050565b7f2c00000000000000000000000000000000000000000000000000000000000000600082015250565b60006109726001836108b4565b915061097d8261093c565b600182019050919050565b7f252c000000000000000000000000000000000000000000000000000000000000600082015250565b60006109be6002836108b4565b91506109c982610988565b600282019050919050565b7f2529000000000000000000000000000000000000000000000000000000000000600082015250565b6000610a0a6002836108b4565b9150610a15826109d4565b600282019050919050565b6000610a2b826108e8565b9150610a37828661090b565b9150610a4282610965565b9150610a4e828561090b565b9150610a59826109b1565b9150610a65828461090b565b9150610a70826109fd565b9150819050949350505050565b7f4e487b7100000000000000000000000000000000000000000000000000000000600052601160045260246000fd5b6000610ab7826104d1565b91507fffffffffffffffffffffffffffffffffffffffffffffffffffffffffffffffff8203610ae957610ae8610a7d565b5b600182019050919050565b7f4e487b7100000000000000000000000000000000000000000000000000000000600052601260045260246000fd5b6000610b2e826104d1565b9150610b39836104d1565b925082610b4957610b48610af4565b5b828204905092915050565b6000610b5f826104d1565b9150610b6a836104d1565b9250828203905081811115610b8257610b81610a7d565b5b92915050565b6000610b93826104d1565b9150610b9e836104d1565b9250817fffffffffffffffffffffffffffffffffffffffffffffffffffffffffffffffff0483118215151615610bd757610bd6610a7d565b5b828202905092915050565b600060ff82169050919050565b6000610bfa82610be2565b9150610c0583610be2565b9250828201905060ff811115610c1e57610c1d610a7d565b5b9291505056fea264697066735822122048628e2d8e62c10c80e2903897282865a978e3e01659657218604bfaa1e617e364736f6c63430008100033",
  "devdoc": {
    "kind": "dev",
    "methods": {},
    "version": 1
  },
  "userdoc": {
    "kind": "user",
    "methods": {},
    "version": 1
  },
  "storageLayout": {
    "storage": [],
    "types": null
  }
}