{
  "address": "0xb750ecAAbC83A6b8C28A3b63B3027E9321c4CFC0",
  "abi": [
    {
      "inputs": [
        {
          "internalType": "string",
          "name": "_name",
          "type": "string"
        },
        {
          "internalType": "string",
          "name": "_symbol",
          "type": "string"
        },
        {
          "internalType": "uint256",
          "name": "_price",
          "type": "uint256"
        },
        {
          "internalType": "uint256",
          "name": "_timedSalePrice",
          "type": "uint256"
        },
        {
          "internalType": "address",
          "name": "_renderer",
          "type": "address"
        }
      ],
      "stateMutability": "nonpayable",
      "type": "constructor"
    },
    {
      "inputs": [],
      "name": "ApprovalCallerNotOwnerNorApproved",
      "type": "error"
    },
    {
      "inputs": [],
      "name": "ApprovalQueryForNonexistentToken",
      "type": "error"
    },
    {
      "inputs": [],
      "name": "BalanceQueryForZeroAddress",
      "type": "error"
    },
    {
      "inputs": [],
      "name": "MintERC2309QuantityExceedsLimit",
      "type": "error"
    },
    {
      "inputs": [],
      "name": "MintToZeroAddress",
      "type": "error"
    },
    {
      "inputs": [],
      "name": "MintZeroQuantity",
      "type": "error"
    },
    {
      "inputs": [],
      "name": "OwnerQueryForNonexistentToken",
      "type": "error"
    },
    {
      "inputs": [],
      "name": "OwnershipNotInitializedForExtraData",
      "type": "error"
    },
    {
      "inputs": [],
      "name": "TransferCallerNotOwnerNorApproved",
      "type": "error"
    },
    {
      "inputs": [],
      "name": "TransferFromIncorrectOwner",
      "type": "error"
    },
    {
      "inputs": [],
      "name": "TransferToNonERC721ReceiverImplementer",
      "type": "error"
    },
    {
      "inputs": [],
      "name": "TransferToZeroAddress",
      "type": "error"
    },
    {
      "inputs": [],
      "name": "URIQueryForNonexistentToken",
      "type": "error"
    },
    {
      "anonymous": false,
      "inputs": [
        {
          "indexed": true,
          "internalType": "address",
          "name": "owner",
          "type": "address"
        },
        {
          "indexed": true,
          "internalType": "address",
          "name": "approved",
          "type": "address"
        },
        {
          "indexed": true,
          "internalType": "uint256",
          "name": "tokenId",
          "type": "uint256"
        }
      ],
      "name": "Approval",
      "type": "event"
    },
    {
      "anonymous": false,
      "inputs": [
        {
          "indexed": true,
          "internalType": "address",
          "name": "owner",
          "type": "address"
        },
        {
          "indexed": true,
          "internalType": "address",
          "name": "operator",
          "type": "address"
        },
        {
          "indexed": false,
          "internalType": "bool",
          "name": "approved",
          "type": "bool"
        }
      ],
      "name": "ApprovalForAll",
      "type": "event"
    },
    {
      "anonymous": false,
      "inputs": [
        {
          "indexed": true,
          "internalType": "uint256",
          "name": "fromTokenId",
          "type": "uint256"
        },
        {
          "indexed": false,
          "internalType": "uint256",
          "name": "toTokenId",
          "type": "uint256"
        },
        {
          "indexed": true,
          "internalType": "address",
          "name": "from",
          "type": "address"
        },
        {
          "indexed": true,
          "internalType": "address",
          "name": "to",
          "type": "address"
        }
      ],
      "name": "ConsecutiveTransfer",
      "type": "event"
    },
    {
      "anonymous": false,
      "inputs": [
        {
          "indexed": false,
          "internalType": "uint256",
          "name": "_tokenId",
          "type": "uint256"
        }
      ],
      "name": "MetadataUpdate",
      "type": "event"
    },
    {
      "anonymous": false,
      "inputs": [
        {
          "indexed": true,
          "internalType": "address",
          "name": "previousOwner",
          "type": "address"
        },
        {
          "indexed": true,
          "internalType": "address",
          "name": "newOwner",
          "type": "address"
        }
      ],
      "name": "OwnershipTransferred",
      "type": "event"
    },
    {
      "anonymous": false,
      "inputs": [],
      "name": "TimedSaleStarted",
      "type": "event"
    },
    {
      "anonymous": false,
      "inputs": [
        {
          "indexed": true,
          "internalType": "address",
          "name": "from",
          "type": "address"
        },
        {
          "indexed": true,
          "internalType": "address",
          "name": "to",
          "type": "address"
        },
        {
          "indexed": true,
          "internalType": "uint256",
          "name": "tokenId",
          "type": "uint256"
        }
      ],
      "name": "Transfer",
      "type": "event"
    },
    {
      "inputs": [
        {
          "internalType": "uint256",
          "name": "",
          "type": "uint256"
        }
      ],
      "name": "BLACK_HOLE_NAMES",
      "outputs": [
        {
          "internalType": "string",
          "name": "",
          "type": "string"
        }
      ],
      "stateMutability": "view",
      "type": "function"
    },
    {
      "inputs": [],
      "name": "MAX_LEVEL",
      "outputs": [
        {
          "internalType": "uint256",
          "name": "",
          "type": "uint256"
        }
      ],
      "stateMutability": "view",
      "type": "function"
    },
    {
      "inputs": [],
      "name": "MAX_SUPPLY_OF_INTERSTELLAR",
      "outputs": [
        {
          "internalType": "uint256",
          "name": "",
          "type": "uint256"
        }
      ],
      "stateMutability": "view",
      "type": "function"
    },
    {
      "inputs": [
        {
          "internalType": "address[]",
          "name": "_recipients",
          "type": "address[]"
        },
        {
          "internalType": "uint256",
          "name": "_quantity",
          "type": "uint256"
        }
      ],
      "name": "airdrop",
      "outputs": [],
      "stateMutability": "payable",
      "type": "function"
    },
    {
      "inputs": [],
      "name": "allBlackHoleLevelNames",
      "outputs": [
        {
          "internalType": "string[]",
          "name": "",
          "type": "string[]"
        }
      ],
      "stateMutability": "view",
      "type": "function"
    },
    {
      "inputs": [
        {
          "internalType": "address",
          "name": "to",
          "type": "address"
        },
        {
          "internalType": "uint256",
          "name": "tokenId",
          "type": "uint256"
        }
      ],
      "name": "approve",
      "outputs": [],
      "stateMutability": "payable",
      "type": "function"
    },
    {
      "inputs": [
        {
          "internalType": "address",
          "name": "owner",
          "type": "address"
        }
      ],
      "name": "balanceOf",
      "outputs": [
        {
          "internalType": "uint256",
          "name": "",
          "type": "uint256"
        }
      ],
      "stateMutability": "view",
      "type": "function"
    },
    {
      "inputs": [
        {
          "internalType": "uint256",
          "name": "_tokenId",
          "type": "uint256"
        }
      ],
      "name": "blackHoleForTokenId",
      "outputs": [
        {
          "components": [
            {
              "internalType": "uint256",
              "name": "tokenId",
              "type": "uint256"
            },
            {
              "internalType": "uint256",
              "name": "level",
              "type": "uint256"
            },
            {
              "internalType": "uint256",
              "name": "size",
              "type": "uint256"
            },
            {
              "internalType": "uint256",
              "name": "mass",
              "type": "uint256"
            },
            {
              "internalType": "uint256",
              "name": "adjustment",
              "type": "uint256"
            },
            {
              "internalType": "string",
              "name": "name",
              "type": "string"
            }
          ],
          "internalType": "struct BlackHole",
          "name": "",
          "type": "tuple"
        }
      ],
      "stateMutability": "view",
      "type": "function"
    },
    {
      "inputs": [
        {
          "internalType": "uint256[]",
          "name": "tokenIds",
          "type": "uint256[]"
        }
      ],
      "name": "blackHolesForTokenIds",
      "outputs": [
        {
          "components": [
            {
              "internalType": "uint256",
              "name": "tokenId",
              "type": "uint256"
            },
            {
              "internalType": "uint256",
              "name": "level",
              "type": "uint256"
            },
            {
              "internalType": "uint256",
              "name": "size",
              "type": "uint256"
            },
            {
              "internalType": "uint256",
              "name": "mass",
              "type": "uint256"
            },
            {
              "internalType": "uint256",
              "name": "adjustment",
              "type": "uint256"
            },
            {
              "internalType": "string",
              "name": "name",
              "type": "string"
            }
          ],
          "internalType": "struct BlackHole[]",
          "name": "",
          "type": "tuple[]"
        }
      ],
      "stateMutability": "view",
      "type": "function"
    },
    {
      "inputs": [
        {
          "internalType": "uint256",
          "name": "_mass",
          "type": "uint256"
        }
      ],
      "name": "getAdjustmentForMass",
      "outputs": [
        {
          "internalType": "uint256",
          "name": "",
          "type": "uint256"
        }
      ],
      "stateMutability": "view",
      "type": "function"
    },
    {
      "inputs": [
        {
          "internalType": "uint256",
          "name": "tokenId",
          "type": "uint256"
        }
      ],
      "name": "getApproved",
      "outputs": [
        {
          "internalType": "address",
          "name": "",
          "type": "address"
        }
      ],
      "stateMutability": "view",
      "type": "function"
    },
    {
      "inputs": [],
      "name": "getBaseUpgradeMass",
      "outputs": [
        {
          "internalType": "uint256",
          "name": "",
          "type": "uint256"
        }
      ],
      "stateMutability": "view",
      "type": "function"
    },
    {
      "inputs": [],
      "name": "getMintState",
      "outputs": [
        {
          "internalType": "enum BlackHoles.MintState",
          "name": "",
          "type": "uint8"
        }
      ],
      "stateMutability": "view",
      "type": "function"
    },
    {
      "inputs": [],
      "name": "getPrice",
      "outputs": [
        {
          "internalType": "uint256",
          "name": "",
          "type": "uint256"
        }
      ],
      "stateMutability": "view",
      "type": "function"
    },
    {
      "inputs": [
        {
          "internalType": "address",
          "name": "owner",
          "type": "address"
        },
        {
          "internalType": "address",
          "name": "operator",
          "type": "address"
        }
      ],
      "name": "isApprovedForAll",
      "outputs": [
        {
          "internalType": "bool",
          "name": "",
          "type": "bool"
        }
      ],
      "stateMutability": "view",
      "type": "function"
    },
    {
      "inputs": [],
      "name": "isMergingEnabled",
      "outputs": [
        {
          "internalType": "bool",
          "name": "",
          "type": "bool"
        }
      ],
      "stateMutability": "view",
      "type": "function"
    },
    {
      "inputs": [
        {
          "internalType": "uint256",
          "name": "_mass",
          "type": "uint256"
        }
      ],
      "name": "levelForMass",
      "outputs": [
        {
          "internalType": "uint256",
          "name": "",
          "type": "uint256"
        }
      ],
      "stateMutability": "view",
      "type": "function"
    },
    {
      "inputs": [
        {
          "internalType": "uint256",
          "name": "_tokenId",
          "type": "uint256"
        }
      ],
      "name": "massForTokenId",
      "outputs": [
        {
          "internalType": "uint256",
          "name": "",
          "type": "uint256"
        }
      ],
      "stateMutability": "view",
      "type": "function"
    },
    {
      "inputs": [
        {
          "internalType": "uint256",
          "name": "",
          "type": "uint256"
        }
      ],
      "name": "massesConsumed",
      "outputs": [
        {
          "internalType": "uint256",
          "name": "",
          "type": "uint256"
        }
      ],
      "stateMutability": "view",
      "type": "function"
    },
    {
      "inputs": [
        {
          "internalType": "uint256[]",
          "name": "tokens",
          "type": "uint256[]"
        }
      ],
      "name": "merge",
      "outputs": [],
      "stateMutability": "nonpayable",
      "type": "function"
    },
    {
      "inputs": [],
      "name": "mergingDelay",
      "outputs": [
        {
          "internalType": "uint256",
          "name": "",
          "type": "uint256"
        }
      ],
      "stateMutability": "view",
      "type": "function"
    },
    {
      "inputs": [
        {
          "internalType": "uint256",
          "name": "_quantity",
          "type": "uint256"
        }
      ],
      "name": "mint",
      "outputs": [],
      "stateMutability": "payable",
      "type": "function"
    },
    {
      "inputs": [],
      "name": "name",
      "outputs": [
        {
          "internalType": "string",
          "name": "",
          "type": "string"
        }
      ],
      "stateMutability": "view",
      "type": "function"
    },
    {
      "inputs": [
        {
          "internalType": "uint256",
          "name": "_level",
          "type": "uint256"
        }
      ],
      "name": "nameForBlackHoleLevel",
      "outputs": [
        {
          "internalType": "string",
          "name": "",
          "type": "string"
        }
      ],
      "stateMutability": "view",
      "type": "function"
    },
    {
      "inputs": [],
      "name": "owner",
      "outputs": [
        {
          "internalType": "address",
          "name": "",
          "type": "address"
        }
      ],
      "stateMutability": "view",
      "type": "function"
    },
    {
      "inputs": [
        {
          "internalType": "uint256",
          "name": "tokenId",
          "type": "uint256"
        }
      ],
      "name": "ownerOf",
      "outputs": [
        {
          "internalType": "address",
          "name": "",
          "type": "address"
        }
      ],
      "stateMutability": "view",
      "type": "function"
    },
    {
      "inputs": [],
      "name": "price",
      "outputs": [
        {
          "internalType": "uint256",
          "name": "",
          "type": "uint256"
        }
      ],
      "stateMutability": "view",
      "type": "function"
    },
    {
      "inputs": [],
      "name": "renderer",
      "outputs": [
        {
          "internalType": "contract Renderer",
          "name": "",
          "type": "address"
        }
      ],
      "stateMutability": "view",
      "type": "function"
    },
    {
      "inputs": [],
      "name": "renounceOwnership",
      "outputs": [],
      "stateMutability": "nonpayable",
      "type": "function"
    },
    {
      "inputs": [
        {
          "internalType": "address",
          "name": "from",
          "type": "address"
        },
        {
          "internalType": "address",
          "name": "to",
          "type": "address"
        },
        {
          "internalType": "uint256",
          "name": "tokenId",
          "type": "uint256"
        }
      ],
      "name": "safeTransferFrom",
      "outputs": [],
      "stateMutability": "payable",
      "type": "function"
    },
    {
      "inputs": [
        {
          "internalType": "address",
          "name": "from",
          "type": "address"
        },
        {
          "internalType": "address",
          "name": "to",
          "type": "address"
        },
        {
          "internalType": "uint256",
          "name": "tokenId",
          "type": "uint256"
        },
        {
          "internalType": "bytes",
          "name": "_data",
          "type": "bytes"
        }
      ],
      "name": "safeTransferFrom",
      "outputs": [],
      "stateMutability": "payable",
      "type": "function"
    },
    {
      "inputs": [
        {
          "internalType": "address",
          "name": "operator",
          "type": "address"
        },
        {
          "internalType": "bool",
          "name": "approved",
          "type": "bool"
        }
      ],
      "name": "setApprovalForAll",
      "outputs": [],
      "stateMutability": "nonpayable",
      "type": "function"
    },
    {
      "inputs": [
        {
          "internalType": "uint256",
          "name": "_mergingDelay",
          "type": "uint256"
        }
      ],
      "name": "setMergingDelay",
      "outputs": [],
      "stateMutability": "nonpayable",
      "type": "function"
    },
    {
      "inputs": [
        {
          "internalType": "uint256",
          "name": "_price",
          "type": "uint256"
        }
      ],
      "name": "setPrice",
      "outputs": [],
      "stateMutability": "nonpayable",
      "type": "function"
    },
    {
      "inputs": [
        {
          "internalType": "uint256",
          "name": "_timedSaleDuration",
          "type": "uint256"
        }
      ],
      "name": "setTimedSaleDuration",
      "outputs": [],
      "stateMutability": "nonpayable",
      "type": "function"
    },
    {
      "inputs": [
        {
          "internalType": "uint256",
          "name": "_timedSalePrice",
          "type": "uint256"
        }
      ],
      "name": "setTimedSalePrice",
      "outputs": [],
      "stateMutability": "nonpayable",
      "type": "function"
    },
    {
      "inputs": [
        {
          "internalType": "uint256",
          "name": "_timedSaleThreshold",
          "type": "uint256"
        }
      ],
      "name": "setTimedSaleThreshold",
      "outputs": [],
      "stateMutability": "nonpayable",
      "type": "function"
    },
    {
      "inputs": [
        {
          "internalType": "bytes4",
          "name": "interfaceId",
          "type": "bytes4"
        }
      ],
      "name": "supportsInterface",
      "outputs": [
        {
          "internalType": "bool",
          "name": "",
          "type": "bool"
        }
      ],
      "stateMutability": "view",
      "type": "function"
    },
    {
      "inputs": [],
      "name": "symbol",
      "outputs": [
        {
          "internalType": "string",
          "name": "",
          "type": "string"
        }
      ],
      "stateMutability": "view",
      "type": "function"
    },
    {
      "inputs": [],
      "name": "timedSaleDuration",
      "outputs": [
        {
          "internalType": "uint256",
          "name": "",
          "type": "uint256"
        }
      ],
      "stateMutability": "view",
      "type": "function"
    },
    {
      "inputs": [],
      "name": "timedSaleEndTimestamp",
      "outputs": [
        {
          "internalType": "uint256",
          "name": "",
          "type": "uint256"
        }
      ],
      "stateMutability": "view",
      "type": "function"
    },
    {
      "inputs": [],
      "name": "timedSalePrice",
      "outputs": [
        {
          "internalType": "uint256",
          "name": "",
          "type": "uint256"
        }
      ],
      "stateMutability": "view",
      "type": "function"
    },
    {
      "inputs": [],
      "name": "timedSaleThreshold",
      "outputs": [
        {
          "internalType": "uint256",
          "name": "",
          "type": "uint256"
        }
      ],
      "stateMutability": "view",
      "type": "function"
    },
    {
      "inputs": [
        {
          "internalType": "uint256",
          "name": "_tokenId",
          "type": "uint256"
        }
      ],
      "name": "tokenURI",
      "outputs": [
        {
          "internalType": "string",
          "name": "",
          "type": "string"
        }
      ],
      "stateMutability": "view",
      "type": "function"
    },
    {
      "inputs": [],
      "name": "totalBurned",
      "outputs": [
        {
          "internalType": "uint256",
          "name": "",
          "type": "uint256"
        }
      ],
      "stateMutability": "view",
      "type": "function"
    },
    {
      "inputs": [],
      "name": "totalMinted",
      "outputs": [
        {
          "internalType": "uint256",
          "name": "",
          "type": "uint256"
        }
      ],
      "stateMutability": "view",
      "type": "function"
    },
    {
      "inputs": [],
      "name": "totalSupply",
      "outputs": [
        {
          "internalType": "uint256",
          "name": "",
          "type": "uint256"
        }
      ],
      "stateMutability": "view",
      "type": "function"
    },
    {
      "inputs": [
        {
          "internalType": "address",
          "name": "from",
          "type": "address"
        },
        {
          "internalType": "address",
          "name": "to",
          "type": "address"
        },
        {
          "internalType": "uint256",
          "name": "tokenId",
          "type": "uint256"
        }
      ],
      "name": "transferFrom",
      "outputs": [],
      "stateMutability": "payable",
      "type": "function"
    },
    {
      "inputs": [
        {
          "internalType": "address",
          "name": "newOwner",
          "type": "address"
        }
      ],
      "name": "transferOwnership",
      "outputs": [],
      "stateMutability": "nonpayable",
      "type": "function"
    },
    {
      "inputs": [],
      "name": "upgradeIntervals",
      "outputs": [
        {
          "internalType": "uint256[]",
          "name": "",
          "type": "uint256[]"
        }
      ],
      "stateMutability": "view",
      "type": "function"
    },
    {
      "inputs": [],
      "name": "withdraw",
      "outputs": [],
      "stateMutability": "nonpayable",
      "type": "function"
    }
  ],
  "transactionHash": "0x1ea318e5771c735885c689ca254a08ba308622f449d7f4dc2cea633f94bf5dc1",
  "args": [
    "Test",
    "TEST",
    "3000000000000000",
    "4000000000000000",
    "0x5C318A581461B78e177d35055459c2114B07372b"
  ],
  "numDeployments": 3,
  "solcInputHash": "1d3fb844088024e47c50c382733be703",
  "bytecode": "0x60c06040526004608090815250602a60a0908152506040518060a001604052806040518060400160405280600581526020017f4d6963726f00000000000000000000000000000000000000000000000000000081525081526020016040518060400160405280600781526020017f5374656c6c61720000000000000000000000000000000000000000000000000081525081526020016040518060400160405280600c81526020017f496e7465726d656469617465000000000000000000000000000000000000000081525081526020016040518060400160405280600c81526020017f53757065726d617373697665000000000000000000000000000000000000000081525081526020016040518060400160405280600a81526020017f5072696d6f726469616c000000000000000000000000000000000000000000008152508152506009906005620001569291906200032d565b506103e8600d5562015180600e5562069780600f553480156200017857600080fd5b5060405162005cc538038062005cc583398181016040528101906200019e91906200064d565b84848160029081620001b1919062000954565b508060039081620001c3919062000954565b50620001d46200025660201b60201c565b6000819055505050620001fc620001f06200025f60201b60201c565b6200026760201b60201c565b82600a8190555081600b8190555080601160006101000a81548173ffffffffffffffffffffffffffffffffffffffff021916908373ffffffffffffffffffffffffffffffffffffffff160217905550505050505062000a3b565b60006001905090565b600033905090565b6000600860009054906101000a900473ffffffffffffffffffffffffffffffffffffffff16905081600860006101000a81548173ffffffffffffffffffffffffffffffffffffffff021916908373ffffffffffffffffffffffffffffffffffffffff1602179055508173ffffffffffffffffffffffffffffffffffffffff168173ffffffffffffffffffffffffffffffffffffffff167f8be0079c531659141344cd1fd0a4f28419497f9722a3daafe3b4186f6b6457e060405160405180910390a35050565b8280548282559060005260206000209081019282156200037a579160200282015b828111156200037957825182908162000368919062000954565b50916020019190600101906200034e565b5b5090506200038991906200038d565b5090565b5b80821115620003b15760008181620003a79190620003b5565b506001016200038e565b5090565b508054620003c3906200074d565b6000825580601f10620003d75750620003f8565b601f016020900490600052602060002090810190620003f79190620003fb565b5b50565b5b8082111562000416576000816000905550600101620003fc565b5090565b6000604051905090565b600080fd5b600080fd5b600080fd5b600080fd5b6000601f19601f8301169050919050565b7f4e487b7100000000000000000000000000000000000000000000000000000000600052604160045260246000fd5b620004838262000438565b810181811067ffffffffffffffff82111715620004a557620004a462000449565b5b80604052505050565b6000620004ba6200041a565b9050620004c8828262000478565b919050565b600067ffffffffffffffff821115620004eb57620004ea62000449565b5b620004f68262000438565b9050602081019050919050565b60005b838110156200052357808201518184015260208101905062000506565b60008484015250505050565b6000620005466200054084620004cd565b620004ae565b90508281526020810184848401111562000565576200056462000433565b5b6200057284828562000503565b509392505050565b600082601f8301126200059257620005916200042e565b5b8151620005a48482602086016200052f565b91505092915050565b6000819050919050565b620005c281620005ad565b8114620005ce57600080fd5b50565b600081519050620005e281620005b7565b92915050565b600073ffffffffffffffffffffffffffffffffffffffff82169050919050565b60006200061582620005e8565b9050919050565b620006278162000608565b81146200063357600080fd5b50565b60008151905062000647816200061c565b92915050565b600080600080600060a086880312156200066c576200066b62000424565b5b600086015167ffffffffffffffff8111156200068d576200068c62000429565b5b6200069b888289016200057a565b955050602086015167ffffffffffffffff811115620006bf57620006be62000429565b5b620006cd888289016200057a565b9450506040620006e088828901620005d1565b9350506060620006f388828901620005d1565b9250506080620007068882890162000636565b9150509295509295909350565b600081519050919050565b7f4e487b7100000000000000000000000000000000000000000000000000000000600052602260045260246000fd5b600060028204905060018216806200076657607f821691505b6020821081036200077c576200077b6200071e565b5b50919050565b60008190508160005260206000209050919050565b60006020601f8301049050919050565b600082821b905092915050565b600060088302620007e67fffffffffffffffffffffffffffffffffffffffffffffffffffffffffffffffff82620007a7565b620007f28683620007a7565b95508019841693508086168417925050509392505050565b6000819050919050565b6000620008356200082f6200082984620005ad565b6200080a565b620005ad565b9050919050565b6000819050919050565b620008518362000814565b6200086962000860826200083c565b848454620007b4565b825550505050565b600090565b6200088062000871565b6200088d81848462000846565b505050565b5b81811015620008b557620008a960008262000876565b60018101905062000893565b5050565b601f8211156200090457620008ce8162000782565b620008d98462000797565b81016020851015620008e9578190505b62000901620008f88562000797565b83018262000892565b50505b505050565b600082821c905092915050565b6000620009296000198460080262000909565b1980831691505092915050565b600062000944838362000916565b9150826002028217905092915050565b6200095f8262000713565b67ffffffffffffffff8111156200097b576200097a62000449565b5b6200098782546200074d565b62000994828285620008b9565b600060209050601f831160018114620009cc5760008415620009b7578287015190505b620009c3858262000936565b86555062000a33565b601f198416620009dc8662000782565b60005b8281101562000a0657848901518255600182019150602085019450602081019050620009df565b8683101562000a26578489015162000a22601f89168262000916565b8355505b6001600288020188555050505b505050505050565b60805160a05161524f62000a766000396000818161141201526116000152600081816113db015281816114db0152611dc6015261524f6000f3fe6080604052600436106102e45760003560e01c80637858a2a711610190578063a2309ff8116100dc578063ca714e5b11610095578063d89135cd1161006f578063d89135cd14610b2a578063de62d84214610b55578063e985e9c514610b7e578063f2fde38b14610bbb576102e4565b8063ca714e5b14610a73578063cbad784914610ab0578063d3dedd6314610aed576102e4565b8063a2309ff81461096b578063a49062d414610996578063b4449b26146109c1578063b88d4fde146109fe578063c204642c14610a1a578063c87b56dd14610a36576102e4565b806393d57dd4116101495780639fc8d6ae116101235780639fc8d6ae146108d2578063a035b1fe146108fb578063a0712d6814610926578063a22cb46514610942576102e4565b806393d57dd41461085157806395d89b411461087c57806398d5fdca146108a7576102e4565b80637858a2a71461074157806389327f281461076a5780638ada6b0f146107a75780638b3578c6146107d25780638da5cb5b146107fd57806391b7f5ed14610828576102e4565b8063310c18131161024f5780635e23a7631161020857806370a08231116101e257806370a0823114610685578063715018a6146106c2578063774a8835146106d95780637752e36814610704576102e4565b80635e23a763146105e05780636352211e1461061d5780636ae4c0b51461065a576102e4565b8063310c1813146105015780633ccfd60b1461052c57806342842e0e1461054357806348019b861461055f5780634ca7880c1461058a5780635056af05146105b5576102e4565b806318160ddd116102a157806318160ddd146103fe57806318f58b73146104295780631d22dc6f146104665780631df4b97214610491578063208d12f5146104bc57806323b872dd146104e5576102e4565b806301ffc9a7146102e957806304ec7ed01461032657806306fdde031461034f578063081812fc1461037a578063095ea7b3146103b75780630ed89bf0146103d3575b600080fd5b3480156102f557600080fd5b50610310600480360381019061030b91906134fb565b610be4565b60405161031d9190613543565b60405180910390f35b34801561033257600080fd5b5061034d60048036038101906103489190613594565b610c76565b005b34801561035b57600080fd5b50610364610c88565b6040516103719190613651565b60405180910390f35b34801561038657600080fd5b506103a1600480360381019061039c9190613594565b610d1a565b6040516103ae91906136b4565b60405180910390f35b6103d160048036038101906103cc91906136fb565b610d99565b005b3480156103df57600080fd5b506103e8610edd565b6040516103f59190613847565b60405180910390f35b34801561040a57600080fd5b50610413610fb6565b6040516104209190613878565b60405180910390f35b34801561043557600080fd5b50610450600480360381019061044b91906139db565b610fcd565b60405161045d9190613b7e565b60405180910390f35b34801561047257600080fd5b5061047b611092565b6040516104889190613878565b60405180910390f35b34801561049d57600080fd5b506104a6611098565b6040516104b39190613878565b60405180910390f35b3480156104c857600080fd5b506104e360048036038101906104de9190613594565b61109e565b005b6104ff60048036038101906104fa9190613ba0565b6110b0565b005b34801561050d57600080fd5b506105166113d2565b6040516105239190613878565b60405180910390f35b34801561053857600080fd5b50610541611459565b005b61055d60048036038101906105589190613ba0565b6114a1565b005b34801561056b57600080fd5b506105746114c1565b6040516105819190613878565b60405180910390f35b34801561059657600080fd5b5061059f6114c7565b6040516105ac9190613ca2565b60405180910390f35b3480156105c157600080fd5b506105ca6115fe565b6040516105d79190613878565b60405180910390f35b3480156105ec57600080fd5b5061060760048036038101906106029190613594565b611622565b6040516106149190613878565b60405180910390f35b34801561062957600080fd5b50610644600480360381019061063f9190613594565b61164b565b60405161065191906136b4565b60405180910390f35b34801561066657600080fd5b5061066f61165d565b60405161067c9190613878565b60405180910390f35b34801561069157600080fd5b506106ac60048036038101906106a79190613cc4565b611663565b6040516106b99190613878565b60405180910390f35b3480156106ce57600080fd5b506106d761171b565b005b3480156106e557600080fd5b506106ee61172f565b6040516106fb9190613d68565b60405180910390f35b34801561071057600080fd5b5061072b60048036038101906107269190613594565b61176d565b6040516107389190613878565b60405180910390f35b34801561074d57600080fd5b5061076860048036038101906107639190613594565b611785565b005b34801561077657600080fd5b50610791600480360381019061078c9190613594565b611797565b60405161079e9190613878565b60405180910390f35b3480156107b357600080fd5b506107bc61184e565b6040516107c99190613de2565b60405180910390f35b3480156107de57600080fd5b506107e7611874565b6040516107f49190613543565b60405180910390f35b34801561080957600080fd5b506108126118c3565b60405161081f91906136b4565b60405180910390f35b34801561083457600080fd5b5061084f600480360381019061084a9190613594565b6118ed565b005b34801561085d57600080fd5b506108666118ff565b6040516108739190613878565b60405180910390f35b34801561088857600080fd5b50610891611905565b60405161089e9190613651565b60405180910390f35b3480156108b357600080fd5b506108bc611997565b6040516108c99190613878565b60405180910390f35b3480156108de57600080fd5b506108f960048036038101906108f49190613594565b6119df565b005b34801561090757600080fd5b506109106119f1565b60405161091d9190613878565b60405180910390f35b610940600480360381019061093b9190613594565b6119f7565b005b34801561094e57600080fd5b5061096960048036038101906109649190613e29565b611caa565b005b34801561097757600080fd5b50610980611db5565b60405161098d9190613878565b60405180910390f35b3480156109a257600080fd5b506109ab611dc4565b6040516109b89190613878565b60405180910390f35b3480156109cd57600080fd5b506109e860048036038101906109e39190613594565b611de8565b6040516109f59190613651565b60405180910390f35b610a186004803603810190610a139190613f1e565b611e98565b005b610a346004803603810190610a2f9190613ffc565b611f0b565b005b348015610a4257600080fd5b50610a5d6004803603810190610a589190613594565b611fd8565b604051610a6a9190613651565b60405180910390f35b348015610a7f57600080fd5b50610a9a6004803603810190610a959190613594565b6121bf565b604051610aa791906140e5565b60405180910390f35b348015610abc57600080fd5b50610ad76004803603810190610ad29190613594565b6122e6565b604051610ae49190613878565b60405180910390f35b348015610af957600080fd5b50610b146004803603810190610b0f9190613594565b6123b2565b604051610b219190613651565b60405180910390f35b348015610b3657600080fd5b50610b3f61245e565b604051610b4c9190613878565b60405180910390f35b348015610b6157600080fd5b50610b7c6004803603810190610b7791906139db565b61246d565b005b348015610b8a57600080fd5b50610ba56004803603810190610ba09190614107565b612717565b604051610bb29190613543565b60405180910390f35b348015610bc757600080fd5b50610be26004803603810190610bdd9190613cc4565b6127ab565b005b60006301ffc9a760e01b827bffffffffffffffffffffffffffffffffffffffffffffffffffffffff19161480610c3f57506380ac58cd60e01b827bffffffffffffffffffffffffffffffffffffffffffffffffffffffff1916145b80610c6f5750635b5e139f60e01b827bffffffffffffffffffffffffffffffffffffffffffffffffffffffff1916145b9050919050565b610c7e61282e565b80600e8190555050565b606060028054610c9790614176565b80601f0160208091040260200160405190810160405280929190818152602001828054610cc390614176565b8015610d105780601f10610ce557610100808354040283529160200191610d10565b820191906000526020600020905b815481529060010190602001808311610cf357829003601f168201915b5050505050905090565b6000610d25826128ac565b610d5b576040517fcf4700e400000000000000000000000000000000000000000000000000000000815260040160405180910390fd5b6006600083815260200190815260200160002060000160009054906101000a900473ffffffffffffffffffffffffffffffffffffffff169050919050565b6000610da48261164b565b90508073ffffffffffffffffffffffffffffffffffffffff16610dc561290b565b73ffffffffffffffffffffffffffffffffffffffff1614610e2857610df181610dec61290b565b612717565b610e27576040517fcfb3b94200000000000000000000000000000000000000000000000000000000815260040160405180910390fd5b5b826006600084815260200190815260200160002060000160006101000a81548173ffffffffffffffffffffffffffffffffffffffff021916908373ffffffffffffffffffffffffffffffffffffffff160217905550818373ffffffffffffffffffffffffffffffffffffffff168273ffffffffffffffffffffffffffffffffffffffff167f8c5be1e5ebec7d5bd14f71427d1e84f3dd0314c0f7b2291e5b200ac8c7c3b92560405160405180910390a4505050565b60606009805480602002602001604051908101604052809291908181526020016000905b82821015610fad578382906000526020600020018054610f2090614176565b80601f0160208091040260200160405190810160405280929190818152602001828054610f4c90614176565b8015610f995780601f10610f6e57610100808354040283529160200191610f99565b820191906000526020600020905b815481529060010190602001808311610f7c57829003601f168201915b505050505081526020019060010190610f01565b50505050905090565b6000610fc0612913565b6001546000540303905090565b60606000825167ffffffffffffffff811115610fec57610feb613898565b5b60405190808252806020026020018201604052801561102557816020015b611012613459565b81526020019060019003908161100a5790505b50905060005b83518110156110885761105784828151811061104a576110496141a7565b5b60200260200101516121bf565b82828151811061106a576110696141a7565b5b6020026020010181905250808061108090614205565b91505061102b565b5080915050919050565b600e5481565b600f5481565b6110a661282e565b80600b8190555050565b60006110bb8261291c565b90508373ffffffffffffffffffffffffffffffffffffffff168173ffffffffffffffffffffffffffffffffffffffff1614611122576040517fa114810000000000000000000000000000000000000000000000000000000000815260040160405180910390fd5b60008061112e846129e8565b91509150611144818761113f61290b565b612a0f565b611190576111598661115461290b565b612717565b61118f576040517f59c896be00000000000000000000000000000000000000000000000000000000815260040160405180910390fd5b5b600073ffffffffffffffffffffffffffffffffffffffff168573ffffffffffffffffffffffffffffffffffffffff16036111f6576040517fea553b3400000000000000000000000000000000000000000000000000000000815260040160405180910390fd5b6112038686866001612a53565b801561120e57600082555b600560008773ffffffffffffffffffffffffffffffffffffffff1673ffffffffffffffffffffffffffffffffffffffff168152602001908152602001600020600081546001900391905081905550600560008673ffffffffffffffffffffffffffffffffffffffff1673ffffffffffffffffffffffffffffffffffffffff16815260200190815260200160002060008154600101919050819055506112dc856112b8888887612a59565b7c020000000000000000000000000000000000000000000000000000000017612a81565b600460008681526020019081526020016000208190555060007c0200000000000000000000000000000000000000000000000000000000841603611362576000600185019050600060046000838152602001908152602001600020540361136057600054811461135f578360046000838152602001908152602001600020819055505b5b505b838573ffffffffffffffffffffffffffffffffffffffff168773ffffffffffffffffffffffffffffffffffffffff167fddf252ad1be2c89b69c2b068fc378daa952ba7f163c4a11628f55a4df523b3ef60405160405180910390a46113ca8686866001612aac565b505050505050565b600061145460017f0000000000000000000000000000000000000000000000000000000000000000611404919061424d565b600261141091906143b4565b7f0000000000000000000000000000000000000000000000000000000000000000611439612ab2565b611443919061442e565b61144d919061442e565b6002612ac5565b905090565b61146161282e565b3373ffffffffffffffffffffffffffffffffffffffff166108fc479081150290604051600060405180830381858888f1935050505061149f57600080fd5b565b6114bc83838360405180602001604052806000815250611e98565b505050565b600c5481565b606060006114d36113d2565b9050600060017f0000000000000000000000000000000000000000000000000000000000000000611504919061445f565b67ffffffffffffffff81111561151d5761151c613898565b5b60405190808252806020026020018201604052801561154b5781602001602082028036833780820191505090505b5090508181600081518110611563576115626141a7565b5b60200260200101818152505060028261157c9190614493565b816001815181106115905761158f6141a7565b5b6020026020010181815250506004826115a99190614493565b816002815181106115bd576115bc6141a7565b5b6020026020010181815250506008826115d69190614493565b816003815181106115ea576115e96141a7565b5b602002602001018181525050809250505090565b7f000000000000000000000000000000000000000000000000000000000000000081565b600060016010600084815260200190815260200160002054611644919061445f565b9050919050565b60006116568261291c565b9050919050565b600d5481565b60008073ffffffffffffffffffffffffffffffffffffffff168273ffffffffffffffffffffffffffffffffffffffff16036116ca576040517f8f4eb60400000000000000000000000000000000000000000000000000000000815260040160405180910390fd5b67ffffffffffffffff600560008473ffffffffffffffffffffffffffffffffffffffff1673ffffffffffffffffffffffffffffffffffffffff16815260200190815260200160002054169050919050565b61172361282e565b61172d6000612ade565b565b60008061173a612ab2565b9050600d5481101561175057600091505061176a565b600c5442101561176457600191505061176a565b60029150505b90565b60106020528060005260406000206000915090505481565b61178d61282e565b80600d8190555050565b6000806117a26113d2565b905060006117af846122e6565b90506000600180836117c1919061445f565b60026117cd91906143b4565b846117d89190614493565b6117e2919061424d565b905060008260026117f391906143b4565b846117fe9190614493565b905060008084111561180e578190505b6000818461181c919061424d565b8885611828919061424d565b60146118349190614493565b61183e919061442e565b9050809650505050505050919050565b601160009054906101000a900473ffffffffffffffffffffffffffffffffffffffff1681565b600060028081111561188957611888613cf1565b5b61189161172f565b60028111156118a3576118a2613cf1565b5b1480156118be5750600f54600c546118bb919061445f565b42115b905090565b6000600860009054906101000a900473ffffffffffffffffffffffffffffffffffffffff16905090565b6118f561282e565b80600a8190555050565b600b5481565b60606003805461191490614176565b80601f016020809104026020016040519081016040528092919081815260200182805461194090614176565b801561198d5780601f106119625761010080835404028352916020019161198d565b820191906000526020600020905b81548152906001019060200180831161197057829003601f168201915b5050505050905090565b6000600160028111156119ad576119ac613cf1565b5b6119b561172f565b60028111156119c7576119c6613cf1565b5b036119d657600b5490506119dc565b600a5490505b90565b6119e761282e565b80600f8190555050565b600a5481565b6000611a01611997565b90506000611a0d612ab2565b90506000611a1961172f565b9050600280811115611a2e57611a2d613cf1565b5b816002811115611a4157611a40613cf1565b5b03611a81576040517f08c379a0000000000000000000000000000000000000000000000000000000008152600401611a7890614539565b60405180910390fd5b60008483611a8f919061445f565b905060008585611a9f9190614493565b905060006002811115611ab557611ab4613cf1565b5b836002811115611ac857611ac7613cf1565b5b148015611ad75750600d548210155b15611b94576000600d5483611aec919061424d565b905060008188611afc919061424d565b90508681611b0a9190614493565b9250600b548334611b1b919061424d565b611b25919061442e565b9150600b5482611b359190614493565b83611b40919061445f565b92508181611b4e919061445f565b97506201518042611b5f919061445f565b600c819055507f6829347062e9f3db38e85deaf425a1d7ea05e95e20362d8b3889a08745d144cb60405160405180910390a150505b80341015611bd7576040517f08c379a0000000000000000000000000000000000000000000000000000000008152600401611bce906145a5565b60405180910390fd5b611be13387612ba4565b80341115611ca25760003373ffffffffffffffffffffffffffffffffffffffff168234611c0e919061424d565b604051611c1a906145f6565b60006040518083038185875af1925050503d8060008114611c57576040519150601f19603f3d011682016040523d82523d6000602084013e611c5c565b606091505b5050905080611ca0576040517f08c379a0000000000000000000000000000000000000000000000000000000008152600401611c9790614657565b60405180910390fd5b505b505050505050565b8060076000611cb761290b565b73ffffffffffffffffffffffffffffffffffffffff1673ffffffffffffffffffffffffffffffffffffffff16815260200190815260200160002060008473ffffffffffffffffffffffffffffffffffffffff1673ffffffffffffffffffffffffffffffffffffffff16815260200190815260200160002060006101000a81548160ff0219169083151502179055508173ffffffffffffffffffffffffffffffffffffffff16611d6461290b565b73ffffffffffffffffffffffffffffffffffffffff167f17307eab39ab6107e8899845ad3d59bd9653f200f220920489ca2b5937696c3183604051611da99190613543565b60405180910390a35050565b6000611dbf612ab2565b905090565b7f000000000000000000000000000000000000000000000000000000000000000081565b606060098281548110611dfe57611dfd6141a7565b5b906000526020600020018054611e1390614176565b80601f0160208091040260200160405190810160405280929190818152602001828054611e3f90614176565b8015611e8c5780601f10611e6157610100808354040283529160200191611e8c565b820191906000526020600020905b815481529060010190602001808311611e6f57829003601f168201915b50505050509050919050565b611ea38484846110b0565b60008373ffffffffffffffffffffffffffffffffffffffff163b14611f0557611ece84848484612d5f565b611f04576040517fd1a57ed600000000000000000000000000000000000000000000000000000000815260040160405180910390fd5b5b50505050565b611f1361282e565b600280811115611f2657611f25613cf1565b5b611f2e61172f565b6002811115611f4057611f3f613cf1565b5b03611f80576040517f08c379a0000000000000000000000000000000000000000000000000000000008152600401611f77906146c3565b60405180910390fd5b60005b83839050811015611fd257611fbf848483818110611fa457611fa36141a7565b5b9050602002016020810190611fb99190613cc4565b83612ba4565b8080611fca90614205565b915050611f83565b50505050565b6060611fe3826128ac565b612019576040517fa14c4b5000000000000000000000000000000000000000000000000000000000815260040160405180910390fd5b600061202483612eaf565b604051602001612034919061476b565b604051602081830303815290604052905060006040518060600160405280603d815260200161519d603d91399050600061206d856121bf565b90506000601160009054906101000a900473ffffffffffffffffffffffffffffffffffffffff1673ffffffffffffffffffffffffffffffffffffffff1663cfeb9a02836040518263ffffffff1660e01b81526004016120cc91906140e5565b600060405180830381865afa1580156120e9573d6000803e3d6000fd5b505050506040513d6000823e3d601f19601f82011682018060405250810190612112919061482e565b905060006121238360200151612eaf565b8360a001516121358560600151612eaf565b60405160200161214793929190614a19565b6040516020818303038152906040529050600085858361216686613037565b6040516020016121799493929190614c99565b604051602081830303815290604052905061219381613037565b6040516020016121a39190614d65565b6040516020818303038152906040529650505050505050919050565b6121c7613459565b60006121d283611622565b905060006121df826122e6565b905060006121ec82611de8565b905060006121f984611797565b90506040518060c0016040528087815260200184815260200184600a61221f919061424d565b6002601160009054906101000a900473ffffffffffffffffffffffffffffffffffffffff1673ffffffffffffffffffffffffffffffffffffffff1663030ac5256040518163ffffffff1660e01b8152600401602060405180830381865afa15801561228e573d6000803e3d6000fd5b505050506040513d601f19601f820116820180604052508101906122b29190614d9c565b6122bc919061442e565b6122c6919061424d565b815260200185815260200182815260200183815250945050505050919050565b6000806122f16114c7565b905080600081518110612307576123066141a7565b5b60200260200101518310156123205760009150506123ad565b80600181518110612334576123336141a7565b5b602002602001015183101561234d5760019150506123ad565b80600281518110612361576123606141a7565b5b602002602001015183101561237a5760029150506123ad565b8060038151811061238e5761238d6141a7565b5b60200260200101518310156123a75760039150506123ad565b60049150505b919050565b600981815481106123c257600080fd5b9060005260206000200160009150905080546123dd90614176565b80601f016020809104026020016040519081016040528092919081815260200182805461240990614176565b80156124565780601f1061242b57610100808354040283529160200191612456565b820191906000526020600020905b81548152906001019060200180831161243957829003601f168201915b505050505081565b60006124686131ce565b905090565b612475611874565b6124b4576040517f08c379a00000000000000000000000000000000000000000000000000000000081526004016124ab90614e15565b60405180910390fd5b60018151116124f8576040517f08c379a00000000000000000000000000000000000000000000000000000000081526004016124ef90614e81565b60405180910390fd5b60008160008151811061250e5761250d6141a7565b5b602002602001015190503373ffffffffffffffffffffffffffffffffffffffff1661255383600081518110612546576125456141a7565b5b602002602001015161164b565b73ffffffffffffffffffffffffffffffffffffffff16146125a9576040517f08c379a00000000000000000000000000000000000000000000000000000000081526004016125a090614eed565b60405180910390fd5b600080600190505b83518110156126b0573373ffffffffffffffffffffffffffffffffffffffff166125f48583815181106125e7576125e66141a7565b5b602002602001015161164b565b73ffffffffffffffffffffffffffffffffffffffff161461264a576040517f08c379a000000000000000000000000000000000000000000000000000000000815260040161264190614f59565b60405180910390fd5b61266d8482815181106126605761265f6141a7565b5b6020026020010151611622565b82612678919061445f565b915061269d8482815181106126905761268f6141a7565b5b60200260200101516131d8565b80806126a890614205565b9150506125b1565b50806010600084815260200190815260200160002060008282546126d4919061445f565b925050819055507ff8e1a15aba9398e019f0b49df1a4fde98ee17ae345cb5f6b5e2c27f5033e8ce78260405161270a9190613878565b60405180910390a1505050565b6000600760008473ffffffffffffffffffffffffffffffffffffffff1673ffffffffffffffffffffffffffffffffffffffff16815260200190815260200160002060008373ffffffffffffffffffffffffffffffffffffffff1673ffffffffffffffffffffffffffffffffffffffff16815260200190815260200160002060009054906101000a900460ff16905092915050565b6127b361282e565b600073ffffffffffffffffffffffffffffffffffffffff168173ffffffffffffffffffffffffffffffffffffffff1603612822576040517f08c379a000000000000000000000000000000000000000000000000000000000815260040161281990614feb565b60405180910390fd5b61282b81612ade565b50565b6128366131e6565b73ffffffffffffffffffffffffffffffffffffffff166128546118c3565b73ffffffffffffffffffffffffffffffffffffffff16146128aa576040517f08c379a00000000000000000000000000000000000000000000000000000000081526004016128a190615057565b60405180910390fd5b565b6000816128b7612913565b111580156128c6575060005482105b8015612904575060007c0100000000000000000000000000000000000000000000000000000000600460008581526020019081526020016000205416145b9050919050565b600033905090565b60006001905090565b6000808290508061292b612913565b116129b1576000548110156129b05760006004600083815260200190815260200160002054905060007c01000000000000000000000000000000000000000000000000000000008216036129ae575b600081036129a457600460008360019003935083815260200190815260200160002054905061297a565b80925050506129e3565b505b5b6040517fdf2d9b4200000000000000000000000000000000000000000000000000000000815260040160405180910390fd5b919050565b60008060006006600085815260200190815260200160002090508092508254915050915091565b600073ffffffffffffffffffffffffffffffffffffffff8316925073ffffffffffffffffffffffffffffffffffffffff821691508382148383141790509392505050565b50505050565b60008060e883901c905060e8612a708686846131ee565b62ffffff16901b9150509392505050565b600073ffffffffffffffffffffffffffffffffffffffff83169250814260a01b178317905092915050565b50505050565b6000612abc612913565b60005403905090565b6000818311612ad45781612ad6565b825b905092915050565b6000600860009054906101000a900473ffffffffffffffffffffffffffffffffffffffff16905081600860006101000a81548173ffffffffffffffffffffffffffffffffffffffff021916908373ffffffffffffffffffffffffffffffffffffffff1602179055508173ffffffffffffffffffffffffffffffffffffffff168173ffffffffffffffffffffffffffffffffffffffff167f8be0079c531659141344cd1fd0a4f28419497f9722a3daafe3b4186f6b6457e060405160405180910390a35050565b60008054905060008203612be4576040517fb562e8dd00000000000000000000000000000000000000000000000000000000815260040160405180910390fd5b612bf16000848385612a53565b600160406001901b178202600560008573ffffffffffffffffffffffffffffffffffffffff1673ffffffffffffffffffffffffffffffffffffffff16815260200190815260200160002060008282540192505081905550612c6883612c596000866000612a59565b612c62856131f7565b17612a81565b6004600083815260200190815260200160002081905550600080838301905073ffffffffffffffffffffffffffffffffffffffff85169150828260007fddf252ad1be2c89b69c2b068fc378daa952ba7f163c4a11628f55a4df523b3ef600080a4600183015b818114612d0957808360007fddf252ad1be2c89b69c2b068fc378daa952ba7f163c4a11628f55a4df523b3ef600080a4600181019050612cce565b5060008203612d44576040517f2e07630000000000000000000000000000000000000000000000000000000000815260040160405180910390fd5b806000819055505050612d5a6000848385612aac565b505050565b60008373ffffffffffffffffffffffffffffffffffffffff1663150b7a02612d8561290b565b8786866040518563ffffffff1660e01b8152600401612da794939291906150cc565b6020604051808303816000875af1925050508015612de357506040513d601f19601f82011682018060405250810190612de0919061512d565b60015b612e5c573d8060008114612e13576040519150601f19603f3d011682016040523d82523d6000602084013e612e18565b606091505b506000815103612e54576040517fd1a57ed600000000000000000000000000000000000000000000000000000000815260040160405180910390fd5b805181602001fd5b63150b7a0260e01b7bffffffffffffffffffffffffffffffffffffffffffffffffffffffff1916817bffffffffffffffffffffffffffffffffffffffffffffffffffffffff191614915050949350505050565b606060008203612ef6576040518060400160405280600181526020017f30000000000000000000000000000000000000000000000000000000000000008152509050613032565b600082905060005b60008214612f28578080612f1190614205565b915050600a82612f21919061442e565b9150612efe565b60008167ffffffffffffffff811115612f4457612f43613898565b5b6040519080825280601f01601f191660200182016040528015612f765781602001600182028036833780820191505090505b50905060008290505b6000861461302a57600181612f94919061424d565b90506000600a8088612fa6919061442e565b612fb09190614493565b87612fbb919061424d565b6030612fc79190615167565b905060008160f81b905080848481518110612fe557612fe46141a7565b5b60200101907effffffffffffffffffffffffffffffffffffffffffffffffffffffffffffff1916908160001a905350600a88613021919061442e565b97505050612f7f565b819450505050505b919050565b60606000825190506000810361305f57604051806020016040528060008152509150506131c9565b60006003600283613070919061445f565b61307a919061442e565b60046130869190614493565b90506000602082613097919061445f565b67ffffffffffffffff8111156130b0576130af613898565b5b6040519080825280601f01601f1916602001820160405280156130e25781602001600182028036833780820191505090505b50905060006040518060600160405280604081526020016151da604091399050600181016020830160005b868110156131865760038101905062ffffff818a015116603f8160121c168401518060081b905060ff603f83600c1c1686015116810190508060081b905060ff603f8360061c1686015116810190508060081b905060ff603f831686015116810190508060e01b9050808452600484019350505061310d565b5060038606600181146131a057600281146131b0576131bb565b613d3d60f01b60028303526131bb565b603d60f81b60018303525b508484525050819450505050505b919050565b6000600154905090565b6131e3816000613207565b50565b600033905090565b60009392505050565b60006001821460e11b9050919050565b60006132128361291c565b90506000819050600080613225866129e8565b91509150841561328e57613241818461323c61290b565b612a0f565b61328d576132568361325161290b565b612717565b61328c576040517f59c896be00000000000000000000000000000000000000000000000000000000815260040160405180910390fd5b5b5b61329c836000886001612a53565b80156132a757600082555b600160806001901b03600560008573ffffffffffffffffffffffffffffffffffffffff1673ffffffffffffffffffffffffffffffffffffffff1681526020019081526020016000206000828254019250508190555061334f8361330c85600088612a59565b7c02000000000000000000000000000000000000000000000000000000007c01000000000000000000000000000000000000000000000000000000001717612a81565b600460008881526020019081526020016000208190555060007c02000000000000000000000000000000000000000000000000000000008516036133d557600060018701905060006004600083815260200190815260200160002054036133d35760005481146133d2578460046000838152602001908152602001600020819055505b5b505b85600073ffffffffffffffffffffffffffffffffffffffff168473ffffffffffffffffffffffffffffffffffffffff167fddf252ad1be2c89b69c2b068fc378daa952ba7f163c4a11628f55a4df523b3ef60405160405180910390a461343f836000886001612aac565b600160008154809291906001019190505550505050505050565b6040518060c001604052806000815260200160008152602001600081526020016000815260200160008152602001606081525090565b6000604051905090565b600080fd5b600080fd5b60007fffffffff0000000000000000000000000000000000000000000000000000000082169050919050565b6134d8816134a3565b81146134e357600080fd5b50565b6000813590506134f5816134cf565b92915050565b60006020828403121561351157613510613499565b5b600061351f848285016134e6565b91505092915050565b60008115159050919050565b61353d81613528565b82525050565b60006020820190506135586000830184613534565b92915050565b6000819050919050565b6135718161355e565b811461357c57600080fd5b50565b60008135905061358e81613568565b92915050565b6000602082840312156135aa576135a9613499565b5b60006135b88482850161357f565b91505092915050565b600081519050919050565b600082825260208201905092915050565b60005b838110156135fb5780820151818401526020810190506135e0565b60008484015250505050565b6000601f19601f8301169050919050565b6000613623826135c1565b61362d81856135cc565b935061363d8185602086016135dd565b61364681613607565b840191505092915050565b6000602082019050818103600083015261366b8184613618565b905092915050565b600073ffffffffffffffffffffffffffffffffffffffff82169050919050565b600061369e82613673565b9050919050565b6136ae81613693565b82525050565b60006020820190506136c960008301846136a5565b92915050565b6136d881613693565b81146136e357600080fd5b50565b6000813590506136f5816136cf565b92915050565b6000806040838503121561371257613711613499565b5b6000613720858286016136e6565b92505060206137318582860161357f565b9150509250929050565b600081519050919050565b600082825260208201905092915050565b6000819050602082019050919050565b600082825260208201905092915050565b6000613783826135c1565b61378d8185613767565b935061379d8185602086016135dd565b6137a681613607565b840191505092915050565b60006137bd8383613778565b905092915050565b6000602082019050919050565b60006137dd8261373b565b6137e78185613746565b9350836020820285016137f985613757565b8060005b85811015613835578484038952815161381685826137b1565b9450613821836137c5565b925060208a019950506001810190506137fd565b50829750879550505050505092915050565b6000602082019050818103600083015261386181846137d2565b905092915050565b6138728161355e565b82525050565b600060208201905061388d6000830184613869565b92915050565b600080fd5b7f4e487b7100000000000000000000000000000000000000000000000000000000600052604160045260246000fd5b6138d082613607565b810181811067ffffffffffffffff821117156138ef576138ee613898565b5b80604052505050565b600061390261348f565b905061390e82826138c7565b919050565b600067ffffffffffffffff82111561392e5761392d613898565b5b602082029050602081019050919050565b600080fd5b600061395761395284613913565b6138f8565b9050808382526020820190506020840283018581111561397a5761397961393f565b5b835b818110156139a3578061398f888261357f565b84526020840193505060208101905061397c565b5050509392505050565b600082601f8301126139c2576139c1613893565b5b81356139d2848260208601613944565b91505092915050565b6000602082840312156139f1576139f0613499565b5b600082013567ffffffffffffffff811115613a0f57613a0e61349e565b5b613a1b848285016139ad565b91505092915050565b600081519050919050565b600082825260208201905092915050565b6000819050602082019050919050565b613a598161355e565b82525050565b600060c083016000830151613a776000860182613a50565b506020830151613a8a6020860182613a50565b506040830151613a9d6040860182613a50565b506060830151613ab06060860182613a50565b506080830151613ac36080860182613a50565b5060a083015184820360a0860152613adb8282613778565b9150508091505092915050565b6000613af48383613a5f565b905092915050565b6000602082019050919050565b6000613b1482613a24565b613b1e8185613a2f565b935083602082028501613b3085613a40565b8060005b85811015613b6c5784840389528151613b4d8582613ae8565b9450613b5883613afc565b925060208a01995050600181019050613b34565b50829750879550505050505092915050565b60006020820190508181036000830152613b988184613b09565b905092915050565b600080600060608486031215613bb957613bb8613499565b5b6000613bc7868287016136e6565b9350506020613bd8868287016136e6565b9250506040613be98682870161357f565b9150509250925092565b600081519050919050565b600082825260208201905092915050565b6000819050602082019050919050565b6000613c2b8383613a50565b60208301905092915050565b6000602082019050919050565b6000613c4f82613bf3565b613c598185613bfe565b9350613c6483613c0f565b8060005b83811015613c95578151613c7c8882613c1f565b9750613c8783613c37565b925050600181019050613c68565b5085935050505092915050565b60006020820190508181036000830152613cbc8184613c44565b905092915050565b600060208284031215613cda57613cd9613499565b5b6000613ce8848285016136e6565b91505092915050565b7f4e487b7100000000000000000000000000000000000000000000000000000000600052602160045260246000fd5b60038110613d3157613d30613cf1565b5b50565b6000819050613d4282613d20565b919050565b6000613d5282613d34565b9050919050565b613d6281613d47565b82525050565b6000602082019050613d7d6000830184613d59565b92915050565b6000819050919050565b6000613da8613da3613d9e84613673565b613d83565b613673565b9050919050565b6000613dba82613d8d565b9050919050565b6000613dcc82613daf565b9050919050565b613ddc81613dc1565b82525050565b6000602082019050613df76000830184613dd3565b92915050565b613e0681613528565b8114613e1157600080fd5b50565b600081359050613e2381613dfd565b92915050565b60008060408385031215613e4057613e3f613499565b5b6000613e4e858286016136e6565b9250506020613e5f85828601613e14565b9150509250929050565b600080fd5b600067ffffffffffffffff821115613e8957613e88613898565b5b613e9282613607565b9050602081019050919050565b82818337600083830152505050565b6000613ec1613ebc84613e6e565b6138f8565b905082815260208101848484011115613edd57613edc613e69565b5b613ee8848285613e9f565b509392505050565b600082601f830112613f0557613f04613893565b5b8135613f15848260208601613eae565b91505092915050565b60008060008060808587031215613f3857613f37613499565b5b6000613f46878288016136e6565b9450506020613f57878288016136e6565b9350506040613f688782880161357f565b925050606085013567ffffffffffffffff811115613f8957613f8861349e565b5b613f9587828801613ef0565b91505092959194509250565b600080fd5b60008083601f840112613fbc57613fbb613893565b5b8235905067ffffffffffffffff811115613fd957613fd8613fa1565b5b602083019150836020820283011115613ff557613ff461393f565b5b9250929050565b60008060006040848603121561401557614014613499565b5b600084013567ffffffffffffffff8111156140335761403261349e565b5b61403f86828701613fa6565b935093505060206140528682870161357f565b9150509250925092565b600060c0830160008301516140746000860182613a50565b5060208301516140876020860182613a50565b50604083015161409a6040860182613a50565b5060608301516140ad6060860182613a50565b5060808301516140c06080860182613a50565b5060a083015184820360a08601526140d88282613778565b9150508091505092915050565b600060208201905081810360008301526140ff818461405c565b905092915050565b6000806040838503121561411e5761411d613499565b5b600061412c858286016136e6565b925050602061413d858286016136e6565b9150509250929050565b7f4e487b7100000000000000000000000000000000000000000000000000000000600052602260045260246000fd5b6000600282049050600182168061418e57607f821691505b6020821081036141a1576141a0614147565b5b50919050565b7f4e487b7100000000000000000000000000000000000000000000000000000000600052603260045260246000fd5b7f4e487b7100000000000000000000000000000000000000000000000000000000600052601160045260246000fd5b60006142108261355e565b91507fffffffffffffffffffffffffffffffffffffffffffffffffffffffffffffffff8203614242576142416141d6565b5b600182019050919050565b60006142588261355e565b91506142638361355e565b925082820390508181111561427b5761427a6141d6565b5b92915050565b60008160011c9050919050565b6000808291508390505b60018511156142d8578086048111156142b4576142b36141d6565b5b60018516156142c35780820291505b80810290506142d185614281565b9450614298565b94509492505050565b6000826142f157600190506143ad565b816142ff57600090506143ad565b8160018114614315576002811461431f5761434e565b60019150506143ad565b60ff841115614331576143306141d6565b5b8360020a915084821115614348576143476141d6565b5b506143ad565b5060208310610133831016604e8410600b84101617156143835782820a90508381111561437e5761437d6141d6565b5b6143ad565b614390848484600161428e565b925090508184048111156143a7576143a66141d6565b5b81810290505b9392505050565b60006143bf8261355e565b91506143ca8361355e565b92506143f77fffffffffffffffffffffffffffffffffffffffffffffffffffffffffffffffff84846142e1565b905092915050565b7f4e487b7100000000000000000000000000000000000000000000000000000000600052601260045260246000fd5b60006144398261355e565b91506144448361355e565b925082614454576144536143ff565b5b828204905092915050565b600061446a8261355e565b91506144758361355e565b925082820190508082111561448d5761448c6141d6565b5b92915050565b600061449e8261355e565b91506144a98361355e565b9250817fffffffffffffffffffffffffffffffffffffffffffffffffffffffffffffffff04831182151516156144e2576144e16141d6565b5b828202905092915050565b7f4d696e7420697320636c6f736564000000000000000000000000000000000000600082015250565b6000614523600e836135cc565b915061452e826144ed565b602082019050919050565b6000602082019050818103600083015261455281614516565b9050919050565b7f496e73756666696369656e742066656500000000000000000000000000000000600082015250565b600061458f6010836135cc565b915061459a82614559565b602082019050919050565b600060208201905081810360008301526145be81614582565b9050919050565b600081905092915050565b50565b60006145e06000836145c5565b91506145eb826145d0565b600082019050919050565b6000614601826145d3565b9150819050919050565b7f526566756e64206661696c656400000000000000000000000000000000000000600082015250565b6000614641600d836135cc565b915061464c8261460b565b602082019050919050565b6000602082019050818103600083015261467081614634565b9050919050565b7f45786365656473206d617820737570706c790000000000000000000000000000600082015250565b60006146ad6012836135cc565b91506146b882614677565b602082019050919050565b600060208201905081810360008301526146dc816146a0565b9050919050565b600081905092915050565b7f426c61636b486f6c652023000000000000000000000000000000000000000000600082015250565b6000614724600b836146e3565b915061472f826146ee565b600b82019050919050565b6000614745826135c1565b61474f81856146e3565b935061475f8185602086016135dd565b80840191505092915050565b600061477682614717565b9150614782828461473a565b915081905092915050565b600067ffffffffffffffff8211156147a8576147a7613898565b5b6147b182613607565b9050602081019050919050565b60006147d16147cc8461478d565b6138f8565b9050828152602081018484840111156147ed576147ec613e69565b5b6147f88482856135dd565b509392505050565b600082601f83011261481557614814613893565b5b81516148258482602086016147be565b91505092915050565b60006020828403121561484457614843613499565b5b600082015167ffffffffffffffff8111156148625761486161349e565b5b61486e84828501614800565b91505092915050565b7f5b00000000000000000000000000000000000000000000000000000000000000815250565b7f7b2274726169745f74797065223a20224c6576656c222c202276616c7565223a60008201527f2000000000000000000000000000000000000000000000000000000000000000602082015250565b60006148f96021836146e3565b91506149048261489d565b602182019050919050565b7f7d2c000000000000000000000000000000000000000000000000000000000000815250565b7f7b2274726169745f74797065223a20224e616d65222c202276616c7565223a2060008201527f2200000000000000000000000000000000000000000000000000000000000000602082015250565b60006149916021836146e3565b915061499c82614935565b602182019050919050565b7f227d2c0000000000000000000000000000000000000000000000000000000000815250565b7f7b2274726169745f74797065223a20224d617373222c202276616c7565223a20815250565b7f7d5d000000000000000000000000000000000000000000000000000000000000815250565b6000614a2482614877565b600182019150614a33826148ec565b9150614a3f828661473a565b9150614a4a8261490f565b600282019150614a5982614984565b9150614a65828561473a565b9150614a70826149a7565b600382019150614a7f826149cd565b602082019150614a8f828461473a565b9150614a9a826149f3565b600282019150819050949350505050565b7f7b226e616d65223a220000000000000000000000000000000000000000000000600082015250565b6000614ae16009836146e3565b9150614aec82614aab565b600982019050919050565b7f222c226465736372697074696f6e223a22000000000000000000000000000000600082015250565b6000614b2d6011836146e3565b9150614b3882614af7565b601182019050919050565b7f222c000000000000000000000000000000000000000000000000000000000000600082015250565b6000614b796002836146e3565b9150614b8482614b43565b600282019050919050565b7f2261747472696275746573223a20000000000000000000000000000000000000600082015250565b6000614bc5600e836146e3565b9150614bd082614b8f565b600e82019050919050565b7f2c2022696d616765223a2022646174613a696d6167652f7376672b786d6c3b6260008201527f61736536342c0000000000000000000000000000000000000000000000000000602082015250565b6000614c376026836146e3565b9150614c4282614bdb565b602682019050919050565b7f227d000000000000000000000000000000000000000000000000000000000000600082015250565b6000614c836002836146e3565b9150614c8e82614c4d565b600282019050919050565b6000614ca482614ad4565b9150614cb0828761473a565b9150614cbb82614b20565b9150614cc7828661473a565b9150614cd282614b6c565b9150614cdd82614bb8565b9150614ce9828561473a565b9150614cf482614c2a565b9150614d00828461473a565b9150614d0b82614c76565b915081905095945050505050565b7f646174613a6170706c69636174696f6e2f6a736f6e3b6261736536342c000000600082015250565b6000614d4f601d836146e3565b9150614d5a82614d19565b601d82019050919050565b6000614d7082614d42565b9150614d7c828461473a565b915081905092915050565b600081519050614d9681613568565b92915050565b600060208284031215614db257614db1613499565b5b6000614dc084828501614d87565b91505092915050565b7f4d657267696e67206e6f7420656e61626c656400000000000000000000000000600082015250565b6000614dff6013836135cc565b9150614e0a82614dc9565b602082019050919050565b60006020820190508181036000830152614e2e81614df2565b9050919050565b7f4d757374206d65726765206174206c65617374203220746f6b656e7300000000600082015250565b6000614e6b601c836135cc565b9150614e7682614e35565b602082019050919050565b60006020820190508181036000830152614e9a81614e5e565b9050919050565b7f4d757374206f776e20616c6c20746f6b656e7320287461726765742900000000600082015250565b6000614ed7601c836135cc565b9150614ee282614ea1565b602082019050919050565b60006020820190508181036000830152614f0681614eca565b9050919050565b7f4d757374206f776e20616c6c20746f6b656e7320286275726e29000000000000600082015250565b6000614f43601a836135cc565b9150614f4e82614f0d565b602082019050919050565b60006020820190508181036000830152614f7281614f36565b9050919050565b7f4f776e61626c653a206e6577206f776e657220697320746865207a65726f206160008201527f6464726573730000000000000000000000000000000000000000000000000000602082015250565b6000614fd56026836135cc565b9150614fe082614f79565b604082019050919050565b6000602082019050818103600083015261500481614fc8565b9050919050565b7f4f776e61626c653a2063616c6c6572206973206e6f7420746865206f776e6572600082015250565b60006150416020836135cc565b915061504c8261500b565b602082019050919050565b6000602082019050818103600083015261507081615034565b9050919050565b600081519050919050565b600082825260208201905092915050565b600061509e82615077565b6150a88185615082565b93506150b88185602086016135dd565b6150c181613607565b840191505092915050565b60006080820190506150e160008301876136a5565b6150ee60208301866136a5565b6150fb6040830185613869565b818103606083015261510d8184615093565b905095945050505050565b600081519050615127816134cf565b92915050565b60006020828403121561514357615142613499565b5b600061515184828501615118565b91505092915050565b600060ff82169050919050565b60006151728261515a565b915061517d8361515a565b9250828201905060ff811115615196576151956141d6565b5b9291505056fe46756c6c79206f6e2d636861696e2c2070726f6365647572616c6c792067656e6572617465642c20616e696d6174656420626c61636b20686f6c65732e4142434445464748494a4b4c4d4e4f505152535455565758595a6162636465666768696a6b6c6d6e6f707172737475767778797a303132333435363738392b2fa26469706673582212206c7318a4b44eb92100a8497fb0a820e37d6a131231f141ce7c892ff422885d7d64736f6c63430008100033",
  "libraries": {
    "utils": "0xc0B9fc91b9007a8770225FC4c5c93A5f0D0B7904"
  },
  "devdoc": {
    "kind": "dev",
    "methods": {
      "airdrop(address[],uint256)": {
        "params": {
          "_quantity": "Quantity of tokens to airdrop to each recipient.",
          "_recipients": "List of recipients to receive the airdrop."
        }
      },
      "approve(address,uint256)": {
        "details": "Gives permission to `to` to transfer `tokenId` token to another account. The approval is cleared when the token is transferred. Only a single account can be approved at a time, so approving the zero address clears previous approvals. Requirements: - The caller must own the token or be an approved operator. - `tokenId` must exist. Emits an {Approval} event."
      },
      "balanceOf(address)": {
        "details": "Returns the number of tokens in `owner`'s account."
      },
      "blackHoleForTokenId(uint256)": {
        "params": {
          "_tokenId": "ID of the token."
        },
        "returns": {
          "_0": "BlackHole Structured representation of the token."
        }
      },
      "constructor": {
        "details": "Constructs a new instance of the contract.",
        "params": {
          "_name": "Name of the ERC721 token.",
          "_price": "Price of each token in wei.",
          "_renderer": "Address of the Renderer contract.",
          "_symbol": "Symbol of the ERC721 token."
        }
      },
      "getAdjustmentForMass(uint256)": {
        "params": {
          "_mass": "Mass to calculate the adjustment for."
        },
        "returns": {
          "_0": "Adjustment."
        }
      },
      "getApproved(uint256)": {
        "details": "Returns the account approved for `tokenId` token. Requirements: - `tokenId` must exist."
      },
      "isApprovedForAll(address,address)": {
        "details": "Returns if the `operator` is allowed to manage all of the assets of `owner`. See {setApprovalForAll}."
      },
      "merge(uint256[])": {
        "params": {
          "tokens": "List of tokens to merge. The first token in the list is the target."
        }
      },
      "mint(uint256)": {
        "params": {
          "_quantity": "Quantity of tokens to mint."
        }
      },
      "name()": {
        "details": "Returns the token collection name."
      },
      "nameForBlackHoleLevel(uint256)": {
        "params": {
          "_level": "Level of the black hole."
        },
        "returns": {
          "_0": "name of the black hole level."
        }
      },
      "owner()": {
        "details": "Returns the address of the current owner."
      },
      "ownerOf(uint256)": {
        "details": "Returns the owner of the `tokenId` token. Requirements: - `tokenId` must exist."
      },
      "renounceOwnership()": {
        "details": "Leaves the contract without owner. It will not be possible to call `onlyOwner` functions anymore. Can only be called by the current owner. NOTE: Renouncing ownership will leave the contract without an owner, thereby removing any functionality that is only available to the owner."
      },
      "safeTransferFrom(address,address,uint256)": {
        "details": "Equivalent to `safeTransferFrom(from, to, tokenId, '')`."
      },
      "safeTransferFrom(address,address,uint256,bytes)": {
        "details": "Safely transfers `tokenId` token from `from` to `to`. Requirements: - `from` cannot be the zero address. - `to` cannot be the zero address. - `tokenId` token must exist and be owned by `from`. - If the caller is not `from`, it must be approved to move this token by either {approve} or {setApprovalForAll}. - If `to` refers to a smart contract, it must implement {IERC721Receiver-onERC721Received}, which is called upon a safe transfer. Emits a {Transfer} event."
      },
      "setApprovalForAll(address,bool)": {
        "details": "Approve or remove `operator` as an operator for the caller. Operators can call {transferFrom} or {safeTransferFrom} for any token owned by the caller. Requirements: - The `operator` cannot be the caller. Emits an {ApprovalForAll} event."
      },
      "setMergingDelay(uint256)": {
        "params": {
          "_mergingDelay": "Delay in seconds before a token can be merged after the timed sale."
        }
      },
      "setPrice(uint256)": {
        "params": {
          "_price": "Price of each token in wei."
        }
      },
      "setTimedSaleDuration(uint256)": {
        "params": {
          "_timedSaleDuration": "Duration of the timed sale in seconds."
        }
      },
      "setTimedSalePrice(uint256)": {
        "params": {
          "_timedSalePrice": "Price of each token in wei."
        }
      },
      "setTimedSaleThreshold(uint256)": {
        "params": {
          "_timedSaleThreshold": "Number of tokens."
        }
      },
      "supportsInterface(bytes4)": {
        "details": "Returns true if this contract implements the interface defined by `interfaceId`. See the corresponding [EIP section](https://eips.ethereum.org/EIPS/eip-165#how-interfaces-are-identified) to learn more about how these ids are created. This function call must use less than 30000 gas."
      },
      "symbol()": {
        "details": "Returns the token collection symbol."
      },
      "tokenURI(uint256)": {
        "params": {
          "_tokenId": "ID of the token to get the URI for."
        },
        "returns": {
          "_0": "Token URI."
        }
      },
      "totalSupply()": {
        "details": "Returns the total number of tokens in existence. Burned tokens will reduce the count. To get the total number of tokens minted, please see {_totalMinted}."
      },
      "transferFrom(address,address,uint256)": {
        "details": "Transfers `tokenId` from `from` to `to`. Requirements: - `from` cannot be the zero address. - `to` cannot be the zero address. - `tokenId` token must be owned by `from`. - If the caller is not `from`, it must be approved to move this token by either {approve} or {setApprovalForAll}. Emits a {Transfer} event."
      },
      "transferOwnership(address)": {
        "details": "Transfers ownership of the contract to a new account (`newOwner`). Can only be called by the current owner."
      }
    },
    "version": 1
  },
  "userdoc": {
    "errors": {
      "ApprovalCallerNotOwnerNorApproved()": [
        {
          "notice": "The caller must own the token or be an approved operator."
        }
      ],
      "ApprovalQueryForNonexistentToken()": [
        {
          "notice": "The token does not exist."
        }
      ],
      "BalanceQueryForZeroAddress()": [
        {
          "notice": "Cannot query the balance for the zero address."
        }
      ],
      "MintERC2309QuantityExceedsLimit()": [
        {
          "notice": "The `quantity` minted with ERC2309 exceeds the safety limit."
        }
      ],
      "MintToZeroAddress()": [
        {
          "notice": "Cannot mint to the zero address."
        }
      ],
      "MintZeroQuantity()": [
        {
          "notice": "The quantity of tokens minted must be more than zero."
        }
      ],
      "OwnerQueryForNonexistentToken()": [
        {
          "notice": "The token does not exist."
        }
      ],
      "OwnershipNotInitializedForExtraData()": [
        {
          "notice": "The `extraData` cannot be set on an unintialized ownership slot."
        }
      ],
      "TransferCallerNotOwnerNorApproved()": [
        {
          "notice": "The caller must own the token or be an approved operator."
        }
      ],
      "TransferFromIncorrectOwner()": [
        {
          "notice": "The token must be owned by `from`."
        }
      ],
      "TransferToNonERC721ReceiverImplementer()": [
        {
          "notice": "Cannot safely transfer to a contract that does not implement the ERC721Receiver interface."
        }
      ],
      "TransferToZeroAddress()": [
        {
          "notice": "Cannot transfer to the zero address."
        }
      ],
      "URIQueryForNonexistentToken()": [
        {
          "notice": "The token does not exist."
        }
      ]
    },
    "kind": "user",
    "methods": {
      "airdrop(address[],uint256)": {
        "notice": "Airdrops tokens to a list of recipients. Only callable by the contract owner."
      },
      "blackHoleForTokenId(uint256)": {
        "notice": "Get the structured representation of a token by its ID."
      },
      "getAdjustmentForMass(uint256)": {
        "notice": "Gets adjustment for a given mass."
      },
      "getMintState()": {
        "notice": "Returns the current mint state."
      },
      "getPrice()": {
        "notice": "Gets the current price of a token."
      },
      "isMergingEnabled()": {
        "notice": "Returns whether merging is enabled or not."
      },
      "merge(uint256[])": {
        "notice": "Merges a list of tokens into a single token."
      },
      "mint(uint256)": {
        "notice": "Mints new tokens for the caller. If the caller mints tokens across the TIMED_SALE_THRESHOLD, it will mint as many as it can with the given amount of ETH."
      },
      "nameForBlackHoleLevel(uint256)": {
        "notice": "Returns the name of a black hole level."
      },
      "setMergingDelay(uint256)": {
        "notice": "Sets the merging delay."
      },
      "setPrice(uint256)": {
        "notice": "Sets the price of each token in wei."
      },
      "setTimedSaleDuration(uint256)": {
        "notice": "Sets the timed sale duration."
      },
      "setTimedSalePrice(uint256)": {
        "notice": "Sets the price of a token during the timed sale."
      },
      "setTimedSaleThreshold(uint256)": {
        "notice": "Sets the number of tokens that need to be minted for the timed sale to start."
      },
      "tokenURI(uint256)": {
        "notice": "Returns the token URI for a given token ID."
      },
      "upgradeIntervals()": {
        "notice": "Returns the mass required to upgrade to the next level for each level."
      },
      "withdraw()": {
        "notice": "Withdraws the contract's balance. Only callable by the contract owner."
      }
    },
    "version": 1
  },
  "storageLayout": {
    "storage": [
      {
        "astId": 3032,
        "contract": "contracts/BlackHoles.sol:BlackHoles",
        "label": "_currentIndex",
        "offset": 0,
        "slot": "0",
        "type": "t_uint256"
      },
      {
        "astId": 3034,
        "contract": "contracts/BlackHoles.sol:BlackHoles",
        "label": "_burnCounter",
        "offset": 0,
        "slot": "1",
        "type": "t_uint256"
      },
      {
        "astId": 3036,
        "contract": "contracts/BlackHoles.sol:BlackHoles",
        "label": "_name",
        "offset": 0,
        "slot": "2",
        "type": "t_string_storage"
      },
      {
        "astId": 3038,
        "contract": "contracts/BlackHoles.sol:BlackHoles",
        "label": "_symbol",
        "offset": 0,
        "slot": "3",
        "type": "t_string_storage"
      },
      {
        "astId": 3042,
        "contract": "contracts/BlackHoles.sol:BlackHoles",
        "label": "_packedOwnerships",
        "offset": 0,
        "slot": "4",
        "type": "t_mapping(t_uint256,t_uint256)"
      },
      {
        "astId": 3046,
        "contract": "contracts/BlackHoles.sol:BlackHoles",
        "label": "_packedAddressData",
        "offset": 0,
        "slot": "5",
        "type": "t_mapping(t_address,t_uint256)"
      },
      {
        "astId": 3051,
        "contract": "contracts/BlackHoles.sol:BlackHoles",
        "label": "_tokenApprovals",
        "offset": 0,
        "slot": "6",
        "type": "t_mapping(t_uint256,t_struct(TokenApprovalRef)2964_storage)"
      },
      {
        "astId": 3057,
        "contract": "contracts/BlackHoles.sol:BlackHoles",
        "label": "_operatorApprovals",
        "offset": 0,
        "slot": "7",
        "type": "t_mapping(t_address,t_mapping(t_address,t_bool))"
      },
      {
        "astId": 7,
        "contract": "contracts/BlackHoles.sol:BlackHoles",
        "label": "_owner",
        "offset": 0,
        "slot": "8",
        "type": "t_address"
      },
      {
        "astId": 167,
        "contract": "contracts/BlackHoles.sol:BlackHoles",
        "label": "BLACK_HOLE_NAMES",
        "offset": 0,
        "slot": "9",
        "type": "t_array(t_string_storage)dyn_storage"
      },
      {
        "astId": 169,
        "contract": "contracts/BlackHoles.sol:BlackHoles",
        "label": "price",
        "offset": 0,
        "slot": "10",
        "type": "t_uint256"
      },
      {
        "astId": 171,
        "contract": "contracts/BlackHoles.sol:BlackHoles",
        "label": "timedSalePrice",
        "offset": 0,
        "slot": "11",
        "type": "t_uint256"
      },
      {
        "astId": 173,
        "contract": "contracts/BlackHoles.sol:BlackHoles",
        "label": "timedSaleEndTimestamp",
        "offset": 0,
        "slot": "12",
        "type": "t_uint256"
      },
      {
        "astId": 176,
        "contract": "contracts/BlackHoles.sol:BlackHoles",
        "label": "timedSaleThreshold",
        "offset": 0,
        "slot": "13",
        "type": "t_uint256"
      },
      {
        "astId": 179,
        "contract": "contracts/BlackHoles.sol:BlackHoles",
        "label": "timedSaleDuration",
        "offset": 0,
        "slot": "14",
        "type": "t_uint256"
      },
      {
        "astId": 182,
        "contract": "contracts/BlackHoles.sol:BlackHoles",
        "label": "mergingDelay",
        "offset": 0,
        "slot": "15",
        "type": "t_uint256"
      },
      {
        "astId": 186,
        "contract": "contracts/BlackHoles.sol:BlackHoles",
        "label": "massesConsumed",
        "offset": 0,
        "slot": "16",
        "type": "t_mapping(t_uint256,t_uint256)"
      },
      {
        "astId": 189,
        "contract": "contracts/BlackHoles.sol:BlackHoles",
        "label": "renderer",
        "offset": 0,
        "slot": "17",
        "type": "t_contract(Renderer)2485"
      }
    ],
    "types": {
      "t_address": {
        "encoding": "inplace",
        "label": "address",
        "numberOfBytes": "20"
      },
      "t_array(t_string_storage)dyn_storage": {
        "base": "t_string_storage",
        "encoding": "dynamic_array",
        "label": "string[]",
        "numberOfBytes": "32"
      },
      "t_bool": {
        "encoding": "inplace",
        "label": "bool",
        "numberOfBytes": "1"
      },
      "t_contract(Renderer)2485": {
        "encoding": "inplace",
        "label": "contract Renderer",
        "numberOfBytes": "20"
      },
      "t_mapping(t_address,t_bool)": {
        "encoding": "mapping",
        "key": "t_address",
        "label": "mapping(address => bool)",
        "numberOfBytes": "32",
        "value": "t_bool"
      },
      "t_mapping(t_address,t_mapping(t_address,t_bool))": {
        "encoding": "mapping",
        "key": "t_address",
        "label": "mapping(address => mapping(address => bool))",
        "numberOfBytes": "32",
        "value": "t_mapping(t_address,t_bool)"
      },
      "t_mapping(t_address,t_uint256)": {
        "encoding": "mapping",
        "key": "t_address",
        "label": "mapping(address => uint256)",
        "numberOfBytes": "32",
        "value": "t_uint256"
      },
      "t_mapping(t_uint256,t_struct(TokenApprovalRef)2964_storage)": {
        "encoding": "mapping",
        "key": "t_uint256",
        "label": "mapping(uint256 => struct ERC721A.TokenApprovalRef)",
        "numberOfBytes": "32",
        "value": "t_struct(TokenApprovalRef)2964_storage"
      },
      "t_mapping(t_uint256,t_uint256)": {
        "encoding": "mapping",
        "key": "t_uint256",
        "label": "mapping(uint256 => uint256)",
        "numberOfBytes": "32",
        "value": "t_uint256"
      },
      "t_string_storage": {
        "encoding": "bytes",
        "label": "string",
        "numberOfBytes": "32"
      },
      "t_struct(TokenApprovalRef)2964_storage": {
        "encoding": "inplace",
        "label": "struct ERC721A.TokenApprovalRef",
        "members": [
          {
            "astId": 2963,
            "contract": "contracts/BlackHoles.sol:BlackHoles",
            "label": "value",
            "offset": 0,
            "slot": "0",
            "type": "t_address"
          }
        ],
        "numberOfBytes": "32"
      },
      "t_uint256": {
        "encoding": "inplace",
        "label": "uint256",
        "numberOfBytes": "32"
      }
    }
  }
}