{
  "address": "0xB1eB2102FB5EF07b2f11Cc73959c045CE21C2d0c",
  "abi": [
    {
      "inputs": [
        {
          "internalType": "string",
          "name": "_name",
          "type": "string"
        },
        {
          "internalType": "string",
          "name": "_symbol",
          "type": "string"
        },
        {
          "internalType": "uint256",
          "name": "_price",
          "type": "uint256"
        },
        {
          "internalType": "uint256",
          "name": "_timedSalePrice",
          "type": "uint256"
        },
        {
          "internalType": "address",
          "name": "_renderer",
          "type": "address"
        }
      ],
      "stateMutability": "nonpayable",
      "type": "constructor"
    },
    {
      "inputs": [],
      "name": "ApprovalCallerNotOwnerNorApproved",
      "type": "error"
    },
    {
      "inputs": [],
      "name": "ApprovalQueryForNonexistentToken",
      "type": "error"
    },
    {
      "inputs": [],
      "name": "BalanceQueryForZeroAddress",
      "type": "error"
    },
    {
      "inputs": [],
      "name": "MintERC2309QuantityExceedsLimit",
      "type": "error"
    },
    {
      "inputs": [],
      "name": "MintToZeroAddress",
      "type": "error"
    },
    {
      "inputs": [],
      "name": "MintZeroQuantity",
      "type": "error"
    },
    {
      "inputs": [],
      "name": "OwnerQueryForNonexistentToken",
      "type": "error"
    },
    {
      "inputs": [],
      "name": "OwnershipNotInitializedForExtraData",
      "type": "error"
    },
    {
      "inputs": [],
      "name": "TransferCallerNotOwnerNorApproved",
      "type": "error"
    },
    {
      "inputs": [],
      "name": "TransferFromIncorrectOwner",
      "type": "error"
    },
    {
      "inputs": [],
      "name": "TransferToNonERC721ReceiverImplementer",
      "type": "error"
    },
    {
      "inputs": [],
      "name": "TransferToZeroAddress",
      "type": "error"
    },
    {
      "inputs": [],
      "name": "URIQueryForNonexistentToken",
      "type": "error"
    },
    {
      "anonymous": false,
      "inputs": [
        {
          "indexed": true,
          "internalType": "address",
          "name": "owner",
          "type": "address"
        },
        {
          "indexed": true,
          "internalType": "address",
          "name": "approved",
          "type": "address"
        },
        {
          "indexed": true,
          "internalType": "uint256",
          "name": "tokenId",
          "type": "uint256"
        }
      ],
      "name": "Approval",
      "type": "event"
    },
    {
      "anonymous": false,
      "inputs": [
        {
          "indexed": true,
          "internalType": "address",
          "name": "owner",
          "type": "address"
        },
        {
          "indexed": true,
          "internalType": "address",
          "name": "operator",
          "type": "address"
        },
        {
          "indexed": false,
          "internalType": "bool",
          "name": "approved",
          "type": "bool"
        }
      ],
      "name": "ApprovalForAll",
      "type": "event"
    },
    {
      "anonymous": false,
      "inputs": [
        {
          "indexed": true,
          "internalType": "uint256",
          "name": "fromTokenId",
          "type": "uint256"
        },
        {
          "indexed": false,
          "internalType": "uint256",
          "name": "toTokenId",
          "type": "uint256"
        },
        {
          "indexed": true,
          "internalType": "address",
          "name": "from",
          "type": "address"
        },
        {
          "indexed": true,
          "internalType": "address",
          "name": "to",
          "type": "address"
        }
      ],
      "name": "ConsecutiveTransfer",
      "type": "event"
    },
    {
      "anonymous": false,
      "inputs": [
        {
          "indexed": false,
          "internalType": "uint256",
          "name": "_tokenId",
          "type": "uint256"
        }
      ],
      "name": "MetadataUpdate",
      "type": "event"
    },
    {
      "anonymous": false,
      "inputs": [
        {
          "indexed": true,
          "internalType": "address",
          "name": "previousOwner",
          "type": "address"
        },
        {
          "indexed": true,
          "internalType": "address",
          "name": "newOwner",
          "type": "address"
        }
      ],
      "name": "OwnershipTransferred",
      "type": "event"
    },
    {
      "anonymous": false,
      "inputs": [],
      "name": "TimedSaleStarted",
      "type": "event"
    },
    {
      "anonymous": false,
      "inputs": [
        {
          "indexed": true,
          "internalType": "address",
          "name": "from",
          "type": "address"
        },
        {
          "indexed": true,
          "internalType": "address",
          "name": "to",
          "type": "address"
        },
        {
          "indexed": true,
          "internalType": "uint256",
          "name": "tokenId",
          "type": "uint256"
        }
      ],
      "name": "Transfer",
      "type": "event"
    },
    {
      "inputs": [
        {
          "internalType": "uint256",
          "name": "",
          "type": "uint256"
        }
      ],
      "name": "BLACK_HOLE_NAMES",
      "outputs": [
        {
          "internalType": "string",
          "name": "",
          "type": "string"
        }
      ],
      "stateMutability": "view",
      "type": "function"
    },
    {
      "inputs": [],
      "name": "MAX_LEVEL",
      "outputs": [
        {
          "internalType": "uint256",
          "name": "",
          "type": "uint256"
        }
      ],
      "stateMutability": "view",
      "type": "function"
    },
    {
      "inputs": [],
      "name": "MAX_SUPPLY_OF_INTERSTELLAR",
      "outputs": [
        {
          "internalType": "uint256",
          "name": "",
          "type": "uint256"
        }
      ],
      "stateMutability": "view",
      "type": "function"
    },
    {
      "inputs": [
        {
          "internalType": "address[]",
          "name": "_recipients",
          "type": "address[]"
        },
        {
          "internalType": "uint256",
          "name": "_quantity",
          "type": "uint256"
        }
      ],
      "name": "airdrop",
      "outputs": [],
      "stateMutability": "payable",
      "type": "function"
    },
    {
      "inputs": [],
      "name": "allBlackHoleLevelNames",
      "outputs": [
        {
          "internalType": "string[]",
          "name": "",
          "type": "string[]"
        }
      ],
      "stateMutability": "view",
      "type": "function"
    },
    {
      "inputs": [
        {
          "internalType": "address",
          "name": "to",
          "type": "address"
        },
        {
          "internalType": "uint256",
          "name": "tokenId",
          "type": "uint256"
        }
      ],
      "name": "approve",
      "outputs": [],
      "stateMutability": "payable",
      "type": "function"
    },
    {
      "inputs": [
        {
          "internalType": "address",
          "name": "owner",
          "type": "address"
        }
      ],
      "name": "balanceOf",
      "outputs": [
        {
          "internalType": "uint256",
          "name": "",
          "type": "uint256"
        }
      ],
      "stateMutability": "view",
      "type": "function"
    },
    {
      "inputs": [
        {
          "internalType": "uint256",
          "name": "_tokenId",
          "type": "uint256"
        }
      ],
      "name": "blackHoleForTokenId",
      "outputs": [
        {
          "components": [
            {
              "internalType": "uint256",
              "name": "tokenId",
              "type": "uint256"
            },
            {
              "internalType": "uint256",
              "name": "level",
              "type": "uint256"
            },
            {
              "internalType": "uint256",
              "name": "size",
              "type": "uint256"
            },
            {
              "internalType": "uint256",
              "name": "mass",
              "type": "uint256"
            },
            {
              "internalType": "uint256",
              "name": "adjustment",
              "type": "uint256"
            },
            {
              "internalType": "string",
              "name": "name",
              "type": "string"
            }
          ],
          "internalType": "struct BlackHole",
          "name": "",
          "type": "tuple"
        }
      ],
      "stateMutability": "view",
      "type": "function"
    },
    {
      "inputs": [
        {
          "internalType": "uint256[]",
          "name": "tokenIds",
          "type": "uint256[]"
        }
      ],
      "name": "blackHolesForTokenIds",
      "outputs": [
        {
          "components": [
            {
              "internalType": "uint256",
              "name": "tokenId",
              "type": "uint256"
            },
            {
              "internalType": "uint256",
              "name": "level",
              "type": "uint256"
            },
            {
              "internalType": "uint256",
              "name": "size",
              "type": "uint256"
            },
            {
              "internalType": "uint256",
              "name": "mass",
              "type": "uint256"
            },
            {
              "internalType": "uint256",
              "name": "adjustment",
              "type": "uint256"
            },
            {
              "internalType": "string",
              "name": "name",
              "type": "string"
            }
          ],
          "internalType": "struct BlackHole[]",
          "name": "",
          "type": "tuple[]"
        }
      ],
      "stateMutability": "view",
      "type": "function"
    },
    {
      "inputs": [
        {
          "internalType": "uint256",
          "name": "_mass",
          "type": "uint256"
        }
      ],
      "name": "getAdjustmentForMass",
      "outputs": [
        {
          "internalType": "uint256",
          "name": "",
          "type": "uint256"
        }
      ],
      "stateMutability": "view",
      "type": "function"
    },
    {
      "inputs": [
        {
          "internalType": "uint256",
          "name": "tokenId",
          "type": "uint256"
        }
      ],
      "name": "getApproved",
      "outputs": [
        {
          "internalType": "address",
          "name": "",
          "type": "address"
        }
      ],
      "stateMutability": "view",
      "type": "function"
    },
    {
      "inputs": [],
      "name": "getBaseUpgradeMass",
      "outputs": [
        {
          "internalType": "uint256",
          "name": "",
          "type": "uint256"
        }
      ],
      "stateMutability": "view",
      "type": "function"
    },
    {
      "inputs": [],
      "name": "getMintState",
      "outputs": [
        {
          "internalType": "enum BlackHoles.MintState",
          "name": "",
          "type": "uint8"
        }
      ],
      "stateMutability": "view",
      "type": "function"
    },
    {
      "inputs": [],
      "name": "getPrice",
      "outputs": [
        {
          "internalType": "uint256",
          "name": "",
          "type": "uint256"
        }
      ],
      "stateMutability": "view",
      "type": "function"
    },
    {
      "inputs": [
        {
          "internalType": "address",
          "name": "owner",
          "type": "address"
        },
        {
          "internalType": "address",
          "name": "operator",
          "type": "address"
        }
      ],
      "name": "isApprovedForAll",
      "outputs": [
        {
          "internalType": "bool",
          "name": "",
          "type": "bool"
        }
      ],
      "stateMutability": "view",
      "type": "function"
    },
    {
      "inputs": [],
      "name": "isMergingEnabled",
      "outputs": [
        {
          "internalType": "bool",
          "name": "",
          "type": "bool"
        }
      ],
      "stateMutability": "view",
      "type": "function"
    },
    {
      "inputs": [
        {
          "internalType": "uint256",
          "name": "_mass",
          "type": "uint256"
        }
      ],
      "name": "levelForMass",
      "outputs": [
        {
          "internalType": "uint256",
          "name": "",
          "type": "uint256"
        }
      ],
      "stateMutability": "view",
      "type": "function"
    },
    {
      "inputs": [
        {
          "internalType": "uint256",
          "name": "_tokenId",
          "type": "uint256"
        }
      ],
      "name": "massForTokenId",
      "outputs": [
        {
          "internalType": "uint256",
          "name": "",
          "type": "uint256"
        }
      ],
      "stateMutability": "view",
      "type": "function"
    },
    {
      "inputs": [
        {
          "internalType": "uint256",
          "name": "",
          "type": "uint256"
        }
      ],
      "name": "massesConsumed",
      "outputs": [
        {
          "internalType": "uint256",
          "name": "",
          "type": "uint256"
        }
      ],
      "stateMutability": "view",
      "type": "function"
    },
    {
      "inputs": [
        {
          "internalType": "uint256[]",
          "name": "tokens",
          "type": "uint256[]"
        }
      ],
      "name": "merge",
      "outputs": [],
      "stateMutability": "nonpayable",
      "type": "function"
    },
    {
      "inputs": [],
      "name": "mergingDelay",
      "outputs": [
        {
          "internalType": "uint256",
          "name": "",
          "type": "uint256"
        }
      ],
      "stateMutability": "view",
      "type": "function"
    },
    {
      "inputs": [
        {
          "internalType": "uint256",
          "name": "_quantity",
          "type": "uint256"
        }
      ],
      "name": "mint",
      "outputs": [],
      "stateMutability": "payable",
      "type": "function"
    },
    {
      "inputs": [],
      "name": "name",
      "outputs": [
        {
          "internalType": "string",
          "name": "",
          "type": "string"
        }
      ],
      "stateMutability": "view",
      "type": "function"
    },
    {
      "inputs": [
        {
          "internalType": "uint256",
          "name": "_level",
          "type": "uint256"
        }
      ],
      "name": "nameForBlackHoleLevel",
      "outputs": [
        {
          "internalType": "string",
          "name": "",
          "type": "string"
        }
      ],
      "stateMutability": "view",
      "type": "function"
    },
    {
      "inputs": [],
      "name": "owner",
      "outputs": [
        {
          "internalType": "address",
          "name": "",
          "type": "address"
        }
      ],
      "stateMutability": "view",
      "type": "function"
    },
    {
      "inputs": [
        {
          "internalType": "uint256",
          "name": "tokenId",
          "type": "uint256"
        }
      ],
      "name": "ownerOf",
      "outputs": [
        {
          "internalType": "address",
          "name": "",
          "type": "address"
        }
      ],
      "stateMutability": "view",
      "type": "function"
    },
    {
      "inputs": [],
      "name": "price",
      "outputs": [
        {
          "internalType": "uint256",
          "name": "",
          "type": "uint256"
        }
      ],
      "stateMutability": "view",
      "type": "function"
    },
    {
      "inputs": [],
      "name": "renderer",
      "outputs": [
        {
          "internalType": "contract Renderer",
          "name": "",
          "type": "address"
        }
      ],
      "stateMutability": "view",
      "type": "function"
    },
    {
      "inputs": [],
      "name": "renounceOwnership",
      "outputs": [],
      "stateMutability": "nonpayable",
      "type": "function"
    },
    {
      "inputs": [
        {
          "internalType": "address",
          "name": "from",
          "type": "address"
        },
        {
          "internalType": "address",
          "name": "to",
          "type": "address"
        },
        {
          "internalType": "uint256",
          "name": "tokenId",
          "type": "uint256"
        }
      ],
      "name": "safeTransferFrom",
      "outputs": [],
      "stateMutability": "payable",
      "type": "function"
    },
    {
      "inputs": [
        {
          "internalType": "address",
          "name": "from",
          "type": "address"
        },
        {
          "internalType": "address",
          "name": "to",
          "type": "address"
        },
        {
          "internalType": "uint256",
          "name": "tokenId",
          "type": "uint256"
        },
        {
          "internalType": "bytes",
          "name": "_data",
          "type": "bytes"
        }
      ],
      "name": "safeTransferFrom",
      "outputs": [],
      "stateMutability": "payable",
      "type": "function"
    },
    {
      "inputs": [
        {
          "internalType": "address",
          "name": "operator",
          "type": "address"
        },
        {
          "internalType": "bool",
          "name": "approved",
          "type": "bool"
        }
      ],
      "name": "setApprovalForAll",
      "outputs": [],
      "stateMutability": "nonpayable",
      "type": "function"
    },
    {
      "inputs": [
        {
          "internalType": "uint256",
          "name": "_mergingDelay",
          "type": "uint256"
        }
      ],
      "name": "setMergingDelay",
      "outputs": [],
      "stateMutability": "nonpayable",
      "type": "function"
    },
    {
      "inputs": [
        {
          "internalType": "uint256",
          "name": "_price",
          "type": "uint256"
        }
      ],
      "name": "setPrice",
      "outputs": [],
      "stateMutability": "nonpayable",
      "type": "function"
    },
    {
      "inputs": [
        {
          "internalType": "uint256",
          "name": "_timedSaleDuration",
          "type": "uint256"
        }
      ],
      "name": "setTimedSaleDuration",
      "outputs": [],
      "stateMutability": "nonpayable",
      "type": "function"
    },
    {
      "inputs": [
        {
          "internalType": "uint256",
          "name": "_timedSalePrice",
          "type": "uint256"
        }
      ],
      "name": "setTimedSalePrice",
      "outputs": [],
      "stateMutability": "nonpayable",
      "type": "function"
    },
    {
      "inputs": [
        {
          "internalType": "uint256",
          "name": "_timedSaleThreshold",
          "type": "uint256"
        }
      ],
      "name": "setTimedSaleThreshold",
      "outputs": [],
      "stateMutability": "nonpayable",
      "type": "function"
    },
    {
      "inputs": [
        {
          "internalType": "bytes4",
          "name": "interfaceId",
          "type": "bytes4"
        }
      ],
      "name": "supportsInterface",
      "outputs": [
        {
          "internalType": "bool",
          "name": "",
          "type": "bool"
        }
      ],
      "stateMutability": "view",
      "type": "function"
    },
    {
      "inputs": [],
      "name": "symbol",
      "outputs": [
        {
          "internalType": "string",
          "name": "",
          "type": "string"
        }
      ],
      "stateMutability": "view",
      "type": "function"
    },
    {
      "inputs": [],
      "name": "timedSaleDuration",
      "outputs": [
        {
          "internalType": "uint256",
          "name": "",
          "type": "uint256"
        }
      ],
      "stateMutability": "view",
      "type": "function"
    },
    {
      "inputs": [],
      "name": "timedSaleEndTimestamp",
      "outputs": [
        {
          "internalType": "uint256",
          "name": "",
          "type": "uint256"
        }
      ],
      "stateMutability": "view",
      "type": "function"
    },
    {
      "inputs": [],
      "name": "timedSalePrice",
      "outputs": [
        {
          "internalType": "uint256",
          "name": "",
          "type": "uint256"
        }
      ],
      "stateMutability": "view",
      "type": "function"
    },
    {
      "inputs": [],
      "name": "timedSaleStartedTimestamp",
      "outputs": [
        {
          "internalType": "uint256",
          "name": "",
          "type": "uint256"
        }
      ],
      "stateMutability": "view",
      "type": "function"
    },
    {
      "inputs": [],
      "name": "timedSaleThreshold",
      "outputs": [
        {
          "internalType": "uint256",
          "name": "",
          "type": "uint256"
        }
      ],
      "stateMutability": "view",
      "type": "function"
    },
    {
      "inputs": [
        {
          "internalType": "uint256",
          "name": "_tokenId",
          "type": "uint256"
        }
      ],
      "name": "tokenURI",
      "outputs": [
        {
          "internalType": "string",
          "name": "",
          "type": "string"
        }
      ],
      "stateMutability": "view",
      "type": "function"
    },
    {
      "inputs": [],
      "name": "totalBurned",
      "outputs": [
        {
          "internalType": "uint256",
          "name": "",
          "type": "uint256"
        }
      ],
      "stateMutability": "view",
      "type": "function"
    },
    {
      "inputs": [],
      "name": "totalMinted",
      "outputs": [
        {
          "internalType": "uint256",
          "name": "",
          "type": "uint256"
        }
      ],
      "stateMutability": "view",
      "type": "function"
    },
    {
      "inputs": [],
      "name": "totalSupply",
      "outputs": [
        {
          "internalType": "uint256",
          "name": "",
          "type": "uint256"
        }
      ],
      "stateMutability": "view",
      "type": "function"
    },
    {
      "inputs": [
        {
          "internalType": "address",
          "name": "from",
          "type": "address"
        },
        {
          "internalType": "address",
          "name": "to",
          "type": "address"
        },
        {
          "internalType": "uint256",
          "name": "tokenId",
          "type": "uint256"
        }
      ],
      "name": "transferFrom",
      "outputs": [],
      "stateMutability": "payable",
      "type": "function"
    },
    {
      "inputs": [
        {
          "internalType": "address",
          "name": "newOwner",
          "type": "address"
        }
      ],
      "name": "transferOwnership",
      "outputs": [],
      "stateMutability": "nonpayable",
      "type": "function"
    },
    {
      "inputs": [],
      "name": "upgradeIntervals",
      "outputs": [
        {
          "internalType": "uint256[]",
          "name": "",
          "type": "uint256[]"
        }
      ],
      "stateMutability": "view",
      "type": "function"
    },
    {
      "inputs": [],
      "name": "withdraw",
      "outputs": [],
      "stateMutability": "nonpayable",
      "type": "function"
    }
  ],
  "transactionHash": "0x2752c3a10c541a978734170c4196194efb9eae5b390a0680c5b63829698bf097",
  "args": [
    "Test",
    "TEST",
    "3000000000000000",
    "4000000000000000",
    "0x5C318A581461B78e177d35055459c2114B07372b"
  ],
  "numDeployments": 4,
  "solcInputHash": "14819c4101c7213e5ddbc0627a854636",
  "bytecode": "0x60c06040526004608090815250602a60a0908152506040518060a001604052806040518060400160405280600581526020017f4d6963726f00000000000000000000000000000000000000000000000000000081525081526020016040518060400160405280600781526020017f5374656c6c61720000000000000000000000000000000000000000000000000081525081526020016040518060400160405280600c81526020017f496e7465726d656469617465000000000000000000000000000000000000000081525081526020016040518060400160405280600c81526020017f53757065726d617373697665000000000000000000000000000000000000000081525081526020016040518060400160405280600a81526020017f5072696d6f726469616c000000000000000000000000000000000000000000008152508152506009906005620001569291906200032d565b506103e8600d5562015180600e5562069780600f553480156200017857600080fd5b5060405162005d2e38038062005d2e83398181016040528101906200019e91906200064d565b84848160029081620001b1919062000954565b508060039081620001c3919062000954565b50620001d46200025660201b60201c565b6000819055505050620001fc620001f06200025f60201b60201c565b6200026760201b60201c565b82600a8190555081600b8190555080601160006101000a81548173ffffffffffffffffffffffffffffffffffffffff021916908373ffffffffffffffffffffffffffffffffffffffff160217905550505050505062000a3b565b60006001905090565b600033905090565b6000600860009054906101000a900473ffffffffffffffffffffffffffffffffffffffff16905081600860006101000a81548173ffffffffffffffffffffffffffffffffffffffff021916908373ffffffffffffffffffffffffffffffffffffffff1602179055508173ffffffffffffffffffffffffffffffffffffffff168173ffffffffffffffffffffffffffffffffffffffff167f8be0079c531659141344cd1fd0a4f28419497f9722a3daafe3b4186f6b6457e060405160405180910390a35050565b8280548282559060005260206000209081019282156200037a579160200282015b828111156200037957825182908162000368919062000954565b50916020019190600101906200034e565b5b5090506200038991906200038d565b5090565b5b80821115620003b15760008181620003a79190620003b5565b506001016200038e565b5090565b508054620003c3906200074d565b6000825580601f10620003d75750620003f8565b601f016020900490600052602060002090810190620003f79190620003fb565b5b50565b5b8082111562000416576000816000905550600101620003fc565b5090565b6000604051905090565b600080fd5b600080fd5b600080fd5b600080fd5b6000601f19601f8301169050919050565b7f4e487b7100000000000000000000000000000000000000000000000000000000600052604160045260246000fd5b620004838262000438565b810181811067ffffffffffffffff82111715620004a557620004a462000449565b5b80604052505050565b6000620004ba6200041a565b9050620004c8828262000478565b919050565b600067ffffffffffffffff821115620004eb57620004ea62000449565b5b620004f68262000438565b9050602081019050919050565b60005b838110156200052357808201518184015260208101905062000506565b60008484015250505050565b6000620005466200054084620004cd565b620004ae565b90508281526020810184848401111562000565576200056462000433565b5b6200057284828562000503565b509392505050565b600082601f8301126200059257620005916200042e565b5b8151620005a48482602086016200052f565b91505092915050565b6000819050919050565b620005c281620005ad565b8114620005ce57600080fd5b50565b600081519050620005e281620005b7565b92915050565b600073ffffffffffffffffffffffffffffffffffffffff82169050919050565b60006200061582620005e8565b9050919050565b620006278162000608565b81146200063357600080fd5b50565b60008151905062000647816200061c565b92915050565b600080600080600060a086880312156200066c576200066b62000424565b5b600086015167ffffffffffffffff8111156200068d576200068c62000429565b5b6200069b888289016200057a565b955050602086015167ffffffffffffffff811115620006bf57620006be62000429565b5b620006cd888289016200057a565b9450506040620006e088828901620005d1565b9350506060620006f388828901620005d1565b9250506080620007068882890162000636565b9150509295509295909350565b600081519050919050565b7f4e487b7100000000000000000000000000000000000000000000000000000000600052602260045260246000fd5b600060028204905060018216806200076657607f821691505b6020821081036200077c576200077b6200071e565b5b50919050565b60008190508160005260206000209050919050565b60006020601f8301049050919050565b600082821b905092915050565b600060088302620007e67fffffffffffffffffffffffffffffffffffffffffffffffffffffffffffffffff82620007a7565b620007f28683620007a7565b95508019841693508086168417925050509392505050565b6000819050919050565b6000620008356200082f6200082984620005ad565b6200080a565b620005ad565b9050919050565b6000819050919050565b620008518362000814565b6200086962000860826200083c565b848454620007b4565b825550505050565b600090565b6200088062000871565b6200088d81848462000846565b505050565b5b81811015620008b557620008a960008262000876565b60018101905062000893565b5050565b601f8211156200090457620008ce8162000782565b620008d98462000797565b81016020851015620008e9578190505b62000901620008f88562000797565b83018262000892565b50505b505050565b600082821c905092915050565b6000620009296000198460080262000909565b1980831691505092915050565b600062000944838362000916565b9150826002028217905092915050565b6200095f8262000713565b67ffffffffffffffff8111156200097b576200097a62000449565b5b6200098782546200074d565b62000994828285620008b9565b600060209050601f831160018114620009cc5760008415620009b7578287015190505b620009c3858262000936565b86555062000a33565b601f198416620009dc8662000782565b60005b8281101562000a0657848901518255600182019150602085019450602081019050620009df565b8683101562000a26578489015162000a22601f89168262000916565b8355505b6001600288020188555050505b505050505050565b60805160a0516152b862000a7660003960008181611458015261165d015260008181611421015281816115380152611e2f01526152b86000f3fe6080604052600436106102ff5760003560e01c80637858a2a711610190578063a2309ff8116100dc578063ca714e5b11610095578063d89135cd1161006f578063d89135cd14610b70578063de62d84214610b9b578063e985e9c514610bc4578063f2fde38b14610c01576102ff565b8063ca714e5b14610ab9578063cbad784914610af6578063d3dedd6314610b33576102ff565b8063a2309ff8146109b1578063a49062d4146109dc578063b4449b2614610a07578063b88d4fde14610a44578063c204642c14610a60578063c87b56dd14610a7c576102ff565b806393d57dd4116101495780639fc8d6ae116101235780639fc8d6ae14610918578063a035b1fe14610941578063a0712d681461096c578063a22cb46514610988576102ff565b806393d57dd41461089757806395d89b41146108c257806398d5fdca146108ed576102ff565b80637858a2a71461078757806389327f28146107b05780638ada6b0f146107ed5780638b3578c6146108185780638da5cb5b1461084357806391b7f5ed1461086e576102ff565b80633ccfd60b1161024f5780635e23a7631161020857806370a08231116101e257806370a08231146106cb578063715018a614610708578063774a88351461071f5780637752e3681461074a576102ff565b80635e23a763146106265780636352211e146106635780636ae4c0b5146106a0576102ff565b80633ccfd60b1461054757806342842e0e1461055e5780634724d6bd1461057a57806348019b86146105a55780634ca7880c146105d05780635056af05146105fb576102ff565b806318160ddd116102bc5780631df4b972116102965780631df4b972146104ac578063208d12f5146104d757806323b872dd14610500578063310c18131461051c576102ff565b806318160ddd1461041957806318f58b73146104445780631d22dc6f14610481576102ff565b806301ffc9a71461030457806304ec7ed01461034157806306fdde031461036a578063081812fc14610395578063095ea7b3146103d25780630ed89bf0146103ee575b600080fd5b34801561031057600080fd5b5061032b60048036038101906103269190613564565b610c2a565b60405161033891906135ac565b60405180910390f35b34801561034d57600080fd5b50610368600480360381019061036391906135fd565b610cbc565b005b34801561037657600080fd5b5061037f610cce565b60405161038c91906136ba565b60405180910390f35b3480156103a157600080fd5b506103bc60048036038101906103b791906135fd565b610d60565b6040516103c9919061371d565b60405180910390f35b6103ec60048036038101906103e79190613764565b610ddf565b005b3480156103fa57600080fd5b50610403610f23565b60405161041091906138b0565b60405180910390f35b34801561042557600080fd5b5061042e610ffc565b60405161043b91906138e1565b60405180910390f35b34801561045057600080fd5b5061046b60048036038101906104669190613a44565b611013565b6040516104789190613be7565b60405180910390f35b34801561048d57600080fd5b506104966110d8565b6040516104a391906138e1565b60405180910390f35b3480156104b857600080fd5b506104c16110de565b6040516104ce91906138e1565b60405180910390f35b3480156104e357600080fd5b506104fe60048036038101906104f991906135fd565b6110e4565b005b61051a60048036038101906105159190613c09565b6110f6565b005b34801561052857600080fd5b50610531611418565b60405161053e91906138e1565b60405180910390f35b34801561055357600080fd5b5061055c61149f565b005b61057860048036038101906105739190613c09565b6114e7565b005b34801561058657600080fd5b5061058f611507565b60405161059c91906138e1565b60405180910390f35b3480156105b157600080fd5b506105ba61150d565b6040516105c791906138e1565b60405180910390f35b3480156105dc57600080fd5b506105e5611524565b6040516105f29190613d0b565b60405180910390f35b34801561060757600080fd5b5061061061165b565b60405161061d91906138e1565b60405180910390f35b34801561063257600080fd5b5061064d600480360381019061064891906135fd565b61167f565b60405161065a91906138e1565b60405180910390f35b34801561066f57600080fd5b5061068a600480360381019061068591906135fd565b6116a8565b604051610697919061371d565b60405180910390f35b3480156106ac57600080fd5b506106b56116ba565b6040516106c291906138e1565b60405180910390f35b3480156106d757600080fd5b506106f260048036038101906106ed9190613d2d565b6116c0565b6040516106ff91906138e1565b60405180910390f35b34801561071457600080fd5b5061071d611778565b005b34801561072b57600080fd5b5061073461178c565b6040516107419190613dd1565b60405180910390f35b34801561075657600080fd5b50610771600480360381019061076c91906135fd565b6117d7565b60405161077e91906138e1565b60405180910390f35b34801561079357600080fd5b506107ae60048036038101906107a991906135fd565b6117ef565b005b3480156107bc57600080fd5b506107d760048036038101906107d291906135fd565b611801565b6040516107e491906138e1565b60405180910390f35b3480156107f957600080fd5b506108026118b8565b60405161080f9190613e4b565b60405180910390f35b34801561082457600080fd5b5061082d6118de565b60405161083a91906135ac565b60405180910390f35b34801561084f57600080fd5b5061085861193a565b604051610865919061371d565b60405180910390f35b34801561087a57600080fd5b50610895600480360381019061089091906135fd565b611964565b005b3480156108a357600080fd5b506108ac611976565b6040516108b991906138e1565b60405180910390f35b3480156108ce57600080fd5b506108d761197c565b6040516108e491906136ba565b60405180910390f35b3480156108f957600080fd5b50610902611a0e565b60405161090f91906138e1565b60405180910390f35b34801561092457600080fd5b5061093f600480360381019061093a91906135fd565b611a56565b005b34801561094d57600080fd5b50610956611a68565b60405161096391906138e1565b60405180910390f35b610986600480360381019061098191906135fd565b611a6e565b005b34801561099457600080fd5b506109af60048036038101906109aa9190613e92565b611d13565b005b3480156109bd57600080fd5b506109c6611e1e565b6040516109d391906138e1565b60405180910390f35b3480156109e857600080fd5b506109f1611e2d565b6040516109fe91906138e1565b60405180910390f35b348015610a1357600080fd5b50610a2e6004803603810190610a2991906135fd565b611e51565b604051610a3b91906136ba565b60405180910390f35b610a5e6004803603810190610a599190613f87565b611f01565b005b610a7a6004803603810190610a759190614065565b611f74565b005b348015610a8857600080fd5b50610aa36004803603810190610a9e91906135fd565b612041565b604051610ab091906136ba565b60405180910390f35b348015610ac557600080fd5b50610ae06004803603810190610adb91906135fd565b612228565b604051610aed919061414e565b60405180910390f35b348015610b0257600080fd5b50610b1d6004803603810190610b1891906135fd565b61234f565b604051610b2a91906138e1565b60405180910390f35b348015610b3f57600080fd5b50610b5a6004803603810190610b5591906135fd565b61241b565b604051610b6791906136ba565b60405180910390f35b348015610b7c57600080fd5b50610b856124c7565b604051610b9291906138e1565b60405180910390f35b348015610ba757600080fd5b50610bc26004803603810190610bbd9190613a44565b6124d6565b005b348015610bd057600080fd5b50610beb6004803603810190610be69190614170565b612780565b604051610bf891906135ac565b60405180910390f35b348015610c0d57600080fd5b50610c286004803603810190610c239190613d2d565b612814565b005b60006301ffc9a760e01b827bffffffffffffffffffffffffffffffffffffffffffffffffffffffff19161480610c8557506380ac58cd60e01b827bffffffffffffffffffffffffffffffffffffffffffffffffffffffff1916145b80610cb55750635b5e139f60e01b827bffffffffffffffffffffffffffffffffffffffffffffffffffffffff1916145b9050919050565b610cc4612897565b80600e8190555050565b606060028054610cdd906141df565b80601f0160208091040260200160405190810160405280929190818152602001828054610d09906141df565b8015610d565780601f10610d2b57610100808354040283529160200191610d56565b820191906000526020600020905b815481529060010190602001808311610d3957829003601f168201915b5050505050905090565b6000610d6b82612915565b610da1576040517fcf4700e400000000000000000000000000000000000000000000000000000000815260040160405180910390fd5b6006600083815260200190815260200160002060000160009054906101000a900473ffffffffffffffffffffffffffffffffffffffff169050919050565b6000610dea826116a8565b90508073ffffffffffffffffffffffffffffffffffffffff16610e0b612974565b73ffffffffffffffffffffffffffffffffffffffff1614610e6e57610e3781610e32612974565b612780565b610e6d576040517fcfb3b94200000000000000000000000000000000000000000000000000000000815260040160405180910390fd5b5b826006600084815260200190815260200160002060000160006101000a81548173ffffffffffffffffffffffffffffffffffffffff021916908373ffffffffffffffffffffffffffffffffffffffff160217905550818373ffffffffffffffffffffffffffffffffffffffff168273ffffffffffffffffffffffffffffffffffffffff167f8c5be1e5ebec7d5bd14f71427d1e84f3dd0314c0f7b2291e5b200ac8c7c3b92560405160405180910390a4505050565b60606009805480602002602001604051908101604052809291908181526020016000905b82821015610ff3578382906000526020600020018054610f66906141df565b80601f0160208091040260200160405190810160405280929190818152602001828054610f92906141df565b8015610fdf5780601f10610fb457610100808354040283529160200191610fdf565b820191906000526020600020905b815481529060010190602001808311610fc257829003601f168201915b505050505081526020019060010190610f47565b50505050905090565b600061100661297c565b6001546000540303905090565b60606000825167ffffffffffffffff81111561103257611031613901565b5b60405190808252806020026020018201604052801561106b57816020015b6110586134c2565b8152602001906001900390816110505790505b50905060005b83518110156110ce5761109d8482815181106110905761108f614210565b5b6020026020010151612228565b8282815181106110b0576110af614210565b5b602002602001018190525080806110c69061426e565b915050611071565b5080915050919050565b600e5481565b600f5481565b6110ec612897565b80600b8190555050565b600061110182612985565b90508373ffffffffffffffffffffffffffffffffffffffff168173ffffffffffffffffffffffffffffffffffffffff1614611168576040517fa114810000000000000000000000000000000000000000000000000000000000815260040160405180910390fd5b60008061117484612a51565b9150915061118a8187611185612974565b612a78565b6111d65761119f8661119a612974565b612780565b6111d5576040517f59c896be00000000000000000000000000000000000000000000000000000000815260040160405180910390fd5b5b600073ffffffffffffffffffffffffffffffffffffffff168573ffffffffffffffffffffffffffffffffffffffff160361123c576040517fea553b3400000000000000000000000000000000000000000000000000000000815260040160405180910390fd5b6112498686866001612abc565b801561125457600082555b600560008773ffffffffffffffffffffffffffffffffffffffff1673ffffffffffffffffffffffffffffffffffffffff168152602001908152602001600020600081546001900391905081905550600560008673ffffffffffffffffffffffffffffffffffffffff1673ffffffffffffffffffffffffffffffffffffffff1681526020019081526020016000206000815460010191905081905550611322856112fe888887612ac2565b7c020000000000000000000000000000000000000000000000000000000017612aea565b600460008681526020019081526020016000208190555060007c02000000000000000000000000000000000000000000000000000000008416036113a857600060018501905060006004600083815260200190815260200160002054036113a65760005481146113a5578360046000838152602001908152602001600020819055505b5b505b838573ffffffffffffffffffffffffffffffffffffffff168773ffffffffffffffffffffffffffffffffffffffff167fddf252ad1be2c89b69c2b068fc378daa952ba7f163c4a11628f55a4df523b3ef60405160405180910390a46114108686866001612b15565b505050505050565b600061149a60017f000000000000000000000000000000000000000000000000000000000000000061144a91906142b6565b6002611456919061441d565b7f000000000000000000000000000000000000000000000000000000000000000061147f612b1b565b6114899190614497565b6114939190614497565b6002612b2e565b905090565b6114a7612897565b3373ffffffffffffffffffffffffffffffffffffffff166108fc479081150290604051600060405180830381858888f193505050506114e557600080fd5b565b61150283838360405180602001604052806000815250611f01565b505050565b600c5481565b6000600e54600c5461151f91906144c8565b905090565b60606000611530611418565b9050600060017f000000000000000000000000000000000000000000000000000000000000000061156191906144c8565b67ffffffffffffffff81111561157a57611579613901565b5b6040519080825280602002602001820160405280156115a85781602001602082028036833780820191505090505b50905081816000815181106115c0576115bf614210565b5b6020026020010181815250506002826115d991906144fc565b816001815181106115ed576115ec614210565b5b60200260200101818152505060048261160691906144fc565b8160028151811061161a57611619614210565b5b60200260200101818152505060088261163391906144fc565b8160038151811061164757611646614210565b5b602002602001018181525050809250505090565b7f000000000000000000000000000000000000000000000000000000000000000081565b6000600160106000848152602001908152602001600020546116a191906144c8565b9050919050565b60006116b382612985565b9050919050565b600d5481565b60008073ffffffffffffffffffffffffffffffffffffffff168273ffffffffffffffffffffffffffffffffffffffff1603611727576040517f8f4eb60400000000000000000000000000000000000000000000000000000000815260040160405180910390fd5b67ffffffffffffffff600560008473ffffffffffffffffffffffffffffffffffffffff1673ffffffffffffffffffffffffffffffffffffffff16815260200190815260200160002054169050919050565b611780612897565b61178a6000612b47565b565b600080611797612b1b565b9050600d548110156117ad5760009150506117d4565b600e54600c546117bd91906144c8565b4210156117ce5760019150506117d4565b60029150505b90565b60106020528060005260406000206000915090505481565b6117f7612897565b80600d8190555050565b60008061180c611418565b905060006118198461234f565b905060006001808361182b91906144c8565b6002611837919061441d565b8461184291906144fc565b61184c91906142b6565b9050600082600261185d919061441d565b8461186891906144fc565b9050600080841115611878578190505b6000818461188691906142b6565b888561189291906142b6565b601461189e91906144fc565b6118a89190614497565b9050809650505050505050919050565b601160009054906101000a900473ffffffffffffffffffffffffffffffffffffffff1681565b60006002808111156118f3576118f2613d5a565b5b6118fb61178c565b600281111561190d5761190c613d5a565b5b1480156119355750600f54600e54600c5461192891906144c8565b61193291906144c8565b42115b905090565b6000600860009054906101000a900473ffffffffffffffffffffffffffffffffffffffff16905090565b61196c612897565b80600a8190555050565b600b5481565b60606003805461198b906141df565b80601f01602080910402602001604051908101604052809291908181526020018280546119b7906141df565b8015611a045780601f106119d957610100808354040283529160200191611a04565b820191906000526020600020905b8154815290600101906020018083116119e757829003601f168201915b5050505050905090565b600060016002811115611a2457611a23613d5a565b5b611a2c61178c565b6002811115611a3e57611a3d613d5a565b5b03611a4d57600b549050611a53565b600a5490505b90565b611a5e612897565b80600f8190555050565b600a5481565b6000611a78611a0e565b90506000611a84612b1b565b90506000611a9061178c565b9050600280811115611aa557611aa4613d5a565b5b816002811115611ab857611ab7613d5a565b5b03611af8576040517f08c379a0000000000000000000000000000000000000000000000000000000008152600401611aef906145a2565b60405180910390fd5b60008483611b0691906144c8565b905060008585611b1691906144fc565b905060006002811115611b2c57611b2b613d5a565b5b836002811115611b3f57611b3e613d5a565b5b148015611b4e5750600d548210155b15611bfd576000600d5483611b6391906142b6565b905060008188611b7391906142b6565b90508681611b8191906144fc565b9250600b548334611b9291906142b6565b611b9c9190614497565b9150600b5482611bac91906144fc565b83611bb791906144c8565b92508181611bc591906144c8565b975042600c819055507f6829347062e9f3db38e85deaf425a1d7ea05e95e20362d8b3889a08745d144cb60405160405180910390a150505b80341015611c40576040517f08c379a0000000000000000000000000000000000000000000000000000000008152600401611c379061460e565b60405180910390fd5b611c4a3387612c0d565b80341115611d0b5760003373ffffffffffffffffffffffffffffffffffffffff168234611c7791906142b6565b604051611c839061465f565b60006040518083038185875af1925050503d8060008114611cc0576040519150601f19603f3d011682016040523d82523d6000602084013e611cc5565b606091505b5050905080611d09576040517f08c379a0000000000000000000000000000000000000000000000000000000008152600401611d00906146c0565b60405180910390fd5b505b505050505050565b8060076000611d20612974565b73ffffffffffffffffffffffffffffffffffffffff1673ffffffffffffffffffffffffffffffffffffffff16815260200190815260200160002060008473ffffffffffffffffffffffffffffffffffffffff1673ffffffffffffffffffffffffffffffffffffffff16815260200190815260200160002060006101000a81548160ff0219169083151502179055508173ffffffffffffffffffffffffffffffffffffffff16611dcd612974565b73ffffffffffffffffffffffffffffffffffffffff167f17307eab39ab6107e8899845ad3d59bd9653f200f220920489ca2b5937696c3183604051611e1291906135ac565b60405180910390a35050565b6000611e28612b1b565b905090565b7f000000000000000000000000000000000000000000000000000000000000000081565b606060098281548110611e6757611e66614210565b5b906000526020600020018054611e7c906141df565b80601f0160208091040260200160405190810160405280929190818152602001828054611ea8906141df565b8015611ef55780601f10611eca57610100808354040283529160200191611ef5565b820191906000526020600020905b815481529060010190602001808311611ed857829003601f168201915b50505050509050919050565b611f0c8484846110f6565b60008373ffffffffffffffffffffffffffffffffffffffff163b14611f6e57611f3784848484612dc8565b611f6d576040517fd1a57ed600000000000000000000000000000000000000000000000000000000815260040160405180910390fd5b5b50505050565b611f7c612897565b600280811115611f8f57611f8e613d5a565b5b611f9761178c565b6002811115611fa957611fa8613d5a565b5b03611fe9576040517f08c379a0000000000000000000000000000000000000000000000000000000008152600401611fe09061472c565b60405180910390fd5b60005b8383905081101561203b5761202884848381811061200d5761200c614210565b5b90506020020160208101906120229190613d2d565b83612c0d565b80806120339061426e565b915050611fec565b50505050565b606061204c82612915565b612082576040517fa14c4b5000000000000000000000000000000000000000000000000000000000815260040160405180910390fd5b600061208d83612f18565b60405160200161209d91906147d4565b604051602081830303815290604052905060006040518060600160405280603d8152602001615206603d9139905060006120d685612228565b90506000601160009054906101000a900473ffffffffffffffffffffffffffffffffffffffff1673ffffffffffffffffffffffffffffffffffffffff1663cfeb9a02836040518263ffffffff1660e01b8152600401612135919061414e565b600060405180830381865afa158015612152573d6000803e3d6000fd5b505050506040513d6000823e3d601f19601f8201168201806040525081019061217b9190614897565b9050600061218c8360200151612f18565b8360a0015161219e8560600151612f18565b6040516020016121b093929190614a82565b604051602081830303815290604052905060008585836121cf866130a0565b6040516020016121e29493929190614d02565b60405160208183030381529060405290506121fc816130a0565b60405160200161220c9190614dce565b6040516020818303038152906040529650505050505050919050565b6122306134c2565b600061223b8361167f565b905060006122488261234f565b9050600061225582611e51565b9050600061226284611801565b90506040518060c0016040528087815260200184815260200184600a61228891906142b6565b6002601160009054906101000a900473ffffffffffffffffffffffffffffffffffffffff1673ffffffffffffffffffffffffffffffffffffffff1663030ac5256040518163ffffffff1660e01b8152600401602060405180830381865afa1580156122f7573d6000803e3d6000fd5b505050506040513d601f19601f8201168201806040525081019061231b9190614e05565b6123259190614497565b61232f91906142b6565b815260200185815260200182815260200183815250945050505050919050565b60008061235a611524565b9050806000815181106123705761236f614210565b5b6020026020010151831015612389576000915050612416565b8060018151811061239d5761239c614210565b5b60200260200101518310156123b6576001915050612416565b806002815181106123ca576123c9614210565b5b60200260200101518310156123e3576002915050612416565b806003815181106123f7576123f6614210565b5b6020026020010151831015612410576003915050612416565b60049150505b919050565b6009818154811061242b57600080fd5b906000526020600020016000915090508054612446906141df565b80601f0160208091040260200160405190810160405280929190818152602001828054612472906141df565b80156124bf5780601f10612494576101008083540402835291602001916124bf565b820191906000526020600020905b8154815290600101906020018083116124a257829003601f168201915b505050505081565b60006124d1613237565b905090565b6124de6118de565b61251d576040517f08c379a000000000000000000000000000000000000000000000000000000000815260040161251490614e7e565b60405180910390fd5b6001815111612561576040517f08c379a000000000000000000000000000000000000000000000000000000000815260040161255890614eea565b60405180910390fd5b60008160008151811061257757612576614210565b5b602002602001015190503373ffffffffffffffffffffffffffffffffffffffff166125bc836000815181106125af576125ae614210565b5b60200260200101516116a8565b73ffffffffffffffffffffffffffffffffffffffff1614612612576040517f08c379a000000000000000000000000000000000000000000000000000000000815260040161260990614f56565b60405180910390fd5b600080600190505b8351811015612719573373ffffffffffffffffffffffffffffffffffffffff1661265d8583815181106126505761264f614210565b5b60200260200101516116a8565b73ffffffffffffffffffffffffffffffffffffffff16146126b3576040517f08c379a00000000000000000000000000000000000000000000000000000000081526004016126aa90614fc2565b60405180910390fd5b6126d68482815181106126c9576126c8614210565b5b602002602001015161167f565b826126e191906144c8565b91506127068482815181106126f9576126f8614210565b5b6020026020010151613241565b80806127119061426e565b91505061261a565b508060106000848152602001908152602001600020600082825461273d91906144c8565b925050819055507ff8e1a15aba9398e019f0b49df1a4fde98ee17ae345cb5f6b5e2c27f5033e8ce78260405161277391906138e1565b60405180910390a1505050565b6000600760008473ffffffffffffffffffffffffffffffffffffffff1673ffffffffffffffffffffffffffffffffffffffff16815260200190815260200160002060008373ffffffffffffffffffffffffffffffffffffffff1673ffffffffffffffffffffffffffffffffffffffff16815260200190815260200160002060009054906101000a900460ff16905092915050565b61281c612897565b600073ffffffffffffffffffffffffffffffffffffffff168173ffffffffffffffffffffffffffffffffffffffff160361288b576040517f08c379a000000000000000000000000000000000000000000000000000000000815260040161288290615054565b60405180910390fd5b61289481612b47565b50565b61289f61324f565b73ffffffffffffffffffffffffffffffffffffffff166128bd61193a565b73ffffffffffffffffffffffffffffffffffffffff1614612913576040517f08c379a000000000000000000000000000000000000000000000000000000000815260040161290a906150c0565b60405180910390fd5b565b60008161292061297c565b1115801561292f575060005482105b801561296d575060007c0100000000000000000000000000000000000000000000000000000000600460008581526020019081526020016000205416145b9050919050565b600033905090565b60006001905090565b6000808290508061299461297c565b11612a1a57600054811015612a195760006004600083815260200190815260200160002054905060007c0100000000000000000000000000000000000000000000000000000000821603612a17575b60008103612a0d5760046000836001900393508381526020019081526020016000205490506129e3565b8092505050612a4c565b505b5b6040517fdf2d9b4200000000000000000000000000000000000000000000000000000000815260040160405180910390fd5b919050565b60008060006006600085815260200190815260200160002090508092508254915050915091565b600073ffffffffffffffffffffffffffffffffffffffff8316925073ffffffffffffffffffffffffffffffffffffffff821691508382148383141790509392505050565b50505050565b60008060e883901c905060e8612ad9868684613257565b62ffffff16901b9150509392505050565b600073ffffffffffffffffffffffffffffffffffffffff83169250814260a01b178317905092915050565b50505050565b6000612b2561297c565b60005403905090565b6000818311612b3d5781612b3f565b825b905092915050565b6000600860009054906101000a900473ffffffffffffffffffffffffffffffffffffffff16905081600860006101000a81548173ffffffffffffffffffffffffffffffffffffffff021916908373ffffffffffffffffffffffffffffffffffffffff1602179055508173ffffffffffffffffffffffffffffffffffffffff168173ffffffffffffffffffffffffffffffffffffffff167f8be0079c531659141344cd1fd0a4f28419497f9722a3daafe3b4186f6b6457e060405160405180910390a35050565b60008054905060008203612c4d576040517fb562e8dd00000000000000000000000000000000000000000000000000000000815260040160405180910390fd5b612c5a6000848385612abc565b600160406001901b178202600560008573ffffffffffffffffffffffffffffffffffffffff1673ffffffffffffffffffffffffffffffffffffffff16815260200190815260200160002060008282540192505081905550612cd183612cc26000866000612ac2565b612ccb85613260565b17612aea565b6004600083815260200190815260200160002081905550600080838301905073ffffffffffffffffffffffffffffffffffffffff85169150828260007fddf252ad1be2c89b69c2b068fc378daa952ba7f163c4a11628f55a4df523b3ef600080a4600183015b818114612d7257808360007fddf252ad1be2c89b69c2b068fc378daa952ba7f163c4a11628f55a4df523b3ef600080a4600181019050612d37565b5060008203612dad576040517f2e07630000000000000000000000000000000000000000000000000000000000815260040160405180910390fd5b806000819055505050612dc36000848385612b15565b505050565b60008373ffffffffffffffffffffffffffffffffffffffff1663150b7a02612dee612974565b8786866040518563ffffffff1660e01b8152600401612e109493929190615135565b6020604051808303816000875af1925050508015612e4c57506040513d601f19601f82011682018060405250810190612e499190615196565b60015b612ec5573d8060008114612e7c576040519150601f19603f3d011682016040523d82523d6000602084013e612e81565b606091505b506000815103612ebd576040517fd1a57ed600000000000000000000000000000000000000000000000000000000815260040160405180910390fd5b805181602001fd5b63150b7a0260e01b7bffffffffffffffffffffffffffffffffffffffffffffffffffffffff1916817bffffffffffffffffffffffffffffffffffffffffffffffffffffffff191614915050949350505050565b606060008203612f5f576040518060400160405280600181526020017f3000000000000000000000000000000000000000000000000000000000000000815250905061309b565b600082905060005b60008214612f91578080612f7a9061426e565b915050600a82612f8a9190614497565b9150612f67565b60008167ffffffffffffffff811115612fad57612fac613901565b5b6040519080825280601f01601f191660200182016040528015612fdf5781602001600182028036833780820191505090505b50905060008290505b6000861461309357600181612ffd91906142b6565b90506000600a808861300f9190614497565b61301991906144fc565b8761302491906142b6565b603061303091906151d0565b905060008160f81b90508084848151811061304e5761304d614210565b5b60200101907effffffffffffffffffffffffffffffffffffffffffffffffffffffffffffff1916908160001a905350600a8861308a9190614497565b97505050612fe8565b819450505050505b919050565b6060600082519050600081036130c85760405180602001604052806000815250915050613232565b600060036002836130d991906144c8565b6130e39190614497565b60046130ef91906144fc565b9050600060208261310091906144c8565b67ffffffffffffffff81111561311957613118613901565b5b6040519080825280601f01601f19166020018201604052801561314b5781602001600182028036833780820191505090505b5090506000604051806060016040528060408152602001615243604091399050600181016020830160005b868110156131ef5760038101905062ffffff818a015116603f8160121c168401518060081b905060ff603f83600c1c1686015116810190508060081b905060ff603f8360061c1686015116810190508060081b905060ff603f831686015116810190508060e01b90508084526004840193505050613176565b506003860660018114613209576002811461321957613224565b613d3d60f01b6002830352613224565b603d60f81b60018303525b508484525050819450505050505b919050565b6000600154905090565b61324c816000613270565b50565b600033905090565b60009392505050565b60006001821460e11b9050919050565b600061327b83612985565b9050600081905060008061328e86612a51565b9150915084156132f7576132aa81846132a5612974565b612a78565b6132f6576132bf836132ba612974565b612780565b6132f5576040517f59c896be00000000000000000000000000000000000000000000000000000000815260040160405180910390fd5b5b5b613305836000886001612abc565b801561331057600082555b600160806001901b03600560008573ffffffffffffffffffffffffffffffffffffffff1673ffffffffffffffffffffffffffffffffffffffff168152602001908152602001600020600082825401925050819055506133b88361337585600088612ac2565b7c02000000000000000000000000000000000000000000000000000000007c01000000000000000000000000000000000000000000000000000000001717612aea565b600460008881526020019081526020016000208190555060007c020000000000000000000000000000000000000000000000000000000085160361343e576000600187019050600060046000838152602001908152602001600020540361343c57600054811461343b578460046000838152602001908152602001600020819055505b5b505b85600073ffffffffffffffffffffffffffffffffffffffff168473ffffffffffffffffffffffffffffffffffffffff167fddf252ad1be2c89b69c2b068fc378daa952ba7f163c4a11628f55a4df523b3ef60405160405180910390a46134a8836000886001612b15565b600160008154809291906001019190505550505050505050565b6040518060c001604052806000815260200160008152602001600081526020016000815260200160008152602001606081525090565b6000604051905090565b600080fd5b600080fd5b60007fffffffff0000000000000000000000000000000000000000000000000000000082169050919050565b6135418161350c565b811461354c57600080fd5b50565b60008135905061355e81613538565b92915050565b60006020828403121561357a57613579613502565b5b60006135888482850161354f565b91505092915050565b60008115159050919050565b6135a681613591565b82525050565b60006020820190506135c1600083018461359d565b92915050565b6000819050919050565b6135da816135c7565b81146135e557600080fd5b50565b6000813590506135f7816135d1565b92915050565b60006020828403121561361357613612613502565b5b6000613621848285016135e8565b91505092915050565b600081519050919050565b600082825260208201905092915050565b60005b83811015613664578082015181840152602081019050613649565b60008484015250505050565b6000601f19601f8301169050919050565b600061368c8261362a565b6136968185613635565b93506136a6818560208601613646565b6136af81613670565b840191505092915050565b600060208201905081810360008301526136d48184613681565b905092915050565b600073ffffffffffffffffffffffffffffffffffffffff82169050919050565b6000613707826136dc565b9050919050565b613717816136fc565b82525050565b6000602082019050613732600083018461370e565b92915050565b613741816136fc565b811461374c57600080fd5b50565b60008135905061375e81613738565b92915050565b6000806040838503121561377b5761377a613502565b5b60006137898582860161374f565b925050602061379a858286016135e8565b9150509250929050565b600081519050919050565b600082825260208201905092915050565b6000819050602082019050919050565b600082825260208201905092915050565b60006137ec8261362a565b6137f681856137d0565b9350613806818560208601613646565b61380f81613670565b840191505092915050565b600061382683836137e1565b905092915050565b6000602082019050919050565b6000613846826137a4565b61385081856137af565b935083602082028501613862856137c0565b8060005b8581101561389e578484038952815161387f858261381a565b945061388a8361382e565b925060208a01995050600181019050613866565b50829750879550505050505092915050565b600060208201905081810360008301526138ca818461383b565b905092915050565b6138db816135c7565b82525050565b60006020820190506138f660008301846138d2565b92915050565b600080fd5b7f4e487b7100000000000000000000000000000000000000000000000000000000600052604160045260246000fd5b61393982613670565b810181811067ffffffffffffffff8211171561395857613957613901565b5b80604052505050565b600061396b6134f8565b90506139778282613930565b919050565b600067ffffffffffffffff82111561399757613996613901565b5b602082029050602081019050919050565b600080fd5b60006139c06139bb8461397c565b613961565b905080838252602082019050602084028301858111156139e3576139e26139a8565b5b835b81811015613a0c57806139f888826135e8565b8452602084019350506020810190506139e5565b5050509392505050565b600082601f830112613a2b57613a2a6138fc565b5b8135613a3b8482602086016139ad565b91505092915050565b600060208284031215613a5a57613a59613502565b5b600082013567ffffffffffffffff811115613a7857613a77613507565b5b613a8484828501613a16565b91505092915050565b600081519050919050565b600082825260208201905092915050565b6000819050602082019050919050565b613ac2816135c7565b82525050565b600060c083016000830151613ae06000860182613ab9565b506020830151613af36020860182613ab9565b506040830151613b066040860182613ab9565b506060830151613b196060860182613ab9565b506080830151613b2c6080860182613ab9565b5060a083015184820360a0860152613b4482826137e1565b9150508091505092915050565b6000613b5d8383613ac8565b905092915050565b6000602082019050919050565b6000613b7d82613a8d565b613b878185613a98565b935083602082028501613b9985613aa9565b8060005b85811015613bd55784840389528151613bb68582613b51565b9450613bc183613b65565b925060208a01995050600181019050613b9d565b50829750879550505050505092915050565b60006020820190508181036000830152613c018184613b72565b905092915050565b600080600060608486031215613c2257613c21613502565b5b6000613c308682870161374f565b9350506020613c418682870161374f565b9250506040613c52868287016135e8565b9150509250925092565b600081519050919050565b600082825260208201905092915050565b6000819050602082019050919050565b6000613c948383613ab9565b60208301905092915050565b6000602082019050919050565b6000613cb882613c5c565b613cc28185613c67565b9350613ccd83613c78565b8060005b83811015613cfe578151613ce58882613c88565b9750613cf083613ca0565b925050600181019050613cd1565b5085935050505092915050565b60006020820190508181036000830152613d258184613cad565b905092915050565b600060208284031215613d4357613d42613502565b5b6000613d518482850161374f565b91505092915050565b7f4e487b7100000000000000000000000000000000000000000000000000000000600052602160045260246000fd5b60038110613d9a57613d99613d5a565b5b50565b6000819050613dab82613d89565b919050565b6000613dbb82613d9d565b9050919050565b613dcb81613db0565b82525050565b6000602082019050613de66000830184613dc2565b92915050565b6000819050919050565b6000613e11613e0c613e07846136dc565b613dec565b6136dc565b9050919050565b6000613e2382613df6565b9050919050565b6000613e3582613e18565b9050919050565b613e4581613e2a565b82525050565b6000602082019050613e606000830184613e3c565b92915050565b613e6f81613591565b8114613e7a57600080fd5b50565b600081359050613e8c81613e66565b92915050565b60008060408385031215613ea957613ea8613502565b5b6000613eb78582860161374f565b9250506020613ec885828601613e7d565b9150509250929050565b600080fd5b600067ffffffffffffffff821115613ef257613ef1613901565b5b613efb82613670565b9050602081019050919050565b82818337600083830152505050565b6000613f2a613f2584613ed7565b613961565b905082815260208101848484011115613f4657613f45613ed2565b5b613f51848285613f08565b509392505050565b600082601f830112613f6e57613f6d6138fc565b5b8135613f7e848260208601613f17565b91505092915050565b60008060008060808587031215613fa157613fa0613502565b5b6000613faf8782880161374f565b9450506020613fc08782880161374f565b9350506040613fd1878288016135e8565b925050606085013567ffffffffffffffff811115613ff257613ff1613507565b5b613ffe87828801613f59565b91505092959194509250565b600080fd5b60008083601f840112614025576140246138fc565b5b8235905067ffffffffffffffff8111156140425761404161400a565b5b60208301915083602082028301111561405e5761405d6139a8565b5b9250929050565b60008060006040848603121561407e5761407d613502565b5b600084013567ffffffffffffffff81111561409c5761409b613507565b5b6140a88682870161400f565b935093505060206140bb868287016135e8565b9150509250925092565b600060c0830160008301516140dd6000860182613ab9565b5060208301516140f06020860182613ab9565b5060408301516141036040860182613ab9565b5060608301516141166060860182613ab9565b5060808301516141296080860182613ab9565b5060a083015184820360a086015261414182826137e1565b9150508091505092915050565b6000602082019050818103600083015261416881846140c5565b905092915050565b6000806040838503121561418757614186613502565b5b60006141958582860161374f565b92505060206141a68582860161374f565b9150509250929050565b7f4e487b7100000000000000000000000000000000000000000000000000000000600052602260045260246000fd5b600060028204905060018216806141f757607f821691505b60208210810361420a576142096141b0565b5b50919050565b7f4e487b7100000000000000000000000000000000000000000000000000000000600052603260045260246000fd5b7f4e487b7100000000000000000000000000000000000000000000000000000000600052601160045260246000fd5b6000614279826135c7565b91507fffffffffffffffffffffffffffffffffffffffffffffffffffffffffffffffff82036142ab576142aa61423f565b5b600182019050919050565b60006142c1826135c7565b91506142cc836135c7565b92508282039050818111156142e4576142e361423f565b5b92915050565b60008160011c9050919050565b6000808291508390505b60018511156143415780860481111561431d5761431c61423f565b5b600185161561432c5780820291505b808102905061433a856142ea565b9450614301565b94509492505050565b60008261435a5760019050614416565b816143685760009050614416565b816001811461437e5760028114614388576143b7565b6001915050614416565b60ff84111561439a5761439961423f565b5b8360020a9150848211156143b1576143b061423f565b5b50614416565b5060208310610133831016604e8410600b84101617156143ec5782820a9050838111156143e7576143e661423f565b5b614416565b6143f984848460016142f7565b925090508184048111156144105761440f61423f565b5b81810290505b9392505050565b6000614428826135c7565b9150614433836135c7565b92506144607fffffffffffffffffffffffffffffffffffffffffffffffffffffffffffffffff848461434a565b905092915050565b7f4e487b7100000000000000000000000000000000000000000000000000000000600052601260045260246000fd5b60006144a2826135c7565b91506144ad836135c7565b9250826144bd576144bc614468565b5b828204905092915050565b60006144d3826135c7565b91506144de836135c7565b92508282019050808211156144f6576144f561423f565b5b92915050565b6000614507826135c7565b9150614512836135c7565b9250817fffffffffffffffffffffffffffffffffffffffffffffffffffffffffffffffff048311821515161561454b5761454a61423f565b5b828202905092915050565b7f4d696e7420697320636c6f736564000000000000000000000000000000000000600082015250565b600061458c600e83613635565b915061459782614556565b602082019050919050565b600060208201905081810360008301526145bb8161457f565b9050919050565b7f496e73756666696369656e742066656500000000000000000000000000000000600082015250565b60006145f8601083613635565b9150614603826145c2565b602082019050919050565b60006020820190508181036000830152614627816145eb565b9050919050565b600081905092915050565b50565b600061464960008361462e565b915061465482614639565b600082019050919050565b600061466a8261463c565b9150819050919050565b7f526566756e64206661696c656400000000000000000000000000000000000000600082015250565b60006146aa600d83613635565b91506146b582614674565b602082019050919050565b600060208201905081810360008301526146d98161469d565b9050919050565b7f45786365656473206d617820737570706c790000000000000000000000000000600082015250565b6000614716601283613635565b9150614721826146e0565b602082019050919050565b6000602082019050818103600083015261474581614709565b9050919050565b600081905092915050565b7f426c61636b486f6c652023000000000000000000000000000000000000000000600082015250565b600061478d600b8361474c565b915061479882614757565b600b82019050919050565b60006147ae8261362a565b6147b8818561474c565b93506147c8818560208601613646565b80840191505092915050565b60006147df82614780565b91506147eb82846147a3565b915081905092915050565b600067ffffffffffffffff82111561481157614810613901565b5b61481a82613670565b9050602081019050919050565b600061483a614835846147f6565b613961565b90508281526020810184848401111561485657614855613ed2565b5b614861848285613646565b509392505050565b600082601f83011261487e5761487d6138fc565b5b815161488e848260208601614827565b91505092915050565b6000602082840312156148ad576148ac613502565b5b600082015167ffffffffffffffff8111156148cb576148ca613507565b5b6148d784828501614869565b91505092915050565b7f5b00000000000000000000000000000000000000000000000000000000000000815250565b7f7b2274726169745f74797065223a20224c6576656c222c202276616c7565223a60008201527f2000000000000000000000000000000000000000000000000000000000000000602082015250565b600061496260218361474c565b915061496d82614906565b602182019050919050565b7f7d2c000000000000000000000000000000000000000000000000000000000000815250565b7f7b2274726169745f74797065223a20224e616d65222c202276616c7565223a2060008201527f2200000000000000000000000000000000000000000000000000000000000000602082015250565b60006149fa60218361474c565b9150614a058261499e565b602182019050919050565b7f227d2c0000000000000000000000000000000000000000000000000000000000815250565b7f7b2274726169745f74797065223a20224d617373222c202276616c7565223a20815250565b7f7d5d000000000000000000000000000000000000000000000000000000000000815250565b6000614a8d826148e0565b600182019150614a9c82614955565b9150614aa882866147a3565b9150614ab382614978565b600282019150614ac2826149ed565b9150614ace82856147a3565b9150614ad982614a10565b600382019150614ae882614a36565b602082019150614af882846147a3565b9150614b0382614a5c565b600282019150819050949350505050565b7f7b226e616d65223a220000000000000000000000000000000000000000000000600082015250565b6000614b4a60098361474c565b9150614b5582614b14565b600982019050919050565b7f222c226465736372697074696f6e223a22000000000000000000000000000000600082015250565b6000614b9660118361474c565b9150614ba182614b60565b601182019050919050565b7f222c000000000000000000000000000000000000000000000000000000000000600082015250565b6000614be260028361474c565b9150614bed82614bac565b600282019050919050565b7f2261747472696275746573223a20000000000000000000000000000000000000600082015250565b6000614c2e600e8361474c565b9150614c3982614bf8565b600e82019050919050565b7f2c2022696d616765223a2022646174613a696d6167652f7376672b786d6c3b6260008201527f61736536342c0000000000000000000000000000000000000000000000000000602082015250565b6000614ca060268361474c565b9150614cab82614c44565b602682019050919050565b7f227d000000000000000000000000000000000000000000000000000000000000600082015250565b6000614cec60028361474c565b9150614cf782614cb6565b600282019050919050565b6000614d0d82614b3d565b9150614d1982876147a3565b9150614d2482614b89565b9150614d3082866147a3565b9150614d3b82614bd5565b9150614d4682614c21565b9150614d5282856147a3565b9150614d5d82614c93565b9150614d6982846147a3565b9150614d7482614cdf565b915081905095945050505050565b7f646174613a6170706c69636174696f6e2f6a736f6e3b6261736536342c000000600082015250565b6000614db8601d8361474c565b9150614dc382614d82565b601d82019050919050565b6000614dd982614dab565b9150614de582846147a3565b915081905092915050565b600081519050614dff816135d1565b92915050565b600060208284031215614e1b57614e1a613502565b5b6000614e2984828501614df0565b91505092915050565b7f4d657267696e67206e6f7420656e61626c656400000000000000000000000000600082015250565b6000614e68601383613635565b9150614e7382614e32565b602082019050919050565b60006020820190508181036000830152614e9781614e5b565b9050919050565b7f4d757374206d65726765206174206c65617374203220746f6b656e7300000000600082015250565b6000614ed4601c83613635565b9150614edf82614e9e565b602082019050919050565b60006020820190508181036000830152614f0381614ec7565b9050919050565b7f4d757374206f776e20616c6c20746f6b656e7320287461726765742900000000600082015250565b6000614f40601c83613635565b9150614f4b82614f0a565b602082019050919050565b60006020820190508181036000830152614f6f81614f33565b9050919050565b7f4d757374206f776e20616c6c20746f6b656e7320286275726e29000000000000600082015250565b6000614fac601a83613635565b9150614fb782614f76565b602082019050919050565b60006020820190508181036000830152614fdb81614f9f565b9050919050565b7f4f776e61626c653a206e6577206f776e657220697320746865207a65726f206160008201527f6464726573730000000000000000000000000000000000000000000000000000602082015250565b600061503e602683613635565b915061504982614fe2565b604082019050919050565b6000602082019050818103600083015261506d81615031565b9050919050565b7f4f776e61626c653a2063616c6c6572206973206e6f7420746865206f776e6572600082015250565b60006150aa602083613635565b91506150b582615074565b602082019050919050565b600060208201905081810360008301526150d98161509d565b9050919050565b600081519050919050565b600082825260208201905092915050565b6000615107826150e0565b61511181856150eb565b9350615121818560208601613646565b61512a81613670565b840191505092915050565b600060808201905061514a600083018761370e565b615157602083018661370e565b61516460408301856138d2565b818103606083015261517681846150fc565b905095945050505050565b60008151905061519081613538565b92915050565b6000602082840312156151ac576151ab613502565b5b60006151ba84828501615181565b91505092915050565b600060ff82169050919050565b60006151db826151c3565b91506151e6836151c3565b9250828201905060ff8111156151ff576151fe61423f565b5b9291505056fe46756c6c79206f6e2d636861696e2c2070726f6365647572616c6c792067656e6572617465642c20616e696d6174656420626c61636b20686f6c65732e4142434445464748494a4b4c4d4e4f505152535455565758595a6162636465666768696a6b6c6d6e6f707172737475767778797a303132333435363738392b2fa2646970667358221220deca238f11b55ccfdf490baa7ff01c077ef8e691668466f68804dfd0cd08138a64736f6c63430008100033",
  "libraries": {
    "utils": "0xc0B9fc91b9007a8770225FC4c5c93A5f0D0B7904"
  },
  "devdoc": {
    "kind": "dev",
    "methods": {
      "airdrop(address[],uint256)": {
        "params": {
          "_quantity": "Quantity of tokens to airdrop to each recipient.",
          "_recipients": "List of recipients to receive the airdrop."
        }
      },
      "approve(address,uint256)": {
        "details": "Gives permission to `to` to transfer `tokenId` token to another account. The approval is cleared when the token is transferred. Only a single account can be approved at a time, so approving the zero address clears previous approvals. Requirements: - The caller must own the token or be an approved operator. - `tokenId` must exist. Emits an {Approval} event."
      },
      "balanceOf(address)": {
        "details": "Returns the number of tokens in `owner`'s account."
      },
      "blackHoleForTokenId(uint256)": {
        "params": {
          "_tokenId": "ID of the token."
        },
        "returns": {
          "_0": "BlackHole Structured representation of the token."
        }
      },
      "constructor": {
        "details": "Constructs a new instance of the contract.",
        "params": {
          "_name": "Name of the ERC721 token.",
          "_price": "Price of each token in wei.",
          "_renderer": "Address of the Renderer contract.",
          "_symbol": "Symbol of the ERC721 token."
        }
      },
      "getAdjustmentForMass(uint256)": {
        "params": {
          "_mass": "Mass to calculate the adjustment for."
        },
        "returns": {
          "_0": "Adjustment."
        }
      },
      "getApproved(uint256)": {
        "details": "Returns the account approved for `tokenId` token. Requirements: - `tokenId` must exist."
      },
      "isApprovedForAll(address,address)": {
        "details": "Returns if the `operator` is allowed to manage all of the assets of `owner`. See {setApprovalForAll}."
      },
      "merge(uint256[])": {
        "params": {
          "tokens": "List of tokens to merge. The first token in the list is the target."
        }
      },
      "mint(uint256)": {
        "params": {
          "_quantity": "Quantity of tokens to mint."
        }
      },
      "name()": {
        "details": "Returns the token collection name."
      },
      "nameForBlackHoleLevel(uint256)": {
        "params": {
          "_level": "Level of the black hole."
        },
        "returns": {
          "_0": "name of the black hole level."
        }
      },
      "owner()": {
        "details": "Returns the address of the current owner."
      },
      "ownerOf(uint256)": {
        "details": "Returns the owner of the `tokenId` token. Requirements: - `tokenId` must exist."
      },
      "renounceOwnership()": {
        "details": "Leaves the contract without owner. It will not be possible to call `onlyOwner` functions anymore. Can only be called by the current owner. NOTE: Renouncing ownership will leave the contract without an owner, thereby removing any functionality that is only available to the owner."
      },
      "safeTransferFrom(address,address,uint256)": {
        "details": "Equivalent to `safeTransferFrom(from, to, tokenId, '')`."
      },
      "safeTransferFrom(address,address,uint256,bytes)": {
        "details": "Safely transfers `tokenId` token from `from` to `to`. Requirements: - `from` cannot be the zero address. - `to` cannot be the zero address. - `tokenId` token must exist and be owned by `from`. - If the caller is not `from`, it must be approved to move this token by either {approve} or {setApprovalForAll}. - If `to` refers to a smart contract, it must implement {IERC721Receiver-onERC721Received}, which is called upon a safe transfer. Emits a {Transfer} event."
      },
      "setApprovalForAll(address,bool)": {
        "details": "Approve or remove `operator` as an operator for the caller. Operators can call {transferFrom} or {safeTransferFrom} for any token owned by the caller. Requirements: - The `operator` cannot be the caller. Emits an {ApprovalForAll} event."
      },
      "setMergingDelay(uint256)": {
        "params": {
          "_mergingDelay": "Delay in seconds before a token can be merged after the timed sale."
        }
      },
      "setPrice(uint256)": {
        "params": {
          "_price": "Price of each token in wei."
        }
      },
      "setTimedSaleDuration(uint256)": {
        "params": {
          "_timedSaleDuration": "Duration of the timed sale in seconds."
        }
      },
      "setTimedSalePrice(uint256)": {
        "params": {
          "_timedSalePrice": "Price of each token in wei."
        }
      },
      "setTimedSaleThreshold(uint256)": {
        "params": {
          "_timedSaleThreshold": "Number of tokens."
        }
      },
      "supportsInterface(bytes4)": {
        "details": "Returns true if this contract implements the interface defined by `interfaceId`. See the corresponding [EIP section](https://eips.ethereum.org/EIPS/eip-165#how-interfaces-are-identified) to learn more about how these ids are created. This function call must use less than 30000 gas."
      },
      "symbol()": {
        "details": "Returns the token collection symbol."
      },
      "tokenURI(uint256)": {
        "params": {
          "_tokenId": "ID of the token to get the URI for."
        },
        "returns": {
          "_0": "Token URI."
        }
      },
      "totalSupply()": {
        "details": "Returns the total number of tokens in existence. Burned tokens will reduce the count. To get the total number of tokens minted, please see {_totalMinted}."
      },
      "transferFrom(address,address,uint256)": {
        "details": "Transfers `tokenId` from `from` to `to`. Requirements: - `from` cannot be the zero address. - `to` cannot be the zero address. - `tokenId` token must be owned by `from`. - If the caller is not `from`, it must be approved to move this token by either {approve} or {setApprovalForAll}. Emits a {Transfer} event."
      },
      "transferOwnership(address)": {
        "details": "Transfers ownership of the contract to a new account (`newOwner`). Can only be called by the current owner."
      }
    },
    "version": 1
  },
  "userdoc": {
    "errors": {
      "ApprovalCallerNotOwnerNorApproved()": [
        {
          "notice": "The caller must own the token or be an approved operator."
        }
      ],
      "ApprovalQueryForNonexistentToken()": [
        {
          "notice": "The token does not exist."
        }
      ],
      "BalanceQueryForZeroAddress()": [
        {
          "notice": "Cannot query the balance for the zero address."
        }
      ],
      "MintERC2309QuantityExceedsLimit()": [
        {
          "notice": "The `quantity` minted with ERC2309 exceeds the safety limit."
        }
      ],
      "MintToZeroAddress()": [
        {
          "notice": "Cannot mint to the zero address."
        }
      ],
      "MintZeroQuantity()": [
        {
          "notice": "The quantity of tokens minted must be more than zero."
        }
      ],
      "OwnerQueryForNonexistentToken()": [
        {
          "notice": "The token does not exist."
        }
      ],
      "OwnershipNotInitializedForExtraData()": [
        {
          "notice": "The `extraData` cannot be set on an unintialized ownership slot."
        }
      ],
      "TransferCallerNotOwnerNorApproved()": [
        {
          "notice": "The caller must own the token or be an approved operator."
        }
      ],
      "TransferFromIncorrectOwner()": [
        {
          "notice": "The token must be owned by `from`."
        }
      ],
      "TransferToNonERC721ReceiverImplementer()": [
        {
          "notice": "Cannot safely transfer to a contract that does not implement the ERC721Receiver interface."
        }
      ],
      "TransferToZeroAddress()": [
        {
          "notice": "Cannot transfer to the zero address."
        }
      ],
      "URIQueryForNonexistentToken()": [
        {
          "notice": "The token does not exist."
        }
      ]
    },
    "kind": "user",
    "methods": {
      "airdrop(address[],uint256)": {
        "notice": "Airdrops tokens to a list of recipients. Only callable by the contract owner."
      },
      "blackHoleForTokenId(uint256)": {
        "notice": "Get the structured representation of a token by its ID."
      },
      "getAdjustmentForMass(uint256)": {
        "notice": "Gets adjustment for a given mass."
      },
      "getMintState()": {
        "notice": "Returns the current mint state."
      },
      "getPrice()": {
        "notice": "Gets the current price of a token."
      },
      "isMergingEnabled()": {
        "notice": "Returns whether merging is enabled or not."
      },
      "merge(uint256[])": {
        "notice": "Merges a list of tokens into a single token."
      },
      "mint(uint256)": {
        "notice": "Mints new tokens for the caller. If the caller mints tokens across the TIMED_SALE_THRESHOLD, it will mint as many as it can with the given amount of ETH."
      },
      "nameForBlackHoleLevel(uint256)": {
        "notice": "Returns the name of a black hole level."
      },
      "setMergingDelay(uint256)": {
        "notice": "Sets the merging delay."
      },
      "setPrice(uint256)": {
        "notice": "Sets the price of each token in wei."
      },
      "setTimedSaleDuration(uint256)": {
        "notice": "Sets the timed sale duration."
      },
      "setTimedSalePrice(uint256)": {
        "notice": "Sets the price of a token during the timed sale."
      },
      "setTimedSaleThreshold(uint256)": {
        "notice": "Sets the number of tokens that need to be minted for the timed sale to start."
      },
      "tokenURI(uint256)": {
        "notice": "Returns the token URI for a given token ID."
      },
      "upgradeIntervals()": {
        "notice": "Returns the mass required to upgrade to the next level for each level."
      },
      "withdraw()": {
        "notice": "Withdraws the contract's balance. Only callable by the contract owner."
      }
    },
    "version": 1
  },
  "storageLayout": {
    "storage": [
      {
        "astId": 3044,
        "contract": "contracts/BlackHoles.sol:BlackHoles",
        "label": "_currentIndex",
        "offset": 0,
        "slot": "0",
        "type": "t_uint256"
      },
      {
        "astId": 3046,
        "contract": "contracts/BlackHoles.sol:BlackHoles",
        "label": "_burnCounter",
        "offset": 0,
        "slot": "1",
        "type": "t_uint256"
      },
      {
        "astId": 3048,
        "contract": "contracts/BlackHoles.sol:BlackHoles",
        "label": "_name",
        "offset": 0,
        "slot": "2",
        "type": "t_string_storage"
      },
      {
        "astId": 3050,
        "contract": "contracts/BlackHoles.sol:BlackHoles",
        "label": "_symbol",
        "offset": 0,
        "slot": "3",
        "type": "t_string_storage"
      },
      {
        "astId": 3054,
        "contract": "contracts/BlackHoles.sol:BlackHoles",
        "label": "_packedOwnerships",
        "offset": 0,
        "slot": "4",
        "type": "t_mapping(t_uint256,t_uint256)"
      },
      {
        "astId": 3058,
        "contract": "contracts/BlackHoles.sol:BlackHoles",
        "label": "_packedAddressData",
        "offset": 0,
        "slot": "5",
        "type": "t_mapping(t_address,t_uint256)"
      },
      {
        "astId": 3063,
        "contract": "contracts/BlackHoles.sol:BlackHoles",
        "label": "_tokenApprovals",
        "offset": 0,
        "slot": "6",
        "type": "t_mapping(t_uint256,t_struct(TokenApprovalRef)2976_storage)"
      },
      {
        "astId": 3069,
        "contract": "contracts/BlackHoles.sol:BlackHoles",
        "label": "_operatorApprovals",
        "offset": 0,
        "slot": "7",
        "type": "t_mapping(t_address,t_mapping(t_address,t_bool))"
      },
      {
        "astId": 7,
        "contract": "contracts/BlackHoles.sol:BlackHoles",
        "label": "_owner",
        "offset": 0,
        "slot": "8",
        "type": "t_address"
      },
      {
        "astId": 167,
        "contract": "contracts/BlackHoles.sol:BlackHoles",
        "label": "BLACK_HOLE_NAMES",
        "offset": 0,
        "slot": "9",
        "type": "t_array(t_string_storage)dyn_storage"
      },
      {
        "astId": 169,
        "contract": "contracts/BlackHoles.sol:BlackHoles",
        "label": "price",
        "offset": 0,
        "slot": "10",
        "type": "t_uint256"
      },
      {
        "astId": 171,
        "contract": "contracts/BlackHoles.sol:BlackHoles",
        "label": "timedSalePrice",
        "offset": 0,
        "slot": "11",
        "type": "t_uint256"
      },
      {
        "astId": 173,
        "contract": "contracts/BlackHoles.sol:BlackHoles",
        "label": "timedSaleStartedTimestamp",
        "offset": 0,
        "slot": "12",
        "type": "t_uint256"
      },
      {
        "astId": 176,
        "contract": "contracts/BlackHoles.sol:BlackHoles",
        "label": "timedSaleThreshold",
        "offset": 0,
        "slot": "13",
        "type": "t_uint256"
      },
      {
        "astId": 179,
        "contract": "contracts/BlackHoles.sol:BlackHoles",
        "label": "timedSaleDuration",
        "offset": 0,
        "slot": "14",
        "type": "t_uint256"
      },
      {
        "astId": 182,
        "contract": "contracts/BlackHoles.sol:BlackHoles",
        "label": "mergingDelay",
        "offset": 0,
        "slot": "15",
        "type": "t_uint256"
      },
      {
        "astId": 186,
        "contract": "contracts/BlackHoles.sol:BlackHoles",
        "label": "massesConsumed",
        "offset": 0,
        "slot": "16",
        "type": "t_mapping(t_uint256,t_uint256)"
      },
      {
        "astId": 189,
        "contract": "contracts/BlackHoles.sol:BlackHoles",
        "label": "renderer",
        "offset": 0,
        "slot": "17",
        "type": "t_contract(Renderer)2497"
      }
    ],
    "types": {
      "t_address": {
        "encoding": "inplace",
        "label": "address",
        "numberOfBytes": "20"
      },
      "t_array(t_string_storage)dyn_storage": {
        "base": "t_string_storage",
        "encoding": "dynamic_array",
        "label": "string[]",
        "numberOfBytes": "32"
      },
      "t_bool": {
        "encoding": "inplace",
        "label": "bool",
        "numberOfBytes": "1"
      },
      "t_contract(Renderer)2497": {
        "encoding": "inplace",
        "label": "contract Renderer",
        "numberOfBytes": "20"
      },
      "t_mapping(t_address,t_bool)": {
        "encoding": "mapping",
        "key": "t_address",
        "label": "mapping(address => bool)",
        "numberOfBytes": "32",
        "value": "t_bool"
      },
      "t_mapping(t_address,t_mapping(t_address,t_bool))": {
        "encoding": "mapping",
        "key": "t_address",
        "label": "mapping(address => mapping(address => bool))",
        "numberOfBytes": "32",
        "value": "t_mapping(t_address,t_bool)"
      },
      "t_mapping(t_address,t_uint256)": {
        "encoding": "mapping",
        "key": "t_address",
        "label": "mapping(address => uint256)",
        "numberOfBytes": "32",
        "value": "t_uint256"
      },
      "t_mapping(t_uint256,t_struct(TokenApprovalRef)2976_storage)": {
        "encoding": "mapping",
        "key": "t_uint256",
        "label": "mapping(uint256 => struct ERC721A.TokenApprovalRef)",
        "numberOfBytes": "32",
        "value": "t_struct(TokenApprovalRef)2976_storage"
      },
      "t_mapping(t_uint256,t_uint256)": {
        "encoding": "mapping",
        "key": "t_uint256",
        "label": "mapping(uint256 => uint256)",
        "numberOfBytes": "32",
        "value": "t_uint256"
      },
      "t_string_storage": {
        "encoding": "bytes",
        "label": "string",
        "numberOfBytes": "32"
      },
      "t_struct(TokenApprovalRef)2976_storage": {
        "encoding": "inplace",
        "label": "struct ERC721A.TokenApprovalRef",
        "members": [
          {
            "astId": 2975,
            "contract": "contracts/BlackHoles.sol:BlackHoles",
            "label": "value",
            "offset": 0,
            "slot": "0",
            "type": "t_address"
          }
        ],
        "numberOfBytes": "32"
      },
      "t_uint256": {
        "encoding": "inplace",
        "label": "uint256",
        "numberOfBytes": "32"
      }
    }
  }
}