{
  "address": "0x95B8f54CbC04B817d79A7278B0C23458e76e226d",
  "abi": [
    {
      "inputs": [
        {
          "internalType": "string",
          "name": "_name",
          "type": "string"
        },
        {
          "internalType": "string",
          "name": "_symbol",
          "type": "string"
        },
        {
          "internalType": "uint256",
          "name": "_mergeOpenTimestamp",
          "type": "uint256"
        },
        {
          "internalType": "address",
          "name": "_renderer",
          "type": "address"
        },
        {
          "internalType": "address",
          "name": "_unmigratedBlackHoles",
          "type": "address"
        },
        {
          "internalType": "address",
          "name": "_voidableBlackHoles",
          "type": "address"
        }
      ],
      "stateMutability": "nonpayable",
      "type": "constructor"
    },
    {
      "inputs": [],
      "name": "NotAllowed",
      "type": "error"
    },
    {
      "inputs": [],
      "name": "NotBlackHolesContract",
      "type": "error"
    },
    {
      "inputs": [],
      "name": "URIQueryForNonexistentToken",
      "type": "error"
    },
    {
      "anonymous": false,
      "inputs": [
        {
          "indexed": true,
          "internalType": "address",
          "name": "owner",
          "type": "address"
        },
        {
          "indexed": true,
          "internalType": "address",
          "name": "approved",
          "type": "address"
        },
        {
          "indexed": true,
          "internalType": "uint256",
          "name": "tokenId",
          "type": "uint256"
        }
      ],
      "name": "Approval",
      "type": "event"
    },
    {
      "anonymous": false,
      "inputs": [
        {
          "indexed": true,
          "internalType": "address",
          "name": "owner",
          "type": "address"
        },
        {
          "indexed": true,
          "internalType": "address",
          "name": "operator",
          "type": "address"
        },
        {
          "indexed": false,
          "internalType": "bool",
          "name": "approved",
          "type": "bool"
        }
      ],
      "name": "ApprovalForAll",
      "type": "event"
    },
    {
      "anonymous": false,
      "inputs": [
        {
          "indexed": false,
          "internalType": "uint256",
          "name": "_fromTokenId",
          "type": "uint256"
        },
        {
          "indexed": false,
          "internalType": "uint256",
          "name": "_toTokenId",
          "type": "uint256"
        }
      ],
      "name": "BatchMetadataUpdate",
      "type": "event"
    },
    {
      "anonymous": false,
      "inputs": [
        {
          "indexed": false,
          "internalType": "uint256",
          "name": "_tokenId",
          "type": "uint256"
        }
      ],
      "name": "MetadataUpdate",
      "type": "event"
    },
    {
      "anonymous": false,
      "inputs": [
        {
          "indexed": true,
          "internalType": "address",
          "name": "previousOwner",
          "type": "address"
        },
        {
          "indexed": true,
          "internalType": "address",
          "name": "newOwner",
          "type": "address"
        }
      ],
      "name": "OwnershipTransferred",
      "type": "event"
    },
    {
      "anonymous": false,
      "inputs": [
        {
          "indexed": true,
          "internalType": "address",
          "name": "from",
          "type": "address"
        },
        {
          "indexed": true,
          "internalType": "address",
          "name": "to",
          "type": "address"
        },
        {
          "indexed": true,
          "internalType": "uint256",
          "name": "tokenId",
          "type": "uint256"
        }
      ],
      "name": "Transfer",
      "type": "event"
    },
    {
      "inputs": [
        {
          "internalType": "address",
          "name": "to",
          "type": "address"
        },
        {
          "internalType": "uint256",
          "name": "tokenId",
          "type": "uint256"
        }
      ],
      "name": "approve",
      "outputs": [],
      "stateMutability": "nonpayable",
      "type": "function"
    },
    {
      "inputs": [
        {
          "internalType": "address",
          "name": "owner",
          "type": "address"
        }
      ],
      "name": "balanceOf",
      "outputs": [
        {
          "internalType": "uint256",
          "name": "",
          "type": "uint256"
        }
      ],
      "stateMutability": "view",
      "type": "function"
    },
    {
      "inputs": [
        {
          "internalType": "uint256",
          "name": "targetId",
          "type": "uint256"
        },
        {
          "internalType": "uint256",
          "name": "totalMass",
          "type": "uint256"
        }
      ],
      "name": "blackHoleForMass",
      "outputs": [
        {
          "components": [
            {
              "internalType": "uint256",
              "name": "tokenId",
              "type": "uint256"
            },
            {
              "internalType": "uint256",
              "name": "level",
              "type": "uint256"
            },
            {
              "internalType": "uint256",
              "name": "size",
              "type": "uint256"
            },
            {
              "internalType": "uint256",
              "name": "mass",
              "type": "uint256"
            },
            {
              "internalType": "uint256",
              "name": "adjustment",
              "type": "uint256"
            },
            {
              "internalType": "string",
              "name": "name",
              "type": "string"
            }
          ],
          "internalType": "struct BlackHole",
          "name": "",
          "type": "tuple"
        },
        {
          "internalType": "string",
          "name": "",
          "type": "string"
        }
      ],
      "stateMutability": "view",
      "type": "function"
    },
    {
      "inputs": [
        {
          "internalType": "uint256",
          "name": "_tokenId",
          "type": "uint256"
        }
      ],
      "name": "blackHoleForTokenId",
      "outputs": [
        {
          "components": [
            {
              "internalType": "uint256",
              "name": "tokenId",
              "type": "uint256"
            },
            {
              "internalType": "uint256",
              "name": "level",
              "type": "uint256"
            },
            {
              "internalType": "uint256",
              "name": "size",
              "type": "uint256"
            },
            {
              "internalType": "uint256",
              "name": "mass",
              "type": "uint256"
            },
            {
              "internalType": "uint256",
              "name": "adjustment",
              "type": "uint256"
            },
            {
              "internalType": "string",
              "name": "name",
              "type": "string"
            }
          ],
          "internalType": "struct BlackHole",
          "name": "",
          "type": "tuple"
        }
      ],
      "stateMutability": "view",
      "type": "function"
    },
    {
      "inputs": [
        {
          "internalType": "uint256[]",
          "name": "tokenIds",
          "type": "uint256[]"
        }
      ],
      "name": "blackHolesForTokenIds",
      "outputs": [
        {
          "components": [
            {
              "internalType": "uint256",
              "name": "tokenId",
              "type": "uint256"
            },
            {
              "internalType": "uint256",
              "name": "level",
              "type": "uint256"
            },
            {
              "internalType": "uint256",
              "name": "size",
              "type": "uint256"
            },
            {
              "internalType": "uint256",
              "name": "mass",
              "type": "uint256"
            },
            {
              "internalType": "uint256",
              "name": "adjustment",
              "type": "uint256"
            },
            {
              "internalType": "string",
              "name": "name",
              "type": "string"
            }
          ],
          "internalType": "struct BlackHole[]",
          "name": "",
          "type": "tuple[]"
        }
      ],
      "stateMutability": "view",
      "type": "function"
    },
    {
      "inputs": [
        {
          "internalType": "uint256",
          "name": "tokenId",
          "type": "uint256"
        }
      ],
      "name": "burn",
      "outputs": [],
      "stateMutability": "nonpayable",
      "type": "function"
    },
    {
      "inputs": [
        {
          "internalType": "uint256",
          "name": "_mass",
          "type": "uint256"
        }
      ],
      "name": "getAdjustmentForMass",
      "outputs": [
        {
          "internalType": "uint256",
          "name": "",
          "type": "uint256"
        }
      ],
      "stateMutability": "view",
      "type": "function"
    },
    {
      "inputs": [
        {
          "internalType": "uint256",
          "name": "tokenId",
          "type": "uint256"
        }
      ],
      "name": "getApproved",
      "outputs": [
        {
          "internalType": "address",
          "name": "",
          "type": "address"
        }
      ],
      "stateMutability": "view",
      "type": "function"
    },
    {
      "inputs": [],
      "name": "getUpgradeIntervals",
      "outputs": [
        {
          "internalType": "uint256[]",
          "name": "",
          "type": "uint256[]"
        }
      ],
      "stateMutability": "view",
      "type": "function"
    },
    {
      "inputs": [
        {
          "internalType": "address",
          "name": "owner",
          "type": "address"
        },
        {
          "internalType": "address",
          "name": "operator",
          "type": "address"
        }
      ],
      "name": "isApprovedForAll",
      "outputs": [
        {
          "internalType": "bool",
          "name": "",
          "type": "bool"
        }
      ],
      "stateMutability": "view",
      "type": "function"
    },
    {
      "inputs": [],
      "name": "isMergingEnabled",
      "outputs": [
        {
          "internalType": "bool",
          "name": "",
          "type": "bool"
        }
      ],
      "stateMutability": "view",
      "type": "function"
    },
    {
      "inputs": [
        {
          "internalType": "uint256",
          "name": "_mass",
          "type": "uint256"
        }
      ],
      "name": "levelForMass",
      "outputs": [
        {
          "internalType": "uint256",
          "name": "",
          "type": "uint256"
        }
      ],
      "stateMutability": "view",
      "type": "function"
    },
    {
      "inputs": [
        {
          "internalType": "uint256",
          "name": "_tokenId",
          "type": "uint256"
        }
      ],
      "name": "massForTokenId",
      "outputs": [
        {
          "internalType": "uint256",
          "name": "",
          "type": "uint256"
        }
      ],
      "stateMutability": "view",
      "type": "function"
    },
    {
      "inputs": [
        {
          "internalType": "uint256",
          "name": "",
          "type": "uint256"
        }
      ],
      "name": "massesConsumed",
      "outputs": [
        {
          "internalType": "uint256",
          "name": "",
          "type": "uint256"
        }
      ],
      "stateMutability": "view",
      "type": "function"
    },
    {
      "inputs": [
        {
          "internalType": "uint256[]",
          "name": "tokens",
          "type": "uint256[]"
        }
      ],
      "name": "merge",
      "outputs": [],
      "stateMutability": "nonpayable",
      "type": "function"
    },
    {
      "inputs": [],
      "name": "mergeOpenTimestamp",
      "outputs": [
        {
          "internalType": "uint256",
          "name": "",
          "type": "uint256"
        }
      ],
      "stateMutability": "view",
      "type": "function"
    },
    {
      "inputs": [
        {
          "internalType": "contract IBlackHoles",
          "name": "blackHoles",
          "type": "address"
        },
        {
          "internalType": "uint256[]",
          "name": "tokenIds",
          "type": "uint256[]"
        }
      ],
      "name": "migrate",
      "outputs": [],
      "stateMutability": "nonpayable",
      "type": "function"
    },
    {
      "inputs": [],
      "name": "name",
      "outputs": [
        {
          "internalType": "string",
          "name": "",
          "type": "string"
        }
      ],
      "stateMutability": "view",
      "type": "function"
    },
    {
      "inputs": [
        {
          "internalType": "uint256",
          "name": "_level",
          "type": "uint256"
        }
      ],
      "name": "nameForBlackHoleLevel",
      "outputs": [
        {
          "internalType": "string",
          "name": "",
          "type": "string"
        }
      ],
      "stateMutability": "view",
      "type": "function"
    },
    {
      "inputs": [],
      "name": "owner",
      "outputs": [
        {
          "internalType": "address",
          "name": "",
          "type": "address"
        }
      ],
      "stateMutability": "view",
      "type": "function"
    },
    {
      "inputs": [
        {
          "internalType": "uint256",
          "name": "tokenId",
          "type": "uint256"
        }
      ],
      "name": "ownerOf",
      "outputs": [
        {
          "internalType": "address",
          "name": "",
          "type": "address"
        }
      ],
      "stateMutability": "view",
      "type": "function"
    },
    {
      "inputs": [],
      "name": "renderer",
      "outputs": [
        {
          "internalType": "contract Renderer",
          "name": "",
          "type": "address"
        }
      ],
      "stateMutability": "view",
      "type": "function"
    },
    {
      "inputs": [],
      "name": "renounceOwnership",
      "outputs": [],
      "stateMutability": "nonpayable",
      "type": "function"
    },
    {
      "inputs": [
        {
          "internalType": "address",
          "name": "from",
          "type": "address"
        },
        {
          "internalType": "address",
          "name": "to",
          "type": "address"
        },
        {
          "internalType": "uint256",
          "name": "tokenId",
          "type": "uint256"
        }
      ],
      "name": "safeTransferFrom",
      "outputs": [],
      "stateMutability": "nonpayable",
      "type": "function"
    },
    {
      "inputs": [
        {
          "internalType": "address",
          "name": "from",
          "type": "address"
        },
        {
          "internalType": "address",
          "name": "to",
          "type": "address"
        },
        {
          "internalType": "uint256",
          "name": "tokenId",
          "type": "uint256"
        },
        {
          "internalType": "bytes",
          "name": "data",
          "type": "bytes"
        }
      ],
      "name": "safeTransferFrom",
      "outputs": [],
      "stateMutability": "nonpayable",
      "type": "function"
    },
    {
      "inputs": [
        {
          "internalType": "address",
          "name": "operator",
          "type": "address"
        },
        {
          "internalType": "bool",
          "name": "approved",
          "type": "bool"
        }
      ],
      "name": "setApprovalForAll",
      "outputs": [],
      "stateMutability": "nonpayable",
      "type": "function"
    },
    {
      "inputs": [
        {
          "internalType": "uint256",
          "name": "_mergeOpenTimestamp",
          "type": "uint256"
        }
      ],
      "name": "setMergeOpenTimestamp",
      "outputs": [],
      "stateMutability": "nonpayable",
      "type": "function"
    },
    {
      "inputs": [
        {
          "internalType": "bytes4",
          "name": "interfaceId",
          "type": "bytes4"
        }
      ],
      "name": "supportsInterface",
      "outputs": [
        {
          "internalType": "bool",
          "name": "",
          "type": "bool"
        }
      ],
      "stateMutability": "view",
      "type": "function"
    },
    {
      "inputs": [],
      "name": "symbol",
      "outputs": [
        {
          "internalType": "string",
          "name": "",
          "type": "string"
        }
      ],
      "stateMutability": "view",
      "type": "function"
    },
    {
      "inputs": [
        {
          "internalType": "uint256",
          "name": "_tokenId",
          "type": "uint256"
        }
      ],
      "name": "tokenURI",
      "outputs": [
        {
          "internalType": "string",
          "name": "",
          "type": "string"
        }
      ],
      "stateMutability": "view",
      "type": "function"
    },
    {
      "inputs": [],
      "name": "totalBurned",
      "outputs": [
        {
          "internalType": "uint256",
          "name": "",
          "type": "uint256"
        }
      ],
      "stateMutability": "view",
      "type": "function"
    },
    {
      "inputs": [],
      "name": "totalMinted",
      "outputs": [
        {
          "internalType": "uint256",
          "name": "",
          "type": "uint256"
        }
      ],
      "stateMutability": "view",
      "type": "function"
    },
    {
      "inputs": [],
      "name": "totalSupply",
      "outputs": [
        {
          "internalType": "uint256",
          "name": "",
          "type": "uint256"
        }
      ],
      "stateMutability": "view",
      "type": "function"
    },
    {
      "inputs": [
        {
          "internalType": "address",
          "name": "from",
          "type": "address"
        },
        {
          "internalType": "address",
          "name": "to",
          "type": "address"
        },
        {
          "internalType": "uint256",
          "name": "tokenId",
          "type": "uint256"
        }
      ],
      "name": "transferFrom",
      "outputs": [],
      "stateMutability": "nonpayable",
      "type": "function"
    },
    {
      "inputs": [
        {
          "internalType": "address",
          "name": "newOwner",
          "type": "address"
        }
      ],
      "name": "transferOwnership",
      "outputs": [],
      "stateMutability": "nonpayable",
      "type": "function"
    },
    {
      "inputs": [],
      "name": "unmigratedBlackHoles",
      "outputs": [
        {
          "internalType": "contract IBlackHoles",
          "name": "",
          "type": "address"
        }
      ],
      "stateMutability": "view",
      "type": "function"
    },
    {
      "inputs": [],
      "name": "voidableBlackHoles",
      "outputs": [
        {
          "internalType": "contract IBlackHoles",
          "name": "",
          "type": "address"
        }
      ],
      "stateMutability": "view",
      "type": "function"
    }
  ],
  "transactionHash": "0xb23e3e4b596ff2043febc623ead495287bb8965e083e34b5278c7a1bf2851d4e",
  "args": [
    "Test",
    "TEST",
    "1677092974",
    "0x5C318A581461B78e177d35055459c2114B07372b",
    "0x74fddc47A296BaD4030dba2aA6a1a0BF8d5da1c5",
    "0x66a26A9758c1955cCF8c0EF1bCd628b550cdFFe8"
  ],
  "numDeployments": 1,
  "solcInputHash": "bb78dab7e367aaadb903c22c9a41d2be",
  "bytecode": "0x60806040523480156200001157600080fd5b50604051620063103803806200631083398181016040528101906200003791906200045a565b8585818181600090816200004c919062000775565b5080600190816200005e919062000775565b505050505062000083620000776200015960201b60201c565b6200016160201b60201c565b8360078190555082600960006101000a81548173ffffffffffffffffffffffffffffffffffffffff021916908373ffffffffffffffffffffffffffffffffffffffff16021790555081600a60006101000a81548173ffffffffffffffffffffffffffffffffffffffff021916908373ffffffffffffffffffffffffffffffffffffffff16021790555080600b60006101000a81548173ffffffffffffffffffffffffffffffffffffffff021916908373ffffffffffffffffffffffffffffffffffffffff1602179055505050505050506200085c565b600033905090565b6000600660009054906101000a900473ffffffffffffffffffffffffffffffffffffffff16905081600660006101000a81548173ffffffffffffffffffffffffffffffffffffffff021916908373ffffffffffffffffffffffffffffffffffffffff1602179055508173ffffffffffffffffffffffffffffffffffffffff168173ffffffffffffffffffffffffffffffffffffffff167f8be0079c531659141344cd1fd0a4f28419497f9722a3daafe3b4186f6b6457e060405160405180910390a35050565b6000604051905090565b600080fd5b600080fd5b600080fd5b600080fd5b6000601f19601f8301169050919050565b7f4e487b7100000000000000000000000000000000000000000000000000000000600052604160045260246000fd5b620002908262000245565b810181811067ffffffffffffffff82111715620002b257620002b162000256565b5b80604052505050565b6000620002c762000227565b9050620002d5828262000285565b919050565b600067ffffffffffffffff821115620002f857620002f762000256565b5b620003038262000245565b9050602081019050919050565b60005b838110156200033057808201518184015260208101905062000313565b60008484015250505050565b6000620003536200034d84620002da565b620002bb565b90508281526020810184848401111562000372576200037162000240565b5b6200037f84828562000310565b509392505050565b600082601f8301126200039f576200039e6200023b565b5b8151620003b18482602086016200033c565b91505092915050565b6000819050919050565b620003cf81620003ba565b8114620003db57600080fd5b50565b600081519050620003ef81620003c4565b92915050565b600073ffffffffffffffffffffffffffffffffffffffff82169050919050565b60006200042282620003f5565b9050919050565b620004348162000415565b81146200044057600080fd5b50565b600081519050620004548162000429565b92915050565b60008060008060008060c087890312156200047a576200047962000231565b5b600087015167ffffffffffffffff8111156200049b576200049a62000236565b5b620004a989828a0162000387565b965050602087015167ffffffffffffffff811115620004cd57620004cc62000236565b5b620004db89828a0162000387565b9550506040620004ee89828a01620003de565b94505060606200050189828a0162000443565b93505060806200051489828a0162000443565b92505060a06200052789828a0162000443565b9150509295509295509295565b600081519050919050565b7f4e487b7100000000000000000000000000000000000000000000000000000000600052602260045260246000fd5b600060028204905060018216806200058757607f821691505b6020821081036200059d576200059c6200053f565b5b50919050565b60008190508160005260206000209050919050565b60006020601f8301049050919050565b600082821b905092915050565b600060088302620006077fffffffffffffffffffffffffffffffffffffffffffffffffffffffffffffffff82620005c8565b620006138683620005c8565b95508019841693508086168417925050509392505050565b6000819050919050565b600062000656620006506200064a84620003ba565b6200062b565b620003ba565b9050919050565b6000819050919050565b620006728362000635565b6200068a62000681826200065d565b848454620005d5565b825550505050565b600090565b620006a162000692565b620006ae81848462000667565b505050565b5b81811015620006d657620006ca60008262000697565b600181019050620006b4565b5050565b601f8211156200072557620006ef81620005a3565b620006fa84620005b8565b810160208510156200070a578190505b620007226200071985620005b8565b830182620006b3565b50505b505050565b600082821c905092915050565b60006200074a600019846008026200072a565b1980831691505092915050565b600062000765838362000737565b9150826002028217905092915050565b620007808262000534565b67ffffffffffffffff8111156200079c576200079b62000256565b5b620007a882546200056e565b620007b5828285620006da565b600060209050601f831160018114620007ed5760008415620007d8578287015190505b620007e4858262000757565b86555062000854565b601f198416620007fd86620005a3565b60005b82811015620008275784890151825560018201915060208501945060208101905062000800565b8683101562000847578489015162000843601f89168262000737565b8355505b6001600288020188555050505b505050505050565b615aa4806200086c6000396000f3fe608060405234801561001057600080fd5b50600436106102275760003560e01c80637752e36811610130578063b88d4fde116100b8578063d89135cd1161007c578063d89135cd146106b3578063de62d842146106d1578063e985e9c5146106ed578063f224d8ad1461071d578063f2fde38b1461073b57610227565b8063b88d4fde146105e9578063c87b56dd14610605578063ca714e5b14610635578063cbad784914610665578063cd3fdaab1461069557610227565b80638da5cb5b116100ff5780638da5cb5b1461054357806395d89b4114610561578063a22cb4651461057f578063a2309ff81461059b578063b4449b26146105b957610227565b80637752e368146104a757806389327f28146104d75780638ada6b0f146105075780638b3578c61461052557610227565b806342842e0e116101b35780635e23a763116101825780635e23a763146103f15780636352211e1461042157806365847f211461045157806370a082311461046d578063715018a61461049d57610227565b806342842e0e1461037d57806342966c68146103995780634337baba146103b5578063444269bd146103d357610227565b8063095ea7b3116101fa578063095ea7b3146102db5780630b56c029146102f757806318160ddd1461031357806318f58b731461033157806323b872dd1461036157610227565b806301e292571461022c57806301ffc9a71461025d57806306fdde031461028d578063081812fc146102ab575b600080fd5b610246600480360381019061024191906136df565b610757565b604051610254929190613891565b60405180910390f35b61027760048036038101906102729190613920565b610923565b6040516102849190613968565b60405180910390f35b610295610984565b6040516102a29190613983565b60405180910390f35b6102c560048036038101906102c091906139a5565b610a16565b6040516102d29190613a13565b60405180910390f35b6102f560048036038101906102f09190613a5a565b610a5c565b005b610311600480360381019061030c91906139a5565b610b73565b005b61031b610b85565b6040516103289190613aa9565b60405180910390f35b61034b60048036038101906103469190613c0c565b610b9c565b6040516103589190613da0565b60405180910390f35b61037b60048036038101906103769190613dc2565b610c61565b005b61039760048036038101906103929190613dc2565b610cc1565b005b6103b360048036038101906103ae91906139a5565b610ce1565b005b6103bd610d7d565b6040516103ca9190613e74565b60405180910390f35b6103db610da3565b6040516103e89190613f3e565b60405180910390f35b61040b600480360381019061040691906139a5565b61112c565b6040516104189190613aa9565b60405180910390f35b61043b600480360381019061043691906139a5565b611155565b6040516104489190613a13565b60405180910390f35b61046b60048036038101906104669190613f9e565b6111db565b005b61048760048036038101906104829190613ffa565b611645565b6040516104949190613aa9565b60405180910390f35b6104a56116fc565b005b6104c160048036038101906104bc91906139a5565b611710565b6040516104ce9190613aa9565b60405180910390f35b6104f160048036038101906104ec91906139a5565b611728565b6040516104fe9190613aa9565b60405180910390f35b61050f61191a565b60405161051c9190614048565b60405180910390f35b61052d611940565b60405161053a9190613968565b60405180910390f35b61054b61194c565b6040516105589190613a13565b60405180910390f35b610569611976565b6040516105769190613983565b60405180910390f35b6105996004803603810190610594919061408f565b611a08565b005b6105a3611a1e565b6040516105b09190613aa9565b60405180910390f35b6105d360048036038101906105ce91906139a5565b611a28565b6040516105e09190613983565b60405180910390f35b61060360048036038101906105fe9190614184565b611ad2565b005b61061f600480360381019061061a91906139a5565b611b34565b60405161062c9190613983565b60405180910390f35b61064f600480360381019061064a91906139a5565b611d1b565b60405161065c9190614207565b60405180910390f35b61067f600480360381019061067a91906139a5565b611e42565b60405161068c9190613aa9565b60405180910390f35b61069d611f0e565b6040516106aa9190613aa9565b60405180910390f35b6106bb611f14565b6040516106c89190613aa9565b60405180910390f35b6106eb60048036038101906106e69190613c0c565b611f1e565b005b61070760048036038101906107029190614229565b6121c0565b6040516107149190613968565b60405180910390f35b610725612254565b6040516107329190613e74565b60405180910390f35b61075560048036038101906107509190613ffa565b61227a565b005b61075f61365f565b60606000839050600061077182611e42565b9050600061077e82611a28565b9050600061078b84611728565b905060006040518060c001604052808a815260200185815260200185600a6107b39190614298565b6002600960009054906101000a900473ffffffffffffffffffffffffffffffffffffffff1673ffffffffffffffffffffffffffffffffffffffff1663030ac5256040518163ffffffff1660e01b8152600401602060405180830381865afa158015610822573d6000803e3d6000fd5b505050506040513d601f19601f8201168201806040525081019061084691906142e1565b610850919061433d565b61085a9190614298565b815260200186815260200183815260200184815250905080600960009054906101000a900473ffffffffffffffffffffffffffffffffffffffff1673ffffffffffffffffffffffffffffffffffffffff1663cfeb9a02836040518263ffffffff1660e01b81526004016108cd9190614207565b600060405180830381865afa1580156108ea573d6000803e3d6000fd5b505050506040513d6000823e3d601f19601f82011682018060405250810190610913919061440f565b9650965050505050509250929050565b6000634906490660e01b7bffffffffffffffffffffffffffffffffffffffffffffffffffffffff1916827bffffffffffffffffffffffffffffffffffffffffffffffffffffffff1916148061097d575061097c826122fd565b5b9050919050565b60606000805461099390614487565b80601f01602080910402602001604051908101604052809291908181526020018280546109bf90614487565b8015610a0c5780601f106109e157610100808354040283529160200191610a0c565b820191906000526020600020905b8154815290600101906020018083116109ef57829003601f168201915b5050505050905090565b6000610a21826123df565b6004600083815260200190815260200160002060009054906101000a900473ffffffffffffffffffffffffffffffffffffffff169050919050565b6000610a6782611155565b90508073ffffffffffffffffffffffffffffffffffffffff168373ffffffffffffffffffffffffffffffffffffffff1603610ad7576040517f08c379a0000000000000000000000000000000000000000000000000000000008152600401610ace9061452a565b60405180910390fd5b8073ffffffffffffffffffffffffffffffffffffffff16610af661242a565b73ffffffffffffffffffffffffffffffffffffffff161480610b255750610b2481610b1f61242a565b6121c0565b5b610b64576040517f08c379a0000000000000000000000000000000000000000000000000000000008152600401610b5b906145bc565b60405180910390fd5b610b6e8383612432565b505050565b610b7b6124eb565b8060078190555050565b6000600d54600c54610b979190614298565b905090565b60606000825167ffffffffffffffff811115610bbb57610bba613ac9565b5b604051908082528060200260200182016040528015610bf457816020015b610be161365f565b815260200190600190039081610bd95790505b50905060005b8351811015610c5757610c26848281518110610c1957610c186145dc565b5b6020026020010151611d1b565b828281518110610c3957610c386145dc565b5b60200260200101819052508080610c4f9061460b565b915050610bfa565b5080915050919050565b610c72610c6c61242a565b82612569565b610cb1576040517f08c379a0000000000000000000000000000000000000000000000000000000008152600401610ca8906146c5565b60405180910390fd5b610cbc8383836125fe565b505050565b610cdc83838360405180602001604052806000815250611ad2565b505050565b3373ffffffffffffffffffffffffffffffffffffffff16610d0182611155565b73ffffffffffffffffffffffffffffffffffffffff1614610d57576040517f08c379a0000000000000000000000000000000000000000000000000000000008152600401610d4e90614731565b60405180910390fd5b6001600d6000828254610d6a9190614751565b92505081905550610d7a816128f7565b50565b600b60009054906101000a900473ffffffffffffffffffffffffffffffffffffffff1681565b60606000610f906001600a60009054906101000a900473ffffffffffffffffffffffffffffffffffffffff1673ffffffffffffffffffffffffffffffffffffffff1663a49062d46040518163ffffffff1660e01b8152600401602060405180830381865afa158015610e19573d6000803e3d6000fd5b505050506040513d601f19601f82011682018060405250810190610e3d91906142e1565b610e479190614298565b6002610e5391906148b8565b600a60009054906101000a900473ffffffffffffffffffffffffffffffffffffffff1673ffffffffffffffffffffffffffffffffffffffff16635056af056040518163ffffffff1660e01b8152600401602060405180830381865afa158015610ec0573d6000803e3d6000fd5b505050506040513d601f19601f82011682018060405250810190610ee491906142e1565b600a60009054906101000a900473ffffffffffffffffffffffffffffffffffffffff1673ffffffffffffffffffffffffffffffffffffffff1663a2309ff86040518163ffffffff1660e01b8152600401602060405180830381865afa158015610f51573d6000803e3d6000fd5b505050506040513d601f19601f82011682018060405250810190610f7591906142e1565b610f7f919061433d565b610f89919061433d565b6002612a45565b905060006001600a60009054906101000a900473ffffffffffffffffffffffffffffffffffffffff1673ffffffffffffffffffffffffffffffffffffffff1663a49062d46040518163ffffffff1660e01b8152600401602060405180830381865afa158015611003573d6000803e3d6000fd5b505050506040513d601f19601f8201168201806040525081019061102791906142e1565b6110319190614751565b67ffffffffffffffff81111561104a57611049613ac9565b5b6040519080825280602002602001820160405280156110785781602001602082028036833780820191505090505b509050600581600081518110611091576110906145dc565b5b6020026020010181815250506002826110aa9190614903565b816001815181106110be576110bd6145dc565b5b6020026020010181815250506003826110d79190614903565b816002815181106110eb576110ea6145dc565b5b6020026020010181815250506008826111049190614903565b81600381518110611118576111176145dc565b5b602002602001018181525050809250505090565b60006001600860008481526020019081526020016000205461114e9190614751565b9050919050565b60008061116183612a5e565b9050600073ffffffffffffffffffffffffffffffffffffffff168173ffffffffffffffffffffffffffffffffffffffff16036111d2576040517f08c379a00000000000000000000000000000000000000000000000000000000081526004016111c9906149a9565b60405180910390fd5b80915050919050565b600a60009054906101000a900473ffffffffffffffffffffffffffffffffffffffff1673ffffffffffffffffffffffffffffffffffffffff168273ffffffffffffffffffffffffffffffffffffffff1614806112845750600b60009054906101000a900473ffffffffffffffffffffffffffffffffffffffff1673ffffffffffffffffffffffffffffffffffffffff168273ffffffffffffffffffffffffffffffffffffffff16145b6112ba576040517f7615210d00000000000000000000000000000000000000000000000000000000815260040160405180910390fd5b60008151905060005b818110156116295760008382815181106112e0576112df6145dc565b5b6020026020010151905060008573ffffffffffffffffffffffffffffffffffffffff16636352211e836040518263ffffffff1660e01b81526004016113259190613aa9565b602060405180830381865afa158015611342573d6000803e3d6000fd5b505050506040513d601f19601f8201168201806040525081019061136691906149de565b90503373ffffffffffffffffffffffffffffffffffffffff168173ffffffffffffffffffffffffffffffffffffffff161415801561141d57508573ffffffffffffffffffffffffffffffffffffffff1663e985e9c582336040518363ffffffff1660e01b81526004016113da929190614a0b565b602060405180830381865afa1580156113f7573d6000803e3d6000fd5b505050506040513d601f19601f8201168201806040525081019061141b9190614a49565b155b80156114ce57503373ffffffffffffffffffffffffffffffffffffffff168673ffffffffffffffffffffffffffffffffffffffff1663081812fc846040518263ffffffff1660e01b81526004016114749190613aa9565b602060405180830381865afa158015611491573d6000803e3d6000fd5b505050506040513d601f19601f820116820180604052508101906114b591906149de565b73ffffffffffffffffffffffffffffffffffffffff1614155b15611505576040517f3d693ada00000000000000000000000000000000000000000000000000000000815260040160405180910390fd5b60018673ffffffffffffffffffffffffffffffffffffffff16635e23a763846040518263ffffffff1660e01b81526004016115409190613aa9565b602060405180830381865afa15801561155d573d6000803e3d6000fd5b505050506040513d601f19601f8201168201806040525081019061158191906142e1565b61158b9190614298565b60086000848152602001908152602001600020819055508573ffffffffffffffffffffffffffffffffffffffff166323b872dd826001856040518463ffffffff1660e01b81526004016115e093929190614a76565b600060405180830381600087803b1580156115fa57600080fd5b505af115801561160e573d6000803e3d6000fd5b5050505061161c3383612a9b565b82600101925050506112c3565b508063ffffffff16600c60008282540192505081905550505050565b60008073ffffffffffffffffffffffffffffffffffffffff168273ffffffffffffffffffffffffffffffffffffffff16036116b5576040517f08c379a00000000000000000000000000000000000000000000000000000000081526004016116ac90614b1f565b60405180910390fd5b600360008373ffffffffffffffffffffffffffffffffffffffff1673ffffffffffffffffffffffffffffffffffffffff168152602001908152602001600020549050919050565b6117046124eb565b61170e6000612ab9565b565b60086020528060005260406000206000915090505481565b60008061173483611e42565b9050600a60009054906101000a900473ffffffffffffffffffffffffffffffffffffffff1673ffffffffffffffffffffffffffffffffffffffff1663a49062d46040518163ffffffff1660e01b8152600401602060405180830381865afa1580156117a3573d6000803e3d6000fd5b505050506040513d601f19601f820116820180604052508101906117c791906142e1565b81036117d7576000915050611915565b6000601490506000806117e8610da3565b9050600084036118575782600282600081518110611809576118086145dc565b5b602002602001015161181b9190614298565b6001886118289190614298565b8561183290614b49565b61183c9190614b91565b6118469190614ca8565b6118509190614d12565b915061190d565b826001826001876118689190614298565b81518110611879576118786145dc565b5b6020026020010151838781518110611894576118936145dc565b5b60200260200101516118a69190614298565b6118b09190614298565b826001876118be9190614298565b815181106118cf576118ce6145dc565b5b6020026020010151886118e29190614298565b856118ec90614b49565b6118f69190614b91565b6119009190614ca8565b61190a9190614d12565b91505b819450505050505b919050565b600960009054906101000a900473ffffffffffffffffffffffffffffffffffffffff1681565b60006007544211905090565b6000600660009054906101000a900473ffffffffffffffffffffffffffffffffffffffff16905090565b60606001805461198590614487565b80601f01602080910402602001604051908101604052809291908181526020018280546119b190614487565b80156119fe5780601f106119d3576101008083540402835291602001916119fe565b820191906000526020600020905b8154815290600101906020018083116119e157829003601f168201915b5050505050905090565b611a1a611a1361242a565b8383612b7f565b5050565b6000600c54905090565b6060600a60009054906101000a900473ffffffffffffffffffffffffffffffffffffffff1673ffffffffffffffffffffffffffffffffffffffff1663b4449b26836040518263ffffffff1660e01b8152600401611a859190613aa9565b600060405180830381865afa158015611aa2573d6000803e3d6000fd5b505050506040513d6000823e3d601f19601f82011682018060405250810190611acb919061440f565b9050919050565b611ae3611add61242a565b83612569565b611b22576040517f08c379a0000000000000000000000000000000000000000000000000000000008152600401611b19906146c5565b60405180910390fd5b611b2e84848484612ceb565b50505050565b6060611b3f82612d47565b611b75576040517fa14c4b5000000000000000000000000000000000000000000000000000000000815260040160405180910390fd5b6000611b8083612d88565b604051602001611b909190614dde565b604051602081830303815290604052905060006040518060800160405280605181526020016159de6051913990506000611bc985611d1b565b90506000600960009054906101000a900473ffffffffffffffffffffffffffffffffffffffff1673ffffffffffffffffffffffffffffffffffffffff1663cfeb9a02836040518263ffffffff1660e01b8152600401611c289190614207565b600060405180830381865afa158015611c45573d6000803e3d6000fd5b505050506040513d6000823e3d601f19601f82011682018060405250810190611c6e919061440f565b90506000611c7f8360200151612d88565b8360a00151611c918560600151612d88565b604051602001611ca393929190614fa2565b60405160208183030381529060405290506000858583611cc286612f10565b604051602001611cd59493929190615222565b6040516020818303038152906040529050611cef81612f10565b604051602001611cff91906152ee565b6040516020818303038152906040529650505050505050919050565b611d2361365f565b6000611d2e8361112c565b90506000611d3b82611e42565b90506000611d4882611a28565b90506000611d5584611728565b90506040518060c0016040528087815260200184815260200184600a611d7b9190614298565b6002600960009054906101000a900473ffffffffffffffffffffffffffffffffffffffff1673ffffffffffffffffffffffffffffffffffffffff1663030ac5256040518163ffffffff1660e01b8152600401602060405180830381865afa158015611dea573d6000803e3d6000fd5b505050506040513d601f19601f82011682018060405250810190611e0e91906142e1565b611e18919061433d565b611e229190614298565b815260200185815260200182815260200183815250945050505050919050565b600080611e4d610da3565b905080600081518110611e6357611e626145dc565b5b6020026020010151831015611e7c576000915050611f09565b80600181518110611e9057611e8f6145dc565b5b6020026020010151831015611ea9576001915050611f09565b80600281518110611ebd57611ebc6145dc565b5b6020026020010151831015611ed6576002915050611f09565b80600381518110611eea57611ee96145dc565b5b6020026020010151831015611f03576003915050611f09565b60049150505b919050565b60075481565b6000600d54905090565b611f26611940565b611f65576040517f08c379a0000000000000000000000000000000000000000000000000000000008152600401611f5c9061535c565b60405180910390fd5b6001815111611fa9576040517f08c379a0000000000000000000000000000000000000000000000000000000008152600401611fa0906153c8565b60405180910390fd5b600081600081518110611fbf57611fbe6145dc565b5b602002602001015190503373ffffffffffffffffffffffffffffffffffffffff1661200483600081518110611ff757611ff66145dc565b5b6020026020010151611155565b73ffffffffffffffffffffffffffffffffffffffff161461205a576040517f08c379a000000000000000000000000000000000000000000000000000000000815260040161205190615434565b60405180910390fd5b600080600190505b8351811015612159573373ffffffffffffffffffffffffffffffffffffffff166120a5858381518110612098576120976145dc565b5b6020026020010151611155565b73ffffffffffffffffffffffffffffffffffffffff16146120fb576040517f08c379a00000000000000000000000000000000000000000000000000000000081526004016120f2906154a0565b60405180910390fd5b61211e848281518110612111576121106145dc565b5b602002602001015161112c565b826121299190614751565b915061214e848281518110612141576121406145dc565b5b60200260200101516128f7565b806001019050612062565b508060086000848152602001908152602001600020600082825461217d9190614751565b925050819055507ff8e1a15aba9398e019f0b49df1a4fde98ee17ae345cb5f6b5e2c27f5033e8ce7826040516121b39190613aa9565b60405180910390a1505050565b6000600560008473ffffffffffffffffffffffffffffffffffffffff1673ffffffffffffffffffffffffffffffffffffffff16815260200190815260200160002060008373ffffffffffffffffffffffffffffffffffffffff1673ffffffffffffffffffffffffffffffffffffffff16815260200190815260200160002060009054906101000a900460ff16905092915050565b600a60009054906101000a900473ffffffffffffffffffffffffffffffffffffffff1681565b6122826124eb565b600073ffffffffffffffffffffffffffffffffffffffff168173ffffffffffffffffffffffffffffffffffffffff16036122f1576040517f08c379a00000000000000000000000000000000000000000000000000000000081526004016122e890615532565b60405180910390fd5b6122fa81612ab9565b50565b60007f80ac58cd000000000000000000000000000000000000000000000000000000007bffffffffffffffffffffffffffffffffffffffffffffffffffffffff1916827bffffffffffffffffffffffffffffffffffffffffffffffffffffffff191614806123c857507f5b5e139f000000000000000000000000000000000000000000000000000000007bffffffffffffffffffffffffffffffffffffffffffffffffffffffff1916827bffffffffffffffffffffffffffffffffffffffffffffffffffffffff1916145b806123d857506123d7826130a7565b5b9050919050565b6123e881612d47565b612427576040517f08c379a000000000000000000000000000000000000000000000000000000000815260040161241e906149a9565b60405180910390fd5b50565b600033905090565b816004600083815260200190815260200160002060006101000a81548173ffffffffffffffffffffffffffffffffffffffff021916908373ffffffffffffffffffffffffffffffffffffffff160217905550808273ffffffffffffffffffffffffffffffffffffffff166124a583611155565b73ffffffffffffffffffffffffffffffffffffffff167f8c5be1e5ebec7d5bd14f71427d1e84f3dd0314c0f7b2291e5b200ac8c7c3b92560405160405180910390a45050565b6124f361242a565b73ffffffffffffffffffffffffffffffffffffffff1661251161194c565b73ffffffffffffffffffffffffffffffffffffffff1614612567576040517f08c379a000000000000000000000000000000000000000000000000000000000815260040161255e9061559e565b60405180910390fd5b565b60008061257583611155565b90508073ffffffffffffffffffffffffffffffffffffffff168473ffffffffffffffffffffffffffffffffffffffff1614806125b757506125b681856121c0565b5b806125f557508373ffffffffffffffffffffffffffffffffffffffff166125dd84610a16565b73ffffffffffffffffffffffffffffffffffffffff16145b91505092915050565b8273ffffffffffffffffffffffffffffffffffffffff1661261e82611155565b73ffffffffffffffffffffffffffffffffffffffff1614612674576040517f08c379a000000000000000000000000000000000000000000000000000000000815260040161266b90615630565b60405180910390fd5b600073ffffffffffffffffffffffffffffffffffffffff168273ffffffffffffffffffffffffffffffffffffffff16036126e3576040517f08c379a00000000000000000000000000000000000000000000000000000000081526004016126da906156c2565b60405180910390fd5b6126f08383836001613111565b8273ffffffffffffffffffffffffffffffffffffffff1661271082611155565b73ffffffffffffffffffffffffffffffffffffffff1614612766576040517f08c379a000000000000000000000000000000000000000000000000000000000815260040161275d90615630565b60405180910390fd5b6004600082815260200190815260200160002060006101000a81549073ffffffffffffffffffffffffffffffffffffffff02191690556001600360008573ffffffffffffffffffffffffffffffffffffffff1673ffffffffffffffffffffffffffffffffffffffff168152602001908152602001600020600082825403925050819055506001600360008473ffffffffffffffffffffffffffffffffffffffff1673ffffffffffffffffffffffffffffffffffffffff16815260200190815260200160002060008282540192505081905550816002600083815260200190815260200160002060006101000a81548173ffffffffffffffffffffffffffffffffffffffff021916908373ffffffffffffffffffffffffffffffffffffffff160217905550808273ffffffffffffffffffffffffffffffffffffffff168473ffffffffffffffffffffffffffffffffffffffff167fddf252ad1be2c89b69c2b068fc378daa952ba7f163c4a11628f55a4df523b3ef60405160405180910390a46128f28383836001613237565b505050565b600061290282611155565b9050612912816000846001613111565b61291b82611155565b90506004600083815260200190815260200160002060006101000a81549073ffffffffffffffffffffffffffffffffffffffff02191690556001600360008373ffffffffffffffffffffffffffffffffffffffff1673ffffffffffffffffffffffffffffffffffffffff168152602001908152602001600020600082825403925050819055506002600083815260200190815260200160002060006101000a81549073ffffffffffffffffffffffffffffffffffffffff021916905581600073ffffffffffffffffffffffffffffffffffffffff168273ffffffffffffffffffffffffffffffffffffffff167fddf252ad1be2c89b69c2b068fc378daa952ba7f163c4a11628f55a4df523b3ef60405160405180910390a4612a41816000846001613237565b5050565b6000818311612a545781612a56565b825b905092915050565b60006002600083815260200190815260200160002060009054906101000a900473ffffffffffffffffffffffffffffffffffffffff169050919050565b612ab582826040518060200160405280600081525061323d565b5050565b6000600660009054906101000a900473ffffffffffffffffffffffffffffffffffffffff16905081600660006101000a81548173ffffffffffffffffffffffffffffffffffffffff021916908373ffffffffffffffffffffffffffffffffffffffff1602179055508173ffffffffffffffffffffffffffffffffffffffff168173ffffffffffffffffffffffffffffffffffffffff167f8be0079c531659141344cd1fd0a4f28419497f9722a3daafe3b4186f6b6457e060405160405180910390a35050565b8173ffffffffffffffffffffffffffffffffffffffff168373ffffffffffffffffffffffffffffffffffffffff1603612bed576040517f08c379a0000000000000000000000000000000000000000000000000000000008152600401612be49061572e565b60405180910390fd5b80600560008573ffffffffffffffffffffffffffffffffffffffff1673ffffffffffffffffffffffffffffffffffffffff16815260200190815260200160002060008473ffffffffffffffffffffffffffffffffffffffff1673ffffffffffffffffffffffffffffffffffffffff16815260200190815260200160002060006101000a81548160ff0219169083151502179055508173ffffffffffffffffffffffffffffffffffffffff168373ffffffffffffffffffffffffffffffffffffffff167f17307eab39ab6107e8899845ad3d59bd9653f200f220920489ca2b5937696c3183604051612cde9190613968565b60405180910390a3505050565b612cf68484846125fe565b612d0284848484613298565b612d41576040517f08c379a0000000000000000000000000000000000000000000000000000000008152600401612d38906157c0565b60405180910390fd5b50505050565b60008073ffffffffffffffffffffffffffffffffffffffff16612d6983612a5e565b73ffffffffffffffffffffffffffffffffffffffff1614159050919050565b606060008203612dcf576040518060400160405280600181526020017f30000000000000000000000000000000000000000000000000000000000000008152509050612f0b565b600082905060005b60008214612e01578080612dea9061460b565b915050600a82612dfa919061433d565b9150612dd7565b60008167ffffffffffffffff811115612e1d57612e1c613ac9565b5b6040519080825280601f01601f191660200182016040528015612e4f5781602001600182028036833780820191505090505b50905060008290505b60008614612f0357600181612e6d9190614298565b90506000600a8088612e7f919061433d565b612e899190614903565b87612e949190614298565b6030612ea091906157ed565b905060008160f81b905080848481518110612ebe57612ebd6145dc565b5b60200101907effffffffffffffffffffffffffffffffffffffffffffffffffffffffffffff1916908160001a905350600a88612efa919061433d565b97505050612e58565b819450505050505b919050565b606060008251905060008103612f3857604051806020016040528060008152509150506130a2565b60006003600283612f499190614751565b612f53919061433d565b6004612f5f9190614903565b90506000602082612f709190614751565b67ffffffffffffffff811115612f8957612f88613ac9565b5b6040519080825280601f01601f191660200182016040528015612fbb5781602001600182028036833780820191505090505b5090506000604051806060016040528060408152602001615a2f604091399050600181016020830160005b8681101561305f5760038101905062ffffff818a015116603f8160121c168401518060081b905060ff603f83600c1c1686015116810190508060081b905060ff603f8360061c1686015116810190508060081b905060ff603f831686015116810190508060e01b90508084526004840193505050612fe6565b506003860660018114613079576002811461308957613094565b613d3d60f01b6002830352613094565b603d60f81b60018303525b508484525050819450505050505b919050565b60007f01ffc9a7000000000000000000000000000000000000000000000000000000007bffffffffffffffffffffffffffffffffffffffffffffffffffffffff1916827bffffffffffffffffffffffffffffffffffffffffffffffffffffffff1916149050919050565b600181111561323157600073ffffffffffffffffffffffffffffffffffffffff168473ffffffffffffffffffffffffffffffffffffffff16146131a55780600360008673ffffffffffffffffffffffffffffffffffffffff1673ffffffffffffffffffffffffffffffffffffffff168152602001908152602001600020600082825461319d9190614298565b925050819055505b600073ffffffffffffffffffffffffffffffffffffffff168373ffffffffffffffffffffffffffffffffffffffff16146132305780600360008573ffffffffffffffffffffffffffffffffffffffff1673ffffffffffffffffffffffffffffffffffffffff16815260200190815260200160002060008282546132289190614751565b925050819055505b5b50505050565b50505050565b613247838361341f565b6132546000848484613298565b613293576040517f08c379a000000000000000000000000000000000000000000000000000000000815260040161328a906157c0565b60405180910390fd5b505050565b60006132b98473ffffffffffffffffffffffffffffffffffffffff1661363c565b15613412578373ffffffffffffffffffffffffffffffffffffffff1663150b7a026132e261242a565b8786866040518563ffffffff1660e01b81526004016133049493929190615877565b6020604051808303816000875af192505050801561334057506040513d601f19601f8201168201806040525081019061333d91906158d8565b60015b6133c2573d8060008114613370576040519150601f19603f3d011682016040523d82523d6000602084013e613375565b606091505b5060008151036133ba576040517f08c379a00000000000000000000000000000000000000000000000000000000081526004016133b1906157c0565b60405180910390fd5b805181602001fd5b63150b7a0260e01b7bffffffffffffffffffffffffffffffffffffffffffffffffffffffff1916817bffffffffffffffffffffffffffffffffffffffffffffffffffffffff191614915050613417565b600190505b949350505050565b600073ffffffffffffffffffffffffffffffffffffffff168273ffffffffffffffffffffffffffffffffffffffff160361348e576040517f08c379a000000000000000000000000000000000000000000000000000000000815260040161348590615951565b60405180910390fd5b61349781612d47565b156134d7576040517f08c379a00000000000000000000000000000000000000000000000000000000081526004016134ce906159bd565b60405180910390fd5b6134e5600083836001613111565b6134ee81612d47565b1561352e576040517f08c379a0000000000000000000000000000000000000000000000000000000008152600401613525906159bd565b60405180910390fd5b6001600360008473ffffffffffffffffffffffffffffffffffffffff1673ffffffffffffffffffffffffffffffffffffffff16815260200190815260200160002060008282540192505081905550816002600083815260200190815260200160002060006101000a81548173ffffffffffffffffffffffffffffffffffffffff021916908373ffffffffffffffffffffffffffffffffffffffff160217905550808273ffffffffffffffffffffffffffffffffffffffff16600073ffffffffffffffffffffffffffffffffffffffff167fddf252ad1be2c89b69c2b068fc378daa952ba7f163c4a11628f55a4df523b3ef60405160405180910390a4613638600083836001613237565b5050565b6000808273ffffffffffffffffffffffffffffffffffffffff163b119050919050565b6040518060c001604052806000815260200160008152602001600081526020016000815260200160008152602001606081525090565b6000604051905090565b600080fd5b600080fd5b6000819050919050565b6136bc816136a9565b81146136c757600080fd5b50565b6000813590506136d9816136b3565b92915050565b600080604083850312156136f6576136f561369f565b5b6000613704858286016136ca565b9250506020613715858286016136ca565b9150509250929050565b613728816136a9565b82525050565b600081519050919050565b600082825260208201905092915050565b60005b8381101561376857808201518184015260208101905061374d565b60008484015250505050565b6000601f19601f8301169050919050565b60006137908261372e565b61379a8185613739565b93506137aa81856020860161374a565b6137b381613774565b840191505092915050565b600060c0830160008301516137d6600086018261371f565b5060208301516137e9602086018261371f565b5060408301516137fc604086018261371f565b50606083015161380f606086018261371f565b506080830151613822608086018261371f565b5060a083015184820360a086015261383a8282613785565b9150508091505092915050565b600082825260208201905092915050565b60006138638261372e565b61386d8185613847565b935061387d81856020860161374a565b61388681613774565b840191505092915050565b600060408201905081810360008301526138ab81856137be565b905081810360208301526138bf8184613858565b90509392505050565b60007fffffffff0000000000000000000000000000000000000000000000000000000082169050919050565b6138fd816138c8565b811461390857600080fd5b50565b60008135905061391a816138f4565b92915050565b6000602082840312156139365761393561369f565b5b60006139448482850161390b565b91505092915050565b60008115159050919050565b6139628161394d565b82525050565b600060208201905061397d6000830184613959565b92915050565b6000602082019050818103600083015261399d8184613858565b905092915050565b6000602082840312156139bb576139ba61369f565b5b60006139c9848285016136ca565b91505092915050565b600073ffffffffffffffffffffffffffffffffffffffff82169050919050565b60006139fd826139d2565b9050919050565b613a0d816139f2565b82525050565b6000602082019050613a286000830184613a04565b92915050565b613a37816139f2565b8114613a4257600080fd5b50565b600081359050613a5481613a2e565b92915050565b60008060408385031215613a7157613a7061369f565b5b6000613a7f85828601613a45565b9250506020613a90858286016136ca565b9150509250929050565b613aa3816136a9565b82525050565b6000602082019050613abe6000830184613a9a565b92915050565b600080fd5b7f4e487b7100000000000000000000000000000000000000000000000000000000600052604160045260246000fd5b613b0182613774565b810181811067ffffffffffffffff82111715613b2057613b1f613ac9565b5b80604052505050565b6000613b33613695565b9050613b3f8282613af8565b919050565b600067ffffffffffffffff821115613b5f57613b5e613ac9565b5b602082029050602081019050919050565b600080fd5b6000613b88613b8384613b44565b613b29565b90508083825260208201905060208402830185811115613bab57613baa613b70565b5b835b81811015613bd45780613bc088826136ca565b845260208401935050602081019050613bad565b5050509392505050565b600082601f830112613bf357613bf2613ac4565b5b8135613c03848260208601613b75565b91505092915050565b600060208284031215613c2257613c2161369f565b5b600082013567ffffffffffffffff811115613c4057613c3f6136a4565b5b613c4c84828501613bde565b91505092915050565b600081519050919050565b600082825260208201905092915050565b6000819050602082019050919050565b600060c083016000830151613c99600086018261371f565b506020830151613cac602086018261371f565b506040830151613cbf604086018261371f565b506060830151613cd2606086018261371f565b506080830151613ce5608086018261371f565b5060a083015184820360a0860152613cfd8282613785565b9150508091505092915050565b6000613d168383613c81565b905092915050565b6000602082019050919050565b6000613d3682613c55565b613d408185613c60565b935083602082028501613d5285613c71565b8060005b85811015613d8e5784840389528151613d6f8582613d0a565b9450613d7a83613d1e565b925060208a01995050600181019050613d56565b50829750879550505050505092915050565b60006020820190508181036000830152613dba8184613d2b565b905092915050565b600080600060608486031215613ddb57613dda61369f565b5b6000613de986828701613a45565b9350506020613dfa86828701613a45565b9250506040613e0b868287016136ca565b9150509250925092565b6000819050919050565b6000613e3a613e35613e30846139d2565b613e15565b6139d2565b9050919050565b6000613e4c82613e1f565b9050919050565b6000613e5e82613e41565b9050919050565b613e6e81613e53565b82525050565b6000602082019050613e896000830184613e65565b92915050565b600081519050919050565b600082825260208201905092915050565b6000819050602082019050919050565b6000613ec7838361371f565b60208301905092915050565b6000602082019050919050565b6000613eeb82613e8f565b613ef58185613e9a565b9350613f0083613eab565b8060005b83811015613f31578151613f188882613ebb565b9750613f2383613ed3565b925050600181019050613f04565b5085935050505092915050565b60006020820190508181036000830152613f588184613ee0565b905092915050565b6000613f6b826139f2565b9050919050565b613f7b81613f60565b8114613f8657600080fd5b50565b600081359050613f9881613f72565b92915050565b60008060408385031215613fb557613fb461369f565b5b6000613fc385828601613f89565b925050602083013567ffffffffffffffff811115613fe457613fe36136a4565b5b613ff085828601613bde565b9150509250929050565b6000602082840312156140105761400f61369f565b5b600061401e84828501613a45565b91505092915050565b600061403282613e41565b9050919050565b61404281614027565b82525050565b600060208201905061405d6000830184614039565b92915050565b61406c8161394d565b811461407757600080fd5b50565b60008135905061408981614063565b92915050565b600080604083850312156140a6576140a561369f565b5b60006140b485828601613a45565b92505060206140c58582860161407a565b9150509250929050565b600080fd5b600067ffffffffffffffff8211156140ef576140ee613ac9565b5b6140f882613774565b9050602081019050919050565b82818337600083830152505050565b6000614127614122846140d4565b613b29565b905082815260208101848484011115614143576141426140cf565b5b61414e848285614105565b509392505050565b600082601f83011261416b5761416a613ac4565b5b813561417b848260208601614114565b91505092915050565b6000806000806080858703121561419e5761419d61369f565b5b60006141ac87828801613a45565b94505060206141bd87828801613a45565b93505060406141ce878288016136ca565b925050606085013567ffffffffffffffff8111156141ef576141ee6136a4565b5b6141fb87828801614156565b91505092959194509250565b6000602082019050818103600083015261422181846137be565b905092915050565b600080604083850312156142405761423f61369f565b5b600061424e85828601613a45565b925050602061425f85828601613a45565b9150509250929050565b7f4e487b7100000000000000000000000000000000000000000000000000000000600052601160045260246000fd5b60006142a3826136a9565b91506142ae836136a9565b92508282039050818111156142c6576142c5614269565b5b92915050565b6000815190506142db816136b3565b92915050565b6000602082840312156142f7576142f661369f565b5b6000614305848285016142cc565b91505092915050565b7f4e487b7100000000000000000000000000000000000000000000000000000000600052601260045260246000fd5b6000614348826136a9565b9150614353836136a9565b9250826143635761436261430e565b5b828204905092915050565b600067ffffffffffffffff82111561438957614388613ac9565b5b61439282613774565b9050602081019050919050565b60006143b26143ad8461436e565b613b29565b9050828152602081018484840111156143ce576143cd6140cf565b5b6143d984828561374a565b509392505050565b600082601f8301126143f6576143f5613ac4565b5b815161440684826020860161439f565b91505092915050565b6000602082840312156144255761442461369f565b5b600082015167ffffffffffffffff811115614443576144426136a4565b5b61444f848285016143e1565b91505092915050565b7f4e487b7100000000000000000000000000000000000000000000000000000000600052602260045260246000fd5b6000600282049050600182168061449f57607f821691505b6020821081036144b2576144b1614458565b5b50919050565b7f4552433732313a20617070726f76616c20746f2063757272656e74206f776e6560008201527f7200000000000000000000000000000000000000000000000000000000000000602082015250565b6000614514602183613847565b915061451f826144b8565b604082019050919050565b6000602082019050818103600083015261454381614507565b9050919050565b7f4552433732313a20617070726f76652063616c6c6572206973206e6f7420746f60008201527f6b656e206f776e6572206f7220617070726f76656420666f7220616c6c000000602082015250565b60006145a6603d83613847565b91506145b18261454a565b604082019050919050565b600060208201905081810360008301526145d581614599565b9050919050565b7f4e487b7100000000000000000000000000000000000000000000000000000000600052603260045260246000fd5b6000614616826136a9565b91507fffffffffffffffffffffffffffffffffffffffffffffffffffffffffffffffff820361464857614647614269565b5b600182019050919050565b7f4552433732313a2063616c6c6572206973206e6f7420746f6b656e206f776e6560008201527f72206f7220617070726f76656400000000000000000000000000000000000000602082015250565b60006146af602d83613847565b91506146ba82614653565b604082019050919050565b600060208201905081810360008301526146de816146a2565b9050919050565b7f4d757374206f776e20746f6b656e000000000000000000000000000000000000600082015250565b600061471b600e83613847565b9150614726826146e5565b602082019050919050565b6000602082019050818103600083015261474a8161470e565b9050919050565b600061475c826136a9565b9150614767836136a9565b925082820190508082111561477f5761477e614269565b5b92915050565b60008160011c9050919050565b6000808291508390505b60018511156147dc578086048111156147b8576147b7614269565b5b60018516156147c75780820291505b80810290506147d585614785565b945061479c565b94509492505050565b6000826147f557600190506148b1565b8161480357600090506148b1565b8160018114614819576002811461482357614852565b60019150506148b1565b60ff84111561483557614834614269565b5b8360020a91508482111561484c5761484b614269565b5b506148b1565b5060208310610133831016604e8410600b84101617156148875782820a90508381111561488257614881614269565b5b6148b1565b6148948484846001614792565b925090508184048111156148ab576148aa614269565b5b81810290505b9392505050565b60006148c3826136a9565b91506148ce836136a9565b92506148fb7fffffffffffffffffffffffffffffffffffffffffffffffffffffffffffffffff84846147e5565b905092915050565b600061490e826136a9565b9150614919836136a9565b9250817fffffffffffffffffffffffffffffffffffffffffffffffffffffffffffffffff048311821515161561495257614951614269565b5b828202905092915050565b7f4552433732313a20696e76616c696420746f6b656e2049440000000000000000600082015250565b6000614993601883613847565b915061499e8261495d565b602082019050919050565b600060208201905081810360008301526149c281614986565b9050919050565b6000815190506149d881613a2e565b92915050565b6000602082840312156149f4576149f361369f565b5b6000614a02848285016149c9565b91505092915050565b6000604082019050614a206000830185613a04565b614a2d6020830184613a04565b9392505050565b600081519050614a4381614063565b92915050565b600060208284031215614a5f57614a5e61369f565b5b6000614a6d84828501614a34565b91505092915050565b6000606082019050614a8b6000830186613a04565b614a986020830185613a04565b614aa56040830184613a9a565b949350505050565b7f4552433732313a2061646472657373207a65726f206973206e6f74206120766160008201527f6c6964206f776e65720000000000000000000000000000000000000000000000602082015250565b6000614b09602983613847565b9150614b1482614aad565b604082019050919050565b60006020820190508181036000830152614b3881614afc565b9050919050565b6000819050919050565b6000614b5482614b3f565b91507f80000000000000000000000000000000000000000000000000000000000000008203614b8657614b85614269565b5b816000039050919050565b6000614b9c82614b3f565b9150614ba783614b3f565b9250827f7fffffffffffffffffffffffffffffffffffffffffffffffffffffffffffffff0482116000841360008413161615614be657614be5614269565b5b817f80000000000000000000000000000000000000000000000000000000000000000583126000841260008413161615614c2357614c22614269565b5b827f80000000000000000000000000000000000000000000000000000000000000000582126000841360008412161615614c6057614c5f614269565b5b827f7fffffffffffffffffffffffffffffffffffffffffffffffffffffffffffffff0582126000841260008412161615614c9d57614c9c614269565b5b828202905092915050565b6000614cb382614b3f565b9150614cbe83614b3f565b925082614cce57614ccd61430e565b5b600160000383147f800000000000000000000000000000000000000000000000000000000000000083141615614d0757614d06614269565b5b828205905092915050565b6000614d1d82614b3f565b9150614d2883614b3f565b925082820190508281121560008312168382126000841215161715614d5057614d4f614269565b5b92915050565b600081905092915050565b7f566f696461626c6520426c61636b486f6c652023000000000000000000000000600082015250565b6000614d97601483614d56565b9150614da282614d61565b601482019050919050565b6000614db88261372e565b614dc28185614d56565b9350614dd281856020860161374a565b80840191505092915050565b6000614de982614d8a565b9150614df58284614dad565b915081905092915050565b7f5b00000000000000000000000000000000000000000000000000000000000000815250565b7f7b2274726169745f74797065223a20224c6576656c222c202276616c7565223a60008201527f2000000000000000000000000000000000000000000000000000000000000000602082015250565b6000614e82602183614d56565b9150614e8d82614e26565b602182019050919050565b7f7d2c000000000000000000000000000000000000000000000000000000000000815250565b7f7b2274726169745f74797065223a20224e616d65222c202276616c7565223a2060008201527f2200000000000000000000000000000000000000000000000000000000000000602082015250565b6000614f1a602183614d56565b9150614f2582614ebe565b602182019050919050565b7f227d2c0000000000000000000000000000000000000000000000000000000000815250565b7f7b2274726169745f74797065223a20224d617373222c202276616c7565223a20815250565b7f7d5d000000000000000000000000000000000000000000000000000000000000815250565b6000614fad82614e00565b600182019150614fbc82614e75565b9150614fc88286614dad565b9150614fd382614e98565b600282019150614fe282614f0d565b9150614fee8285614dad565b9150614ff982614f30565b60038201915061500882614f56565b6020820191506150188284614dad565b915061502382614f7c565b600282019150819050949350505050565b7f7b226e616d65223a220000000000000000000000000000000000000000000000600082015250565b600061506a600983614d56565b915061507582615034565b600982019050919050565b7f222c226465736372697074696f6e223a22000000000000000000000000000000600082015250565b60006150b6601183614d56565b91506150c182615080565b601182019050919050565b7f222c000000000000000000000000000000000000000000000000000000000000600082015250565b6000615102600283614d56565b915061510d826150cc565b600282019050919050565b7f2261747472696275746573223a20000000000000000000000000000000000000600082015250565b600061514e600e83614d56565b915061515982615118565b600e82019050919050565b7f2c2022696d616765223a2022646174613a696d6167652f7376672b786d6c3b6260008201527f61736536342c0000000000000000000000000000000000000000000000000000602082015250565b60006151c0602683614d56565b91506151cb82615164565b602682019050919050565b7f227d000000000000000000000000000000000000000000000000000000000000600082015250565b600061520c600283614d56565b9150615217826151d6565b600282019050919050565b600061522d8261505d565b91506152398287614dad565b9150615244826150a9565b91506152508286614dad565b915061525b826150f5565b915061526682615141565b91506152728285614dad565b915061527d826151b3565b91506152898284614dad565b9150615294826151ff565b915081905095945050505050565b7f646174613a6170706c69636174696f6e2f6a736f6e3b6261736536342c000000600082015250565b60006152d8601d83614d56565b91506152e3826152a2565b601d82019050919050565b60006152f9826152cb565b91506153058284614dad565b915081905092915050565b7f4d657267696e67206e6f7420656e61626c656400000000000000000000000000600082015250565b6000615346601383613847565b915061535182615310565b602082019050919050565b6000602082019050818103600083015261537581615339565b9050919050565b7f4d757374206d65726765206174206c65617374203220746f6b656e7300000000600082015250565b60006153b2601c83613847565b91506153bd8261537c565b602082019050919050565b600060208201905081810360008301526153e1816153a5565b9050919050565b7f4d757374206f776e20616c6c20746f6b656e7320287461726765742900000000600082015250565b600061541e601c83613847565b9150615429826153e8565b602082019050919050565b6000602082019050818103600083015261544d81615411565b9050919050565b7f4d757374206f776e20616c6c20746f6b656e7320286275726e29000000000000600082015250565b600061548a601a83613847565b915061549582615454565b602082019050919050565b600060208201905081810360008301526154b98161547d565b9050919050565b7f4f776e61626c653a206e6577206f776e657220697320746865207a65726f206160008201527f6464726573730000000000000000000000000000000000000000000000000000602082015250565b600061551c602683613847565b9150615527826154c0565b604082019050919050565b6000602082019050818103600083015261554b8161550f565b9050919050565b7f4f776e61626c653a2063616c6c6572206973206e6f7420746865206f776e6572600082015250565b6000615588602083613847565b915061559382615552565b602082019050919050565b600060208201905081810360008301526155b78161557b565b9050919050565b7f4552433732313a207472616e736665722066726f6d20696e636f72726563742060008201527f6f776e6572000000000000000000000000000000000000000000000000000000602082015250565b600061561a602583613847565b9150615625826155be565b604082019050919050565b600060208201905081810360008301526156498161560d565b9050919050565b7f4552433732313a207472616e7366657220746f20746865207a65726f2061646460008201527f7265737300000000000000000000000000000000000000000000000000000000602082015250565b60006156ac602483613847565b91506156b782615650565b604082019050919050565b600060208201905081810360008301526156db8161569f565b9050919050565b7f4552433732313a20617070726f766520746f2063616c6c657200000000000000600082015250565b6000615718601983613847565b9150615723826156e2565b602082019050919050565b600060208201905081810360008301526157478161570b565b9050919050565b7f4552433732313a207472616e7366657220746f206e6f6e20455243373231526560008201527f63656976657220696d706c656d656e7465720000000000000000000000000000602082015250565b60006157aa603283613847565b91506157b58261574e565b604082019050919050565b600060208201905081810360008301526157d98161579d565b9050919050565b600060ff82169050919050565b60006157f8826157e0565b9150615803836157e0565b9250828201905060ff81111561581c5761581b614269565b5b92915050565b600081519050919050565b600082825260208201905092915050565b600061584982615822565b615853818561582d565b935061586381856020860161374a565b61586c81613774565b840191505092915050565b600060808201905061588c6000830187613a04565b6158996020830186613a04565b6158a66040830185613a9a565b81810360608301526158b8818461583e565b905095945050505050565b6000815190506158d2816138f4565b92915050565b6000602082840312156158ee576158ed61369f565b5b60006158fc848285016158c3565b91505092915050565b7f4552433732313a206d696e7420746f20746865207a65726f2061646472657373600082015250565b600061593b602083613847565b915061594682615905565b602082019050919050565b6000602082019050818103600083015261596a8161592e565b9050919050565b7f4552433732313a20746f6b656e20616c7265616479206d696e74656400000000600082015250565b60006159a7601c83613847565b91506159b282615971565b602082019050919050565b600060208201905081810360008301526159d68161599a565b905091905056fe46756c6c79206f6e2d636861696e2c2070726f6365647572616c6c792067656e6572617465642c20616e696d6174656420626c61636b20686f6c65732e20526561647920746f206265206d65726765642e4142434445464748494a4b4c4d4e4f505152535455565758595a6162636465666768696a6b6c6d6e6f707172737475767778797a303132333435363738392b2fa26469706673582212209607b1c3862bd3100844f2ae44a4cbfcf4e75e3710fa8a5bfd3bdb34ceccadea64736f6c63430008100033",
  "libraries": {
    "utils": "0xc0B9fc91b9007a8770225FC4c5c93A5f0D0B7904"
  },
  "devdoc": {
    "kind": "dev",
    "methods": {
      "approve(address,uint256)": {
        "details": "See {IERC721-approve}."
      },
      "balanceOf(address)": {
        "details": "See {IERC721-balanceOf}."
      },
      "blackHoleForMass(uint256,uint256)": {
        "params": {
          "totalMass": "mass of tokens to merge."
        },
        "returns": {
          "_0": "BlackHole struct of new Black Hole.",
          "_1": "SVG of new Black Hole."
        }
      },
      "blackHoleForTokenId(uint256)": {
        "params": {
          "_tokenId": "ID of the token."
        },
        "returns": {
          "_0": "BlackHole Structured representation of the token."
        }
      },
      "blackHolesForTokenIds(uint256[])": {
        "params": {
          "tokenIds": "List of token IDs."
        }
      },
      "constructor": {
        "details": "Constructs a new instance of the contract.",
        "params": {
          "_mergeOpenTimestamp": "Timestamp when merging is open.",
          "_name": "Name of the ERC721 token.",
          "_renderer": "Address of the Renderer contract.",
          "_symbol": "Symbol of the ERC721 token.",
          "_unmigratedBlackHoles": "Address of Black Holes contract."
        }
      },
      "getAdjustmentForMass(uint256)": {
        "params": {
          "_mass": "Mass to calculate the adjustment for."
        },
        "returns": {
          "_0": "Adjustment."
        }
      },
      "getApproved(uint256)": {
        "details": "See {IERC721-getApproved}."
      },
      "isApprovedForAll(address,address)": {
        "details": "See {IERC721-isApprovedForAll}."
      },
      "merge(uint256[])": {
        "params": {
          "tokens": "List of token IDs to merge. The first token in the list is the target."
        }
      },
      "migrate(address,uint256[])": {
        "params": {
          "tokenIds": "The Edition token IDs you want to migrate."
        }
      },
      "name()": {
        "details": "See {IERC721Metadata-name}."
      },
      "nameForBlackHoleLevel(uint256)": {
        "params": {
          "_level": "Level of the black hole."
        },
        "returns": {
          "_0": "name of the black hole level."
        }
      },
      "owner()": {
        "details": "Returns the address of the current owner."
      },
      "ownerOf(uint256)": {
        "details": "See {IERC721-ownerOf}."
      },
      "renounceOwnership()": {
        "details": "Leaves the contract without owner. It will not be possible to call `onlyOwner` functions anymore. Can only be called by the current owner. NOTE: Renouncing ownership will leave the contract without an owner, thereby removing any functionality that is only available to the owner."
      },
      "safeTransferFrom(address,address,uint256)": {
        "details": "See {IERC721-safeTransferFrom}."
      },
      "safeTransferFrom(address,address,uint256,bytes)": {
        "details": "See {IERC721-safeTransferFrom}."
      },
      "setApprovalForAll(address,bool)": {
        "details": "See {IERC721-setApprovalForAll}."
      },
      "setMergeOpenTimestamp(uint256)": {
        "params": {
          "_mergeOpenTimestamp": "Timestamp when merging is open."
        }
      },
      "supportsInterface(bytes4)": {
        "details": "See {IERC165-supportsInterface}."
      },
      "symbol()": {
        "details": "See {IERC721Metadata-symbol}."
      },
      "tokenURI(uint256)": {
        "params": {
          "_tokenId": "ID of the token to get the URI for."
        },
        "returns": {
          "_0": "Token URI."
        }
      },
      "transferFrom(address,address,uint256)": {
        "details": "See {IERC721-transferFrom}."
      },
      "transferOwnership(address)": {
        "details": "Transfers ownership of the contract to a new account (`newOwner`). Can only be called by the current owner."
      }
    },
    "version": 1
  },
  "userdoc": {
    "kind": "user",
    "methods": {
      "blackHoleForMass(uint256,uint256)": {
        "notice": "Simulates the merge for an array of tokens."
      },
      "blackHoleForTokenId(uint256)": {
        "notice": "Get the structured representation of a token by its ID."
      },
      "blackHolesForTokenIds(uint256[])": {
        "notice": "Returns Black Holes for a list of token IDs."
      },
      "getAdjustmentForMass(uint256)": {
        "notice": "Gets adjustment for a given mass."
      },
      "getUpgradeIntervals()": {
        "notice": "Returns the mass required to upgrade to the next level for each level."
      },
      "isMergingEnabled()": {
        "notice": "Returns whether merging is enabled or not."
      },
      "levelForMass(uint256)": {
        "notice": "Gets the level for a given mass."
      },
      "merge(uint256[])": {
        "notice": "Merges a list of tokens into a single token."
      },
      "migrate(address,uint256[])": {
        "notice": "Migrate Black Holes to Voidable Black Holes by burning the Black Holes.         Requires the Approval of this contract on the Edition contract."
      },
      "nameForBlackHoleLevel(uint256)": {
        "notice": "Returns the name of a black hole level."
      },
      "setMergeOpenTimestamp(uint256)": {
        "notice": "Sets the merging delay."
      },
      "tokenURI(uint256)": {
        "notice": "Returns the token URI for a given token ID."
      },
      "totalBurned()": {
        "notice": "Returns total number of tokens burned."
      },
      "totalMinted()": {
        "notice": "Returns total number of tokens minted."
      },
      "totalSupply()": {
        "notice": "Returns how many tokens this contract manages."
      }
    },
    "version": 1
  },
  "storageLayout": {
    "storage": [
      {
        "astId": 141,
        "contract": "contracts/BlackHolesV2.sol:BlackHolesV2",
        "label": "_name",
        "offset": 0,
        "slot": "0",
        "type": "t_string_storage"
      },
      {
        "astId": 143,
        "contract": "contracts/BlackHolesV2.sol:BlackHolesV2",
        "label": "_symbol",
        "offset": 0,
        "slot": "1",
        "type": "t_string_storage"
      },
      {
        "astId": 147,
        "contract": "contracts/BlackHolesV2.sol:BlackHolesV2",
        "label": "_owners",
        "offset": 0,
        "slot": "2",
        "type": "t_mapping(t_uint256,t_address)"
      },
      {
        "astId": 151,
        "contract": "contracts/BlackHolesV2.sol:BlackHolesV2",
        "label": "_balances",
        "offset": 0,
        "slot": "3",
        "type": "t_mapping(t_address,t_uint256)"
      },
      {
        "astId": 155,
        "contract": "contracts/BlackHolesV2.sol:BlackHolesV2",
        "label": "_tokenApprovals",
        "offset": 0,
        "slot": "4",
        "type": "t_mapping(t_uint256,t_address)"
      },
      {
        "astId": 161,
        "contract": "contracts/BlackHolesV2.sol:BlackHolesV2",
        "label": "_operatorApprovals",
        "offset": 0,
        "slot": "5",
        "type": "t_mapping(t_address,t_mapping(t_address,t_bool))"
      },
      {
        "astId": 7,
        "contract": "contracts/BlackHolesV2.sol:BlackHolesV2",
        "label": "_owner",
        "offset": 0,
        "slot": "6",
        "type": "t_address"
      },
      {
        "astId": 3713,
        "contract": "contracts/BlackHolesV2.sol:BlackHolesV2",
        "label": "mergeOpenTimestamp",
        "offset": 0,
        "slot": "7",
        "type": "t_uint256"
      },
      {
        "astId": 3717,
        "contract": "contracts/BlackHolesV2.sol:BlackHolesV2",
        "label": "massesConsumed",
        "offset": 0,
        "slot": "8",
        "type": "t_mapping(t_uint256,t_uint256)"
      },
      {
        "astId": 3720,
        "contract": "contracts/BlackHolesV2.sol:BlackHolesV2",
        "label": "renderer",
        "offset": 0,
        "slot": "9",
        "type": "t_contract(Renderer)5960"
      },
      {
        "astId": 3723,
        "contract": "contracts/BlackHolesV2.sol:BlackHolesV2",
        "label": "unmigratedBlackHoles",
        "offset": 0,
        "slot": "10",
        "type": "t_contract(IBlackHoles)6504"
      },
      {
        "astId": 3726,
        "contract": "contracts/BlackHolesV2.sol:BlackHolesV2",
        "label": "voidableBlackHoles",
        "offset": 0,
        "slot": "11",
        "type": "t_contract(IBlackHoles)6504"
      },
      {
        "astId": 3728,
        "contract": "contracts/BlackHolesV2.sol:BlackHolesV2",
        "label": "minted",
        "offset": 0,
        "slot": "12",
        "type": "t_uint256"
      },
      {
        "astId": 3730,
        "contract": "contracts/BlackHolesV2.sol:BlackHolesV2",
        "label": "burned",
        "offset": 0,
        "slot": "13",
        "type": "t_uint256"
      }
    ],
    "types": {
      "t_address": {
        "encoding": "inplace",
        "label": "address",
        "numberOfBytes": "20"
      },
      "t_bool": {
        "encoding": "inplace",
        "label": "bool",
        "numberOfBytes": "1"
      },
      "t_contract(IBlackHoles)6504": {
        "encoding": "inplace",
        "label": "contract IBlackHoles",
        "numberOfBytes": "20"
      },
      "t_contract(Renderer)5960": {
        "encoding": "inplace",
        "label": "contract Renderer",
        "numberOfBytes": "20"
      },
      "t_mapping(t_address,t_bool)": {
        "encoding": "mapping",
        "key": "t_address",
        "label": "mapping(address => bool)",
        "numberOfBytes": "32",
        "value": "t_bool"
      },
      "t_mapping(t_address,t_mapping(t_address,t_bool))": {
        "encoding": "mapping",
        "key": "t_address",
        "label": "mapping(address => mapping(address => bool))",
        "numberOfBytes": "32",
        "value": "t_mapping(t_address,t_bool)"
      },
      "t_mapping(t_address,t_uint256)": {
        "encoding": "mapping",
        "key": "t_address",
        "label": "mapping(address => uint256)",
        "numberOfBytes": "32",
        "value": "t_uint256"
      },
      "t_mapping(t_uint256,t_address)": {
        "encoding": "mapping",
        "key": "t_uint256",
        "label": "mapping(uint256 => address)",
        "numberOfBytes": "32",
        "value": "t_address"
      },
      "t_mapping(t_uint256,t_uint256)": {
        "encoding": "mapping",
        "key": "t_uint256",
        "label": "mapping(uint256 => uint256)",
        "numberOfBytes": "32",
        "value": "t_uint256"
      },
      "t_string_storage": {
        "encoding": "bytes",
        "label": "string",
        "numberOfBytes": "32"
      },
      "t_uint256": {
        "encoding": "inplace",
        "label": "uint256",
        "numberOfBytes": "32"
      }
    }
  }
}