{
  "address": "0xb5394b3b91B6019E14eE49Db5B2aaBf011ac6a43",
  "abi": [
    {
      "inputs": [
        {
          "internalType": "string",
          "name": "_name",
          "type": "string"
        },
        {
          "internalType": "string",
          "name": "_symbol",
          "type": "string"
        },
        {
          "internalType": "uint256",
          "name": "_price",
          "type": "uint256"
        },
        {
          "internalType": "uint256",
          "name": "_timedSalePrice",
          "type": "uint256"
        },
        {
          "internalType": "address",
          "name": "_renderer",
          "type": "address"
        }
      ],
      "stateMutability": "nonpayable",
      "type": "constructor"
    },
    {
      "inputs": [],
      "name": "ApprovalCallerNotOwnerNorApproved",
      "type": "error"
    },
    {
      "inputs": [],
      "name": "ApprovalQueryForNonexistentToken",
      "type": "error"
    },
    {
      "inputs": [],
      "name": "BalanceQueryForZeroAddress",
      "type": "error"
    },
    {
      "inputs": [],
      "name": "MintERC2309QuantityExceedsLimit",
      "type": "error"
    },
    {
      "inputs": [],
      "name": "MintToZeroAddress",
      "type": "error"
    },
    {
      "inputs": [],
      "name": "MintZeroQuantity",
      "type": "error"
    },
    {
      "inputs": [],
      "name": "OwnerQueryForNonexistentToken",
      "type": "error"
    },
    {
      "inputs": [],
      "name": "OwnershipNotInitializedForExtraData",
      "type": "error"
    },
    {
      "inputs": [],
      "name": "TransferCallerNotOwnerNorApproved",
      "type": "error"
    },
    {
      "inputs": [],
      "name": "TransferFromIncorrectOwner",
      "type": "error"
    },
    {
      "inputs": [],
      "name": "TransferToNonERC721ReceiverImplementer",
      "type": "error"
    },
    {
      "inputs": [],
      "name": "TransferToZeroAddress",
      "type": "error"
    },
    {
      "inputs": [],
      "name": "URIQueryForNonexistentToken",
      "type": "error"
    },
    {
      "anonymous": false,
      "inputs": [
        {
          "indexed": true,
          "internalType": "address",
          "name": "owner",
          "type": "address"
        },
        {
          "indexed": true,
          "internalType": "address",
          "name": "approved",
          "type": "address"
        },
        {
          "indexed": true,
          "internalType": "uint256",
          "name": "tokenId",
          "type": "uint256"
        }
      ],
      "name": "Approval",
      "type": "event"
    },
    {
      "anonymous": false,
      "inputs": [
        {
          "indexed": true,
          "internalType": "address",
          "name": "owner",
          "type": "address"
        },
        {
          "indexed": true,
          "internalType": "address",
          "name": "operator",
          "type": "address"
        },
        {
          "indexed": false,
          "internalType": "bool",
          "name": "approved",
          "type": "bool"
        }
      ],
      "name": "ApprovalForAll",
      "type": "event"
    },
    {
      "anonymous": false,
      "inputs": [
        {
          "indexed": true,
          "internalType": "uint256",
          "name": "fromTokenId",
          "type": "uint256"
        },
        {
          "indexed": false,
          "internalType": "uint256",
          "name": "toTokenId",
          "type": "uint256"
        },
        {
          "indexed": true,
          "internalType": "address",
          "name": "from",
          "type": "address"
        },
        {
          "indexed": true,
          "internalType": "address",
          "name": "to",
          "type": "address"
        }
      ],
      "name": "ConsecutiveTransfer",
      "type": "event"
    },
    {
      "anonymous": false,
      "inputs": [
        {
          "indexed": false,
          "internalType": "uint256",
          "name": "_tokenId",
          "type": "uint256"
        }
      ],
      "name": "MetadataUpdate",
      "type": "event"
    },
    {
      "anonymous": false,
      "inputs": [
        {
          "indexed": true,
          "internalType": "address",
          "name": "previousOwner",
          "type": "address"
        },
        {
          "indexed": true,
          "internalType": "address",
          "name": "newOwner",
          "type": "address"
        }
      ],
      "name": "OwnershipTransferred",
      "type": "event"
    },
    {
      "anonymous": false,
      "inputs": [],
      "name": "TimedSaleStarted",
      "type": "event"
    },
    {
      "anonymous": false,
      "inputs": [
        {
          "indexed": true,
          "internalType": "address",
          "name": "from",
          "type": "address"
        },
        {
          "indexed": true,
          "internalType": "address",
          "name": "to",
          "type": "address"
        },
        {
          "indexed": true,
          "internalType": "uint256",
          "name": "tokenId",
          "type": "uint256"
        }
      ],
      "name": "Transfer",
      "type": "event"
    },
    {
      "inputs": [
        {
          "internalType": "uint256",
          "name": "",
          "type": "uint256"
        }
      ],
      "name": "BLACK_HOLE_NAMES",
      "outputs": [
        {
          "internalType": "string",
          "name": "",
          "type": "string"
        }
      ],
      "stateMutability": "view",
      "type": "function"
    },
    {
      "inputs": [],
      "name": "MAX_LEVEL",
      "outputs": [
        {
          "internalType": "uint256",
          "name": "",
          "type": "uint256"
        }
      ],
      "stateMutability": "view",
      "type": "function"
    },
    {
      "inputs": [],
      "name": "MAX_SUPPLY_OF_INTERSTELLAR",
      "outputs": [
        {
          "internalType": "uint256",
          "name": "",
          "type": "uint256"
        }
      ],
      "stateMutability": "view",
      "type": "function"
    },
    {
      "inputs": [],
      "name": "TIMED_SALE_THRESHOLD",
      "outputs": [
        {
          "internalType": "uint256",
          "name": "",
          "type": "uint256"
        }
      ],
      "stateMutability": "view",
      "type": "function"
    },
    {
      "inputs": [
        {
          "internalType": "address[]",
          "name": "_recipients",
          "type": "address[]"
        },
        {
          "internalType": "uint256",
          "name": "_quantity",
          "type": "uint256"
        }
      ],
      "name": "airdrop",
      "outputs": [],
      "stateMutability": "payable",
      "type": "function"
    },
    {
      "inputs": [],
      "name": "allBlackHoleLevelNames",
      "outputs": [
        {
          "internalType": "string[]",
          "name": "",
          "type": "string[]"
        }
      ],
      "stateMutability": "view",
      "type": "function"
    },
    {
      "inputs": [
        {
          "internalType": "address",
          "name": "to",
          "type": "address"
        },
        {
          "internalType": "uint256",
          "name": "tokenId",
          "type": "uint256"
        }
      ],
      "name": "approve",
      "outputs": [],
      "stateMutability": "payable",
      "type": "function"
    },
    {
      "inputs": [
        {
          "internalType": "address",
          "name": "owner",
          "type": "address"
        }
      ],
      "name": "balanceOf",
      "outputs": [
        {
          "internalType": "uint256",
          "name": "",
          "type": "uint256"
        }
      ],
      "stateMutability": "view",
      "type": "function"
    },
    {
      "inputs": [
        {
          "internalType": "uint256",
          "name": "_tokenId",
          "type": "uint256"
        }
      ],
      "name": "blackHoleForTokenId",
      "outputs": [
        {
          "components": [
            {
              "internalType": "uint256",
              "name": "tokenId",
              "type": "uint256"
            },
            {
              "internalType": "uint256",
              "name": "level",
              "type": "uint256"
            },
            {
              "internalType": "uint256",
              "name": "size",
              "type": "uint256"
            },
            {
              "internalType": "uint256",
              "name": "mass",
              "type": "uint256"
            },
            {
              "internalType": "uint256",
              "name": "adjustment",
              "type": "uint256"
            },
            {
              "internalType": "string",
              "name": "name",
              "type": "string"
            }
          ],
          "internalType": "struct BlackHole",
          "name": "",
          "type": "tuple"
        }
      ],
      "stateMutability": "view",
      "type": "function"
    },
    {
      "inputs": [
        {
          "internalType": "uint256[]",
          "name": "tokenIds",
          "type": "uint256[]"
        }
      ],
      "name": "blackHolesForTokenIds",
      "outputs": [
        {
          "components": [
            {
              "internalType": "uint256",
              "name": "tokenId",
              "type": "uint256"
            },
            {
              "internalType": "uint256",
              "name": "level",
              "type": "uint256"
            },
            {
              "internalType": "uint256",
              "name": "size",
              "type": "uint256"
            },
            {
              "internalType": "uint256",
              "name": "mass",
              "type": "uint256"
            },
            {
              "internalType": "uint256",
              "name": "adjustment",
              "type": "uint256"
            },
            {
              "internalType": "string",
              "name": "name",
              "type": "string"
            }
          ],
          "internalType": "struct BlackHole[]",
          "name": "",
          "type": "tuple[]"
        }
      ],
      "stateMutability": "view",
      "type": "function"
    },
    {
      "inputs": [
        {
          "internalType": "uint256",
          "name": "_mass",
          "type": "uint256"
        }
      ],
      "name": "getAdjustmentForMass",
      "outputs": [
        {
          "internalType": "uint256",
          "name": "",
          "type": "uint256"
        }
      ],
      "stateMutability": "view",
      "type": "function"
    },
    {
      "inputs": [
        {
          "internalType": "uint256",
          "name": "tokenId",
          "type": "uint256"
        }
      ],
      "name": "getApproved",
      "outputs": [
        {
          "internalType": "address",
          "name": "",
          "type": "address"
        }
      ],
      "stateMutability": "view",
      "type": "function"
    },
    {
      "inputs": [],
      "name": "getBaseUpgradeMass",
      "outputs": [
        {
          "internalType": "uint256",
          "name": "",
          "type": "uint256"
        }
      ],
      "stateMutability": "view",
      "type": "function"
    },
    {
      "inputs": [],
      "name": "getMintState",
      "outputs": [
        {
          "internalType": "enum BlackHoles.MintState",
          "name": "",
          "type": "uint8"
        }
      ],
      "stateMutability": "view",
      "type": "function"
    },
    {
      "inputs": [],
      "name": "getPrice",
      "outputs": [
        {
          "internalType": "uint256",
          "name": "",
          "type": "uint256"
        }
      ],
      "stateMutability": "view",
      "type": "function"
    },
    {
      "inputs": [
        {
          "internalType": "address",
          "name": "owner",
          "type": "address"
        },
        {
          "internalType": "address",
          "name": "operator",
          "type": "address"
        }
      ],
      "name": "isApprovedForAll",
      "outputs": [
        {
          "internalType": "bool",
          "name": "",
          "type": "bool"
        }
      ],
      "stateMutability": "view",
      "type": "function"
    },
    {
      "inputs": [],
      "name": "isMergingEnabled",
      "outputs": [
        {
          "internalType": "bool",
          "name": "",
          "type": "bool"
        }
      ],
      "stateMutability": "view",
      "type": "function"
    },
    {
      "inputs": [
        {
          "internalType": "uint256",
          "name": "_mass",
          "type": "uint256"
        }
      ],
      "name": "levelForMass",
      "outputs": [
        {
          "internalType": "uint256",
          "name": "",
          "type": "uint256"
        }
      ],
      "stateMutability": "view",
      "type": "function"
    },
    {
      "inputs": [
        {
          "internalType": "uint256",
          "name": "_tokenId",
          "type": "uint256"
        }
      ],
      "name": "massForTokenId",
      "outputs": [
        {
          "internalType": "uint256",
          "name": "",
          "type": "uint256"
        }
      ],
      "stateMutability": "view",
      "type": "function"
    },
    {
      "inputs": [
        {
          "internalType": "uint256",
          "name": "",
          "type": "uint256"
        }
      ],
      "name": "massesConsumed",
      "outputs": [
        {
          "internalType": "uint256",
          "name": "",
          "type": "uint256"
        }
      ],
      "stateMutability": "view",
      "type": "function"
    },
    {
      "inputs": [
        {
          "internalType": "uint256[]",
          "name": "tokens",
          "type": "uint256[]"
        }
      ],
      "name": "merge",
      "outputs": [],
      "stateMutability": "nonpayable",
      "type": "function"
    },
    {
      "inputs": [],
      "name": "mergingDelay",
      "outputs": [
        {
          "internalType": "uint256",
          "name": "",
          "type": "uint256"
        }
      ],
      "stateMutability": "view",
      "type": "function"
    },
    {
      "inputs": [
        {
          "internalType": "uint256",
          "name": "_quantity",
          "type": "uint256"
        }
      ],
      "name": "mint",
      "outputs": [],
      "stateMutability": "payable",
      "type": "function"
    },
    {
      "inputs": [],
      "name": "name",
      "outputs": [
        {
          "internalType": "string",
          "name": "",
          "type": "string"
        }
      ],
      "stateMutability": "view",
      "type": "function"
    },
    {
      "inputs": [
        {
          "internalType": "uint256",
          "name": "_level",
          "type": "uint256"
        }
      ],
      "name": "nameForBlackHoleLevel",
      "outputs": [
        {
          "internalType": "string",
          "name": "",
          "type": "string"
        }
      ],
      "stateMutability": "view",
      "type": "function"
    },
    {
      "inputs": [],
      "name": "owner",
      "outputs": [
        {
          "internalType": "address",
          "name": "",
          "type": "address"
        }
      ],
      "stateMutability": "view",
      "type": "function"
    },
    {
      "inputs": [
        {
          "internalType": "uint256",
          "name": "tokenId",
          "type": "uint256"
        }
      ],
      "name": "ownerOf",
      "outputs": [
        {
          "internalType": "address",
          "name": "",
          "type": "address"
        }
      ],
      "stateMutability": "view",
      "type": "function"
    },
    {
      "inputs": [],
      "name": "price",
      "outputs": [
        {
          "internalType": "uint256",
          "name": "",
          "type": "uint256"
        }
      ],
      "stateMutability": "view",
      "type": "function"
    },
    {
      "inputs": [],
      "name": "renderer",
      "outputs": [
        {
          "internalType": "contract Renderer",
          "name": "",
          "type": "address"
        }
      ],
      "stateMutability": "view",
      "type": "function"
    },
    {
      "inputs": [],
      "name": "renounceOwnership",
      "outputs": [],
      "stateMutability": "nonpayable",
      "type": "function"
    },
    {
      "inputs": [
        {
          "internalType": "address",
          "name": "from",
          "type": "address"
        },
        {
          "internalType": "address",
          "name": "to",
          "type": "address"
        },
        {
          "internalType": "uint256",
          "name": "tokenId",
          "type": "uint256"
        }
      ],
      "name": "safeTransferFrom",
      "outputs": [],
      "stateMutability": "payable",
      "type": "function"
    },
    {
      "inputs": [
        {
          "internalType": "address",
          "name": "from",
          "type": "address"
        },
        {
          "internalType": "address",
          "name": "to",
          "type": "address"
        },
        {
          "internalType": "uint256",
          "name": "tokenId",
          "type": "uint256"
        },
        {
          "internalType": "bytes",
          "name": "_data",
          "type": "bytes"
        }
      ],
      "name": "safeTransferFrom",
      "outputs": [],
      "stateMutability": "payable",
      "type": "function"
    },
    {
      "inputs": [
        {
          "internalType": "address",
          "name": "operator",
          "type": "address"
        },
        {
          "internalType": "bool",
          "name": "approved",
          "type": "bool"
        }
      ],
      "name": "setApprovalForAll",
      "outputs": [],
      "stateMutability": "nonpayable",
      "type": "function"
    },
    {
      "inputs": [
        {
          "internalType": "uint256",
          "name": "_mergingDelay",
          "type": "uint256"
        }
      ],
      "name": "setMergingDelay",
      "outputs": [],
      "stateMutability": "nonpayable",
      "type": "function"
    },
    {
      "inputs": [
        {
          "internalType": "uint256",
          "name": "_price",
          "type": "uint256"
        }
      ],
      "name": "setPrice",
      "outputs": [],
      "stateMutability": "nonpayable",
      "type": "function"
    },
    {
      "inputs": [
        {
          "internalType": "uint256",
          "name": "_timedSaleDuration",
          "type": "uint256"
        }
      ],
      "name": "setTimedSaleDuration",
      "outputs": [],
      "stateMutability": "nonpayable",
      "type": "function"
    },
    {
      "inputs": [
        {
          "internalType": "uint256",
          "name": "_timedSalePrice",
          "type": "uint256"
        }
      ],
      "name": "setTimedSalePrice",
      "outputs": [],
      "stateMutability": "nonpayable",
      "type": "function"
    },
    {
      "inputs": [
        {
          "internalType": "bytes4",
          "name": "interfaceId",
          "type": "bytes4"
        }
      ],
      "name": "supportsInterface",
      "outputs": [
        {
          "internalType": "bool",
          "name": "",
          "type": "bool"
        }
      ],
      "stateMutability": "view",
      "type": "function"
    },
    {
      "inputs": [],
      "name": "symbol",
      "outputs": [
        {
          "internalType": "string",
          "name": "",
          "type": "string"
        }
      ],
      "stateMutability": "view",
      "type": "function"
    },
    {
      "inputs": [],
      "name": "timedSaleDuration",
      "outputs": [
        {
          "internalType": "uint256",
          "name": "",
          "type": "uint256"
        }
      ],
      "stateMutability": "view",
      "type": "function"
    },
    {
      "inputs": [],
      "name": "timedSaleEndTimestamp",
      "outputs": [
        {
          "internalType": "uint256",
          "name": "",
          "type": "uint256"
        }
      ],
      "stateMutability": "view",
      "type": "function"
    },
    {
      "inputs": [],
      "name": "timedSalePrice",
      "outputs": [
        {
          "internalType": "uint256",
          "name": "",
          "type": "uint256"
        }
      ],
      "stateMutability": "view",
      "type": "function"
    },
    {
      "inputs": [
        {
          "internalType": "uint256",
          "name": "_tokenId",
          "type": "uint256"
        }
      ],
      "name": "tokenURI",
      "outputs": [
        {
          "internalType": "string",
          "name": "",
          "type": "string"
        }
      ],
      "stateMutability": "view",
      "type": "function"
    },
    {
      "inputs": [],
      "name": "totalBurned",
      "outputs": [
        {
          "internalType": "uint256",
          "name": "",
          "type": "uint256"
        }
      ],
      "stateMutability": "view",
      "type": "function"
    },
    {
      "inputs": [],
      "name": "totalMinted",
      "outputs": [
        {
          "internalType": "uint256",
          "name": "",
          "type": "uint256"
        }
      ],
      "stateMutability": "view",
      "type": "function"
    },
    {
      "inputs": [],
      "name": "totalSupply",
      "outputs": [
        {
          "internalType": "uint256",
          "name": "",
          "type": "uint256"
        }
      ],
      "stateMutability": "view",
      "type": "function"
    },
    {
      "inputs": [
        {
          "internalType": "address",
          "name": "from",
          "type": "address"
        },
        {
          "internalType": "address",
          "name": "to",
          "type": "address"
        },
        {
          "internalType": "uint256",
          "name": "tokenId",
          "type": "uint256"
        }
      ],
      "name": "transferFrom",
      "outputs": [],
      "stateMutability": "payable",
      "type": "function"
    },
    {
      "inputs": [
        {
          "internalType": "address",
          "name": "newOwner",
          "type": "address"
        }
      ],
      "name": "transferOwnership",
      "outputs": [],
      "stateMutability": "nonpayable",
      "type": "function"
    },
    {
      "inputs": [],
      "name": "upgradeIntervals",
      "outputs": [
        {
          "internalType": "uint256[]",
          "name": "",
          "type": "uint256[]"
        }
      ],
      "stateMutability": "view",
      "type": "function"
    },
    {
      "inputs": [],
      "name": "withdraw",
      "outputs": [],
      "stateMutability": "nonpayable",
      "type": "function"
    }
  ],
  "transactionHash": "0xeb56c891c78369b53a5e71b24dfa0e2e3413989978fbd4e2e83234d1eea4a1a1",
  "args": [
    "Test",
    "TEST",
    "3000000000000000",
    "4000000000000000",
    "0xD87fb037b9BcC87CE613f0C2B1D821De23B0Bb5E"
  ],
  "numDeployments": 1,
  "solcInputHash": "99bc4124b1071cd537a3c8f2b157d324",
  "bytecode": "0x60e06040526103e8608090815250600460a090815250602a60c0908152506040518060a001604052806040518060400160405280600581526020017f4d6963726f00000000000000000000000000000000000000000000000000000081525081526020016040518060400160405280600781526020017f5374656c6c61720000000000000000000000000000000000000000000000000081525081526020016040518060400160405280600c81526020017f496e7465726d656469617465000000000000000000000000000000000000000081525081526020016040518060400160405280600c81526020017f53757065726d617373697665000000000000000000000000000000000000000081525081526020016040518060400160405280600a81526020017f5072696d6f726469616c0000000000000000000000000000000000000000000081525081525060099060056200015f92919062000330565b5062015180600d5562069780600e553480156200017b57600080fd5b5060405162005cfd38038062005cfd8339818101604052810190620001a1919062000650565b84848160029081620001b4919062000957565b508060039081620001c6919062000957565b50620001d76200025960201b60201c565b6000819055505050620001ff620001f36200026260201b60201c565b6200026a60201b60201c565b82600a8190555081600b8190555080601060006101000a81548173ffffffffffffffffffffffffffffffffffffffff021916908373ffffffffffffffffffffffffffffffffffffffff160217905550505050505062000a3e565b60006001905090565b600033905090565b6000600860009054906101000a900473ffffffffffffffffffffffffffffffffffffffff16905081600860006101000a81548173ffffffffffffffffffffffffffffffffffffffff021916908373ffffffffffffffffffffffffffffffffffffffff1602179055508173ffffffffffffffffffffffffffffffffffffffff168173ffffffffffffffffffffffffffffffffffffffff167f8be0079c531659141344cd1fd0a4f28419497f9722a3daafe3b4186f6b6457e060405160405180910390a35050565b8280548282559060005260206000209081019282156200037d579160200282015b828111156200037c5782518290816200036b919062000957565b509160200191906001019062000351565b5b5090506200038c919062000390565b5090565b5b80821115620003b45760008181620003aa9190620003b8565b5060010162000391565b5090565b508054620003c69062000750565b6000825580601f10620003da5750620003fb565b601f016020900490600052602060002090810190620003fa9190620003fe565b5b50565b5b8082111562000419576000816000905550600101620003ff565b5090565b6000604051905090565b600080fd5b600080fd5b600080fd5b600080fd5b6000601f19601f8301169050919050565b7f4e487b7100000000000000000000000000000000000000000000000000000000600052604160045260246000fd5b62000486826200043b565b810181811067ffffffffffffffff82111715620004a857620004a76200044c565b5b80604052505050565b6000620004bd6200041d565b9050620004cb82826200047b565b919050565b600067ffffffffffffffff821115620004ee57620004ed6200044c565b5b620004f9826200043b565b9050602081019050919050565b60005b838110156200052657808201518184015260208101905062000509565b60008484015250505050565b6000620005496200054384620004d0565b620004b1565b90508281526020810184848401111562000568576200056762000436565b5b6200057584828562000506565b509392505050565b600082601f83011262000595576200059462000431565b5b8151620005a784826020860162000532565b91505092915050565b6000819050919050565b620005c581620005b0565b8114620005d157600080fd5b50565b600081519050620005e581620005ba565b92915050565b600073ffffffffffffffffffffffffffffffffffffffff82169050919050565b60006200061882620005eb565b9050919050565b6200062a816200060b565b81146200063657600080fd5b50565b6000815190506200064a816200061f565b92915050565b600080600080600060a086880312156200066f576200066e62000427565b5b600086015167ffffffffffffffff81111562000690576200068f6200042c565b5b6200069e888289016200057d565b955050602086015167ffffffffffffffff811115620006c257620006c16200042c565b5b620006d0888289016200057d565b9450506040620006e388828901620005d4565b9350506060620006f688828901620005d4565b9250506080620007098882890162000639565b9150509295509295909350565b600081519050919050565b7f4e487b7100000000000000000000000000000000000000000000000000000000600052602260045260246000fd5b600060028204905060018216806200076957607f821691505b6020821081036200077f576200077e62000721565b5b50919050565b60008190508160005260206000209050919050565b60006020601f8301049050919050565b600082821b905092915050565b600060088302620007e97fffffffffffffffffffffffffffffffffffffffffffffffffffffffffffffffff82620007aa565b620007f58683620007aa565b95508019841693508086168417925050509392505050565b6000819050919050565b600062000838620008326200082c84620005b0565b6200080d565b620005b0565b9050919050565b6000819050919050565b620008548362000817565b6200086c62000863826200083f565b848454620007b7565b825550505050565b600090565b6200088362000874565b6200089081848462000849565b505050565b5b81811015620008b857620008ac60008262000879565b60018101905062000896565b5050565b601f8211156200090757620008d18162000785565b620008dc846200079a565b81016020851015620008ec578190505b62000904620008fb856200079a565b83018262000895565b50505b505050565b600082821c905092915050565b60006200092c600019846008026200090c565b1980831691505092915050565b600062000947838362000919565b9150826002028217905092915050565b620009628262000716565b67ffffffffffffffff8111156200097e576200097d6200044c565b5b6200098a825462000750565b62000997828285620008bc565b600060209050601f831160018114620009cf5760008415620009ba578287015190505b620009c6858262000939565b86555062000a36565b601f198416620009df8662000785565b60005b8281101562000a0957848901518255600182019150602085019450602081019050620009e2565b8683101562000a29578489015162000a25601f89168262000919565b8355505b6001600288020188555050505b505050505050565b60805160a05160c05161526562000a98600039600081816113e601526115d40152600081816113b9015281816114af0152611ddc01526000818161106e0152818161170c01528181611aac0152611ad801526152656000f3fe6080604052600436106102c95760003560e01c806389327f2811610175578063a2309ff8116100dc578063ca714e5b11610095578063d89135cd1161006f578063d89135cd14610ae6578063de62d84214610b11578063e985e9c514610b3a578063f2fde38b14610b77576102c9565b8063ca714e5b14610a2f578063cbad784914610a6c578063d3dedd6314610aa9576102c9565b8063a2309ff814610927578063a49062d414610952578063b4449b261461097d578063b88d4fde146109ba578063c204642c146109d6578063c87b56dd146109f2576102c9565b806395d89b411161012e57806395d89b411461083857806398d5fdca146108635780639fc8d6ae1461088e578063a035b1fe146108b7578063a0712d68146108e2578063a22cb465146108fe576102c9565b806389327f28146107265780638ada6b0f146107635780638b3578c61461078e5780638da5cb5b146107b957806391b7f5ed146107e457806393d57dd41461080d576102c9565b806323b872dd116102345780635056af05116101ed57806370a08231116101c757806370a082311461066a578063715018a6146106a7578063774a8835146106be5780637752e368146106e9576102c9565b80635056af05146105c55780635e23a763146105f05780636352211e1461062d576102c9565b806323b872dd146104f5578063310c1813146105115780633ccfd60b1461053c57806342842e0e1461055357806348019b861461056f5780634ca7880c1461059a576102c9565b806318160ddd1161028657806318160ddd146103e357806318f58b731461040e5780631d22dc6f1461044b5780631df4b97214610476578063208d12f5146104a1578063222a7a08146104ca576102c9565b806301ffc9a7146102ce57806304ec7ed01461030b57806306fdde0314610334578063081812fc1461035f578063095ea7b31461039c5780630ed89bf0146103b8575b600080fd5b3480156102da57600080fd5b506102f560048036038101906102f09190613511565b610ba0565b6040516103029190613559565b60405180910390f35b34801561031757600080fd5b50610332600480360381019061032d91906135aa565b610c32565b005b34801561034057600080fd5b50610349610c44565b6040516103569190613667565b60405180910390f35b34801561036b57600080fd5b50610386600480360381019061038191906135aa565b610cd6565b60405161039391906136ca565b60405180910390f35b6103b660048036038101906103b19190613711565b610d55565b005b3480156103c457600080fd5b506103cd610e99565b6040516103da919061385d565b60405180910390f35b3480156103ef57600080fd5b506103f8610f72565b604051610405919061388e565b60405180910390f35b34801561041a57600080fd5b50610435600480360381019061043091906139f1565b610f89565b6040516104429190613b94565b60405180910390f35b34801561045757600080fd5b5061046061104e565b60405161046d919061388e565b60405180910390f35b34801561048257600080fd5b5061048b611054565b604051610498919061388e565b60405180910390f35b3480156104ad57600080fd5b506104c860048036038101906104c391906135aa565b61105a565b005b3480156104d657600080fd5b506104df61106c565b6040516104ec919061388e565b60405180910390f35b61050f600480360381019061050a9190613bb6565b611090565b005b34801561051d57600080fd5b506105266113b2565b604051610533919061388e565b60405180910390f35b34801561054857600080fd5b5061055161142d565b005b61056d60048036038101906105689190613bb6565b611475565b005b34801561057b57600080fd5b50610584611495565b604051610591919061388e565b60405180910390f35b3480156105a657600080fd5b506105af61149b565b6040516105bc9190613cb8565b60405180910390f35b3480156105d157600080fd5b506105da6115d2565b6040516105e7919061388e565b60405180910390f35b3480156105fc57600080fd5b50610617600480360381019061061291906135aa565b6115f6565b604051610624919061388e565b60405180910390f35b34801561063957600080fd5b50610654600480360381019061064f91906135aa565b61161f565b60405161066191906136ca565b60405180910390f35b34801561067657600080fd5b50610691600480360381019061068c9190613cda565b611631565b60405161069e919061388e565b60405180910390f35b3480156106b357600080fd5b506106bc6116e9565b005b3480156106ca57600080fd5b506106d36116fd565b6040516106e09190613d7e565b60405180910390f35b3480156106f557600080fd5b50610710600480360381019061070b91906135aa565b611759565b60405161071d919061388e565b60405180910390f35b34801561073257600080fd5b5061074d600480360381019061074891906135aa565b611771565b60405161075a919061388e565b60405180910390f35b34801561076f57600080fd5b50610778611828565b6040516107859190613df8565b60405180910390f35b34801561079a57600080fd5b506107a361184e565b6040516107b09190613559565b60405180910390f35b3480156107c557600080fd5b506107ce61189d565b6040516107db91906136ca565b60405180910390f35b3480156107f057600080fd5b5061080b600480360381019061080691906135aa565b6118c7565b005b34801561081957600080fd5b506108226118d9565b60405161082f919061388e565b60405180910390f35b34801561084457600080fd5b5061084d6118df565b60405161085a9190613667565b60405180910390f35b34801561086f57600080fd5b50610878611971565b604051610885919061388e565b60405180910390f35b34801561089a57600080fd5b506108b560048036038101906108b091906135aa565b6119b9565b005b3480156108c357600080fd5b506108cc6119cb565b6040516108d9919061388e565b60405180910390f35b6108fc60048036038101906108f791906135aa565b6119d1565b005b34801561090a57600080fd5b5061092560048036038101906109209190613e3f565b611cc0565b005b34801561093357600080fd5b5061093c611dcb565b604051610949919061388e565b60405180910390f35b34801561095e57600080fd5b50610967611dda565b604051610974919061388e565b60405180910390f35b34801561098957600080fd5b506109a4600480360381019061099f91906135aa565b611dfe565b6040516109b19190613667565b60405180910390f35b6109d460048036038101906109cf9190613f34565b611eae565b005b6109f060048036038101906109eb9190614012565b611f21565b005b3480156109fe57600080fd5b50610a196004803603810190610a1491906135aa565b611fee565b604051610a269190613667565b60405180910390f35b348015610a3b57600080fd5b50610a566004803603810190610a5191906135aa565b6121d5565b604051610a6391906140fb565b60405180910390f35b348015610a7857600080fd5b50610a936004803603810190610a8e91906135aa565b6122fc565b604051610aa0919061388e565b60405180910390f35b348015610ab557600080fd5b50610ad06004803603810190610acb91906135aa565b6123c8565b604051610add9190613667565b60405180910390f35b348015610af257600080fd5b50610afb612474565b604051610b08919061388e565b60405180910390f35b348015610b1d57600080fd5b50610b386004803603810190610b3391906139f1565b612483565b005b348015610b4657600080fd5b50610b616004803603810190610b5c919061411d565b61272d565b604051610b6e9190613559565b60405180910390f35b348015610b8357600080fd5b50610b9e6004803603810190610b999190613cda565b6127c1565b005b60006301ffc9a760e01b827bffffffffffffffffffffffffffffffffffffffffffffffffffffffff19161480610bfb57506380ac58cd60e01b827bffffffffffffffffffffffffffffffffffffffffffffffffffffffff1916145b80610c2b5750635b5e139f60e01b827bffffffffffffffffffffffffffffffffffffffffffffffffffffffff1916145b9050919050565b610c3a612844565b80600d8190555050565b606060028054610c539061418c565b80601f0160208091040260200160405190810160405280929190818152602001828054610c7f9061418c565b8015610ccc5780601f10610ca157610100808354040283529160200191610ccc565b820191906000526020600020905b815481529060010190602001808311610caf57829003601f168201915b5050505050905090565b6000610ce1826128c2565b610d17576040517fcf4700e400000000000000000000000000000000000000000000000000000000815260040160405180910390fd5b6006600083815260200190815260200160002060000160009054906101000a900473ffffffffffffffffffffffffffffffffffffffff169050919050565b6000610d608261161f565b90508073ffffffffffffffffffffffffffffffffffffffff16610d81612921565b73ffffffffffffffffffffffffffffffffffffffff1614610de457610dad81610da8612921565b61272d565b610de3576040517fcfb3b94200000000000000000000000000000000000000000000000000000000815260040160405180910390fd5b5b826006600084815260200190815260200160002060000160006101000a81548173ffffffffffffffffffffffffffffffffffffffff021916908373ffffffffffffffffffffffffffffffffffffffff160217905550818373ffffffffffffffffffffffffffffffffffffffff168273ffffffffffffffffffffffffffffffffffffffff167f8c5be1e5ebec7d5bd14f71427d1e84f3dd0314c0f7b2291e5b200ac8c7c3b92560405160405180910390a4505050565b60606009805480602002602001604051908101604052809291908181526020016000905b82821015610f69578382906000526020600020018054610edc9061418c565b80601f0160208091040260200160405190810160405280929190818152602001828054610f089061418c565b8015610f555780601f10610f2a57610100808354040283529160200191610f55565b820191906000526020600020905b815481529060010190602001808311610f3857829003601f168201915b505050505081526020019060010190610ebd565b50505050905090565b6000610f7c612929565b6001546000540303905090565b60606000825167ffffffffffffffff811115610fa857610fa76138ae565b5b604051908082528060200260200182016040528015610fe157816020015b610fce61346f565b815260200190600190039081610fc65790505b50905060005b835181101561104457611013848281518110611006576110056141bd565b5b60200260200101516121d5565b828281518110611026576110256141bd565b5b6020026020010181905250808061103c9061421b565b915050610fe7565b5080915050919050565b600d5481565b600e5481565b611062612844565b80600b8190555050565b7f000000000000000000000000000000000000000000000000000000000000000081565b600061109b82612932565b90508373ffffffffffffffffffffffffffffffffffffffff168173ffffffffffffffffffffffffffffffffffffffff1614611102576040517fa114810000000000000000000000000000000000000000000000000000000000815260040160405180910390fd5b60008061110e846129fe565b91509150611124818761111f612921565b612a25565b6111705761113986611134612921565b61272d565b61116f576040517f59c896be00000000000000000000000000000000000000000000000000000000815260040160405180910390fd5b5b600073ffffffffffffffffffffffffffffffffffffffff168573ffffffffffffffffffffffffffffffffffffffff16036111d6576040517fea553b3400000000000000000000000000000000000000000000000000000000815260040160405180910390fd5b6111e38686866001612a69565b80156111ee57600082555b600560008773ffffffffffffffffffffffffffffffffffffffff1673ffffffffffffffffffffffffffffffffffffffff168152602001908152602001600020600081546001900391905081905550600560008673ffffffffffffffffffffffffffffffffffffffff1673ffffffffffffffffffffffffffffffffffffffff16815260200190815260200160002060008154600101919050819055506112bc85611298888887612a6f565b7c020000000000000000000000000000000000000000000000000000000017612a97565b600460008681526020019081526020016000208190555060007c0200000000000000000000000000000000000000000000000000000000841603611342576000600185019050600060046000838152602001908152602001600020540361134057600054811461133f578360046000838152602001908152602001600020819055505b5b505b838573ffffffffffffffffffffffffffffffffffffffff168773ffffffffffffffffffffffffffffffffffffffff167fddf252ad1be2c89b69c2b068fc378daa952ba7f163c4a11628f55a4df523b3ef60405160405180910390a46113aa8686866001612ac2565b505050505050565b60006114287f000000000000000000000000000000000000000000000000000000000000000060026113e49190614396565b7f000000000000000000000000000000000000000000000000000000000000000061140d612ac8565b6114179190614410565b6114219190614410565b6002612adb565b905090565b611435612844565b3373ffffffffffffffffffffffffffffffffffffffff166108fc479081150290604051600060405180830381858888f1935050505061147357600080fd5b565b61149083838360405180602001604052806000815250611eae565b505050565b600c5481565b606060006114a76113b2565b9050600060017f00000000000000000000000000000000000000000000000000000000000000006114d89190614441565b67ffffffffffffffff8111156114f1576114f06138ae565b5b60405190808252806020026020018201604052801561151f5781602001602082028036833780820191505090505b5090508181600081518110611537576115366141bd565b5b6020026020010181815250506002826115509190614475565b81600181518110611564576115636141bd565b5b60200260200101818152505060048261157d9190614475565b81600281518110611591576115906141bd565b5b6020026020010181815250506008826115aa9190614475565b816003815181106115be576115bd6141bd565b5b602002602001018181525050809250505090565b7f000000000000000000000000000000000000000000000000000000000000000081565b60006001600f6000848152602001908152602001600020546116189190614441565b9050919050565b600061162a82612932565b9050919050565b60008073ffffffffffffffffffffffffffffffffffffffff168273ffffffffffffffffffffffffffffffffffffffff1603611698576040517f8f4eb60400000000000000000000000000000000000000000000000000000000815260040160405180910390fd5b67ffffffffffffffff600560008473ffffffffffffffffffffffffffffffffffffffff1673ffffffffffffffffffffffffffffffffffffffff16815260200190815260200160002054169050919050565b6116f1612844565b6116fb6000612af4565b565b600080611708612ac8565b90507f000000000000000000000000000000000000000000000000000000000000000081101561173c576000915050611756565b600c54421015611750576001915050611756565b60029150505b90565b600f6020528060005260406000206000915090505481565b60008061177c6113b2565b90506000611789846122fc565b905060006001808361179b9190614441565b60026117a79190614396565b846117b29190614475565b6117bc91906144cf565b905060008260026117cd9190614396565b846117d89190614475565b90506000808411156117e8578190505b600081846117f691906144cf565b888561180291906144cf565b601461180e9190614475565b6118189190614410565b9050809650505050505050919050565b601060009054906101000a900473ffffffffffffffffffffffffffffffffffffffff1681565b600060028081111561186357611862613d07565b5b61186b6116fd565b600281111561187d5761187c613d07565b5b1480156118985750600e54600c546118959190614441565b42115b905090565b6000600860009054906101000a900473ffffffffffffffffffffffffffffffffffffffff16905090565b6118cf612844565b80600a8190555050565b600b5481565b6060600380546118ee9061418c565b80601f016020809104026020016040519081016040528092919081815260200182805461191a9061418c565b80156119675780601f1061193c57610100808354040283529160200191611967565b820191906000526020600020905b81548152906001019060200180831161194a57829003601f168201915b5050505050905090565b60006001600281111561198757611986613d07565b5b61198f6116fd565b60028111156119a1576119a0613d07565b5b036119b057600b5490506119b6565b600a5490505b90565b6119c1612844565b80600e8190555050565b600a5481565b60006119db611971565b905060006119e7612ac8565b905060006119f36116fd565b9050600280811115611a0857611a07613d07565b5b816002811115611a1b57611a1a613d07565b5b03611a5b576040517f08c379a0000000000000000000000000000000000000000000000000000000008152600401611a529061454f565b60405180910390fd5b60008483611a699190614441565b905060008585611a799190614475565b905060006002811115611a8f57611a8e613d07565b5b836002811115611aa257611aa1613d07565b5b148015611acf57507f00000000000000000000000000000000000000000000000000000000000000008210155b15611baa5760007f000000000000000000000000000000000000000000000000000000000000000083611b0291906144cf565b905060008188611b1291906144cf565b90508681611b209190614475565b9250600b548334611b3191906144cf565b611b3b9190614410565b9150600b5482611b4b9190614475565b83611b569190614441565b92508181611b649190614441565b97506201518042611b759190614441565b600c819055507f6829347062e9f3db38e85deaf425a1d7ea05e95e20362d8b3889a08745d144cb60405160405180910390a150505b80341015611bed576040517f08c379a0000000000000000000000000000000000000000000000000000000008152600401611be4906145bb565b60405180910390fd5b611bf73387612bba565b80341115611cb85760003373ffffffffffffffffffffffffffffffffffffffff168234611c2491906144cf565b604051611c309061460c565b60006040518083038185875af1925050503d8060008114611c6d576040519150601f19603f3d011682016040523d82523d6000602084013e611c72565b606091505b5050905080611cb6576040517f08c379a0000000000000000000000000000000000000000000000000000000008152600401611cad9061466d565b60405180910390fd5b505b505050505050565b8060076000611ccd612921565b73ffffffffffffffffffffffffffffffffffffffff1673ffffffffffffffffffffffffffffffffffffffff16815260200190815260200160002060008473ffffffffffffffffffffffffffffffffffffffff1673ffffffffffffffffffffffffffffffffffffffff16815260200190815260200160002060006101000a81548160ff0219169083151502179055508173ffffffffffffffffffffffffffffffffffffffff16611d7a612921565b73ffffffffffffffffffffffffffffffffffffffff167f17307eab39ab6107e8899845ad3d59bd9653f200f220920489ca2b5937696c3183604051611dbf9190613559565b60405180910390a35050565b6000611dd5612ac8565b905090565b7f000000000000000000000000000000000000000000000000000000000000000081565b606060098281548110611e1457611e136141bd565b5b906000526020600020018054611e299061418c565b80601f0160208091040260200160405190810160405280929190818152602001828054611e559061418c565b8015611ea25780601f10611e7757610100808354040283529160200191611ea2565b820191906000526020600020905b815481529060010190602001808311611e8557829003601f168201915b50505050509050919050565b611eb9848484611090565b60008373ffffffffffffffffffffffffffffffffffffffff163b14611f1b57611ee484848484612d75565b611f1a576040517fd1a57ed600000000000000000000000000000000000000000000000000000000815260040160405180910390fd5b5b50505050565b611f29612844565b600280811115611f3c57611f3b613d07565b5b611f446116fd565b6002811115611f5657611f55613d07565b5b03611f96576040517f08c379a0000000000000000000000000000000000000000000000000000000008152600401611f8d906146d9565b60405180910390fd5b60005b83839050811015611fe857611fd5848483818110611fba57611fb96141bd565b5b9050602002016020810190611fcf9190613cda565b83612bba565b8080611fe09061421b565b915050611f99565b50505050565b6060611ff9826128c2565b61202f576040517fa14c4b5000000000000000000000000000000000000000000000000000000000815260040160405180910390fd5b600061203a83612ec5565b60405160200161204a9190614781565b604051602081830303815290604052905060006040518060600160405280603d81526020016151b3603d913990506000612083856121d5565b90506000601060009054906101000a900473ffffffffffffffffffffffffffffffffffffffff1673ffffffffffffffffffffffffffffffffffffffff1663cfeb9a02836040518263ffffffff1660e01b81526004016120e291906140fb565b600060405180830381865afa1580156120ff573d6000803e3d6000fd5b505050506040513d6000823e3d601f19601f820116820180604052508101906121289190614844565b905060006121398360200151612ec5565b8360a0015161214b8560600151612ec5565b60405160200161215d93929190614a2f565b6040516020818303038152906040529050600085858361217c8661304d565b60405160200161218f9493929190614caf565b60405160208183030381529060405290506121a98161304d565b6040516020016121b99190614d7b565b6040516020818303038152906040529650505050505050919050565b6121dd61346f565b60006121e8836115f6565b905060006121f5826122fc565b9050600061220282611dfe565b9050600061220f84611771565b90506040518060c0016040528087815260200184815260200184600a61223591906144cf565b6002601060009054906101000a900473ffffffffffffffffffffffffffffffffffffffff1673ffffffffffffffffffffffffffffffffffffffff1663030ac5256040518163ffffffff1660e01b8152600401602060405180830381865afa1580156122a4573d6000803e3d6000fd5b505050506040513d601f19601f820116820180604052508101906122c89190614db2565b6122d29190614410565b6122dc91906144cf565b815260200185815260200182815260200183815250945050505050919050565b60008061230761149b565b90508060008151811061231d5761231c6141bd565b5b60200260200101518310156123365760009150506123c3565b8060018151811061234a576123496141bd565b5b60200260200101518310156123635760019150506123c3565b80600281518110612377576123766141bd565b5b60200260200101518310156123905760029150506123c3565b806003815181106123a4576123a36141bd565b5b60200260200101518310156123bd5760039150506123c3565b60049150505b919050565b600981815481106123d857600080fd5b9060005260206000200160009150905080546123f39061418c565b80601f016020809104026020016040519081016040528092919081815260200182805461241f9061418c565b801561246c5780601f106124415761010080835404028352916020019161246c565b820191906000526020600020905b81548152906001019060200180831161244f57829003601f168201915b505050505081565b600061247e6131e4565b905090565b61248b61184e565b6124ca576040517f08c379a00000000000000000000000000000000000000000000000000000000081526004016124c190614e2b565b60405180910390fd5b600181511161250e576040517f08c379a000000000000000000000000000000000000000000000000000000000815260040161250590614e97565b60405180910390fd5b600081600081518110612524576125236141bd565b5b602002602001015190503373ffffffffffffffffffffffffffffffffffffffff166125698360008151811061255c5761255b6141bd565b5b602002602001015161161f565b73ffffffffffffffffffffffffffffffffffffffff16146125bf576040517f08c379a00000000000000000000000000000000000000000000000000000000081526004016125b690614f03565b60405180910390fd5b600080600190505b83518110156126c6573373ffffffffffffffffffffffffffffffffffffffff1661260a8583815181106125fd576125fc6141bd565b5b602002602001015161161f565b73ffffffffffffffffffffffffffffffffffffffff1614612660576040517f08c379a000000000000000000000000000000000000000000000000000000000815260040161265790614f6f565b60405180910390fd5b612683848281518110612676576126756141bd565b5b60200260200101516115f6565b8261268e9190614441565b91506126b38482815181106126a6576126a56141bd565b5b60200260200101516131ee565b80806126be9061421b565b9150506125c7565b5080600f600084815260200190815260200160002060008282546126ea9190614441565b925050819055507ff8e1a15aba9398e019f0b49df1a4fde98ee17ae345cb5f6b5e2c27f5033e8ce782604051612720919061388e565b60405180910390a1505050565b6000600760008473ffffffffffffffffffffffffffffffffffffffff1673ffffffffffffffffffffffffffffffffffffffff16815260200190815260200160002060008373ffffffffffffffffffffffffffffffffffffffff1673ffffffffffffffffffffffffffffffffffffffff16815260200190815260200160002060009054906101000a900460ff16905092915050565b6127c9612844565b600073ffffffffffffffffffffffffffffffffffffffff168173ffffffffffffffffffffffffffffffffffffffff1603612838576040517f08c379a000000000000000000000000000000000000000000000000000000000815260040161282f90615001565b60405180910390fd5b61284181612af4565b50565b61284c6131fc565b73ffffffffffffffffffffffffffffffffffffffff1661286a61189d565b73ffffffffffffffffffffffffffffffffffffffff16146128c0576040517f08c379a00000000000000000000000000000000000000000000000000000000081526004016128b79061506d565b60405180910390fd5b565b6000816128cd612929565b111580156128dc575060005482105b801561291a575060007c0100000000000000000000000000000000000000000000000000000000600460008581526020019081526020016000205416145b9050919050565b600033905090565b60006001905090565b60008082905080612941612929565b116129c7576000548110156129c65760006004600083815260200190815260200160002054905060007c01000000000000000000000000000000000000000000000000000000008216036129c4575b600081036129ba576004600083600190039350838152602001908152602001600020549050612990565b80925050506129f9565b505b5b6040517fdf2d9b4200000000000000000000000000000000000000000000000000000000815260040160405180910390fd5b919050565b60008060006006600085815260200190815260200160002090508092508254915050915091565b600073ffffffffffffffffffffffffffffffffffffffff8316925073ffffffffffffffffffffffffffffffffffffffff821691508382148383141790509392505050565b50505050565b60008060e883901c905060e8612a86868684613204565b62ffffff16901b9150509392505050565b600073ffffffffffffffffffffffffffffffffffffffff83169250814260a01b178317905092915050565b50505050565b6000612ad2612929565b60005403905090565b6000818311612aea5781612aec565b825b905092915050565b6000600860009054906101000a900473ffffffffffffffffffffffffffffffffffffffff16905081600860006101000a81548173ffffffffffffffffffffffffffffffffffffffff021916908373ffffffffffffffffffffffffffffffffffffffff1602179055508173ffffffffffffffffffffffffffffffffffffffff168173ffffffffffffffffffffffffffffffffffffffff167f8be0079c531659141344cd1fd0a4f28419497f9722a3daafe3b4186f6b6457e060405160405180910390a35050565b60008054905060008203612bfa576040517fb562e8dd00000000000000000000000000000000000000000000000000000000815260040160405180910390fd5b612c076000848385612a69565b600160406001901b178202600560008573ffffffffffffffffffffffffffffffffffffffff1673ffffffffffffffffffffffffffffffffffffffff16815260200190815260200160002060008282540192505081905550612c7e83612c6f6000866000612a6f565b612c788561320d565b17612a97565b6004600083815260200190815260200160002081905550600080838301905073ffffffffffffffffffffffffffffffffffffffff85169150828260007fddf252ad1be2c89b69c2b068fc378daa952ba7f163c4a11628f55a4df523b3ef600080a4600183015b818114612d1f57808360007fddf252ad1be2c89b69c2b068fc378daa952ba7f163c4a11628f55a4df523b3ef600080a4600181019050612ce4565b5060008203612d5a576040517f2e07630000000000000000000000000000000000000000000000000000000000815260040160405180910390fd5b806000819055505050612d706000848385612ac2565b505050565b60008373ffffffffffffffffffffffffffffffffffffffff1663150b7a02612d9b612921565b8786866040518563ffffffff1660e01b8152600401612dbd94939291906150e2565b6020604051808303816000875af1925050508015612df957506040513d601f19601f82011682018060405250810190612df69190615143565b60015b612e72573d8060008114612e29576040519150601f19603f3d011682016040523d82523d6000602084013e612e2e565b606091505b506000815103612e6a576040517fd1a57ed600000000000000000000000000000000000000000000000000000000815260040160405180910390fd5b805181602001fd5b63150b7a0260e01b7bffffffffffffffffffffffffffffffffffffffffffffffffffffffff1916817bffffffffffffffffffffffffffffffffffffffffffffffffffffffff191614915050949350505050565b606060008203612f0c576040518060400160405280600181526020017f30000000000000000000000000000000000000000000000000000000000000008152509050613048565b600082905060005b60008214612f3e578080612f279061421b565b915050600a82612f379190614410565b9150612f14565b60008167ffffffffffffffff811115612f5a57612f596138ae565b5b6040519080825280601f01601f191660200182016040528015612f8c5781602001600182028036833780820191505090505b50905060008290505b6000861461304057600181612faa91906144cf565b90506000600a8088612fbc9190614410565b612fc69190614475565b87612fd191906144cf565b6030612fdd919061517d565b905060008160f81b905080848481518110612ffb57612ffa6141bd565b5b60200101907effffffffffffffffffffffffffffffffffffffffffffffffffffffffffffff1916908160001a905350600a886130379190614410565b97505050612f95565b819450505050505b919050565b60606000825190506000810361307557604051806020016040528060008152509150506131df565b600060036002836130869190614441565b6130909190614410565b600461309c9190614475565b905060006020826130ad9190614441565b67ffffffffffffffff8111156130c6576130c56138ae565b5b6040519080825280601f01601f1916602001820160405280156130f85781602001600182028036833780820191505090505b50905060006040518060600160405280604081526020016151f0604091399050600181016020830160005b8681101561319c5760038101905062ffffff818a015116603f8160121c168401518060081b905060ff603f83600c1c1686015116810190508060081b905060ff603f8360061c1686015116810190508060081b905060ff603f831686015116810190508060e01b90508084526004840193505050613123565b5060038606600181146131b657600281146131c6576131d1565b613d3d60f01b60028303526131d1565b603d60f81b60018303525b508484525050819450505050505b919050565b6000600154905090565b6131f981600061321d565b50565b600033905090565b60009392505050565b60006001821460e11b9050919050565b600061322883612932565b9050600081905060008061323b866129fe565b9150915084156132a4576132578184613252612921565b612a25565b6132a35761326c83613267612921565b61272d565b6132a2576040517f59c896be00000000000000000000000000000000000000000000000000000000815260040160405180910390fd5b5b5b6132b2836000886001612a69565b80156132bd57600082555b600160806001901b03600560008573ffffffffffffffffffffffffffffffffffffffff1673ffffffffffffffffffffffffffffffffffffffff168152602001908152602001600020600082825401925050819055506133658361332285600088612a6f565b7c02000000000000000000000000000000000000000000000000000000007c01000000000000000000000000000000000000000000000000000000001717612a97565b600460008881526020019081526020016000208190555060007c02000000000000000000000000000000000000000000000000000000008516036133eb57600060018701905060006004600083815260200190815260200160002054036133e95760005481146133e8578460046000838152602001908152602001600020819055505b5b505b85600073ffffffffffffffffffffffffffffffffffffffff168473ffffffffffffffffffffffffffffffffffffffff167fddf252ad1be2c89b69c2b068fc378daa952ba7f163c4a11628f55a4df523b3ef60405160405180910390a4613455836000886001612ac2565b600160008154809291906001019190505550505050505050565b6040518060c001604052806000815260200160008152602001600081526020016000815260200160008152602001606081525090565b6000604051905090565b600080fd5b600080fd5b60007fffffffff0000000000000000000000000000000000000000000000000000000082169050919050565b6134ee816134b9565b81146134f957600080fd5b50565b60008135905061350b816134e5565b92915050565b600060208284031215613527576135266134af565b5b6000613535848285016134fc565b91505092915050565b60008115159050919050565b6135538161353e565b82525050565b600060208201905061356e600083018461354a565b92915050565b6000819050919050565b61358781613574565b811461359257600080fd5b50565b6000813590506135a48161357e565b92915050565b6000602082840312156135c0576135bf6134af565b5b60006135ce84828501613595565b91505092915050565b600081519050919050565b600082825260208201905092915050565b60005b838110156136115780820151818401526020810190506135f6565b60008484015250505050565b6000601f19601f8301169050919050565b6000613639826135d7565b61364381856135e2565b93506136538185602086016135f3565b61365c8161361d565b840191505092915050565b60006020820190508181036000830152613681818461362e565b905092915050565b600073ffffffffffffffffffffffffffffffffffffffff82169050919050565b60006136b482613689565b9050919050565b6136c4816136a9565b82525050565b60006020820190506136df60008301846136bb565b92915050565b6136ee816136a9565b81146136f957600080fd5b50565b60008135905061370b816136e5565b92915050565b60008060408385031215613728576137276134af565b5b6000613736858286016136fc565b925050602061374785828601613595565b9150509250929050565b600081519050919050565b600082825260208201905092915050565b6000819050602082019050919050565b600082825260208201905092915050565b6000613799826135d7565b6137a3818561377d565b93506137b38185602086016135f3565b6137bc8161361d565b840191505092915050565b60006137d3838361378e565b905092915050565b6000602082019050919050565b60006137f382613751565b6137fd818561375c565b93508360208202850161380f8561376d565b8060005b8581101561384b578484038952815161382c85826137c7565b9450613837836137db565b925060208a01995050600181019050613813565b50829750879550505050505092915050565b6000602082019050818103600083015261387781846137e8565b905092915050565b61388881613574565b82525050565b60006020820190506138a3600083018461387f565b92915050565b600080fd5b7f4e487b7100000000000000000000000000000000000000000000000000000000600052604160045260246000fd5b6138e68261361d565b810181811067ffffffffffffffff82111715613905576139046138ae565b5b80604052505050565b60006139186134a5565b905061392482826138dd565b919050565b600067ffffffffffffffff821115613944576139436138ae565b5b602082029050602081019050919050565b600080fd5b600061396d61396884613929565b61390e565b905080838252602082019050602084028301858111156139905761398f613955565b5b835b818110156139b957806139a58882613595565b845260208401935050602081019050613992565b5050509392505050565b600082601f8301126139d8576139d76138a9565b5b81356139e884826020860161395a565b91505092915050565b600060208284031215613a0757613a066134af565b5b600082013567ffffffffffffffff811115613a2557613a246134b4565b5b613a31848285016139c3565b91505092915050565b600081519050919050565b600082825260208201905092915050565b6000819050602082019050919050565b613a6f81613574565b82525050565b600060c083016000830151613a8d6000860182613a66565b506020830151613aa06020860182613a66565b506040830151613ab36040860182613a66565b506060830151613ac66060860182613a66565b506080830151613ad96080860182613a66565b5060a083015184820360a0860152613af1828261378e565b9150508091505092915050565b6000613b0a8383613a75565b905092915050565b6000602082019050919050565b6000613b2a82613a3a565b613b348185613a45565b935083602082028501613b4685613a56565b8060005b85811015613b825784840389528151613b638582613afe565b9450613b6e83613b12565b925060208a01995050600181019050613b4a565b50829750879550505050505092915050565b60006020820190508181036000830152613bae8184613b1f565b905092915050565b600080600060608486031215613bcf57613bce6134af565b5b6000613bdd868287016136fc565b9350506020613bee868287016136fc565b9250506040613bff86828701613595565b9150509250925092565b600081519050919050565b600082825260208201905092915050565b6000819050602082019050919050565b6000613c418383613a66565b60208301905092915050565b6000602082019050919050565b6000613c6582613c09565b613c6f8185613c14565b9350613c7a83613c25565b8060005b83811015613cab578151613c928882613c35565b9750613c9d83613c4d565b925050600181019050613c7e565b5085935050505092915050565b60006020820190508181036000830152613cd28184613c5a565b905092915050565b600060208284031215613cf057613cef6134af565b5b6000613cfe848285016136fc565b91505092915050565b7f4e487b7100000000000000000000000000000000000000000000000000000000600052602160045260246000fd5b60038110613d4757613d46613d07565b5b50565b6000819050613d5882613d36565b919050565b6000613d6882613d4a565b9050919050565b613d7881613d5d565b82525050565b6000602082019050613d936000830184613d6f565b92915050565b6000819050919050565b6000613dbe613db9613db484613689565b613d99565b613689565b9050919050565b6000613dd082613da3565b9050919050565b6000613de282613dc5565b9050919050565b613df281613dd7565b82525050565b6000602082019050613e0d6000830184613de9565b92915050565b613e1c8161353e565b8114613e2757600080fd5b50565b600081359050613e3981613e13565b92915050565b60008060408385031215613e5657613e556134af565b5b6000613e64858286016136fc565b9250506020613e7585828601613e2a565b9150509250929050565b600080fd5b600067ffffffffffffffff821115613e9f57613e9e6138ae565b5b613ea88261361d565b9050602081019050919050565b82818337600083830152505050565b6000613ed7613ed284613e84565b61390e565b905082815260208101848484011115613ef357613ef2613e7f565b5b613efe848285613eb5565b509392505050565b600082601f830112613f1b57613f1a6138a9565b5b8135613f2b848260208601613ec4565b91505092915050565b60008060008060808587031215613f4e57613f4d6134af565b5b6000613f5c878288016136fc565b9450506020613f6d878288016136fc565b9350506040613f7e87828801613595565b925050606085013567ffffffffffffffff811115613f9f57613f9e6134b4565b5b613fab87828801613f06565b91505092959194509250565b600080fd5b60008083601f840112613fd257613fd16138a9565b5b8235905067ffffffffffffffff811115613fef57613fee613fb7565b5b60208301915083602082028301111561400b5761400a613955565b5b9250929050565b60008060006040848603121561402b5761402a6134af565b5b600084013567ffffffffffffffff811115614049576140486134b4565b5b61405586828701613fbc565b9350935050602061406886828701613595565b9150509250925092565b600060c08301600083015161408a6000860182613a66565b50602083015161409d6020860182613a66565b5060408301516140b06040860182613a66565b5060608301516140c36060860182613a66565b5060808301516140d66080860182613a66565b5060a083015184820360a08601526140ee828261378e565b9150508091505092915050565b600060208201905081810360008301526141158184614072565b905092915050565b60008060408385031215614134576141336134af565b5b6000614142858286016136fc565b9250506020614153858286016136fc565b9150509250929050565b7f4e487b7100000000000000000000000000000000000000000000000000000000600052602260045260246000fd5b600060028204905060018216806141a457607f821691505b6020821081036141b7576141b661415d565b5b50919050565b7f4e487b7100000000000000000000000000000000000000000000000000000000600052603260045260246000fd5b7f4e487b7100000000000000000000000000000000000000000000000000000000600052601160045260246000fd5b600061422682613574565b91507fffffffffffffffffffffffffffffffffffffffffffffffffffffffffffffffff8203614258576142576141ec565b5b600182019050919050565b60008160011c9050919050565b6000808291508390505b60018511156142ba57808604811115614296576142956141ec565b5b60018516156142a55780820291505b80810290506142b385614263565b945061427a565b94509492505050565b6000826142d3576001905061438f565b816142e1576000905061438f565b81600181146142f7576002811461430157614330565b600191505061438f565b60ff841115614313576143126141ec565b5b8360020a91508482111561432a576143296141ec565b5b5061438f565b5060208310610133831016604e8410600b84101617156143655782820a9050838111156143605761435f6141ec565b5b61438f565b6143728484846001614270565b92509050818404811115614389576143886141ec565b5b81810290505b9392505050565b60006143a182613574565b91506143ac83613574565b92506143d97fffffffffffffffffffffffffffffffffffffffffffffffffffffffffffffffff84846142c3565b905092915050565b7f4e487b7100000000000000000000000000000000000000000000000000000000600052601260045260246000fd5b600061441b82613574565b915061442683613574565b925082614436576144356143e1565b5b828204905092915050565b600061444c82613574565b915061445783613574565b925082820190508082111561446f5761446e6141ec565b5b92915050565b600061448082613574565b915061448b83613574565b9250817fffffffffffffffffffffffffffffffffffffffffffffffffffffffffffffffff04831182151516156144c4576144c36141ec565b5b828202905092915050565b60006144da82613574565b91506144e583613574565b92508282039050818111156144fd576144fc6141ec565b5b92915050565b7f4d696e7420697320636c6f736564000000000000000000000000000000000000600082015250565b6000614539600e836135e2565b915061454482614503565b602082019050919050565b600060208201905081810360008301526145688161452c565b9050919050565b7f496e73756666696369656e742066656500000000000000000000000000000000600082015250565b60006145a56010836135e2565b91506145b08261456f565b602082019050919050565b600060208201905081810360008301526145d481614598565b9050919050565b600081905092915050565b50565b60006145f66000836145db565b9150614601826145e6565b600082019050919050565b6000614617826145e9565b9150819050919050565b7f526566756e64206661696c656400000000000000000000000000000000000000600082015250565b6000614657600d836135e2565b915061466282614621565b602082019050919050565b600060208201905081810360008301526146868161464a565b9050919050565b7f45786365656473206d617820737570706c790000000000000000000000000000600082015250565b60006146c36012836135e2565b91506146ce8261468d565b602082019050919050565b600060208201905081810360008301526146f2816146b6565b9050919050565b600081905092915050565b7f426c61636b486f6c652023000000000000000000000000000000000000000000600082015250565b600061473a600b836146f9565b915061474582614704565b600b82019050919050565b600061475b826135d7565b61476581856146f9565b93506147758185602086016135f3565b80840191505092915050565b600061478c8261472d565b91506147988284614750565b915081905092915050565b600067ffffffffffffffff8211156147be576147bd6138ae565b5b6147c78261361d565b9050602081019050919050565b60006147e76147e2846147a3565b61390e565b90508281526020810184848401111561480357614802613e7f565b5b61480e8482856135f3565b509392505050565b600082601f83011261482b5761482a6138a9565b5b815161483b8482602086016147d4565b91505092915050565b60006020828403121561485a576148596134af565b5b600082015167ffffffffffffffff811115614878576148776134b4565b5b61488484828501614816565b91505092915050565b7f5b00000000000000000000000000000000000000000000000000000000000000815250565b7f7b2274726169745f74797065223a20224c6576656c222c202276616c7565223a60008201527f2000000000000000000000000000000000000000000000000000000000000000602082015250565b600061490f6021836146f9565b915061491a826148b3565b602182019050919050565b7f7d2c000000000000000000000000000000000000000000000000000000000000815250565b7f7b2274726169745f74797065223a20224e616d65222c202276616c7565223a2060008201527f2200000000000000000000000000000000000000000000000000000000000000602082015250565b60006149a76021836146f9565b91506149b28261494b565b602182019050919050565b7f227d2c0000000000000000000000000000000000000000000000000000000000815250565b7f7b2274726169745f74797065223a20224d617373222c202276616c7565223a20815250565b7f7d5d000000000000000000000000000000000000000000000000000000000000815250565b6000614a3a8261488d565b600182019150614a4982614902565b9150614a558286614750565b9150614a6082614925565b600282019150614a6f8261499a565b9150614a7b8285614750565b9150614a86826149bd565b600382019150614a95826149e3565b602082019150614aa58284614750565b9150614ab082614a09565b600282019150819050949350505050565b7f7b226e616d65223a220000000000000000000000000000000000000000000000600082015250565b6000614af76009836146f9565b9150614b0282614ac1565b600982019050919050565b7f222c226465736372697074696f6e223a22000000000000000000000000000000600082015250565b6000614b436011836146f9565b9150614b4e82614b0d565b601182019050919050565b7f222c000000000000000000000000000000000000000000000000000000000000600082015250565b6000614b8f6002836146f9565b9150614b9a82614b59565b600282019050919050565b7f2261747472696275746573223a20000000000000000000000000000000000000600082015250565b6000614bdb600e836146f9565b9150614be682614ba5565b600e82019050919050565b7f2c2022696d616765223a2022646174613a696d6167652f7376672b786d6c3b6260008201527f61736536342c0000000000000000000000000000000000000000000000000000602082015250565b6000614c4d6026836146f9565b9150614c5882614bf1565b602682019050919050565b7f227d000000000000000000000000000000000000000000000000000000000000600082015250565b6000614c996002836146f9565b9150614ca482614c63565b600282019050919050565b6000614cba82614aea565b9150614cc68287614750565b9150614cd182614b36565b9150614cdd8286614750565b9150614ce882614b82565b9150614cf382614bce565b9150614cff8285614750565b9150614d0a82614c40565b9150614d168284614750565b9150614d2182614c8c565b915081905095945050505050565b7f646174613a6170706c69636174696f6e2f6a736f6e3b6261736536342c000000600082015250565b6000614d65601d836146f9565b9150614d7082614d2f565b601d82019050919050565b6000614d8682614d58565b9150614d928284614750565b915081905092915050565b600081519050614dac8161357e565b92915050565b600060208284031215614dc857614dc76134af565b5b6000614dd684828501614d9d565b91505092915050565b7f4d657267696e67206e6f7420656e61626c656400000000000000000000000000600082015250565b6000614e156013836135e2565b9150614e2082614ddf565b602082019050919050565b60006020820190508181036000830152614e4481614e08565b9050919050565b7f4d757374206d65726765206174206c65617374203220746f6b656e7300000000600082015250565b6000614e81601c836135e2565b9150614e8c82614e4b565b602082019050919050565b60006020820190508181036000830152614eb081614e74565b9050919050565b7f4d757374206f776e20616c6c20746f6b656e7320287461726765742900000000600082015250565b6000614eed601c836135e2565b9150614ef882614eb7565b602082019050919050565b60006020820190508181036000830152614f1c81614ee0565b9050919050565b7f4d757374206f776e20616c6c20746f6b656e7320286275726e29000000000000600082015250565b6000614f59601a836135e2565b9150614f6482614f23565b602082019050919050565b60006020820190508181036000830152614f8881614f4c565b9050919050565b7f4f776e61626c653a206e6577206f776e657220697320746865207a65726f206160008201527f6464726573730000000000000000000000000000000000000000000000000000602082015250565b6000614feb6026836135e2565b9150614ff682614f8f565b604082019050919050565b6000602082019050818103600083015261501a81614fde565b9050919050565b7f4f776e61626c653a2063616c6c6572206973206e6f7420746865206f776e6572600082015250565b60006150576020836135e2565b915061506282615021565b602082019050919050565b600060208201905081810360008301526150868161504a565b9050919050565b600081519050919050565b600082825260208201905092915050565b60006150b48261508d565b6150be8185615098565b93506150ce8185602086016135f3565b6150d78161361d565b840191505092915050565b60006080820190506150f760008301876136bb565b61510460208301866136bb565b615111604083018561387f565b818103606083015261512381846150a9565b905095945050505050565b60008151905061513d816134e5565b92915050565b600060208284031215615159576151586134af565b5b60006151678482850161512e565b91505092915050565b600060ff82169050919050565b600061518882615170565b915061519383615170565b9250828201905060ff8111156151ac576151ab6141ec565b5b9291505056fe46756c6c79206f6e2d636861696e2c2070726f6365647572616c6c792067656e6572617465642c20616e696d6174656420626c61636b20686f6c65732e4142434445464748494a4b4c4d4e4f505152535455565758595a6162636465666768696a6b6c6d6e6f707172737475767778797a303132333435363738392b2fa2646970667358221220b75ca7f0cf4994528e36b557a82fb73e8ff90ccef79ebedfd6c2995a69275e4564736f6c63430008100033",
  "libraries": {
    "utils": "0x8C7EA5ce359a9FeB86b7D74Cc1c99D8718A4830f"
  },
  "devdoc": {
    "kind": "dev",
    "methods": {
      "airdrop(address[],uint256)": {
        "params": {
          "_quantity": "Quantity of tokens to airdrop to each recipient.",
          "_recipients": "List of recipients to receive the airdrop."
        }
      },
      "approve(address,uint256)": {
        "details": "Gives permission to `to` to transfer `tokenId` token to another account. The approval is cleared when the token is transferred. Only a single account can be approved at a time, so approving the zero address clears previous approvals. Requirements: - The caller must own the token or be an approved operator. - `tokenId` must exist. Emits an {Approval} event."
      },
      "balanceOf(address)": {
        "details": "Returns the number of tokens in `owner`'s account."
      },
      "blackHoleForTokenId(uint256)": {
        "params": {
          "_tokenId": "ID of the token."
        },
        "returns": {
          "_0": "BlackHole Structured representation of the token."
        }
      },
      "constructor": {
        "details": "Constructs a new instance of the contract.",
        "params": {
          "_name": "Name of the ERC721 token.",
          "_price": "Price of each token in wei.",
          "_renderer": "Address of the Renderer contract.",
          "_symbol": "Symbol of the ERC721 token."
        }
      },
      "getAdjustmentForMass(uint256)": {
        "params": {
          "_mass": "Mass to calculate the adjustment for."
        },
        "returns": {
          "_0": "Adjustment."
        }
      },
      "getApproved(uint256)": {
        "details": "Returns the account approved for `tokenId` token. Requirements: - `tokenId` must exist."
      },
      "isApprovedForAll(address,address)": {
        "details": "Returns if the `operator` is allowed to manage all of the assets of `owner`. See {setApprovalForAll}."
      },
      "merge(uint256[])": {
        "params": {
          "tokens": "List of tokens to merge. The first token in the list is the target."
        }
      },
      "mint(uint256)": {
        "params": {
          "_quantity": "Quantity of tokens to mint."
        }
      },
      "name()": {
        "details": "Returns the token collection name."
      },
      "nameForBlackHoleLevel(uint256)": {
        "params": {
          "_level": "Level of the black hole."
        },
        "returns": {
          "_0": "name of the black hole level."
        }
      },
      "owner()": {
        "details": "Returns the address of the current owner."
      },
      "ownerOf(uint256)": {
        "details": "Returns the owner of the `tokenId` token. Requirements: - `tokenId` must exist."
      },
      "renounceOwnership()": {
        "details": "Leaves the contract without owner. It will not be possible to call `onlyOwner` functions anymore. Can only be called by the current owner. NOTE: Renouncing ownership will leave the contract without an owner, thereby removing any functionality that is only available to the owner."
      },
      "safeTransferFrom(address,address,uint256)": {
        "details": "Equivalent to `safeTransferFrom(from, to, tokenId, '')`."
      },
      "safeTransferFrom(address,address,uint256,bytes)": {
        "details": "Safely transfers `tokenId` token from `from` to `to`. Requirements: - `from` cannot be the zero address. - `to` cannot be the zero address. - `tokenId` token must exist and be owned by `from`. - If the caller is not `from`, it must be approved to move this token by either {approve} or {setApprovalForAll}. - If `to` refers to a smart contract, it must implement {IERC721Receiver-onERC721Received}, which is called upon a safe transfer. Emits a {Transfer} event."
      },
      "setApprovalForAll(address,bool)": {
        "details": "Approve or remove `operator` as an operator for the caller. Operators can call {transferFrom} or {safeTransferFrom} for any token owned by the caller. Requirements: - The `operator` cannot be the caller. Emits an {ApprovalForAll} event."
      },
      "setMergingDelay(uint256)": {
        "params": {
          "_mergingDelay": "Delay in seconds before a token can be merged after the timed sale."
        }
      },
      "setPrice(uint256)": {
        "params": {
          "_price": "Price of each token in wei."
        }
      },
      "setTimedSaleDuration(uint256)": {
        "params": {
          "_timedSaleDuration": "Duration of the timed sale in seconds."
        }
      },
      "setTimedSalePrice(uint256)": {
        "params": {
          "_timedSalePrice": "Price of each token in wei."
        }
      },
      "supportsInterface(bytes4)": {
        "details": "Returns true if this contract implements the interface defined by `interfaceId`. See the corresponding [EIP section](https://eips.ethereum.org/EIPS/eip-165#how-interfaces-are-identified) to learn more about how these ids are created. This function call must use less than 30000 gas."
      },
      "symbol()": {
        "details": "Returns the token collection symbol."
      },
      "tokenURI(uint256)": {
        "params": {
          "_tokenId": "ID of the token to get the URI for."
        },
        "returns": {
          "_0": "Token URI."
        }
      },
      "totalSupply()": {
        "details": "Returns the total number of tokens in existence. Burned tokens will reduce the count. To get the total number of tokens minted, please see {_totalMinted}."
      },
      "transferFrom(address,address,uint256)": {
        "details": "Transfers `tokenId` from `from` to `to`. Requirements: - `from` cannot be the zero address. - `to` cannot be the zero address. - `tokenId` token must be owned by `from`. - If the caller is not `from`, it must be approved to move this token by either {approve} or {setApprovalForAll}. Emits a {Transfer} event."
      },
      "transferOwnership(address)": {
        "details": "Transfers ownership of the contract to a new account (`newOwner`). Can only be called by the current owner."
      }
    },
    "version": 1
  },
  "userdoc": {
    "errors": {
      "ApprovalCallerNotOwnerNorApproved()": [
        {
          "notice": "The caller must own the token or be an approved operator."
        }
      ],
      "ApprovalQueryForNonexistentToken()": [
        {
          "notice": "The token does not exist."
        }
      ],
      "BalanceQueryForZeroAddress()": [
        {
          "notice": "Cannot query the balance for the zero address."
        }
      ],
      "MintERC2309QuantityExceedsLimit()": [
        {
          "notice": "The `quantity` minted with ERC2309 exceeds the safety limit."
        }
      ],
      "MintToZeroAddress()": [
        {
          "notice": "Cannot mint to the zero address."
        }
      ],
      "MintZeroQuantity()": [
        {
          "notice": "The quantity of tokens minted must be more than zero."
        }
      ],
      "OwnerQueryForNonexistentToken()": [
        {
          "notice": "The token does not exist."
        }
      ],
      "OwnershipNotInitializedForExtraData()": [
        {
          "notice": "The `extraData` cannot be set on an unintialized ownership slot."
        }
      ],
      "TransferCallerNotOwnerNorApproved()": [
        {
          "notice": "The caller must own the token or be an approved operator."
        }
      ],
      "TransferFromIncorrectOwner()": [
        {
          "notice": "The token must be owned by `from`."
        }
      ],
      "TransferToNonERC721ReceiverImplementer()": [
        {
          "notice": "Cannot safely transfer to a contract that does not implement the ERC721Receiver interface."
        }
      ],
      "TransferToZeroAddress()": [
        {
          "notice": "Cannot transfer to the zero address."
        }
      ],
      "URIQueryForNonexistentToken()": [
        {
          "notice": "The token does not exist."
        }
      ]
    },
    "kind": "user",
    "methods": {
      "airdrop(address[],uint256)": {
        "notice": "Airdrops tokens to a list of recipients. Only callable by the contract owner."
      },
      "blackHoleForTokenId(uint256)": {
        "notice": "Get the structured representation of a token by its ID."
      },
      "getAdjustmentForMass(uint256)": {
        "notice": "Gets adjustment for a given mass."
      },
      "getMintState()": {
        "notice": "Returns the current mint state."
      },
      "getPrice()": {
        "notice": "Gets the current price of a token."
      },
      "isMergingEnabled()": {
        "notice": "Returns whether merging is enabled or not."
      },
      "merge(uint256[])": {
        "notice": "Merges a list of tokens into a single token."
      },
      "mint(uint256)": {
        "notice": "Mints new tokens for the caller. If the caller mints tokens across the TIMED_SALE_THRESHOLD, it will mint as many as it can with the given amount of ETH."
      },
      "nameForBlackHoleLevel(uint256)": {
        "notice": "Returns the name of a black hole level."
      },
      "setMergingDelay(uint256)": {
        "notice": "Sets the merging delay."
      },
      "setPrice(uint256)": {
        "notice": "Sets the price of each token in wei."
      },
      "setTimedSaleDuration(uint256)": {
        "notice": "Sets the timed sale duration."
      },
      "setTimedSalePrice(uint256)": {
        "notice": "Sets the price of a token during the timed sale."
      },
      "tokenURI(uint256)": {
        "notice": "Returns the token URI for a given token ID."
      },
      "upgradeIntervals()": {
        "notice": "Returns the mass required to upgrade to the next level for each level."
      },
      "withdraw()": {
        "notice": "Withdraws the contract's balance. Only callable by the contract owner."
      }
    },
    "version": 1
  },
  "storageLayout": {
    "storage": [
      {
        "astId": 3027,
        "contract": "contracts/BlackHoles.sol:BlackHoles",
        "label": "_currentIndex",
        "offset": 0,
        "slot": "0",
        "type": "t_uint256"
      },
      {
        "astId": 3029,
        "contract": "contracts/BlackHoles.sol:BlackHoles",
        "label": "_burnCounter",
        "offset": 0,
        "slot": "1",
        "type": "t_uint256"
      },
      {
        "astId": 3031,
        "contract": "contracts/BlackHoles.sol:BlackHoles",
        "label": "_name",
        "offset": 0,
        "slot": "2",
        "type": "t_string_storage"
      },
      {
        "astId": 3033,
        "contract": "contracts/BlackHoles.sol:BlackHoles",
        "label": "_symbol",
        "offset": 0,
        "slot": "3",
        "type": "t_string_storage"
      },
      {
        "astId": 3037,
        "contract": "contracts/BlackHoles.sol:BlackHoles",
        "label": "_packedOwnerships",
        "offset": 0,
        "slot": "4",
        "type": "t_mapping(t_uint256,t_uint256)"
      },
      {
        "astId": 3041,
        "contract": "contracts/BlackHoles.sol:BlackHoles",
        "label": "_packedAddressData",
        "offset": 0,
        "slot": "5",
        "type": "t_mapping(t_address,t_uint256)"
      },
      {
        "astId": 3046,
        "contract": "contracts/BlackHoles.sol:BlackHoles",
        "label": "_tokenApprovals",
        "offset": 0,
        "slot": "6",
        "type": "t_mapping(t_uint256,t_struct(TokenApprovalRef)2959_storage)"
      },
      {
        "astId": 3052,
        "contract": "contracts/BlackHoles.sol:BlackHoles",
        "label": "_operatorApprovals",
        "offset": 0,
        "slot": "7",
        "type": "t_mapping(t_address,t_mapping(t_address,t_bool))"
      },
      {
        "astId": 7,
        "contract": "contracts/BlackHoles.sol:BlackHoles",
        "label": "_owner",
        "offset": 0,
        "slot": "8",
        "type": "t_address"
      },
      {
        "astId": 170,
        "contract": "contracts/BlackHoles.sol:BlackHoles",
        "label": "BLACK_HOLE_NAMES",
        "offset": 0,
        "slot": "9",
        "type": "t_array(t_string_storage)dyn_storage"
      },
      {
        "astId": 172,
        "contract": "contracts/BlackHoles.sol:BlackHoles",
        "label": "price",
        "offset": 0,
        "slot": "10",
        "type": "t_uint256"
      },
      {
        "astId": 174,
        "contract": "contracts/BlackHoles.sol:BlackHoles",
        "label": "timedSalePrice",
        "offset": 0,
        "slot": "11",
        "type": "t_uint256"
      },
      {
        "astId": 176,
        "contract": "contracts/BlackHoles.sol:BlackHoles",
        "label": "timedSaleEndTimestamp",
        "offset": 0,
        "slot": "12",
        "type": "t_uint256"
      },
      {
        "astId": 179,
        "contract": "contracts/BlackHoles.sol:BlackHoles",
        "label": "timedSaleDuration",
        "offset": 0,
        "slot": "13",
        "type": "t_uint256"
      },
      {
        "astId": 182,
        "contract": "contracts/BlackHoles.sol:BlackHoles",
        "label": "mergingDelay",
        "offset": 0,
        "slot": "14",
        "type": "t_uint256"
      },
      {
        "astId": 186,
        "contract": "contracts/BlackHoles.sol:BlackHoles",
        "label": "massesConsumed",
        "offset": 0,
        "slot": "15",
        "type": "t_mapping(t_uint256,t_uint256)"
      },
      {
        "astId": 189,
        "contract": "contracts/BlackHoles.sol:BlackHoles",
        "label": "renderer",
        "offset": 0,
        "slot": "16",
        "type": "t_contract(Renderer)2480"
      }
    ],
    "types": {
      "t_address": {
        "encoding": "inplace",
        "label": "address",
        "numberOfBytes": "20"
      },
      "t_array(t_string_storage)dyn_storage": {
        "base": "t_string_storage",
        "encoding": "dynamic_array",
        "label": "string[]",
        "numberOfBytes": "32"
      },
      "t_bool": {
        "encoding": "inplace",
        "label": "bool",
        "numberOfBytes": "1"
      },
      "t_contract(Renderer)2480": {
        "encoding": "inplace",
        "label": "contract Renderer",
        "numberOfBytes": "20"
      },
      "t_mapping(t_address,t_bool)": {
        "encoding": "mapping",
        "key": "t_address",
        "label": "mapping(address => bool)",
        "numberOfBytes": "32",
        "value": "t_bool"
      },
      "t_mapping(t_address,t_mapping(t_address,t_bool))": {
        "encoding": "mapping",
        "key": "t_address",
        "label": "mapping(address => mapping(address => bool))",
        "numberOfBytes": "32",
        "value": "t_mapping(t_address,t_bool)"
      },
      "t_mapping(t_address,t_uint256)": {
        "encoding": "mapping",
        "key": "t_address",
        "label": "mapping(address => uint256)",
        "numberOfBytes": "32",
        "value": "t_uint256"
      },
      "t_mapping(t_uint256,t_struct(TokenApprovalRef)2959_storage)": {
        "encoding": "mapping",
        "key": "t_uint256",
        "label": "mapping(uint256 => struct ERC721A.TokenApprovalRef)",
        "numberOfBytes": "32",
        "value": "t_struct(TokenApprovalRef)2959_storage"
      },
      "t_mapping(t_uint256,t_uint256)": {
        "encoding": "mapping",
        "key": "t_uint256",
        "label": "mapping(uint256 => uint256)",
        "numberOfBytes": "32",
        "value": "t_uint256"
      },
      "t_string_storage": {
        "encoding": "bytes",
        "label": "string",
        "numberOfBytes": "32"
      },
      "t_struct(TokenApprovalRef)2959_storage": {
        "encoding": "inplace",
        "label": "struct ERC721A.TokenApprovalRef",
        "members": [
          {
            "astId": 2958,
            "contract": "contracts/BlackHoles.sol:BlackHoles",
            "label": "value",
            "offset": 0,
            "slot": "0",
            "type": "t_address"
          }
        ],
        "numberOfBytes": "32"
      },
      "t_uint256": {
        "encoding": "inplace",
        "label": "uint256",
        "numberOfBytes": "32"
      }
    }
  }
}