{
  "address": "0x13B3376cD11a6a6A8102cc040105949d434BEe76",
  "abi": [
    {
      "inputs": [],
      "stateMutability": "nonpayable",
      "type": "constructor"
    },
    {
      "inputs": [],
      "name": "PIXELS_PER_SIDE",
      "outputs": [
        {
          "internalType": "uint256",
          "name": "",
          "type": "uint256"
        }
      ],
      "stateMutability": "view",
      "type": "function"
    },
    {
      "inputs": [
        {
          "components": [
            {
              "internalType": "uint256",
              "name": "tokenId",
              "type": "uint256"
            },
            {
              "internalType": "uint256",
              "name": "level",
              "type": "uint256"
            },
            {
              "internalType": "uint256",
              "name": "size",
              "type": "uint256"
            },
            {
              "internalType": "uint256",
              "name": "mass",
              "type": "uint256"
            },
            {
              "internalType": "uint256",
              "name": "adjustment",
              "type": "uint256"
            },
            {
              "internalType": "string",
              "name": "name",
              "type": "string"
            }
          ],
          "internalType": "struct BlackHole",
          "name": "_blackHole",
          "type": "tuple"
        }
      ],
      "name": "getBlackHoleSVG",
      "outputs": [
        {
          "internalType": "string",
          "name": "",
          "type": "string"
        }
      ],
      "stateMutability": "pure",
      "type": "function"
    },
    {
      "inputs": [
        {
          "internalType": "uint256",
          "name": "tokenId",
          "type": "uint256"
        },
        {
          "internalType": "uint256",
          "name": "level",
          "type": "uint256"
        }
      ],
      "name": "renderSample",
      "outputs": [
        {
          "internalType": "string",
          "name": "",
          "type": "string"
        }
      ],
      "stateMutability": "pure",
      "type": "function"
    }
  ],
  "transactionHash": "0xa85d5fe45e40e6d95b596764610688e9faa2f424dbe64511acc3bac51851a294",
  "args": [],
  "numDeployments": 2,
  "solcInputHash": "72a3f277196cc0218369e540b01da578",
  "bytecode": "0x608060405234801561001057600080fd5b50613d75806100206000396000f3fe608060405234801561001057600080fd5b50600436106100415760003560e01c8063030ac52514610046578063a0cd73a514610064578063cfeb9a0214610094575b600080fd5b61004e6100c4565b60405161005b919061173a565b60405180910390f35b61007e60048036038101906100799190611795565b6100c9565b60405161008b9190611865565b60405180910390f35b6100ae60048036038101906100a99190611a82565b61016f565b6040516100bb9190611865565b60405180910390f35b601c81565b6060600082600a6100da9190611afa565b6002601c6100e89190611b5d565b6100f29190611afa565b905060006040518060c0016040528086815260200185815260200183815260200160018152602001600f81526020016040518060400160405280600581526020017f4d6963726f00000000000000000000000000000000000000000000000000000081525081525090506101658161016f565b9250505092915050565b60606000610189600a601c6101849190611b8e565b61063b565b61019f600a601c61019a9190611b8e565b61063b565b6101b5600a601c6101b09190611b8e565b61063b565b6101cb600a601c6101c69190611b8e565b61063b565b6040516020016101de9493929190611d2e565b604051602081830303815290604052905060006101fa846107c3565b905060008160405160200161020f9190611dff565b60405160208183030381529060405290508281604051602001610233929190611e5a565b6040516020818303038152906040529250600061024f86610b65565b90506000816040516020016102649190611ed9565b60405160208183030381529060405290508481604051602001610288929190611f34565b6040516020818303038152906040529450846102b0600a601c6102ab9190611b8e565b61063b565b6040516020016102c1929190611fff565b6040516020818303038152906040529450846102e9600a601c6102e49190611b8e565b61063b565b6040516020016102fa9291906120d5565b604051602081830303815290604052945084610322600a601c61031d9190611b8e565b61063b565b610338600a601c6103339190611b8e565b61063b565b60405160200161034a939291906121d1565b604051602081830303815290604052945060048760200151036103a75784604051806101e001604052806101a98152602001613b536101a9913960405160200161039592919061222b565b60405160208183030381529060405294505b846040516020016103b89190612275565b6040516020818303038152906040529450846103e0600a601c6103db9190611b8e565b61063b565b6103f6600a601c6103f19190611b8e565b61063b565b604051602001610408939291906122e7565b60405160208183030381529060405294508461042388610cf6565b60405160200161043492919061236b565b60405160208183030381529060405294506000600a88604001516104589190611b8e565b6002600a601c6104689190611b8e565b6104729190611b5d565b61047c9190611afa565b90506000600a896040015160026104939190611b8e565b61049d9190611b8e565b9050866104a98361063b565b6104b28461063b565b6104bb8461063b565b6104c48561063b565b6040516020016104d8959493929190612445565b6040516020818303038152906040529650866040516020016104fa9190612501565b6040516020818303038152906040529650866105158a610f18565b60405160200161052692919061222b565b6040516020818303038152906040529650600489602001510361060a5786610572600a6002600a601c6105599190611b8e565b6105639190611b5d565b61056d9190611afa565b61063b565b6105946002600a601c6105859190611b8e565b61058f9190611b5d565b61063b565b6105c2600a6002600a601c6105a99190611b8e565b6105b39190611b5d565b6105bd9190612527565b61063b565b6105e46002600a601c6105d59190611b8e565b6105df9190611b5d565b61063b565b6040516020016105f8959493929190612665565b60405160208183030381529060405296505b8660405160200161061b9190612728565b604051602081830303815290604052965086975050505050505050919050565b606060008203610682576040518060400160405280600181526020017f300000000000000000000000000000000000000000000000000000000000000081525090506107be565b600082905060005b600082146106b457808061069d9061274e565b915050600a826106ad9190611b5d565b915061068a565b60008167ffffffffffffffff8111156106d0576106cf61188c565b5b6040519080825280601f01601f1916602001820160405280156107025781602001600182028036833780820191505090505b50905060008290505b600086146107b6576001816107209190611afa565b90506000600a80886107329190611b5d565b61073c9190611b8e565b876107479190611afa565b603061075391906127a3565b905060008160f81b905080848481518110610771576107706127d8565b5b60200101907effffffffffffffffffffffffffffffffffffffffffffffffffffffffffffff1916908160001a905350600a886107ad9190611b5d565b9750505061070b565b819450505050505b919050565b60606000808360200151905060018111610801576107fa604051806080016040528060448152602001613cfc6044913960006113fc565b9150610863565b600381116108335761082c604051806080016040528060448152602001613cfc60449139601b6113fc565b9150610862565b600481116108615761085e604051806080016040528060448152602001613cfc6044913960246113fc565b91505b5b5b6004810361087757600482901c91506108a0565b60006002826108869190612807565b0361089757609482901c915061089f565b602882901c91505b5b600060405180602001604052806000815250905060005b6004811015610b595760006040518060400160405280600581526020017f626c61636b00000000000000000000000000000000000000000000000000000081525090506000821115610b175760006001836109129190611afa565b602461091e9190611b8e565b604861092a9190611afa565b86901c9050600073c0B9fc91b9007a8770225FC4c5c93A5f0D0B7904636fdfe6ea836040518263ffffffff1660e01b81526004016109689190612847565b606060405180830381865af4158015610985573d6000803e3d6000fd5b505050506040513d601f19601f820116820180604052508101906109a9919061292d565b90508860800151816000600381106109c4576109c36127d8565b5b60200201511015610a2657806000600381106109e3576109e26127d8565b5b602002015189608001516109f79190611afa565b610168610a049190611afa565b81600060038110610a1857610a176127d8565b5b602002018181525050610a58565b886080015181600060038110610a3f57610a3e6127d8565b5b60200201818151610a509190611afa565b915081815250505b60028960800151610a699190611b8e565b81600160038110610a7d57610a7c6127d8565b5b60200201818151610a8e9190611afa565b9150818152505073c0B9fc91b9007a8770225FC4c5c93A5f0D0B790463204b34d8826040518263ffffffff1660e01b8152600401610acc9190612a05565b600060405180830381865af4158015610ae9573d6000803e3d6000fd5b505050506040513d6000823e3d601f19601f82011682018060405250810190610b129190612a90565b925050505b82610b218361063b565b82604051602001610b3493929190612b4b565b6040516020818303038152906040529250508080610b519061274e565b9150506108b7565b50809350505050919050565b6060610b6f611707565b60006040518060200160405280600081525090506002601c610b919190611b5d565b826000018181525050600584604001518360000151610bb09190611afa565b610bba9190611afa565b8260200181815250506000826020015190505b82600001518111610ceb576000836020015190505b83600001518111610cd75760006002601c610bfd9190612bb3565b82610c089190612c1d565b905060006002601c610c1a9190612bb3565b84610c259190612c1d565b90506000610c538283610c389190612c60565b8485610c449190612c60565b610c4e9190612527565b611463565b90506000896040015182610c679190612c1d565b9050896040015182118015610c8c575060038a60400151610c889190612527565b8211155b15610cc05786610c9d828789611549565b604051602001610cae92919061222b565b60405160208183030381529060405296505b505050508080610ccf9061274e565b915050610be2565b508080610ce39061274e565b915050610bcd565b508092505050919050565b6060600060405180602001604052806000815250905060005b601e811015610f0e576000600a610d558660000151610d2d8561063b565b604051602001610d3d9190612d9d565b6040516020818303038152906040526000601c6115e9565b610d5f9190611b8e565b90506000600a610d9e8760000151610d768661063b565b604051602001610d869190612de9565b6040516020818303038152906040526000601c6115e9565b610da89190611b8e565b90506000610de58760000151610dbd8661063b565b604051602001610dcd9190612e35565b6040516020818303038152906040526005600c6115e9565b9050600073c0B9fc91b9007a8770225FC4c5c93A5f0D0B790463204b34d860405180606001604052806000815260200160008152602001858152506040518263ffffffff1660e01b8152600401610e3c9190612a05565b600060405180830381865af4158015610e59573d6000803e3d6000fd5b505050506040513d6000823e3d601f19601f82011682018060405250810190610e829190612a90565b90506000610e8f8561063b565b610e988561063b565b610ea2600a61063b565b610eac600a61063b565b85604051602001610ec1959493929190612ecd565b60405160208183030381529060405290508681604051602001610ee592919061222b565b604051602081830303815290604052965050505050508080610f069061274e565b915050610d0f565b5080915050919050565b6060600060405180602001604052806000815250905060005b600a8110156113f2576000610f818560000151610f4d8461063b565b604051602001610f5d9190612f98565b60405160208183030381529060405260006003601c610f7c9190611b8e565b6115e9565b9050600060068660400151610f969190612527565b905060006002601c610fa89190612bb3565b83610fb39190612c1d565b6002601c610fc19190612bb3565b84610fcc9190612c1d565b610fd69190612c60565b8283610fe29190612c60565b610fec9190612c1d565b90506000806002601c610fff9190611b8e565b90506000831315611092576002601c6110189190611b5d565b61102184611463565b61102b9190612527565b91506002601c61103b9190611b8e565b905060016110788a600001516110508961063b565b6040516020016110609190612fe4565b604051602081830303815290604052600060026115e9565b036110915781601c61108a9190611afa565b9050600091505b5b600a8561109f9190611b8e565b94506000600a6110dc8b600001516110b68a61063b565b6040516020016110c69190612fe4565b60405160208183030381529060405286866115e9565b6110e69190611b8e565b905060006111238b600001516110fb8a61063b565b60405160200161110b9190612e35565b604051602081830303815290604052600f60c86115e9565b9050600073c0B9fc91b9007a8770225FC4c5c93A5f0D0B790463204b34d860405180606001604052806000815260200160008152602001858152506040518263ffffffff1660e01b815260040161117a9190612a05565b600060405180830381865af4158015611197573d6000803e3d6000fd5b505050506040513d6000823e3d601f19601f820116820180604052508101906111c09190612a90565b905060006002905060006112048e600001516111db8d61063b565b6040516020016111eb9190613030565b60405160208183030381529060405260006107d06115e9565b905060006112118361063b565b61121c836003611659565b60405160200161122d929190613160565b604051602081830303815290604052905060006112498c61063b565b61126b6002600a601c61125c9190611b8e565b6112669190611b5d565b61063b565b6112748e61063b565b6112966002600a601c6112879190611b8e565b6112919190611b5d565b61063b565b856040516020016112ab9594939291906132d9565b6040516020818303038152906040529050806112c68861063b565b6112e86002600a601c6112d99190611b8e565b6112e39190611b5d565b61063b565b6112f18a61063b565b6113136002600a601c6113049190611b8e565b61130e9190611b5d565b61063b565b86604051602001611329969594939291906133ec565b6040516020818303038152906040529050808260405160200161134d929190613532565b604051602081830303815290604052905060006113698d61063b565b6113728961063b565b61137c600a61063b565b611386600a61063b565b898660405160200161139d96959493929190613596565b60405160208183030381529060405290508e816040516020016113c192919061222b565b6040516020818303038152906040529e505050505050505050505050505080806113ea9061274e565b915050610f31565b5080915050919050565b600060208261140b9190612527565b8351101561144e576040517f08c379a0000000000000000000000000000000000000000000000000000000008152600401611445906136a3565b60405180910390fd5b60008260200184015190508091505092915050565b600060b5905081710100000000000000000000000000000000008110611490578060801c90508160401b91505b690100000000000000000081106114ae578060401c90508160201b91505b6501000000000081106114c8578060201c90508160101b91505b630100000081106114e0578060101c90508160081b91505b620100008101820260121c9150818304820160011c9150818304820160011c9150818304820160011c9150818304820160011c9150818304820160011c9150818304820160011c9150818304820160011c91508182840410156115435781830491505b50919050565b606060006115568561063b565b60405160200161156691906136e9565b604051602081830303815290604052905061158f600a8560ff1661158a9190611b8e565b61063b565b6115a7600a8560ff166115a29190611b8e565b61063b565b6115b1600a61063b565b6115bb600a61063b565b846040516020016115d09594939291906138d7565b6040516020818303038152906040529150509392505050565b60008061161e856115f98861063b565b60405160200161160a92919061222b565b6040516020818303038152906040526116c3565b9050836001858561162f9190611afa565b6116399190612527565b826116449190612807565b61164e9190612527565b915050949350505050565b606061167b82600a61166b9190613a97565b846116769190611b5d565b61063b565b61169b83600a61168b9190613a97565b856116969190612807565b61063b565b6040516020016116ac929190613b08565b604051602081830303815290604052905092915050565b60006116ed826040516020016116d99190613b3b565b6040516020818303038152906040526116f7565b60001c9050919050565b6000815160208301209050919050565b604051806040016040528060008152602001600081525090565b6000819050919050565b61173481611721565b82525050565b600060208201905061174f600083018461172b565b92915050565b6000604051905090565b600080fd5b600080fd5b61177281611721565b811461177d57600080fd5b50565b60008135905061178f81611769565b92915050565b600080604083850312156117ac576117ab61175f565b5b60006117ba85828601611780565b92505060206117cb85828601611780565b9150509250929050565b600081519050919050565b600082825260208201905092915050565b60005b8381101561180f5780820151818401526020810190506117f4565b60008484015250505050565b6000601f19601f8301169050919050565b6000611837826117d5565b61184181856117e0565b93506118518185602086016117f1565b61185a8161181b565b840191505092915050565b6000602082019050818103600083015261187f818461182c565b905092915050565b600080fd5b7f4e487b7100000000000000000000000000000000000000000000000000000000600052604160045260246000fd5b6118c48261181b565b810181811067ffffffffffffffff821117156118e3576118e261188c565b5b80604052505050565b60006118f6611755565b905061190282826118bb565b919050565b600080fd5b600080fd5b600080fd5b600067ffffffffffffffff8211156119315761193061188c565b5b61193a8261181b565b9050602081019050919050565b82818337600083830152505050565b600061196961196484611916565b6118ec565b90508281526020810184848401111561198557611984611911565b5b611990848285611947565b509392505050565b600082601f8301126119ad576119ac61190c565b5b81356119bd848260208601611956565b91505092915050565b600060c082840312156119dc576119db611887565b5b6119e660c06118ec565b905060006119f684828501611780565b6000830152506020611a0a84828501611780565b6020830152506040611a1e84828501611780565b6040830152506060611a3284828501611780565b6060830152506080611a4684828501611780565b60808301525060a082013567ffffffffffffffff811115611a6a57611a69611907565b5b611a7684828501611998565b60a08301525092915050565b600060208284031215611a9857611a9761175f565b5b600082013567ffffffffffffffff811115611ab657611ab5611764565b5b611ac2848285016119c6565b91505092915050565b7f4e487b7100000000000000000000000000000000000000000000000000000000600052601160045260246000fd5b6000611b0582611721565b9150611b1083611721565b9250828203905081811115611b2857611b27611acb565b5b92915050565b7f4e487b7100000000000000000000000000000000000000000000000000000000600052601260045260246000fd5b6000611b6882611721565b9150611b7383611721565b925082611b8357611b82611b2e565b5b828204905092915050565b6000611b9982611721565b9150611ba483611721565b9250817fffffffffffffffffffffffffffffffffffffffffffffffffffffffffffffffff0483118215151615611bdd57611bdc611acb565b5b828202905092915050565b600081905092915050565b7f3c73766720786d6c6e733d22687474703a2f2f7777772e77332e6f72672f323060008201527f30302f737667222076696577426f783d22302030200000000000000000000000602082015250565b6000611c4f603583611be8565b9150611c5a82611bf3565b603582019050919050565b6000611c70826117d5565b611c7a8185611be8565b9350611c8a8185602086016117f1565b80840191505092915050565b7f2000000000000000000000000000000000000000000000000000000000000000815250565b7f222077696474683d220000000000000000000000000000000000000000000000815250565b7f22206865696768743d2200000000000000000000000000000000000000000000815250565b7f223e000000000000000000000000000000000000000000000000000000000000815250565b6000611d3982611c42565b9150611d458287611c65565b9150611d5082611c96565b600182019150611d608286611c65565b9150611d6b82611cbc565b600982019150611d7b8285611c65565b9150611d8682611ce2565b600a82019150611d968284611c65565b9150611da182611d08565b60028201915081905095945050505050565b7f3c7374796c653e00000000000000000000000000000000000000000000000000815250565b7f3c2f7374796c653e000000000000000000000000000000000000000000000000815250565b6000611e0a82611db3565b600782019150611e1a8284611c65565b9150611e2582611dd9565b60088201915081905092915050565b7f3c646566733e0000000000000000000000000000000000000000000000000000815250565b6000611e668285611c65565b9150611e7182611e34565b600682019150611e818284611c65565b91508190509392505050565b7f3c672069643d2265646765223e00000000000000000000000000000000000000815250565b7f3c2f673e00000000000000000000000000000000000000000000000000000000815250565b6000611ee482611e8d565b600d82019150611ef48284611c65565b9150611eff82611eb3565b60048201915081905092915050565b7f3c672069643d2266756c6c223e00000000000000000000000000000000000000815250565b6000611f408285611c65565b9150611f4b82611f0e565b600d82019150611f5b8284611c65565b91508190509392505050565b7f3c75736520687265663d22236564676522207472616e73666f726d3d2273636160008201527f6c65282d312c31292c7472616e736c617465282d000000000000000000000000602082015250565b6000611fc3603483611be8565b9150611fce82611f67565b603482019050919050565b7f2c302922202f3e00000000000000000000000000000000000000000000000000815250565b600061200b8285611c65565b915061201682611fb6565b91506120228284611c65565b915061202d82611fd9565b6007820191508190509392505050565b7f3c75736520687265663d22236564676522207472616e73666f726d3d2273636160008201527f6c6528312c2d31292c7472616e736c61746528302c2d00000000000000000000602082015250565b6000612099603683611be8565b91506120a48261203d565b603682019050919050565b7f2922202f3e000000000000000000000000000000000000000000000000000000815250565b60006120e18285611c65565b91506120ec8261208c565b91506120f88284611c65565b9150612103826120af565b6005820191508190509392505050565b7f3c75736520687265663d22236564676522207472616e73666f726d3d2273636160008201527f6c65282d312c2d31292c7472616e736c617465282d0000000000000000000000602082015250565b600061216f603583611be8565b915061217a82612113565b603582019050919050565b7f2c2d000000000000000000000000000000000000000000000000000000000000815250565b7f2922202f3e3c2f673e0000000000000000000000000000000000000000000000815250565b60006121dd8286611c65565b91506121e882612162565b91506121f48285611c65565b91506121ff82612185565b60028201915061220f8284611c65565b915061221a826121ab565b600982019150819050949350505050565b60006122378285611c65565b91506122438284611c65565b91508190509392505050565b7f3c2f646566733e00000000000000000000000000000000000000000000000000815250565b60006122818284611c65565b915061228c8261224f565b60078201915081905092915050565b7f3c7265637420783d22302220793d2230222077696474683d2200000000000000815250565b7f222066696c6c3d22626c61636b222f3e00000000000000000000000000000000815250565b60006122f38286611c65565b91506122fe8261229b565b60198201915061230e8285611c65565b915061231982611ce2565b600a820191506123298284611c65565b9150612334826122c1565b601082019150819050949350505050565b7f3c672069643d226261636b67726f756e64223e00000000000000000000000000815250565b60006123778285611c65565b915061238282612345565b6013820191506123928284611c65565b915061239d82611eb3565b6004820191508190509392505050565b7f3c726563742066696c6c3d22626c61636b2220783d2200000000000000000000815250565b7f2220793d22000000000000000000000000000000000000000000000000000000815250565b7f2220206865696768743d22000000000000000000000000000000000000000000815250565b7f22202f3e00000000000000000000000000000000000000000000000000000000815250565b60006124518288611c65565b915061245c826123ad565b60168201915061246c8287611c65565b9150612477826123d3565b6005820191506124878286611c65565b915061249282611cbc565b6009820191506124a28285611c65565b91506124ad826123f9565b600b820191506124bd8284611c65565b91506124c88261241f565b6004820191508190509695505050505050565b7f3c75736520687265663d222366756c6c22202f3e000000000000000000000000815250565b600061250d8284611c65565b9150612518826124db565b60148201915081905092915050565b600061253282611721565b915061253d83611721565b925082820190508082111561255557612554611acb565b5b92915050565b7f3c75736520687265663d22237370656369616c22207472616e73666f726d3d2260008201527f7472616e736c6174652800000000000000000000000000000000000000000000602082015250565b60006125b7602a83611be8565b91506125c28261255b565b602a82019050919050565b7f2c00000000000000000000000000000000000000000000000000000000000000815250565b7f3c75736520687265663d22237370656369616c22207472616e73666f726d3d2260008201527f7363616c65282d312c31292c7472616e736c617465282d000000000000000000602082015250565b600061264f603783611be8565b915061265a826125f3565b603782019050919050565b60006126718288611c65565b915061267c826125aa565b91506126888287611c65565b9150612693826125cd565b6001820191506126a38286611c65565b91506126ae826120af565b6005820191506126bd82612642565b91506126c98285611c65565b91506126d4826125cd565b6001820191506126e48284611c65565b91506126ef826120af565b6005820191508190509695505050505050565b7f3c2f7376673e0000000000000000000000000000000000000000000000000000815250565b60006127348284611c65565b915061273f82612702565b60068201915081905092915050565b600061275982611721565b91507fffffffffffffffffffffffffffffffffffffffffffffffffffffffffffffffff820361278b5761278a611acb565b5b600182019050919050565b600060ff82169050919050565b60006127ae82612796565b91506127b983612796565b9250828201905060ff8111156127d2576127d1611acb565b5b92915050565b7f4e487b7100000000000000000000000000000000000000000000000000000000600052603260045260246000fd5b600061281282611721565b915061281d83611721565b92508261282d5761282c611b2e565b5b828206905092915050565b61284181611721565b82525050565b600060208201905061285c6000830184612838565b92915050565b600067ffffffffffffffff82111561287d5761287c61188c565b5b602082029050919050565b600080fd5b60008151905061289c81611769565b92915050565b60006128b56128b084612862565b6118ec565b905080602084028301858111156128cf576128ce612888565b5b835b818110156128f857806128e4888261288d565b8452602084019350506020810190506128d1565b5050509392505050565b600082601f8301126129175761291661190c565b5b60036129248482856128a2565b91505092915050565b6000606082840312156129435761294261175f565b5b600061295184828501612902565b91505092915050565b600060039050919050565b600081905092915050565b6000819050919050565b61298381611721565b82525050565b6000612995838361297a565b60208301905092915050565b6000602082019050919050565b6129b78161295a565b6129c18184612965565b92506129cc82612970565b8060005b838110156129fd5781516129e48782612989565b96506129ef836129a1565b9250506001810190506129d0565b505050505050565b6000606082019050612a1a60008301846129ae565b92915050565b6000612a33612a2e84611916565b6118ec565b905082815260208101848484011115612a4f57612a4e611911565b5b612a5a8482856117f1565b509392505050565b600082601f830112612a7757612a7661190c565b5b8151612a87848260208601612a20565b91505092915050565b600060208284031215612aa657612aa561175f565b5b600082015167ffffffffffffffff811115612ac457612ac3611764565b5b612ad084828501612a62565b91505092915050565b7f2e706978656c2d00000000000000000000000000000000000000000000000000815250565b7f207b66696c6c3a00000000000000000000000000000000000000000000000000815250565b7f3b7d200000000000000000000000000000000000000000000000000000000000815250565b6000612b578286611c65565b9150612b6282612ad9565b600782019150612b728285611c65565b9150612b7d82612aff565b600782019150612b8d8284611c65565b9150612b9882612b25565b600382019150819050949350505050565b6000819050919050565b6000612bbe82612ba9565b9150612bc983612ba9565b925082612bd957612bd8611b2e565b5b600160000383147f800000000000000000000000000000000000000000000000000000000000000083141615612c1257612c11611acb565b5b828205905092915050565b6000612c2882612ba9565b9150612c3383612ba9565b9250828203905081811260008412168282136000851215161715612c5a57612c59611acb565b5b92915050565b6000612c6b82612ba9565b9150612c7683612ba9565b9250827f7fffffffffffffffffffffffffffffffffffffffffffffffffffffffffffffff0482116000841360008413161615612cb557612cb4611acb565b5b817f80000000000000000000000000000000000000000000000000000000000000000583126000841260008413161615612cf257612cf1611acb565b5b827f80000000000000000000000000000000000000000000000000000000000000000582126000841360008412161615612d2f57612d2e611acb565b5b827f7fffffffffffffffffffffffffffffffffffffffffffffffffffffffffffffff0582126000841260008412161615612d6c57612d6b611acb565b5b828202905092915050565b7f7374617469635800000000000000000000000000000000000000000000000000815250565b6000612da882612d77565b600782019150612db88284611c65565b915081905092915050565b7f7374617469635900000000000000000000000000000000000000000000000000815250565b6000612df482612dc3565b600782019150612e048284611c65565b915081905092915050565b7f66696c6c4c696768746e65737300000000000000000000000000000000000000815250565b6000612e4082612e0f565b600d82019150612e508284611c65565b915081905092915050565b7f3c7265637420783d220000000000000000000000000000000000000000000000815250565b7f222066696c6c3d22000000000000000000000000000000000000000000000000815250565b7f222f3e0000000000000000000000000000000000000000000000000000000000815250565b6000612ed882612e5b565b600982019150612ee88288611c65565b9150612ef3826123d3565b600582019150612f038287611c65565b9150612f0e82611cbc565b600982019150612f1e8286611c65565b9150612f2982611ce2565b600a82019150612f398285611c65565b9150612f4482612e81565b600882019150612f548284611c65565b9150612f5f82612ea7565b6003820191508190509695505050505050565b7f616e696d61746564537461725800000000000000000000000000000000000000815250565b6000612fa382612f72565b600d82019150612fb38284611c65565b915081905092915050565b7f616e696d61746564537461725900000000000000000000000000000000000000815250565b6000612fef82612fbe565b600d82019150612fff8284611c65565b915081905092915050565b7f616e696d6174696f6e4f66667365740000000000000000000000000000000000815250565b600061303b8261300a565b600f8201915061304b8284611c65565b915081905092915050565b7f6475723d22000000000000000000000000000000000000000000000000000000815250565b7f732220726570656174436f756e743d22696e646566696e69746522206265676960008201527f6e3d220000000000000000000000000000000000000000000000000000000000602082015250565b60006130d8602383611be8565b91506130e38261307c565b602382019050919050565b7f73222063616c634d6f64653d2273706c696e6522206b657954696d65733d223060008201527f3b3122206b657953706c696e65733d22302e342c302c302e322c312200000000602082015250565b600061314a603c83611be8565b9150613155826130ee565b603c82019050919050565b600061316b82613056565b60058201915061317b8285611c65565b9150613186826130cb565b91506131928284611c65565b915061319d8261313d565b91508190509392505050565b7f3c616e696d617465206174747269627574654e616d653d2278222066726f6d3d60008201527f2200000000000000000000000000000000000000000000000000000000000000602082015250565b6000613205602183611be8565b9150613210826131a9565b602182019050919050565b7f2220746f3d220000000000000000000000000000000000000000000000000000815250565b7f222076616c7565733d2200000000000000000000000000000000000000000000815250565b7f3b00000000000000000000000000000000000000000000000000000000000000815250565b7f2220000000000000000000000000000000000000000000000000000000000000815250565b7f2f3e000000000000000000000000000000000000000000000000000000000000815250565b60006132e4826131f8565b91506132f08288611c65565b91506132fb8261321b565b60068201915061330b8287611c65565b915061331682613241565b600a820191506133268286611c65565b915061333182613267565b6001820191506133418285611c65565b915061334c8261328d565b60028201915061335c8284611c65565b9150613367826132b3565b6002820191508190509695505050505050565b7f3c616e696d617465206174747269627574654e616d653d2279222066726f6d3d60008201527f2200000000000000000000000000000000000000000000000000000000000000602082015250565b60006133d6602183611be8565b91506133e18261337a565b602182019050919050565b60006133f88289611c65565b9150613403826133c9565b915061340f8288611c65565b915061341a8261321b565b60068201915061342a8287611c65565b915061343582613241565b600a820191506134458286611c65565b915061345082613267565b6001820191506134608285611c65565b915061346b8261328d565b60028201915061347b8284611c65565b9150613486826132b3565b600282019150819050979650505050505050565b7f3c616e696d617465206174747269627574654e616d653d2266696c6c2d6f706160008201527f63697479222066726f6d3d22312220746f3d2230222076616c7565733d22313b60208201527f3022200000000000000000000000000000000000000000000000000000000000604082015250565b600061351c604383611be8565b91506135278261349a565b604382019050919050565b600061353e8285611c65565b91506135498261350f565b91506135558284611c65565b9150613560826132b3565b6002820191508190509392505050565b7f3c2f726563743e00000000000000000000000000000000000000000000000000815250565b60006135a182612e5b565b6009820191506135b18289611c65565b91506135bc826123d3565b6005820191506135cc8288611c65565b91506135d782611cbc565b6009820191506135e78287611c65565b91506135f282611ce2565b600a820191506136028286611c65565b915061360d82612e81565b60088201915061361d8285611c65565b915061362882611d08565b6002820191506136388284611c65565b915061364382613570565b600782019150819050979650505050505050565b7f736c6963696e67206f7574206f662072616e6765000000000000000000000000600082015250565b600061368d6014836117e0565b915061369882613657565b602082019050919050565b600060208201905081810360008301526136bc81613680565b9050919050565b7f706978656c2d0000000000000000000000000000000000000000000000000000815250565b60006136f4826136c3565b6006820191506137048284611c65565b915081905092915050565b7f3c7265637420783d220000000000000000000000000000000000000000000000600082015250565b6000613745600983611be8565b91506137508261370f565b600982019050919050565b7f2220793d22000000000000000000000000000000000000000000000000000000600082015250565b6000613791600583611be8565b915061379c8261375b565b600582019050919050565b7f222077696474683d220000000000000000000000000000000000000000000000600082015250565b60006137dd600983611be8565b91506137e8826137a7565b600982019050919050565b7f22206865696768743d2200000000000000000000000000000000000000000000600082015250565b6000613829600a83611be8565b9150613834826137f3565b600a82019050919050565b7f2220636c6173733d220000000000000000000000000000000000000000000000600082015250565b6000613875600983611be8565b91506138808261383f565b600982019050919050565b7f222f3e0000000000000000000000000000000000000000000000000000000000600082015250565b60006138c1600383611be8565b91506138cc8261388b565b600382019050919050565b60006138e282613738565b91506138ee8288611c65565b91506138f982613784565b91506139058287611c65565b9150613910826137d0565b915061391c8286611c65565b91506139278261381c565b91506139338285611c65565b915061393e82613868565b915061394a8284611c65565b9150613955826138b4565b91508190509695505050505050565b60008160011c9050919050565b6000808291508390505b60018511156139bb5780860481111561399757613996611acb565b5b60018516156139a65780820291505b80810290506139b485613964565b945061397b565b94509492505050565b6000826139d45760019050613a90565b816139e25760009050613a90565b81600181146139f85760028114613a0257613a31565b6001915050613a90565b60ff841115613a1457613a13611acb565b5b8360020a915084821115613a2b57613a2a611acb565b5b50613a90565b5060208310610133831016604e8410600b8410161715613a665782820a905083811115613a6157613a60611acb565b5b613a90565b613a738484846001613971565b92509050818404811115613a8a57613a89611acb565b5b81810290505b9392505050565b6000613aa282611721565b9150613aad83611721565b9250613ada7fffffffffffffffffffffffffffffffffffffffffffffffffffffffffffffffff84846139c4565b905092915050565b7f2e00000000000000000000000000000000000000000000000000000000000000815250565b6000613b148285611c65565b9150613b1f82613ae2565b600182019150613b2f8284611c65565b91508190509392505050565b6000613b478284611c65565b91508190509291505056fe3c672069643d227370656369616c223e3c7061746820643d224d3132302030683130763130682d313056305a2220636c6173733d22706978656c2d33222f3e3c7061746820643d224d3131302030683130763130682d31307a2220636c6173733d22706978656c2d32222f3e3c7061746820643d224d313330203130683130763130682d31305631305a6d2d3430203048307631306839305631305a2220636c6173733d22706978656c2d33222f3e3c7061746820643d224d3134302032304830763130683134307a2220636c6173733d22706978656c2d31222f3e3c7061746820643d224d343020343048307631306834305634305a2220636c6173733d22706978656c2d33222f3e3c7061746820643d224d373020333048307631306837307a6d34302d3230683230763130682d32307a2220636c6173733d22706978656c2d32222f3e3c7061746820643d224d39302032306832305631304839307631305a2220636c6173733d22706978656c2d31222f3e3c7061746820643d224d3133302033304837307631306836305633305a2220636c6173733d22706978656c2d33222f3e3c2f673e02305a05000f05a03700005a01402d05a05001905a03700505a01403705a05002305a03700f05a01410e05a0500fa05a0370e605a01410d0640590fa0560530e603d0180a26469706673582212202eed62011fd86b2052f6d9a7f44ac4d58c0c2e3642ae399d03e4934b5e21ea9264736f6c63430008100033",
  "deployedBytecode": "0x608060405234801561001057600080fd5b50600436106100415760003560e01c8063030ac52514610046578063a0cd73a514610064578063cfeb9a0214610094575b600080fd5b61004e6100c4565b60405161005b919061173a565b60405180910390f35b61007e60048036038101906100799190611795565b6100c9565b60405161008b9190611865565b60405180910390f35b6100ae60048036038101906100a99190611a82565b61016f565b6040516100bb9190611865565b60405180910390f35b601c81565b6060600082600a6100da9190611afa565b6002601c6100e89190611b5d565b6100f29190611afa565b905060006040518060c0016040528086815260200185815260200183815260200160018152602001600f81526020016040518060400160405280600581526020017f4d6963726f00000000000000000000000000000000000000000000000000000081525081525090506101658161016f565b9250505092915050565b60606000610189600a601c6101849190611b8e565b61063b565b61019f600a601c61019a9190611b8e565b61063b565b6101b5600a601c6101b09190611b8e565b61063b565b6101cb600a601c6101c69190611b8e565b61063b565b6040516020016101de9493929190611d2e565b604051602081830303815290604052905060006101fa846107c3565b905060008160405160200161020f9190611dff565b60405160208183030381529060405290508281604051602001610233929190611e5a565b6040516020818303038152906040529250600061024f86610b65565b90506000816040516020016102649190611ed9565b60405160208183030381529060405290508481604051602001610288929190611f34565b6040516020818303038152906040529450846102b0600a601c6102ab9190611b8e565b61063b565b6040516020016102c1929190611fff565b6040516020818303038152906040529450846102e9600a601c6102e49190611b8e565b61063b565b6040516020016102fa9291906120d5565b604051602081830303815290604052945084610322600a601c61031d9190611b8e565b61063b565b610338600a601c6103339190611b8e565b61063b565b60405160200161034a939291906121d1565b604051602081830303815290604052945060048760200151036103a75784604051806101e001604052806101a98152602001613b536101a9913960405160200161039592919061222b565b60405160208183030381529060405294505b846040516020016103b89190612275565b6040516020818303038152906040529450846103e0600a601c6103db9190611b8e565b61063b565b6103f6600a601c6103f19190611b8e565b61063b565b604051602001610408939291906122e7565b60405160208183030381529060405294508461042388610cf6565b60405160200161043492919061236b565b60405160208183030381529060405294506000600a88604001516104589190611b8e565b6002600a601c6104689190611b8e565b6104729190611b5d565b61047c9190611afa565b90506000600a896040015160026104939190611b8e565b61049d9190611b8e565b9050866104a98361063b565b6104b28461063b565b6104bb8461063b565b6104c48561063b565b6040516020016104d8959493929190612445565b6040516020818303038152906040529650866040516020016104fa9190612501565b6040516020818303038152906040529650866105158a610f18565b60405160200161052692919061222b565b6040516020818303038152906040529650600489602001510361060a5786610572600a6002600a601c6105599190611b8e565b6105639190611b5d565b61056d9190611afa565b61063b565b6105946002600a601c6105859190611b8e565b61058f9190611b5d565b61063b565b6105c2600a6002600a601c6105a99190611b8e565b6105b39190611b5d565b6105bd9190612527565b61063b565b6105e46002600a601c6105d59190611b8e565b6105df9190611b5d565b61063b565b6040516020016105f8959493929190612665565b60405160208183030381529060405296505b8660405160200161061b9190612728565b604051602081830303815290604052965086975050505050505050919050565b606060008203610682576040518060400160405280600181526020017f300000000000000000000000000000000000000000000000000000000000000081525090506107be565b600082905060005b600082146106b457808061069d9061274e565b915050600a826106ad9190611b5d565b915061068a565b60008167ffffffffffffffff8111156106d0576106cf61188c565b5b6040519080825280601f01601f1916602001820160405280156107025781602001600182028036833780820191505090505b50905060008290505b600086146107b6576001816107209190611afa565b90506000600a80886107329190611b5d565b61073c9190611b8e565b876107479190611afa565b603061075391906127a3565b905060008160f81b905080848481518110610771576107706127d8565b5b60200101907effffffffffffffffffffffffffffffffffffffffffffffffffffffffffffff1916908160001a905350600a886107ad9190611b5d565b9750505061070b565b819450505050505b919050565b60606000808360200151905060018111610801576107fa604051806080016040528060448152602001613cfc6044913960006113fc565b9150610863565b600381116108335761082c604051806080016040528060448152602001613cfc60449139601b6113fc565b9150610862565b600481116108615761085e604051806080016040528060448152602001613cfc6044913960246113fc565b91505b5b5b6004810361087757600482901c91506108a0565b60006002826108869190612807565b0361089757609482901c915061089f565b602882901c91505b5b600060405180602001604052806000815250905060005b6004811015610b595760006040518060400160405280600581526020017f626c61636b00000000000000000000000000000000000000000000000000000081525090506000821115610b175760006001836109129190611afa565b602461091e9190611b8e565b604861092a9190611afa565b86901c9050600073__$5187c88d6fd7cbb2d86814aea483adb806$__636fdfe6ea836040518263ffffffff1660e01b81526004016109689190612847565b606060405180830381865af4158015610985573d6000803e3d6000fd5b505050506040513d601f19601f820116820180604052508101906109a9919061292d565b90508860800151816000600381106109c4576109c36127d8565b5b60200201511015610a2657806000600381106109e3576109e26127d8565b5b602002015189608001516109f79190611afa565b610168610a049190611afa565b81600060038110610a1857610a176127d8565b5b602002018181525050610a58565b886080015181600060038110610a3f57610a3e6127d8565b5b60200201818151610a509190611afa565b915081815250505b60028960800151610a699190611b8e565b81600160038110610a7d57610a7c6127d8565b5b60200201818151610a8e9190611afa565b9150818152505073__$5187c88d6fd7cbb2d86814aea483adb806$__63204b34d8826040518263ffffffff1660e01b8152600401610acc9190612a05565b600060405180830381865af4158015610ae9573d6000803e3d6000fd5b505050506040513d6000823e3d601f19601f82011682018060405250810190610b129190612a90565b925050505b82610b218361063b565b82604051602001610b3493929190612b4b565b6040516020818303038152906040529250508080610b519061274e565b9150506108b7565b50809350505050919050565b6060610b6f611707565b60006040518060200160405280600081525090506002601c610b919190611b5d565b826000018181525050600584604001518360000151610bb09190611afa565b610bba9190611afa565b8260200181815250506000826020015190505b82600001518111610ceb576000836020015190505b83600001518111610cd75760006002601c610bfd9190612bb3565b82610c089190612c1d565b905060006002601c610c1a9190612bb3565b84610c259190612c1d565b90506000610c538283610c389190612c60565b8485610c449190612c60565b610c4e9190612527565b611463565b90506000896040015182610c679190612c1d565b9050896040015182118015610c8c575060038a60400151610c889190612527565b8211155b15610cc05786610c9d828789611549565b604051602001610cae92919061222b565b60405160208183030381529060405296505b505050508080610ccf9061274e565b915050610be2565b508080610ce39061274e565b915050610bcd565b508092505050919050565b6060600060405180602001604052806000815250905060005b601e811015610f0e576000600a610d558660000151610d2d8561063b565b604051602001610d3d9190612d9d565b6040516020818303038152906040526000601c6115e9565b610d5f9190611b8e565b90506000600a610d9e8760000151610d768661063b565b604051602001610d869190612de9565b6040516020818303038152906040526000601c6115e9565b610da89190611b8e565b90506000610de58760000151610dbd8661063b565b604051602001610dcd9190612e35565b6040516020818303038152906040526005600c6115e9565b9050600073__$5187c88d6fd7cbb2d86814aea483adb806$__63204b34d860405180606001604052806000815260200160008152602001858152506040518263ffffffff1660e01b8152600401610e3c9190612a05565b600060405180830381865af4158015610e59573d6000803e3d6000fd5b505050506040513d6000823e3d601f19601f82011682018060405250810190610e829190612a90565b90506000610e8f8561063b565b610e988561063b565b610ea2600a61063b565b610eac600a61063b565b85604051602001610ec1959493929190612ecd565b60405160208183030381529060405290508681604051602001610ee592919061222b565b604051602081830303815290604052965050505050508080610f069061274e565b915050610d0f565b5080915050919050565b6060600060405180602001604052806000815250905060005b600a8110156113f2576000610f818560000151610f4d8461063b565b604051602001610f5d9190612f98565b60405160208183030381529060405260006003601c610f7c9190611b8e565b6115e9565b9050600060068660400151610f969190612527565b905060006002601c610fa89190612bb3565b83610fb39190612c1d565b6002601c610fc19190612bb3565b84610fcc9190612c1d565b610fd69190612c60565b8283610fe29190612c60565b610fec9190612c1d565b90506000806002601c610fff9190611b8e565b90506000831315611092576002601c6110189190611b5d565b61102184611463565b61102b9190612527565b91506002601c61103b9190611b8e565b905060016110788a600001516110508961063b565b6040516020016110609190612fe4565b604051602081830303815290604052600060026115e9565b036110915781601c61108a9190611afa565b9050600091505b5b600a8561109f9190611b8e565b94506000600a6110dc8b600001516110b68a61063b565b6040516020016110c69190612fe4565b60405160208183030381529060405286866115e9565b6110e69190611b8e565b905060006111238b600001516110fb8a61063b565b60405160200161110b9190612e35565b604051602081830303815290604052600f60c86115e9565b9050600073__$5187c88d6fd7cbb2d86814aea483adb806$__63204b34d860405180606001604052806000815260200160008152602001858152506040518263ffffffff1660e01b815260040161117a9190612a05565b600060405180830381865af4158015611197573d6000803e3d6000fd5b505050506040513d6000823e3d601f19601f820116820180604052508101906111c09190612a90565b905060006002905060006112048e600001516111db8d61063b565b6040516020016111eb9190613030565b60405160208183030381529060405260006107d06115e9565b905060006112118361063b565b61121c836003611659565b60405160200161122d929190613160565b604051602081830303815290604052905060006112498c61063b565b61126b6002600a601c61125c9190611b8e565b6112669190611b5d565b61063b565b6112748e61063b565b6112966002600a601c6112879190611b8e565b6112919190611b5d565b61063b565b856040516020016112ab9594939291906132d9565b6040516020818303038152906040529050806112c68861063b565b6112e86002600a601c6112d99190611b8e565b6112e39190611b5d565b61063b565b6112f18a61063b565b6113136002600a601c6113049190611b8e565b61130e9190611b5d565b61063b565b86604051602001611329969594939291906133ec565b6040516020818303038152906040529050808260405160200161134d929190613532565b604051602081830303815290604052905060006113698d61063b565b6113728961063b565b61137c600a61063b565b611386600a61063b565b898660405160200161139d96959493929190613596565b60405160208183030381529060405290508e816040516020016113c192919061222b565b6040516020818303038152906040529e505050505050505050505050505080806113ea9061274e565b915050610f31565b5080915050919050565b600060208261140b9190612527565b8351101561144e576040517f08c379a0000000000000000000000000000000000000000000000000000000008152600401611445906136a3565b60405180910390fd5b60008260200184015190508091505092915050565b600060b5905081710100000000000000000000000000000000008110611490578060801c90508160401b91505b690100000000000000000081106114ae578060401c90508160201b91505b6501000000000081106114c8578060201c90508160101b91505b630100000081106114e0578060101c90508160081b91505b620100008101820260121c9150818304820160011c9150818304820160011c9150818304820160011c9150818304820160011c9150818304820160011c9150818304820160011c9150818304820160011c91508182840410156115435781830491505b50919050565b606060006115568561063b565b60405160200161156691906136e9565b604051602081830303815290604052905061158f600a8560ff1661158a9190611b8e565b61063b565b6115a7600a8560ff166115a29190611b8e565b61063b565b6115b1600a61063b565b6115bb600a61063b565b846040516020016115d09594939291906138d7565b6040516020818303038152906040529150509392505050565b60008061161e856115f98861063b565b60405160200161160a92919061222b565b6040516020818303038152906040526116c3565b9050836001858561162f9190611afa565b6116399190612527565b826116449190612807565b61164e9190612527565b915050949350505050565b606061167b82600a61166b9190613a97565b846116769190611b5d565b61063b565b61169b83600a61168b9190613a97565b856116969190612807565b61063b565b6040516020016116ac929190613b08565b604051602081830303815290604052905092915050565b60006116ed826040516020016116d99190613b3b565b6040516020818303038152906040526116f7565b60001c9050919050565b6000815160208301209050919050565b604051806040016040528060008152602001600081525090565b6000819050919050565b61173481611721565b82525050565b600060208201905061174f600083018461172b565b92915050565b6000604051905090565b600080fd5b600080fd5b61177281611721565b811461177d57600080fd5b50565b60008135905061178f81611769565b92915050565b600080604083850312156117ac576117ab61175f565b5b60006117ba85828601611780565b92505060206117cb85828601611780565b9150509250929050565b600081519050919050565b600082825260208201905092915050565b60005b8381101561180f5780820151818401526020810190506117f4565b60008484015250505050565b6000601f19601f8301169050919050565b6000611837826117d5565b61184181856117e0565b93506118518185602086016117f1565b61185a8161181b565b840191505092915050565b6000602082019050818103600083015261187f818461182c565b905092915050565b600080fd5b7f4e487b7100000000000000000000000000000000000000000000000000000000600052604160045260246000fd5b6118c48261181b565b810181811067ffffffffffffffff821117156118e3576118e261188c565b5b80604052505050565b60006118f6611755565b905061190282826118bb565b919050565b600080fd5b600080fd5b600080fd5b600067ffffffffffffffff8211156119315761193061188c565b5b61193a8261181b565b9050602081019050919050565b82818337600083830152505050565b600061196961196484611916565b6118ec565b90508281526020810184848401111561198557611984611911565b5b611990848285611947565b509392505050565b600082601f8301126119ad576119ac61190c565b5b81356119bd848260208601611956565b91505092915050565b600060c082840312156119dc576119db611887565b5b6119e660c06118ec565b905060006119f684828501611780565b6000830152506020611a0a84828501611780565b6020830152506040611a1e84828501611780565b6040830152506060611a3284828501611780565b6060830152506080611a4684828501611780565b60808301525060a082013567ffffffffffffffff811115611a6a57611a69611907565b5b611a7684828501611998565b60a08301525092915050565b600060208284031215611a9857611a9761175f565b5b600082013567ffffffffffffffff811115611ab657611ab5611764565b5b611ac2848285016119c6565b91505092915050565b7f4e487b7100000000000000000000000000000000000000000000000000000000600052601160045260246000fd5b6000611b0582611721565b9150611b1083611721565b9250828203905081811115611b2857611b27611acb565b5b92915050565b7f4e487b7100000000000000000000000000000000000000000000000000000000600052601260045260246000fd5b6000611b6882611721565b9150611b7383611721565b925082611b8357611b82611b2e565b5b828204905092915050565b6000611b9982611721565b9150611ba483611721565b9250817fffffffffffffffffffffffffffffffffffffffffffffffffffffffffffffffff0483118215151615611bdd57611bdc611acb565b5b828202905092915050565b600081905092915050565b7f3c73766720786d6c6e733d22687474703a2f2f7777772e77332e6f72672f323060008201527f30302f737667222076696577426f783d22302030200000000000000000000000602082015250565b6000611c4f603583611be8565b9150611c5a82611bf3565b603582019050919050565b6000611c70826117d5565b611c7a8185611be8565b9350611c8a8185602086016117f1565b80840191505092915050565b7f2000000000000000000000000000000000000000000000000000000000000000815250565b7f222077696474683d220000000000000000000000000000000000000000000000815250565b7f22206865696768743d2200000000000000000000000000000000000000000000815250565b7f223e000000000000000000000000000000000000000000000000000000000000815250565b6000611d3982611c42565b9150611d458287611c65565b9150611d5082611c96565b600182019150611d608286611c65565b9150611d6b82611cbc565b600982019150611d7b8285611c65565b9150611d8682611ce2565b600a82019150611d968284611c65565b9150611da182611d08565b60028201915081905095945050505050565b7f3c7374796c653e00000000000000000000000000000000000000000000000000815250565b7f3c2f7374796c653e000000000000000000000000000000000000000000000000815250565b6000611e0a82611db3565b600782019150611e1a8284611c65565b9150611e2582611dd9565b60088201915081905092915050565b7f3c646566733e0000000000000000000000000000000000000000000000000000815250565b6000611e668285611c65565b9150611e7182611e34565b600682019150611e818284611c65565b91508190509392505050565b7f3c672069643d2265646765223e00000000000000000000000000000000000000815250565b7f3c2f673e00000000000000000000000000000000000000000000000000000000815250565b6000611ee482611e8d565b600d82019150611ef48284611c65565b9150611eff82611eb3565b60048201915081905092915050565b7f3c672069643d2266756c6c223e00000000000000000000000000000000000000815250565b6000611f408285611c65565b9150611f4b82611f0e565b600d82019150611f5b8284611c65565b91508190509392505050565b7f3c75736520687265663d22236564676522207472616e73666f726d3d2273636160008201527f6c65282d312c31292c7472616e736c617465282d000000000000000000000000602082015250565b6000611fc3603483611be8565b9150611fce82611f67565b603482019050919050565b7f2c302922202f3e00000000000000000000000000000000000000000000000000815250565b600061200b8285611c65565b915061201682611fb6565b91506120228284611c65565b915061202d82611fd9565b6007820191508190509392505050565b7f3c75736520687265663d22236564676522207472616e73666f726d3d2273636160008201527f6c6528312c2d31292c7472616e736c61746528302c2d00000000000000000000602082015250565b6000612099603683611be8565b91506120a48261203d565b603682019050919050565b7f2922202f3e000000000000000000000000000000000000000000000000000000815250565b60006120e18285611c65565b91506120ec8261208c565b91506120f88284611c65565b9150612103826120af565b6005820191508190509392505050565b7f3c75736520687265663d22236564676522207472616e73666f726d3d2273636160008201527f6c65282d312c2d31292c7472616e736c617465282d0000000000000000000000602082015250565b600061216f603583611be8565b915061217a82612113565b603582019050919050565b7f2c2d000000000000000000000000000000000000000000000000000000000000815250565b7f2922202f3e3c2f673e0000000000000000000000000000000000000000000000815250565b60006121dd8286611c65565b91506121e882612162565b91506121f48285611c65565b91506121ff82612185565b60028201915061220f8284611c65565b915061221a826121ab565b600982019150819050949350505050565b60006122378285611c65565b91506122438284611c65565b91508190509392505050565b7f3c2f646566733e00000000000000000000000000000000000000000000000000815250565b60006122818284611c65565b915061228c8261224f565b60078201915081905092915050565b7f3c7265637420783d22302220793d2230222077696474683d2200000000000000815250565b7f222066696c6c3d22626c61636b222f3e00000000000000000000000000000000815250565b60006122f38286611c65565b91506122fe8261229b565b60198201915061230e8285611c65565b915061231982611ce2565b600a820191506123298284611c65565b9150612334826122c1565b601082019150819050949350505050565b7f3c672069643d226261636b67726f756e64223e00000000000000000000000000815250565b60006123778285611c65565b915061238282612345565b6013820191506123928284611c65565b915061239d82611eb3565b6004820191508190509392505050565b7f3c726563742066696c6c3d22626c61636b2220783d2200000000000000000000815250565b7f2220793d22000000000000000000000000000000000000000000000000000000815250565b7f2220206865696768743d22000000000000000000000000000000000000000000815250565b7f22202f3e00000000000000000000000000000000000000000000000000000000815250565b60006124518288611c65565b915061245c826123ad565b60168201915061246c8287611c65565b9150612477826123d3565b6005820191506124878286611c65565b915061249282611cbc565b6009820191506124a28285611c65565b91506124ad826123f9565b600b820191506124bd8284611c65565b91506124c88261241f565b6004820191508190509695505050505050565b7f3c75736520687265663d222366756c6c22202f3e000000000000000000000000815250565b600061250d8284611c65565b9150612518826124db565b60148201915081905092915050565b600061253282611721565b915061253d83611721565b925082820190508082111561255557612554611acb565b5b92915050565b7f3c75736520687265663d22237370656369616c22207472616e73666f726d3d2260008201527f7472616e736c6174652800000000000000000000000000000000000000000000602082015250565b60006125b7602a83611be8565b91506125c28261255b565b602a82019050919050565b7f2c00000000000000000000000000000000000000000000000000000000000000815250565b7f3c75736520687265663d22237370656369616c22207472616e73666f726d3d2260008201527f7363616c65282d312c31292c7472616e736c617465282d000000000000000000602082015250565b600061264f603783611be8565b915061265a826125f3565b603782019050919050565b60006126718288611c65565b915061267c826125aa565b91506126888287611c65565b9150612693826125cd565b6001820191506126a38286611c65565b91506126ae826120af565b6005820191506126bd82612642565b91506126c98285611c65565b91506126d4826125cd565b6001820191506126e48284611c65565b91506126ef826120af565b6005820191508190509695505050505050565b7f3c2f7376673e0000000000000000000000000000000000000000000000000000815250565b60006127348284611c65565b915061273f82612702565b60068201915081905092915050565b600061275982611721565b91507fffffffffffffffffffffffffffffffffffffffffffffffffffffffffffffffff820361278b5761278a611acb565b5b600182019050919050565b600060ff82169050919050565b60006127ae82612796565b91506127b983612796565b9250828201905060ff8111156127d2576127d1611acb565b5b92915050565b7f4e487b7100000000000000000000000000000000000000000000000000000000600052603260045260246000fd5b600061281282611721565b915061281d83611721565b92508261282d5761282c611b2e565b5b828206905092915050565b61284181611721565b82525050565b600060208201905061285c6000830184612838565b92915050565b600067ffffffffffffffff82111561287d5761287c61188c565b5b602082029050919050565b600080fd5b60008151905061289c81611769565b92915050565b60006128b56128b084612862565b6118ec565b905080602084028301858111156128cf576128ce612888565b5b835b818110156128f857806128e4888261288d565b8452602084019350506020810190506128d1565b5050509392505050565b600082601f8301126129175761291661190c565b5b60036129248482856128a2565b91505092915050565b6000606082840312156129435761294261175f565b5b600061295184828501612902565b91505092915050565b600060039050919050565b600081905092915050565b6000819050919050565b61298381611721565b82525050565b6000612995838361297a565b60208301905092915050565b6000602082019050919050565b6129b78161295a565b6129c18184612965565b92506129cc82612970565b8060005b838110156129fd5781516129e48782612989565b96506129ef836129a1565b9250506001810190506129d0565b505050505050565b6000606082019050612a1a60008301846129ae565b92915050565b6000612a33612a2e84611916565b6118ec565b905082815260208101848484011115612a4f57612a4e611911565b5b612a5a8482856117f1565b509392505050565b600082601f830112612a7757612a7661190c565b5b8151612a87848260208601612a20565b91505092915050565b600060208284031215612aa657612aa561175f565b5b600082015167ffffffffffffffff811115612ac457612ac3611764565b5b612ad084828501612a62565b91505092915050565b7f2e706978656c2d00000000000000000000000000000000000000000000000000815250565b7f207b66696c6c3a00000000000000000000000000000000000000000000000000815250565b7f3b7d200000000000000000000000000000000000000000000000000000000000815250565b6000612b578286611c65565b9150612b6282612ad9565b600782019150612b728285611c65565b9150612b7d82612aff565b600782019150612b8d8284611c65565b9150612b9882612b25565b600382019150819050949350505050565b6000819050919050565b6000612bbe82612ba9565b9150612bc983612ba9565b925082612bd957612bd8611b2e565b5b600160000383147f800000000000000000000000000000000000000000000000000000000000000083141615612c1257612c11611acb565b5b828205905092915050565b6000612c2882612ba9565b9150612c3383612ba9565b9250828203905081811260008412168282136000851215161715612c5a57612c59611acb565b5b92915050565b6000612c6b82612ba9565b9150612c7683612ba9565b9250827f7fffffffffffffffffffffffffffffffffffffffffffffffffffffffffffffff0482116000841360008413161615612cb557612cb4611acb565b5b817f80000000000000000000000000000000000000000000000000000000000000000583126000841260008413161615612cf257612cf1611acb565b5b827f80000000000000000000000000000000000000000000000000000000000000000582126000841360008412161615612d2f57612d2e611acb565b5b827f7fffffffffffffffffffffffffffffffffffffffffffffffffffffffffffffff0582126000841260008412161615612d6c57612d6b611acb565b5b828202905092915050565b7f7374617469635800000000000000000000000000000000000000000000000000815250565b6000612da882612d77565b600782019150612db88284611c65565b915081905092915050565b7f7374617469635900000000000000000000000000000000000000000000000000815250565b6000612df482612dc3565b600782019150612e048284611c65565b915081905092915050565b7f66696c6c4c696768746e65737300000000000000000000000000000000000000815250565b6000612e4082612e0f565b600d82019150612e508284611c65565b915081905092915050565b7f3c7265637420783d220000000000000000000000000000000000000000000000815250565b7f222066696c6c3d22000000000000000000000000000000000000000000000000815250565b7f222f3e0000000000000000000000000000000000000000000000000000000000815250565b6000612ed882612e5b565b600982019150612ee88288611c65565b9150612ef3826123d3565b600582019150612f038287611c65565b9150612f0e82611cbc565b600982019150612f1e8286611c65565b9150612f2982611ce2565b600a82019150612f398285611c65565b9150612f4482612e81565b600882019150612f548284611c65565b9150612f5f82612ea7565b6003820191508190509695505050505050565b7f616e696d61746564537461725800000000000000000000000000000000000000815250565b6000612fa382612f72565b600d82019150612fb38284611c65565b915081905092915050565b7f616e696d61746564537461725900000000000000000000000000000000000000815250565b6000612fef82612fbe565b600d82019150612fff8284611c65565b915081905092915050565b7f616e696d6174696f6e4f66667365740000000000000000000000000000000000815250565b600061303b8261300a565b600f8201915061304b8284611c65565b915081905092915050565b7f6475723d22000000000000000000000000000000000000000000000000000000815250565b7f732220726570656174436f756e743d22696e646566696e69746522206265676960008201527f6e3d220000000000000000000000000000000000000000000000000000000000602082015250565b60006130d8602383611be8565b91506130e38261307c565b602382019050919050565b7f73222063616c634d6f64653d2273706c696e6522206b657954696d65733d223060008201527f3b3122206b657953706c696e65733d22302e342c302c302e322c312200000000602082015250565b600061314a603c83611be8565b9150613155826130ee565b603c82019050919050565b600061316b82613056565b60058201915061317b8285611c65565b9150613186826130cb565b91506131928284611c65565b915061319d8261313d565b91508190509392505050565b7f3c616e696d617465206174747269627574654e616d653d2278222066726f6d3d60008201527f2200000000000000000000000000000000000000000000000000000000000000602082015250565b6000613205602183611be8565b9150613210826131a9565b602182019050919050565b7f2220746f3d220000000000000000000000000000000000000000000000000000815250565b7f222076616c7565733d2200000000000000000000000000000000000000000000815250565b7f3b00000000000000000000000000000000000000000000000000000000000000815250565b7f2220000000000000000000000000000000000000000000000000000000000000815250565b7f2f3e000000000000000000000000000000000000000000000000000000000000815250565b60006132e4826131f8565b91506132f08288611c65565b91506132fb8261321b565b60068201915061330b8287611c65565b915061331682613241565b600a820191506133268286611c65565b915061333182613267565b6001820191506133418285611c65565b915061334c8261328d565b60028201915061335c8284611c65565b9150613367826132b3565b6002820191508190509695505050505050565b7f3c616e696d617465206174747269627574654e616d653d2279222066726f6d3d60008201527f2200000000000000000000000000000000000000000000000000000000000000602082015250565b60006133d6602183611be8565b91506133e18261337a565b602182019050919050565b60006133f88289611c65565b9150613403826133c9565b915061340f8288611c65565b915061341a8261321b565b60068201915061342a8287611c65565b915061343582613241565b600a820191506134458286611c65565b915061345082613267565b6001820191506134608285611c65565b915061346b8261328d565b60028201915061347b8284611c65565b9150613486826132b3565b600282019150819050979650505050505050565b7f3c616e696d617465206174747269627574654e616d653d2266696c6c2d6f706160008201527f63697479222066726f6d3d22312220746f3d2230222076616c7565733d22313b60208201527f3022200000000000000000000000000000000000000000000000000000000000604082015250565b600061351c604383611be8565b91506135278261349a565b604382019050919050565b600061353e8285611c65565b91506135498261350f565b91506135558284611c65565b9150613560826132b3565b6002820191508190509392505050565b7f3c2f726563743e00000000000000000000000000000000000000000000000000815250565b60006135a182612e5b565b6009820191506135b18289611c65565b91506135bc826123d3565b6005820191506135cc8288611c65565b91506135d782611cbc565b6009820191506135e78287611c65565b91506135f282611ce2565b600a820191506136028286611c65565b915061360d82612e81565b60088201915061361d8285611c65565b915061362882611d08565b6002820191506136388284611c65565b915061364382613570565b600782019150819050979650505050505050565b7f736c6963696e67206f7574206f662072616e6765000000000000000000000000600082015250565b600061368d6014836117e0565b915061369882613657565b602082019050919050565b600060208201905081810360008301526136bc81613680565b9050919050565b7f706978656c2d0000000000000000000000000000000000000000000000000000815250565b60006136f4826136c3565b6006820191506137048284611c65565b915081905092915050565b7f3c7265637420783d220000000000000000000000000000000000000000000000600082015250565b6000613745600983611be8565b91506137508261370f565b600982019050919050565b7f2220793d22000000000000000000000000000000000000000000000000000000600082015250565b6000613791600583611be8565b915061379c8261375b565b600582019050919050565b7f222077696474683d220000000000000000000000000000000000000000000000600082015250565b60006137dd600983611be8565b91506137e8826137a7565b600982019050919050565b7f22206865696768743d2200000000000000000000000000000000000000000000600082015250565b6000613829600a83611be8565b9150613834826137f3565b600a82019050919050565b7f2220636c6173733d220000000000000000000000000000000000000000000000600082015250565b6000613875600983611be8565b91506138808261383f565b600982019050919050565b7f222f3e0000000000000000000000000000000000000000000000000000000000600082015250565b60006138c1600383611be8565b91506138cc8261388b565b600382019050919050565b60006138e282613738565b91506138ee8288611c65565b91506138f982613784565b91506139058287611c65565b9150613910826137d0565b915061391c8286611c65565b91506139278261381c565b91506139338285611c65565b915061393e82613868565b915061394a8284611c65565b9150613955826138b4565b91508190509695505050505050565b60008160011c9050919050565b6000808291508390505b60018511156139bb5780860481111561399757613996611acb565b5b60018516156139a65780820291505b80810290506139b485613964565b945061397b565b94509492505050565b6000826139d45760019050613a90565b816139e25760009050613a90565b81600181146139f85760028114613a0257613a31565b6001915050613a90565b60ff841115613a1457613a13611acb565b5b8360020a915084821115613a2b57613a2a611acb565b5b50613a90565b5060208310610133831016604e8410600b8410161715613a665782820a905083811115613a6157613a60611acb565b5b613a90565b613a738484846001613971565b92509050818404811115613a8a57613a89611acb565b5b81810290505b9392505050565b6000613aa282611721565b9150613aad83611721565b9250613ada7fffffffffffffffffffffffffffffffffffffffffffffffffffffffffffffffff84846139c4565b905092915050565b7f2e00000000000000000000000000000000000000000000000000000000000000815250565b6000613b148285611c65565b9150613b1f82613ae2565b600182019150613b2f8284611c65565b91508190509392505050565b6000613b478284611c65565b91508190509291505056fe3c672069643d227370656369616c223e3c7061746820643d224d3132302030683130763130682d313056305a2220636c6173733d22706978656c2d33222f3e3c7061746820643d224d3131302030683130763130682d31307a2220636c6173733d22706978656c2d32222f3e3c7061746820643d224d313330203130683130763130682d31305631305a6d2d3430203048307631306839305631305a2220636c6173733d22706978656c2d33222f3e3c7061746820643d224d3134302032304830763130683134307a2220636c6173733d22706978656c2d31222f3e3c7061746820643d224d343020343048307631306834305634305a2220636c6173733d22706978656c2d33222f3e3c7061746820643d224d373020333048307631306837307a6d34302d3230683230763130682d32307a2220636c6173733d22706978656c2d32222f3e3c7061746820643d224d39302032306832305631304839307631305a2220636c6173733d22706978656c2d31222f3e3c7061746820643d224d3133302033304837307631306836305633305a2220636c6173733d22706978656c2d33222f3e3c2f673e02305a05000f05a03700005a01402d05a05001905a03700505a01403705a05002305a03700f05a01410e05a0500fa05a0370e605a01410d0640590fa0560530e603d0180a26469706673582212202eed62011fd86b2052f6d9a7f44ac4d58c0c2e3642ae399d03e4934b5e21ea9264736f6c63430008100033",
  "libraries": {
    "utils": "0xc0B9fc91b9007a8770225FC4c5c93A5f0D0B7904"
  },
  "devdoc": {
    "kind": "dev",
    "methods": {},
    "version": 1
  },
  "userdoc": {
    "kind": "user",
    "methods": {},
    "version": 1
  },
  "storageLayout": {
    "storage": [],
    "types": null
  }
}