{
  "address": "0xEa38F4f6bdea43d7234845Aa61b63FB4069df0Bf",
  "abi": [
    {
      "inputs": [
        {
          "internalType": "string",
          "name": "_name",
          "type": "string"
        },
        {
          "internalType": "string",
          "name": "_symbol",
          "type": "string"
        },
        {
          "internalType": "uint256",
          "name": "_mergeOpenTimestamp",
          "type": "uint256"
        },
        {
          "internalType": "address",
          "name": "_renderer",
          "type": "address"
        },
        {
          "internalType": "address",
          "name": "_unmigratedBlackHoles",
          "type": "address"
        }
      ],
      "stateMutability": "nonpayable",
      "type": "constructor"
    },
    {
      "inputs": [],
      "name": "NotAllowed",
      "type": "error"
    },
    {
      "inputs": [],
      "name": "URIQueryForNonexistentToken",
      "type": "error"
    },
    {
      "anonymous": false,
      "inputs": [
        {
          "indexed": true,
          "internalType": "address",
          "name": "owner",
          "type": "address"
        },
        {
          "indexed": true,
          "internalType": "address",
          "name": "approved",
          "type": "address"
        },
        {
          "indexed": true,
          "internalType": "uint256",
          "name": "tokenId",
          "type": "uint256"
        }
      ],
      "name": "Approval",
      "type": "event"
    },
    {
      "anonymous": false,
      "inputs": [
        {
          "indexed": true,
          "internalType": "address",
          "name": "owner",
          "type": "address"
        },
        {
          "indexed": true,
          "internalType": "address",
          "name": "operator",
          "type": "address"
        },
        {
          "indexed": false,
          "internalType": "bool",
          "name": "approved",
          "type": "bool"
        }
      ],
      "name": "ApprovalForAll",
      "type": "event"
    },
    {
      "anonymous": false,
      "inputs": [
        {
          "indexed": false,
          "internalType": "uint256",
          "name": "_tokenId",
          "type": "uint256"
        }
      ],
      "name": "MetadataUpdate",
      "type": "event"
    },
    {
      "anonymous": false,
      "inputs": [
        {
          "indexed": true,
          "internalType": "address",
          "name": "previousOwner",
          "type": "address"
        },
        {
          "indexed": true,
          "internalType": "address",
          "name": "newOwner",
          "type": "address"
        }
      ],
      "name": "OwnershipTransferred",
      "type": "event"
    },
    {
      "anonymous": false,
      "inputs": [
        {
          "indexed": true,
          "internalType": "address",
          "name": "from",
          "type": "address"
        },
        {
          "indexed": true,
          "internalType": "address",
          "name": "to",
          "type": "address"
        },
        {
          "indexed": true,
          "internalType": "uint256",
          "name": "tokenId",
          "type": "uint256"
        }
      ],
      "name": "Transfer",
      "type": "event"
    },
    {
      "inputs": [
        {
          "internalType": "address",
          "name": "to",
          "type": "address"
        },
        {
          "internalType": "uint256",
          "name": "tokenId",
          "type": "uint256"
        }
      ],
      "name": "approve",
      "outputs": [],
      "stateMutability": "nonpayable",
      "type": "function"
    },
    {
      "inputs": [
        {
          "internalType": "address",
          "name": "owner",
          "type": "address"
        }
      ],
      "name": "balanceOf",
      "outputs": [
        {
          "internalType": "uint256",
          "name": "",
          "type": "uint256"
        }
      ],
      "stateMutability": "view",
      "type": "function"
    },
    {
      "inputs": [
        {
          "internalType": "uint256",
          "name": "_tokenId",
          "type": "uint256"
        }
      ],
      "name": "blackHoleForTokenId",
      "outputs": [
        {
          "components": [
            {
              "internalType": "uint256",
              "name": "tokenId",
              "type": "uint256"
            },
            {
              "internalType": "uint256",
              "name": "level",
              "type": "uint256"
            },
            {
              "internalType": "uint256",
              "name": "size",
              "type": "uint256"
            },
            {
              "internalType": "uint256",
              "name": "mass",
              "type": "uint256"
            },
            {
              "internalType": "uint256",
              "name": "adjustment",
              "type": "uint256"
            },
            {
              "internalType": "string",
              "name": "name",
              "type": "string"
            }
          ],
          "internalType": "struct BlackHole",
          "name": "",
          "type": "tuple"
        }
      ],
      "stateMutability": "view",
      "type": "function"
    },
    {
      "inputs": [
        {
          "internalType": "uint256[]",
          "name": "tokenIds",
          "type": "uint256[]"
        }
      ],
      "name": "blackHolesForTokenIds",
      "outputs": [
        {
          "components": [
            {
              "internalType": "uint256",
              "name": "tokenId",
              "type": "uint256"
            },
            {
              "internalType": "uint256",
              "name": "level",
              "type": "uint256"
            },
            {
              "internalType": "uint256",
              "name": "size",
              "type": "uint256"
            },
            {
              "internalType": "uint256",
              "name": "mass",
              "type": "uint256"
            },
            {
              "internalType": "uint256",
              "name": "adjustment",
              "type": "uint256"
            },
            {
              "internalType": "string",
              "name": "name",
              "type": "string"
            }
          ],
          "internalType": "struct BlackHole[]",
          "name": "",
          "type": "tuple[]"
        }
      ],
      "stateMutability": "view",
      "type": "function"
    },
    {
      "inputs": [
        {
          "internalType": "uint256",
          "name": "tokenId",
          "type": "uint256"
        }
      ],
      "name": "burn",
      "outputs": [],
      "stateMutability": "nonpayable",
      "type": "function"
    },
    {
      "inputs": [
        {
          "internalType": "uint256",
          "name": "_mass",
          "type": "uint256"
        }
      ],
      "name": "getAdjustmentForMass",
      "outputs": [
        {
          "internalType": "uint256",
          "name": "",
          "type": "uint256"
        }
      ],
      "stateMutability": "view",
      "type": "function"
    },
    {
      "inputs": [
        {
          "internalType": "uint256",
          "name": "tokenId",
          "type": "uint256"
        }
      ],
      "name": "getApproved",
      "outputs": [
        {
          "internalType": "address",
          "name": "",
          "type": "address"
        }
      ],
      "stateMutability": "view",
      "type": "function"
    },
    {
      "inputs": [],
      "name": "getUpgradeIntervals",
      "outputs": [
        {
          "internalType": "uint256[]",
          "name": "",
          "type": "uint256[]"
        }
      ],
      "stateMutability": "view",
      "type": "function"
    },
    {
      "inputs": [
        {
          "internalType": "address",
          "name": "owner",
          "type": "address"
        },
        {
          "internalType": "address",
          "name": "operator",
          "type": "address"
        }
      ],
      "name": "isApprovedForAll",
      "outputs": [
        {
          "internalType": "bool",
          "name": "",
          "type": "bool"
        }
      ],
      "stateMutability": "view",
      "type": "function"
    },
    {
      "inputs": [],
      "name": "isMergingEnabled",
      "outputs": [
        {
          "internalType": "bool",
          "name": "",
          "type": "bool"
        }
      ],
      "stateMutability": "view",
      "type": "function"
    },
    {
      "inputs": [
        {
          "internalType": "uint256",
          "name": "_mass",
          "type": "uint256"
        }
      ],
      "name": "levelForMass",
      "outputs": [
        {
          "internalType": "uint256",
          "name": "",
          "type": "uint256"
        }
      ],
      "stateMutability": "view",
      "type": "function"
    },
    {
      "inputs": [
        {
          "internalType": "uint256",
          "name": "_tokenId",
          "type": "uint256"
        }
      ],
      "name": "massForTokenId",
      "outputs": [
        {
          "internalType": "uint256",
          "name": "",
          "type": "uint256"
        }
      ],
      "stateMutability": "view",
      "type": "function"
    },
    {
      "inputs": [
        {
          "internalType": "uint256",
          "name": "",
          "type": "uint256"
        }
      ],
      "name": "massesConsumed",
      "outputs": [
        {
          "internalType": "uint256",
          "name": "",
          "type": "uint256"
        }
      ],
      "stateMutability": "view",
      "type": "function"
    },
    {
      "inputs": [
        {
          "internalType": "uint256[]",
          "name": "tokens",
          "type": "uint256[]"
        }
      ],
      "name": "merge",
      "outputs": [],
      "stateMutability": "nonpayable",
      "type": "function"
    },
    {
      "inputs": [],
      "name": "mergeOpenTimestamp",
      "outputs": [
        {
          "internalType": "uint256",
          "name": "",
          "type": "uint256"
        }
      ],
      "stateMutability": "view",
      "type": "function"
    },
    {
      "inputs": [
        {
          "internalType": "uint256[]",
          "name": "tokenIds",
          "type": "uint256[]"
        }
      ],
      "name": "mint",
      "outputs": [],
      "stateMutability": "nonpayable",
      "type": "function"
    },
    {
      "inputs": [],
      "name": "name",
      "outputs": [
        {
          "internalType": "string",
          "name": "",
          "type": "string"
        }
      ],
      "stateMutability": "view",
      "type": "function"
    },
    {
      "inputs": [
        {
          "internalType": "uint256",
          "name": "_level",
          "type": "uint256"
        }
      ],
      "name": "nameForBlackHoleLevel",
      "outputs": [
        {
          "internalType": "string",
          "name": "",
          "type": "string"
        }
      ],
      "stateMutability": "view",
      "type": "function"
    },
    {
      "inputs": [],
      "name": "owner",
      "outputs": [
        {
          "internalType": "address",
          "name": "",
          "type": "address"
        }
      ],
      "stateMutability": "view",
      "type": "function"
    },
    {
      "inputs": [
        {
          "internalType": "uint256",
          "name": "tokenId",
          "type": "uint256"
        }
      ],
      "name": "ownerOf",
      "outputs": [
        {
          "internalType": "address",
          "name": "",
          "type": "address"
        }
      ],
      "stateMutability": "view",
      "type": "function"
    },
    {
      "inputs": [],
      "name": "renderer",
      "outputs": [
        {
          "internalType": "contract Renderer",
          "name": "",
          "type": "address"
        }
      ],
      "stateMutability": "view",
      "type": "function"
    },
    {
      "inputs": [],
      "name": "renounceOwnership",
      "outputs": [],
      "stateMutability": "nonpayable",
      "type": "function"
    },
    {
      "inputs": [
        {
          "internalType": "address",
          "name": "from",
          "type": "address"
        },
        {
          "internalType": "address",
          "name": "to",
          "type": "address"
        },
        {
          "internalType": "uint256",
          "name": "tokenId",
          "type": "uint256"
        }
      ],
      "name": "safeTransferFrom",
      "outputs": [],
      "stateMutability": "nonpayable",
      "type": "function"
    },
    {
      "inputs": [
        {
          "internalType": "address",
          "name": "from",
          "type": "address"
        },
        {
          "internalType": "address",
          "name": "to",
          "type": "address"
        },
        {
          "internalType": "uint256",
          "name": "tokenId",
          "type": "uint256"
        },
        {
          "internalType": "bytes",
          "name": "data",
          "type": "bytes"
        }
      ],
      "name": "safeTransferFrom",
      "outputs": [],
      "stateMutability": "nonpayable",
      "type": "function"
    },
    {
      "inputs": [
        {
          "internalType": "address",
          "name": "operator",
          "type": "address"
        },
        {
          "internalType": "bool",
          "name": "approved",
          "type": "bool"
        }
      ],
      "name": "setApprovalForAll",
      "outputs": [],
      "stateMutability": "nonpayable",
      "type": "function"
    },
    {
      "inputs": [
        {
          "internalType": "uint256",
          "name": "_mergeOpenTimestamp",
          "type": "uint256"
        }
      ],
      "name": "setMergeOpenTimestamp",
      "outputs": [],
      "stateMutability": "nonpayable",
      "type": "function"
    },
    {
      "inputs": [
        {
          "internalType": "uint256[]",
          "name": "tokens",
          "type": "uint256[]"
        }
      ],
      "name": "simulateMerge",
      "outputs": [
        {
          "components": [
            {
              "internalType": "uint256",
              "name": "tokenId",
              "type": "uint256"
            },
            {
              "internalType": "uint256",
              "name": "level",
              "type": "uint256"
            },
            {
              "internalType": "uint256",
              "name": "size",
              "type": "uint256"
            },
            {
              "internalType": "uint256",
              "name": "mass",
              "type": "uint256"
            },
            {
              "internalType": "uint256",
              "name": "adjustment",
              "type": "uint256"
            },
            {
              "internalType": "string",
              "name": "name",
              "type": "string"
            }
          ],
          "internalType": "struct BlackHole",
          "name": "",
          "type": "tuple"
        },
        {
          "internalType": "string",
          "name": "",
          "type": "string"
        }
      ],
      "stateMutability": "view",
      "type": "function"
    },
    {
      "inputs": [
        {
          "internalType": "bytes4",
          "name": "interfaceId",
          "type": "bytes4"
        }
      ],
      "name": "supportsInterface",
      "outputs": [
        {
          "internalType": "bool",
          "name": "",
          "type": "bool"
        }
      ],
      "stateMutability": "view",
      "type": "function"
    },
    {
      "inputs": [],
      "name": "symbol",
      "outputs": [
        {
          "internalType": "string",
          "name": "",
          "type": "string"
        }
      ],
      "stateMutability": "view",
      "type": "function"
    },
    {
      "inputs": [
        {
          "internalType": "uint256",
          "name": "_tokenId",
          "type": "uint256"
        }
      ],
      "name": "tokenURI",
      "outputs": [
        {
          "internalType": "string",
          "name": "",
          "type": "string"
        }
      ],
      "stateMutability": "view",
      "type": "function"
    },
    {
      "inputs": [],
      "name": "totalBurned",
      "outputs": [
        {
          "internalType": "uint256",
          "name": "",
          "type": "uint256"
        }
      ],
      "stateMutability": "view",
      "type": "function"
    },
    {
      "inputs": [],
      "name": "totalMinted",
      "outputs": [
        {
          "internalType": "uint256",
          "name": "",
          "type": "uint256"
        }
      ],
      "stateMutability": "view",
      "type": "function"
    },
    {
      "inputs": [],
      "name": "totalSupply",
      "outputs": [
        {
          "internalType": "uint256",
          "name": "",
          "type": "uint256"
        }
      ],
      "stateMutability": "view",
      "type": "function"
    },
    {
      "inputs": [
        {
          "internalType": "address",
          "name": "from",
          "type": "address"
        },
        {
          "internalType": "address",
          "name": "to",
          "type": "address"
        },
        {
          "internalType": "uint256",
          "name": "tokenId",
          "type": "uint256"
        }
      ],
      "name": "transferFrom",
      "outputs": [],
      "stateMutability": "nonpayable",
      "type": "function"
    },
    {
      "inputs": [
        {
          "internalType": "address",
          "name": "newOwner",
          "type": "address"
        }
      ],
      "name": "transferOwnership",
      "outputs": [],
      "stateMutability": "nonpayable",
      "type": "function"
    },
    {
      "inputs": [],
      "name": "unmigratedBlackHoles",
      "outputs": [
        {
          "internalType": "contract BlackHoles",
          "name": "",
          "type": "address"
        }
      ],
      "stateMutability": "view",
      "type": "function"
    }
  ],
  "transactionHash": "0x078074e936853a2ddeae0addc8cde39eb749c3e4e7dcfcd79a38ef798723670d",
  "args": [
    "Test",
    "TEST",
    "1677092974",
    "0x5C318A581461B78e177d35055459c2114B07372b",
    "0x74fddc47A296BaD4030dba2aA6a1a0BF8d5da1c5"
  ],
  "numDeployments": 1,
  "solcInputHash": "5b43aedbdd2bd7830d4f35f93097f371",
  "bytecode": "0x60806040523480156200001157600080fd5b506040516200614838038062006148833981810160405281019062000037919062000414565b848481600090816200004a91906200071b565b5080600190816200005c91906200071b565b5050506200007f620000736200011360201b60201c565b6200011b60201b60201c565b8260078190555081600960006101000a81548173ffffffffffffffffffffffffffffffffffffffff021916908373ffffffffffffffffffffffffffffffffffffffff16021790555080600a60006101000a81548173ffffffffffffffffffffffffffffffffffffffff021916908373ffffffffffffffffffffffffffffffffffffffff160217905550505050505062000802565b600033905090565b6000600660009054906101000a900473ffffffffffffffffffffffffffffffffffffffff16905081600660006101000a81548173ffffffffffffffffffffffffffffffffffffffff021916908373ffffffffffffffffffffffffffffffffffffffff1602179055508173ffffffffffffffffffffffffffffffffffffffff168173ffffffffffffffffffffffffffffffffffffffff167f8be0079c531659141344cd1fd0a4f28419497f9722a3daafe3b4186f6b6457e060405160405180910390a35050565b6000604051905090565b600080fd5b600080fd5b600080fd5b600080fd5b6000601f19601f8301169050919050565b7f4e487b7100000000000000000000000000000000000000000000000000000000600052604160045260246000fd5b6200024a82620001ff565b810181811067ffffffffffffffff821117156200026c576200026b62000210565b5b80604052505050565b600062000281620001e1565b90506200028f82826200023f565b919050565b600067ffffffffffffffff821115620002b257620002b162000210565b5b620002bd82620001ff565b9050602081019050919050565b60005b83811015620002ea578082015181840152602081019050620002cd565b60008484015250505050565b60006200030d620003078462000294565b62000275565b9050828152602081018484840111156200032c576200032b620001fa565b5b62000339848285620002ca565b509392505050565b600082601f830112620003595762000358620001f5565b5b81516200036b848260208601620002f6565b91505092915050565b6000819050919050565b620003898162000374565b81146200039557600080fd5b50565b600081519050620003a9816200037e565b92915050565b600073ffffffffffffffffffffffffffffffffffffffff82169050919050565b6000620003dc82620003af565b9050919050565b620003ee81620003cf565b8114620003fa57600080fd5b50565b6000815190506200040e81620003e3565b92915050565b600080600080600060a08688031215620004335762000432620001eb565b5b600086015167ffffffffffffffff811115620004545762000453620001f0565b5b620004628882890162000341565b955050602086015167ffffffffffffffff811115620004865762000485620001f0565b5b620004948882890162000341565b9450506040620004a78882890162000398565b9350506060620004ba88828901620003fd565b9250506080620004cd88828901620003fd565b9150509295509295909350565b600081519050919050565b7f4e487b7100000000000000000000000000000000000000000000000000000000600052602260045260246000fd5b600060028204905060018216806200052d57607f821691505b602082108103620005435762000542620004e5565b5b50919050565b60008190508160005260206000209050919050565b60006020601f8301049050919050565b600082821b905092915050565b600060088302620005ad7fffffffffffffffffffffffffffffffffffffffffffffffffffffffffffffffff826200056e565b620005b986836200056e565b95508019841693508086168417925050509392505050565b6000819050919050565b6000620005fc620005f6620005f08462000374565b620005d1565b62000374565b9050919050565b6000819050919050565b6200061883620005db565b62000630620006278262000603565b8484546200057b565b825550505050565b600090565b6200064762000638565b620006548184846200060d565b505050565b5b818110156200067c57620006706000826200063d565b6001810190506200065a565b5050565b601f821115620006cb57620006958162000549565b620006a0846200055e565b81016020851015620006b0578190505b620006c8620006bf856200055e565b83018262000659565b50505b505050565b600082821c905092915050565b6000620006f060001984600802620006d0565b1980831691505092915050565b60006200070b8383620006dd565b9150826002028217905092915050565b6200072682620004da565b67ffffffffffffffff81111562000742576200074162000210565b5b6200074e825462000514565b6200075b82828562000680565b600060209050601f8311600181146200079357600084156200077e578287015190505b6200078a8582620006fd565b865550620007fa565b601f198416620007a38662000549565b60005b82811015620007cd57848901518255600182019150602085019450602081019050620007a6565b86831015620007ed5784890151620007e9601f891682620006dd565b8355505b6001600288020188555050505b505050505050565b61593680620008126000396000f3fe608060405234801561001057600080fd5b506004361061021c5760003560e01c80638b3578c611610125578063ca714e5b116100ad578063de62d8421161007c578063de62d8421461068c578063e985e9c5146106a8578063f224d8ad146106d8578063f2fde38b146106f6578063f8e93ef9146107125761021c565b8063ca714e5b146105f0578063cbad784914610620578063cd3fdaab14610650578063d89135cd1461066e5761021c565b8063a2309ff8116100f4578063a2309ff814610525578063b4449b2614610543578063b4648b0c14610573578063b88d4fde146105a4578063c87b56dd146105c05761021c565b80638b3578c6146104af5780638da5cb5b146104cd57806395d89b41146104eb578063a22cb465146105095761021c565b806342966c68116101a857806370a082311161017757806370a08231146103f7578063715018a6146104275780637752e3681461043157806389327f28146104615780638ada6b0f146104915761021c565b806342966c681461035d578063444269bd146103795780635e23a763146103975780636352211e146103c75761021c565b80630b56c029116101ef5780630b56c029146102bb57806318160ddd146102d757806318f58b73146102f557806323b872dd1461032557806342842e0e146103415761021c565b806301ffc9a71461022157806306fdde0314610251578063081812fc1461026f578063095ea7b31461029f575b600080fd5b61023b600480360381019061023691906135d9565b61072e565b6040516102489190613621565b60405180910390f35b610259610810565b60405161026691906136cc565b60405180910390f35b61028960048036038101906102849190613724565b6108a2565b6040516102969190613792565b60405180910390f35b6102b960048036038101906102b491906137d9565b6108e8565b005b6102d560048036038101906102d09190613724565b6109ff565b005b6102df610a11565b6040516102ec9190613828565b60405180910390f35b61030f600480360381019061030a919061398b565b610a28565b60405161031c9190613b78565b60405180910390f35b61033f600480360381019061033a9190613b9a565b610aed565b005b61035b60048036038101906103569190613b9a565b610b4d565b005b61037760048036038101906103729190613724565b610b6d565b005b610381610bef565b60405161038e9190613c9c565b60405180910390f35b6103b160048036038101906103ac9190613724565b610f8d565b6040516103be9190613828565b60405180910390f35b6103e160048036038101906103dc9190613724565b610fb6565b6040516103ee9190613792565b60405180910390f35b610411600480360381019061040c9190613cbe565b61103c565b60405161041e9190613828565b60405180910390f35b61042f6110f3565b005b61044b60048036038101906104469190613724565b611107565b6040516104589190613828565b60405180910390f35b61047b60048036038101906104769190613724565b61111f565b6040516104889190613828565b60405180910390f35b610499611311565b6040516104a69190613d4a565b60405180910390f35b6104b7611337565b6040516104c49190613621565b60405180910390f35b6104d5611343565b6040516104e29190613792565b60405180910390f35b6104f361136d565b60405161050091906136cc565b60405180910390f35b610523600480360381019061051e9190613d91565b6113ff565b005b61052d611415565b60405161053a9190613828565b60405180910390f35b61055d60048036038101906105589190613724565b61141f565b60405161056a91906136cc565b60405180910390f35b61058d6004803603810190610588919061398b565b6114c9565b60405161059b929190613e5a565b60405180910390f35b6105be60048036038101906105b99190613f46565b611715565b005b6105da60048036038101906105d59190613724565b611777565b6040516105e791906136cc565b60405180910390f35b61060a60048036038101906106059190613724565b61195e565b6040516106179190613fc9565b60405180910390f35b61063a60048036038101906106359190613724565b611a85565b6040516106479190613828565b60405180910390f35b610658611b51565b6040516106659190613828565b60405180910390f35b610676611b57565b6040516106839190613828565b60405180910390f35b6106a660048036038101906106a1919061398b565b611b61565b005b6106c260048036038101906106bd9190613feb565b611e03565b6040516106cf9190613621565b60405180910390f35b6106e0611e97565b6040516106ed919061404c565b60405180910390f35b610710600480360381019061070b9190613cbe565b611ebd565b005b61072c600480360381019061072791906140c2565b611f40565b005b60007f80ac58cd000000000000000000000000000000000000000000000000000000007bffffffffffffffffffffffffffffffffffffffffffffffffffffffff1916827bffffffffffffffffffffffffffffffffffffffffffffffffffffffff191614806107f957507f5b5e139f000000000000000000000000000000000000000000000000000000007bffffffffffffffffffffffffffffffffffffffffffffffffffffffff1916827bffffffffffffffffffffffffffffffffffffffffffffffffffffffff1916145b806108095750610808826122b7565b5b9050919050565b60606000805461081f9061413e565b80601f016020809104026020016040519081016040528092919081815260200182805461084b9061413e565b80156108985780601f1061086d57610100808354040283529160200191610898565b820191906000526020600020905b81548152906001019060200180831161087b57829003601f168201915b5050505050905090565b60006108ad82612321565b6004600083815260200190815260200160002060009054906101000a900473ffffffffffffffffffffffffffffffffffffffff169050919050565b60006108f382610fb6565b90508073ffffffffffffffffffffffffffffffffffffffff168373ffffffffffffffffffffffffffffffffffffffff1603610963576040517f08c379a000000000000000000000000000000000000000000000000000000000815260040161095a906141e1565b60405180910390fd5b8073ffffffffffffffffffffffffffffffffffffffff1661098261236c565b73ffffffffffffffffffffffffffffffffffffffff1614806109b157506109b0816109ab61236c565b611e03565b5b6109f0576040517f08c379a00000000000000000000000000000000000000000000000000000000081526004016109e790614273565b60405180910390fd5b6109fa8383612374565b505050565b610a0761242d565b8060078190555050565b6000600c54600b54610a2391906142c2565b905090565b60606000825167ffffffffffffffff811115610a4757610a46613848565b5b604051908082528060200260200182016040528015610a8057816020015b610a6d613537565b815260200190600190039081610a655790505b50905060005b8351811015610ae357610ab2848281518110610aa557610aa46142f6565b5b602002602001015161195e565b828281518110610ac557610ac46142f6565b5b60200260200101819052508080610adb90614325565b915050610a86565b5080915050919050565b610afe610af861236c565b826124ab565b610b3d576040517f08c379a0000000000000000000000000000000000000000000000000000000008152600401610b34906143df565b60405180910390fd5b610b48838383612540565b505050565b610b6883838360405180602001604052806000815250611715565b505050565b3373ffffffffffffffffffffffffffffffffffffffff16610b8d82610fb6565b73ffffffffffffffffffffffffffffffffffffffff1614610be3576040517f08c379a0000000000000000000000000000000000000000000000000000000008152600401610bda9061444b565b60405180910390fd5b610bec81612839565b50565b60606000610ddc6001600a60009054906101000a900473ffffffffffffffffffffffffffffffffffffffff1673ffffffffffffffffffffffffffffffffffffffff1663a49062d46040518163ffffffff1660e01b8152600401602060405180830381865afa158015610c65573d6000803e3d6000fd5b505050506040513d601f19601f82011682018060405250810190610c899190614480565b610c9391906142c2565b6002610c9f91906145e0565b600a60009054906101000a900473ffffffffffffffffffffffffffffffffffffffff1673ffffffffffffffffffffffffffffffffffffffff16635056af056040518163ffffffff1660e01b8152600401602060405180830381865afa158015610d0c573d6000803e3d6000fd5b505050506040513d601f19601f82011682018060405250810190610d309190614480565b600a60009054906101000a900473ffffffffffffffffffffffffffffffffffffffff1673ffffffffffffffffffffffffffffffffffffffff1663a2309ff86040518163ffffffff1660e01b8152600401602060405180830381865afa158015610d9d573d6000803e3d6000fd5b505050506040513d601f19601f82011682018060405250810190610dc19190614480565b610dcb919061465a565b610dd5919061465a565b6002612987565b905060006001600a60009054906101000a900473ffffffffffffffffffffffffffffffffffffffff1673ffffffffffffffffffffffffffffffffffffffff1663a49062d46040518163ffffffff1660e01b8152600401602060405180830381865afa158015610e4f573d6000803e3d6000fd5b505050506040513d601f19601f82011682018060405250810190610e739190614480565b610e7d919061468b565b67ffffffffffffffff811115610e9657610e95613848565b5b604051908082528060200260200182016040528015610ec45781602001602082028036833780820191505090505b509050610ede600283610ed7919061465a565b6002612987565b81600081518110610ef257610ef16142f6565b5b602002602001018181525050600282610f0b91906146bf565b81600181518110610f1f57610f1e6142f6565b5b602002602001018181525050600482610f3891906146bf565b81600281518110610f4c57610f4b6142f6565b5b602002602001018181525050600882610f6591906146bf565b81600381518110610f7957610f786142f6565b5b602002602001018181525050809250505090565b600060016008600084815260200190815260200160002054610faf919061468b565b9050919050565b600080610fc2836129a0565b9050600073ffffffffffffffffffffffffffffffffffffffff168173ffffffffffffffffffffffffffffffffffffffff1603611033576040517f08c379a000000000000000000000000000000000000000000000000000000000815260040161102a90614765565b60405180910390fd5b80915050919050565b60008073ffffffffffffffffffffffffffffffffffffffff168273ffffffffffffffffffffffffffffffffffffffff16036110ac576040517f08c379a00000000000000000000000000000000000000000000000000000000081526004016110a3906147f7565b60405180910390fd5b600360008373ffffffffffffffffffffffffffffffffffffffff1673ffffffffffffffffffffffffffffffffffffffff168152602001908152602001600020549050919050565b6110fb61242d565b61110560006129dd565b565b60086020528060005260406000206000915090505481565b60008061112b83611a85565b9050600a60009054906101000a900473ffffffffffffffffffffffffffffffffffffffff1673ffffffffffffffffffffffffffffffffffffffff1663a49062d46040518163ffffffff1660e01b8152600401602060405180830381865afa15801561119a573d6000803e3d6000fd5b505050506040513d601f19601f820116820180604052508101906111be9190614480565b81036111ce57600091505061130c565b6000601490506000806111df610bef565b90506000840361124e5782600282600081518110611200576111ff6142f6565b5b602002602001015161121291906142c2565b60018861121f91906142c2565b8561122990614821565b6112339190614869565b61123d9190614980565b61124791906149ea565b9150611304565b8260018260018761125f91906142c2565b815181106112705761126f6142f6565b5b602002602001015183878151811061128b5761128a6142f6565b5b602002602001015161129d91906142c2565b6112a791906142c2565b826001876112b591906142c2565b815181106112c6576112c56142f6565b5b6020026020010151886112d991906142c2565b856112e390614821565b6112ed9190614869565b6112f79190614980565b61130191906149ea565b91505b819450505050505b919050565b600960009054906101000a900473ffffffffffffffffffffffffffffffffffffffff1681565b60006007544211905090565b6000600660009054906101000a900473ffffffffffffffffffffffffffffffffffffffff16905090565b60606001805461137c9061413e565b80601f01602080910402602001604051908101604052809291908181526020018280546113a89061413e565b80156113f55780601f106113ca576101008083540402835291602001916113f5565b820191906000526020600020905b8154815290600101906020018083116113d857829003601f168201915b5050505050905090565b61141161140a61236c565b8383612aa3565b5050565b6000600b54905090565b6060600a60009054906101000a900473ffffffffffffffffffffffffffffffffffffffff1673ffffffffffffffffffffffffffffffffffffffff1663b4449b26836040518263ffffffff1660e01b815260040161147c9190613828565b600060405180830381865afa158015611499573d6000803e3d6000fd5b505050506040513d6000823e3d601f19601f820116820180604052508101906114c29190614acf565b9050919050565b6114d1613537565b60606000836000815181106114e9576114e86142f6565b5b60200260200101519050600080600190505b855181101561153f5761152786828151811061151a576115196142f6565b5b6020026020010151610f8d565b82611532919061468b565b91508060010190506114fb565b5060008161154c84610f8d565b611556919061468b565b9050600061156382611a85565b905060006115708261141f565b9050600061157d8461111f565b905060006040518060c0016040528088815260200185815260200185600a6115a591906142c2565b6002600960009054906101000a900473ffffffffffffffffffffffffffffffffffffffff1673ffffffffffffffffffffffffffffffffffffffff1663030ac5256040518163ffffffff1660e01b8152600401602060405180830381865afa158015611614573d6000803e3d6000fd5b505050506040513d601f19601f820116820180604052508101906116389190614480565b611642919061465a565b61164c91906142c2565b815260200186815260200183815260200184815250905080600960009054906101000a900473ffffffffffffffffffffffffffffffffffffffff1673ffffffffffffffffffffffffffffffffffffffff1663cfeb9a02836040518263ffffffff1660e01b81526004016116bf9190613fc9565b600060405180830381865afa1580156116dc573d6000803e3d6000fd5b505050506040513d6000823e3d601f19601f820116820180604052508101906117059190614acf565b9850985050505050505050915091565b61172661172061236c565b836124ab565b611765576040517f08c379a000000000000000000000000000000000000000000000000000000000815260040161175c906143df565b60405180910390fd5b61177184848484612c0f565b50505050565b606061178282612c6b565b6117b8576040517fa14c4b5000000000000000000000000000000000000000000000000000000000815260040160405180910390fd5b60006117c383612cac565b6040516020016117d39190614ba0565b604051602081830303815290604052905060006040518060600160405280603d8152602001615884603d91399050600061180c8561195e565b90506000600960009054906101000a900473ffffffffffffffffffffffffffffffffffffffff1673ffffffffffffffffffffffffffffffffffffffff1663cfeb9a02836040518263ffffffff1660e01b815260040161186b9190613fc9565b600060405180830381865afa158015611888573d6000803e3d6000fd5b505050506040513d6000823e3d601f19601f820116820180604052508101906118b19190614acf565b905060006118c28360200151612cac565b8360a001516118d48560600151612cac565b6040516020016118e693929190614d64565b6040516020818303038152906040529050600085858361190586612e34565b6040516020016119189493929190614fe4565b604051602081830303815290604052905061193281612e34565b60405160200161194291906150b0565b6040516020818303038152906040529650505050505050919050565b611966613537565b600061197183610f8d565b9050600061197e82611a85565b9050600061198b8261141f565b905060006119988461111f565b90506040518060c0016040528087815260200184815260200184600a6119be91906142c2565b6002600960009054906101000a900473ffffffffffffffffffffffffffffffffffffffff1673ffffffffffffffffffffffffffffffffffffffff1663030ac5256040518163ffffffff1660e01b8152600401602060405180830381865afa158015611a2d573d6000803e3d6000fd5b505050506040513d601f19601f82011682018060405250810190611a519190614480565b611a5b919061465a565b611a6591906142c2565b815260200185815260200182815260200183815250945050505050919050565b600080611a90610bef565b905080600081518110611aa657611aa56142f6565b5b6020026020010151831015611abf576000915050611b4c565b80600181518110611ad357611ad26142f6565b5b6020026020010151831015611aec576001915050611b4c565b80600281518110611b0057611aff6142f6565b5b6020026020010151831015611b19576002915050611b4c565b80600381518110611b2d57611b2c6142f6565b5b6020026020010151831015611b46576003915050611b4c565b60049150505b919050565b60075481565b6000600c54905090565b611b69611337565b611ba8576040517f08c379a0000000000000000000000000000000000000000000000000000000008152600401611b9f9061511e565b60405180910390fd5b6001815111611bec576040517f08c379a0000000000000000000000000000000000000000000000000000000008152600401611be39061518a565b60405180910390fd5b600081600081518110611c0257611c016142f6565b5b602002602001015190503373ffffffffffffffffffffffffffffffffffffffff16611c4783600081518110611c3a57611c396142f6565b5b6020026020010151610fb6565b73ffffffffffffffffffffffffffffffffffffffff1614611c9d576040517f08c379a0000000000000000000000000000000000000000000000000000000008152600401611c94906151f6565b60405180910390fd5b600080600190505b8351811015611d9c573373ffffffffffffffffffffffffffffffffffffffff16611ce8858381518110611cdb57611cda6142f6565b5b6020026020010151610fb6565b73ffffffffffffffffffffffffffffffffffffffff1614611d3e576040517f08c379a0000000000000000000000000000000000000000000000000000000008152600401611d3590615262565b60405180910390fd5b611d61848281518110611d5457611d536142f6565b5b6020026020010151610f8d565b82611d6c919061468b565b9150611d91848281518110611d8457611d836142f6565b5b6020026020010151612839565b806001019050611ca5565b5080600860008481526020019081526020016000206000828254611dc0919061468b565b925050819055507ff8e1a15aba9398e019f0b49df1a4fde98ee17ae345cb5f6b5e2c27f5033e8ce782604051611df69190613828565b60405180910390a1505050565b6000600560008473ffffffffffffffffffffffffffffffffffffffff1673ffffffffffffffffffffffffffffffffffffffff16815260200190815260200160002060008373ffffffffffffffffffffffffffffffffffffffff1673ffffffffffffffffffffffffffffffffffffffff16815260200190815260200160002060009054906101000a900460ff16905092915050565b600a60009054906101000a900473ffffffffffffffffffffffffffffffffffffffff1681565b611ec561242d565b600073ffffffffffffffffffffffffffffffffffffffff168173ffffffffffffffffffffffffffffffffffffffff1603611f34576040517f08c379a0000000000000000000000000000000000000000000000000000000008152600401611f2b906152f4565b60405180910390fd5b611f3d816129dd565b50565b600082829050905060005b8181101561229b576000848483818110611f6857611f676142f6565b5b9050602002013590506000600a60009054906101000a900473ffffffffffffffffffffffffffffffffffffffff1673ffffffffffffffffffffffffffffffffffffffff16636352211e836040518263ffffffff1660e01b8152600401611fce9190613828565b602060405180830381865afa158015611feb573d6000803e3d6000fd5b505050506040513d601f19601f8201168201806040525081019061200f9190615329565b90503373ffffffffffffffffffffffffffffffffffffffff168173ffffffffffffffffffffffffffffffffffffffff16141580156120e85750600a60009054906101000a900473ffffffffffffffffffffffffffffffffffffffff1673ffffffffffffffffffffffffffffffffffffffff1663e985e9c582336040518363ffffffff1660e01b81526004016120a5929190615356565b602060405180830381865afa1580156120c2573d6000803e3d6000fd5b505050506040513d601f19601f820116820180604052508101906120e69190615394565b155b80156121bb57503373ffffffffffffffffffffffffffffffffffffffff16600a60009054906101000a900473ffffffffffffffffffffffffffffffffffffffff1673ffffffffffffffffffffffffffffffffffffffff1663081812fc846040518263ffffffff1660e01b81526004016121619190613828565b602060405180830381865afa15801561217e573d6000803e3d6000fd5b505050506040513d601f19601f820116820180604052508101906121a29190615329565b73ffffffffffffffffffffffffffffffffffffffff1614155b156121f2576040517f3d693ada00000000000000000000000000000000000000000000000000000000815260040160405180910390fd5b600a60009054906101000a900473ffffffffffffffffffffffffffffffffffffffff1673ffffffffffffffffffffffffffffffffffffffff166323b872dd826001856040518463ffffffff1660e01b8152600401612252939291906153c1565b600060405180830381600087803b15801561226c57600080fd5b505af1158015612280573d6000803e3d6000fd5b5050505061228e3383612fcb565b8260010192505050611f4b565b508063ffffffff16600b60008282540192505081905550505050565b60007f01ffc9a7000000000000000000000000000000000000000000000000000000007bffffffffffffffffffffffffffffffffffffffffffffffffffffffff1916827bffffffffffffffffffffffffffffffffffffffffffffffffffffffff1916149050919050565b61232a81612c6b565b612369576040517f08c379a000000000000000000000000000000000000000000000000000000000815260040161236090614765565b60405180910390fd5b50565b600033905090565b816004600083815260200190815260200160002060006101000a81548173ffffffffffffffffffffffffffffffffffffffff021916908373ffffffffffffffffffffffffffffffffffffffff160217905550808273ffffffffffffffffffffffffffffffffffffffff166123e783610fb6565b73ffffffffffffffffffffffffffffffffffffffff167f8c5be1e5ebec7d5bd14f71427d1e84f3dd0314c0f7b2291e5b200ac8c7c3b92560405160405180910390a45050565b61243561236c565b73ffffffffffffffffffffffffffffffffffffffff16612453611343565b73ffffffffffffffffffffffffffffffffffffffff16146124a9576040517f08c379a00000000000000000000000000000000000000000000000000000000081526004016124a090615444565b60405180910390fd5b565b6000806124b783610fb6565b90508073ffffffffffffffffffffffffffffffffffffffff168473ffffffffffffffffffffffffffffffffffffffff1614806124f957506124f88185611e03565b5b8061253757508373ffffffffffffffffffffffffffffffffffffffff1661251f846108a2565b73ffffffffffffffffffffffffffffffffffffffff16145b91505092915050565b8273ffffffffffffffffffffffffffffffffffffffff1661256082610fb6565b73ffffffffffffffffffffffffffffffffffffffff16146125b6576040517f08c379a00000000000000000000000000000000000000000000000000000000081526004016125ad906154d6565b60405180910390fd5b600073ffffffffffffffffffffffffffffffffffffffff168273ffffffffffffffffffffffffffffffffffffffff1603612625576040517f08c379a000000000000000000000000000000000000000000000000000000000815260040161261c90615568565b60405180910390fd5b6126328383836001612fe9565b8273ffffffffffffffffffffffffffffffffffffffff1661265282610fb6565b73ffffffffffffffffffffffffffffffffffffffff16146126a8576040517f08c379a000000000000000000000000000000000000000000000000000000000815260040161269f906154d6565b60405180910390fd5b6004600082815260200190815260200160002060006101000a81549073ffffffffffffffffffffffffffffffffffffffff02191690556001600360008573ffffffffffffffffffffffffffffffffffffffff1673ffffffffffffffffffffffffffffffffffffffff168152602001908152602001600020600082825403925050819055506001600360008473ffffffffffffffffffffffffffffffffffffffff1673ffffffffffffffffffffffffffffffffffffffff16815260200190815260200160002060008282540192505081905550816002600083815260200190815260200160002060006101000a81548173ffffffffffffffffffffffffffffffffffffffff021916908373ffffffffffffffffffffffffffffffffffffffff160217905550808273ffffffffffffffffffffffffffffffffffffffff168473ffffffffffffffffffffffffffffffffffffffff167fddf252ad1be2c89b69c2b068fc378daa952ba7f163c4a11628f55a4df523b3ef60405160405180910390a4612834838383600161310f565b505050565b600061284482610fb6565b9050612854816000846001612fe9565b61285d82610fb6565b90506004600083815260200190815260200160002060006101000a81549073ffffffffffffffffffffffffffffffffffffffff02191690556001600360008373ffffffffffffffffffffffffffffffffffffffff1673ffffffffffffffffffffffffffffffffffffffff168152602001908152602001600020600082825403925050819055506002600083815260200190815260200160002060006101000a81549073ffffffffffffffffffffffffffffffffffffffff021916905581600073ffffffffffffffffffffffffffffffffffffffff168273ffffffffffffffffffffffffffffffffffffffff167fddf252ad1be2c89b69c2b068fc378daa952ba7f163c4a11628f55a4df523b3ef60405160405180910390a461298381600084600161310f565b5050565b60008183116129965781612998565b825b905092915050565b60006002600083815260200190815260200160002060009054906101000a900473ffffffffffffffffffffffffffffffffffffffff169050919050565b6000600660009054906101000a900473ffffffffffffffffffffffffffffffffffffffff16905081600660006101000a81548173ffffffffffffffffffffffffffffffffffffffff021916908373ffffffffffffffffffffffffffffffffffffffff1602179055508173ffffffffffffffffffffffffffffffffffffffff168173ffffffffffffffffffffffffffffffffffffffff167f8be0079c531659141344cd1fd0a4f28419497f9722a3daafe3b4186f6b6457e060405160405180910390a35050565b8173ffffffffffffffffffffffffffffffffffffffff168373ffffffffffffffffffffffffffffffffffffffff1603612b11576040517f08c379a0000000000000000000000000000000000000000000000000000000008152600401612b08906155d4565b60405180910390fd5b80600560008573ffffffffffffffffffffffffffffffffffffffff1673ffffffffffffffffffffffffffffffffffffffff16815260200190815260200160002060008473ffffffffffffffffffffffffffffffffffffffff1673ffffffffffffffffffffffffffffffffffffffff16815260200190815260200160002060006101000a81548160ff0219169083151502179055508173ffffffffffffffffffffffffffffffffffffffff168373ffffffffffffffffffffffffffffffffffffffff167f17307eab39ab6107e8899845ad3d59bd9653f200f220920489ca2b5937696c3183604051612c029190613621565b60405180910390a3505050565b612c1a848484612540565b612c2684848484613115565b612c65576040517f08c379a0000000000000000000000000000000000000000000000000000000008152600401612c5c90615666565b60405180910390fd5b50505050565b60008073ffffffffffffffffffffffffffffffffffffffff16612c8d836129a0565b73ffffffffffffffffffffffffffffffffffffffff1614159050919050565b606060008203612cf3576040518060400160405280600181526020017f30000000000000000000000000000000000000000000000000000000000000008152509050612e2f565b600082905060005b60008214612d25578080612d0e90614325565b915050600a82612d1e919061465a565b9150612cfb565b60008167ffffffffffffffff811115612d4157612d40613848565b5b6040519080825280601f01601f191660200182016040528015612d735781602001600182028036833780820191505090505b50905060008290505b60008614612e2757600181612d9191906142c2565b90506000600a8088612da3919061465a565b612dad91906146bf565b87612db891906142c2565b6030612dc49190615693565b905060008160f81b905080848481518110612de257612de16142f6565b5b60200101907effffffffffffffffffffffffffffffffffffffffffffffffffffffffffffff1916908160001a905350600a88612e1e919061465a565b97505050612d7c565b819450505050505b919050565b606060008251905060008103612e5c5760405180602001604052806000815250915050612fc6565b60006003600283612e6d919061468b565b612e77919061465a565b6004612e8391906146bf565b90506000602082612e94919061468b565b67ffffffffffffffff811115612ead57612eac613848565b5b6040519080825280601f01601f191660200182016040528015612edf5781602001600182028036833780820191505090505b50905060006040518060600160405280604081526020016158c1604091399050600181016020830160005b86811015612f835760038101905062ffffff818a015116603f8160121c168401518060081b905060ff603f83600c1c1686015116810190508060081b905060ff603f8360061c1686015116810190508060081b905060ff603f831686015116810190508060e01b90508084526004840193505050612f0a565b506003860660018114612f9d5760028114612fad57612fb8565b613d3d60f01b6002830352612fb8565b603d60f81b60018303525b508484525050819450505050505b919050565b612fe582826040518060200160405280600081525061329c565b5050565b600181111561310957600073ffffffffffffffffffffffffffffffffffffffff168473ffffffffffffffffffffffffffffffffffffffff161461307d5780600360008673ffffffffffffffffffffffffffffffffffffffff1673ffffffffffffffffffffffffffffffffffffffff168152602001908152602001600020600082825461307591906142c2565b925050819055505b600073ffffffffffffffffffffffffffffffffffffffff168373ffffffffffffffffffffffffffffffffffffffff16146131085780600360008573ffffffffffffffffffffffffffffffffffffffff1673ffffffffffffffffffffffffffffffffffffffff1681526020019081526020016000206000828254613100919061468b565b925050819055505b5b50505050565b50505050565b60006131368473ffffffffffffffffffffffffffffffffffffffff166132f7565b1561328f578373ffffffffffffffffffffffffffffffffffffffff1663150b7a0261315f61236c565b8786866040518563ffffffff1660e01b8152600401613181949392919061571d565b6020604051808303816000875af19250505080156131bd57506040513d601f19601f820116820180604052508101906131ba919061577e565b60015b61323f573d80600081146131ed576040519150601f19603f3d011682016040523d82523d6000602084013e6131f2565b606091505b506000815103613237576040517f08c379a000000000000000000000000000000000000000000000000000000000815260040161322e90615666565b60405180910390fd5b805181602001fd5b63150b7a0260e01b7bffffffffffffffffffffffffffffffffffffffffffffffffffffffff1916817bffffffffffffffffffffffffffffffffffffffffffffffffffffffff191614915050613294565b600190505b949350505050565b6132a6838361331a565b6132b36000848484613115565b6132f2576040517f08c379a00000000000000000000000000000000000000000000000000000000081526004016132e990615666565b60405180910390fd5b505050565b6000808273ffffffffffffffffffffffffffffffffffffffff163b119050919050565b600073ffffffffffffffffffffffffffffffffffffffff168273ffffffffffffffffffffffffffffffffffffffff1603613389576040517f08c379a0000000000000000000000000000000000000000000000000000000008152600401613380906157f7565b60405180910390fd5b61339281612c6b565b156133d2576040517f08c379a00000000000000000000000000000000000000000000000000000000081526004016133c990615863565b60405180910390fd5b6133e0600083836001612fe9565b6133e981612c6b565b15613429576040517f08c379a000000000000000000000000000000000000000000000000000000000815260040161342090615863565b60405180910390fd5b6001600360008473ffffffffffffffffffffffffffffffffffffffff1673ffffffffffffffffffffffffffffffffffffffff16815260200190815260200160002060008282540192505081905550816002600083815260200190815260200160002060006101000a81548173ffffffffffffffffffffffffffffffffffffffff021916908373ffffffffffffffffffffffffffffffffffffffff160217905550808273ffffffffffffffffffffffffffffffffffffffff16600073ffffffffffffffffffffffffffffffffffffffff167fddf252ad1be2c89b69c2b068fc378daa952ba7f163c4a11628f55a4df523b3ef60405160405180910390a461353360008383600161310f565b5050565b6040518060c001604052806000815260200160008152602001600081526020016000815260200160008152602001606081525090565b6000604051905090565b600080fd5b600080fd5b60007fffffffff0000000000000000000000000000000000000000000000000000000082169050919050565b6135b681613581565b81146135c157600080fd5b50565b6000813590506135d3816135ad565b92915050565b6000602082840312156135ef576135ee613577565b5b60006135fd848285016135c4565b91505092915050565b60008115159050919050565b61361b81613606565b82525050565b60006020820190506136366000830184613612565b92915050565b600081519050919050565b600082825260208201905092915050565b60005b8381101561367657808201518184015260208101905061365b565b60008484015250505050565b6000601f19601f8301169050919050565b600061369e8261363c565b6136a88185613647565b93506136b8818560208601613658565b6136c181613682565b840191505092915050565b600060208201905081810360008301526136e68184613693565b905092915050565b6000819050919050565b613701816136ee565b811461370c57600080fd5b50565b60008135905061371e816136f8565b92915050565b60006020828403121561373a57613739613577565b5b60006137488482850161370f565b91505092915050565b600073ffffffffffffffffffffffffffffffffffffffff82169050919050565b600061377c82613751565b9050919050565b61378c81613771565b82525050565b60006020820190506137a76000830184613783565b92915050565b6137b681613771565b81146137c157600080fd5b50565b6000813590506137d3816137ad565b92915050565b600080604083850312156137f0576137ef613577565b5b60006137fe858286016137c4565b925050602061380f8582860161370f565b9150509250929050565b613822816136ee565b82525050565b600060208201905061383d6000830184613819565b92915050565b600080fd5b7f4e487b7100000000000000000000000000000000000000000000000000000000600052604160045260246000fd5b61388082613682565b810181811067ffffffffffffffff8211171561389f5761389e613848565b5b80604052505050565b60006138b261356d565b90506138be8282613877565b919050565b600067ffffffffffffffff8211156138de576138dd613848565b5b602082029050602081019050919050565b600080fd5b6000613907613902846138c3565b6138a8565b9050808382526020820190506020840283018581111561392a576139296138ef565b5b835b81811015613953578061393f888261370f565b84526020840193505060208101905061392c565b5050509392505050565b600082601f83011261397257613971613843565b5b81356139828482602086016138f4565b91505092915050565b6000602082840312156139a1576139a0613577565b5b600082013567ffffffffffffffff8111156139bf576139be61357c565b5b6139cb8482850161395d565b91505092915050565b600081519050919050565b600082825260208201905092915050565b6000819050602082019050919050565b613a09816136ee565b82525050565b600082825260208201905092915050565b6000613a2b8261363c565b613a358185613a0f565b9350613a45818560208601613658565b613a4e81613682565b840191505092915050565b600060c083016000830151613a716000860182613a00565b506020830151613a846020860182613a00565b506040830151613a976040860182613a00565b506060830151613aaa6060860182613a00565b506080830151613abd6080860182613a00565b5060a083015184820360a0860152613ad58282613a20565b9150508091505092915050565b6000613aee8383613a59565b905092915050565b6000602082019050919050565b6000613b0e826139d4565b613b1881856139df565b935083602082028501613b2a856139f0565b8060005b85811015613b665784840389528151613b478582613ae2565b9450613b5283613af6565b925060208a01995050600181019050613b2e565b50829750879550505050505092915050565b60006020820190508181036000830152613b928184613b03565b905092915050565b600080600060608486031215613bb357613bb2613577565b5b6000613bc1868287016137c4565b9350506020613bd2868287016137c4565b9250506040613be38682870161370f565b9150509250925092565b600081519050919050565b600082825260208201905092915050565b6000819050602082019050919050565b6000613c258383613a00565b60208301905092915050565b6000602082019050919050565b6000613c4982613bed565b613c538185613bf8565b9350613c5e83613c09565b8060005b83811015613c8f578151613c768882613c19565b9750613c8183613c31565b925050600181019050613c62565b5085935050505092915050565b60006020820190508181036000830152613cb68184613c3e565b905092915050565b600060208284031215613cd457613cd3613577565b5b6000613ce2848285016137c4565b91505092915050565b6000819050919050565b6000613d10613d0b613d0684613751565b613ceb565b613751565b9050919050565b6000613d2282613cf5565b9050919050565b6000613d3482613d17565b9050919050565b613d4481613d29565b82525050565b6000602082019050613d5f6000830184613d3b565b92915050565b613d6e81613606565b8114613d7957600080fd5b50565b600081359050613d8b81613d65565b92915050565b60008060408385031215613da857613da7613577565b5b6000613db6858286016137c4565b9250506020613dc785828601613d7c565b9150509250929050565b600060c083016000830151613de96000860182613a00565b506020830151613dfc6020860182613a00565b506040830151613e0f6040860182613a00565b506060830151613e226060860182613a00565b506080830151613e356080860182613a00565b5060a083015184820360a0860152613e4d8282613a20565b9150508091505092915050565b60006040820190508181036000830152613e748185613dd1565b90508181036020830152613e888184613693565b90509392505050565b600080fd5b600067ffffffffffffffff821115613eb157613eb0613848565b5b613eba82613682565b9050602081019050919050565b82818337600083830152505050565b6000613ee9613ee484613e96565b6138a8565b905082815260208101848484011115613f0557613f04613e91565b5b613f10848285613ec7565b509392505050565b600082601f830112613f2d57613f2c613843565b5b8135613f3d848260208601613ed6565b91505092915050565b60008060008060808587031215613f6057613f5f613577565b5b6000613f6e878288016137c4565b9450506020613f7f878288016137c4565b9350506040613f908782880161370f565b925050606085013567ffffffffffffffff811115613fb157613fb061357c565b5b613fbd87828801613f18565b91505092959194509250565b60006020820190508181036000830152613fe38184613dd1565b905092915050565b6000806040838503121561400257614001613577565b5b6000614010858286016137c4565b9250506020614021858286016137c4565b9150509250929050565b600061403682613d17565b9050919050565b6140468161402b565b82525050565b6000602082019050614061600083018461403d565b92915050565b600080fd5b60008083601f84011261408257614081613843565b5b8235905067ffffffffffffffff81111561409f5761409e614067565b5b6020830191508360208202830111156140bb576140ba6138ef565b5b9250929050565b600080602083850312156140d9576140d8613577565b5b600083013567ffffffffffffffff8111156140f7576140f661357c565b5b6141038582860161406c565b92509250509250929050565b7f4e487b7100000000000000000000000000000000000000000000000000000000600052602260045260246000fd5b6000600282049050600182168061415657607f821691505b6020821081036141695761416861410f565b5b50919050565b7f4552433732313a20617070726f76616c20746f2063757272656e74206f776e6560008201527f7200000000000000000000000000000000000000000000000000000000000000602082015250565b60006141cb602183613647565b91506141d68261416f565b604082019050919050565b600060208201905081810360008301526141fa816141be565b9050919050565b7f4552433732313a20617070726f76652063616c6c6572206973206e6f7420746f60008201527f6b656e206f776e6572206f7220617070726f76656420666f7220616c6c000000602082015250565b600061425d603d83613647565b915061426882614201565b604082019050919050565b6000602082019050818103600083015261428c81614250565b9050919050565b7f4e487b7100000000000000000000000000000000000000000000000000000000600052601160045260246000fd5b60006142cd826136ee565b91506142d8836136ee565b92508282039050818111156142f0576142ef614293565b5b92915050565b7f4e487b7100000000000000000000000000000000000000000000000000000000600052603260045260246000fd5b6000614330826136ee565b91507fffffffffffffffffffffffffffffffffffffffffffffffffffffffffffffffff820361436257614361614293565b5b600182019050919050565b7f4552433732313a2063616c6c6572206973206e6f7420746f6b656e206f776e6560008201527f72206f7220617070726f76656400000000000000000000000000000000000000602082015250565b60006143c9602d83613647565b91506143d48261436d565b604082019050919050565b600060208201905081810360008301526143f8816143bc565b9050919050565b7f4d757374206f776e20746f6b656e000000000000000000000000000000000000600082015250565b6000614435600e83613647565b9150614440826143ff565b602082019050919050565b6000602082019050818103600083015261446481614428565b9050919050565b60008151905061447a816136f8565b92915050565b60006020828403121561449657614495613577565b5b60006144a48482850161446b565b91505092915050565b60008160011c9050919050565b6000808291508390505b6001851115614504578086048111156144e0576144df614293565b5b60018516156144ef5780820291505b80810290506144fd856144ad565b94506144c4565b94509492505050565b60008261451d57600190506145d9565b8161452b57600090506145d9565b8160018114614541576002811461454b5761457a565b60019150506145d9565b60ff84111561455d5761455c614293565b5b8360020a91508482111561457457614573614293565b5b506145d9565b5060208310610133831016604e8410600b84101617156145af5782820a9050838111156145aa576145a9614293565b5b6145d9565b6145bc84848460016144ba565b925090508184048111156145d3576145d2614293565b5b81810290505b9392505050565b60006145eb826136ee565b91506145f6836136ee565b92506146237fffffffffffffffffffffffffffffffffffffffffffffffffffffffffffffffff848461450d565b905092915050565b7f4e487b7100000000000000000000000000000000000000000000000000000000600052601260045260246000fd5b6000614665826136ee565b9150614670836136ee565b9250826146805761467f61462b565b5b828204905092915050565b6000614696826136ee565b91506146a1836136ee565b92508282019050808211156146b9576146b8614293565b5b92915050565b60006146ca826136ee565b91506146d5836136ee565b9250817fffffffffffffffffffffffffffffffffffffffffffffffffffffffffffffffff048311821515161561470e5761470d614293565b5b828202905092915050565b7f4552433732313a20696e76616c696420746f6b656e2049440000000000000000600082015250565b600061474f601883613647565b915061475a82614719565b602082019050919050565b6000602082019050818103600083015261477e81614742565b9050919050565b7f4552433732313a2061646472657373207a65726f206973206e6f74206120766160008201527f6c6964206f776e65720000000000000000000000000000000000000000000000602082015250565b60006147e1602983613647565b91506147ec82614785565b604082019050919050565b60006020820190508181036000830152614810816147d4565b9050919050565b6000819050919050565b600061482c82614817565b91507f8000000000000000000000000000000000000000000000000000000000000000820361485e5761485d614293565b5b816000039050919050565b600061487482614817565b915061487f83614817565b9250827f7fffffffffffffffffffffffffffffffffffffffffffffffffffffffffffffff04821160008413600084131616156148be576148bd614293565b5b817f800000000000000000000000000000000000000000000000000000000000000005831260008412600084131616156148fb576148fa614293565b5b827f8000000000000000000000000000000000000000000000000000000000000000058212600084136000841216161561493857614937614293565b5b827f7fffffffffffffffffffffffffffffffffffffffffffffffffffffffffffffff058212600084126000841216161561497557614974614293565b5b828202905092915050565b600061498b82614817565b915061499683614817565b9250826149a6576149a561462b565b5b600160000383147f8000000000000000000000000000000000000000000000000000000000000000831416156149df576149de614293565b5b828205905092915050565b60006149f582614817565b9150614a0083614817565b925082820190508281121560008312168382126000841215161715614a2857614a27614293565b5b92915050565b600067ffffffffffffffff821115614a4957614a48613848565b5b614a5282613682565b9050602081019050919050565b6000614a72614a6d84614a2e565b6138a8565b905082815260208101848484011115614a8e57614a8d613e91565b5b614a99848285613658565b509392505050565b600082601f830112614ab657614ab5613843565b5b8151614ac6848260208601614a5f565b91505092915050565b600060208284031215614ae557614ae4613577565b5b600082015167ffffffffffffffff811115614b0357614b0261357c565b5b614b0f84828501614aa1565b91505092915050565b600081905092915050565b7f426c61636b486f6c652023000000000000000000000000000000000000000000600082015250565b6000614b59600b83614b18565b9150614b6482614b23565b600b82019050919050565b6000614b7a8261363c565b614b848185614b18565b9350614b94818560208601613658565b80840191505092915050565b6000614bab82614b4c565b9150614bb78284614b6f565b915081905092915050565b7f5b00000000000000000000000000000000000000000000000000000000000000815250565b7f7b2274726169745f74797065223a20224c6576656c222c202276616c7565223a60008201527f2000000000000000000000000000000000000000000000000000000000000000602082015250565b6000614c44602183614b18565b9150614c4f82614be8565b602182019050919050565b7f7d2c000000000000000000000000000000000000000000000000000000000000815250565b7f7b2274726169745f74797065223a20224e616d65222c202276616c7565223a2060008201527f2200000000000000000000000000000000000000000000000000000000000000602082015250565b6000614cdc602183614b18565b9150614ce782614c80565b602182019050919050565b7f227d2c0000000000000000000000000000000000000000000000000000000000815250565b7f7b2274726169745f74797065223a20224d617373222c202276616c7565223a20815250565b7f7d5d000000000000000000000000000000000000000000000000000000000000815250565b6000614d6f82614bc2565b600182019150614d7e82614c37565b9150614d8a8286614b6f565b9150614d9582614c5a565b600282019150614da482614ccf565b9150614db08285614b6f565b9150614dbb82614cf2565b600382019150614dca82614d18565b602082019150614dda8284614b6f565b9150614de582614d3e565b600282019150819050949350505050565b7f7b226e616d65223a220000000000000000000000000000000000000000000000600082015250565b6000614e2c600983614b18565b9150614e3782614df6565b600982019050919050565b7f222c226465736372697074696f6e223a22000000000000000000000000000000600082015250565b6000614e78601183614b18565b9150614e8382614e42565b601182019050919050565b7f222c000000000000000000000000000000000000000000000000000000000000600082015250565b6000614ec4600283614b18565b9150614ecf82614e8e565b600282019050919050565b7f2261747472696275746573223a20000000000000000000000000000000000000600082015250565b6000614f10600e83614b18565b9150614f1b82614eda565b600e82019050919050565b7f2c2022696d616765223a2022646174613a696d6167652f7376672b786d6c3b6260008201527f61736536342c0000000000000000000000000000000000000000000000000000602082015250565b6000614f82602683614b18565b9150614f8d82614f26565b602682019050919050565b7f227d000000000000000000000000000000000000000000000000000000000000600082015250565b6000614fce600283614b18565b9150614fd982614f98565b600282019050919050565b6000614fef82614e1f565b9150614ffb8287614b6f565b915061500682614e6b565b91506150128286614b6f565b915061501d82614eb7565b915061502882614f03565b91506150348285614b6f565b915061503f82614f75565b915061504b8284614b6f565b915061505682614fc1565b915081905095945050505050565b7f646174613a6170706c69636174696f6e2f6a736f6e3b6261736536342c000000600082015250565b600061509a601d83614b18565b91506150a582615064565b601d82019050919050565b60006150bb8261508d565b91506150c78284614b6f565b915081905092915050565b7f4d657267696e67206e6f7420656e61626c656400000000000000000000000000600082015250565b6000615108601383613647565b9150615113826150d2565b602082019050919050565b60006020820190508181036000830152615137816150fb565b9050919050565b7f4d757374206d65726765206174206c65617374203220746f6b656e7300000000600082015250565b6000615174601c83613647565b915061517f8261513e565b602082019050919050565b600060208201905081810360008301526151a381615167565b9050919050565b7f4d757374206f776e20616c6c20746f6b656e7320287461726765742900000000600082015250565b60006151e0601c83613647565b91506151eb826151aa565b602082019050919050565b6000602082019050818103600083015261520f816151d3565b9050919050565b7f4d757374206f776e20616c6c20746f6b656e7320286275726e29000000000000600082015250565b600061524c601a83613647565b915061525782615216565b602082019050919050565b6000602082019050818103600083015261527b8161523f565b9050919050565b7f4f776e61626c653a206e6577206f776e657220697320746865207a65726f206160008201527f6464726573730000000000000000000000000000000000000000000000000000602082015250565b60006152de602683613647565b91506152e982615282565b604082019050919050565b6000602082019050818103600083015261530d816152d1565b9050919050565b600081519050615323816137ad565b92915050565b60006020828403121561533f5761533e613577565b5b600061534d84828501615314565b91505092915050565b600060408201905061536b6000830185613783565b6153786020830184613783565b9392505050565b60008151905061538e81613d65565b92915050565b6000602082840312156153aa576153a9613577565b5b60006153b88482850161537f565b91505092915050565b60006060820190506153d66000830186613783565b6153e36020830185613783565b6153f06040830184613819565b949350505050565b7f4f776e61626c653a2063616c6c6572206973206e6f7420746865206f776e6572600082015250565b600061542e602083613647565b9150615439826153f8565b602082019050919050565b6000602082019050818103600083015261545d81615421565b9050919050565b7f4552433732313a207472616e736665722066726f6d20696e636f72726563742060008201527f6f776e6572000000000000000000000000000000000000000000000000000000602082015250565b60006154c0602583613647565b91506154cb82615464565b604082019050919050565b600060208201905081810360008301526154ef816154b3565b9050919050565b7f4552433732313a207472616e7366657220746f20746865207a65726f2061646460008201527f7265737300000000000000000000000000000000000000000000000000000000602082015250565b6000615552602483613647565b915061555d826154f6565b604082019050919050565b6000602082019050818103600083015261558181615545565b9050919050565b7f4552433732313a20617070726f766520746f2063616c6c657200000000000000600082015250565b60006155be601983613647565b91506155c982615588565b602082019050919050565b600060208201905081810360008301526155ed816155b1565b9050919050565b7f4552433732313a207472616e7366657220746f206e6f6e20455243373231526560008201527f63656976657220696d706c656d656e7465720000000000000000000000000000602082015250565b6000615650603283613647565b915061565b826155f4565b604082019050919050565b6000602082019050818103600083015261567f81615643565b9050919050565b600060ff82169050919050565b600061569e82615686565b91506156a983615686565b9250828201905060ff8111156156c2576156c1614293565b5b92915050565b600081519050919050565b600082825260208201905092915050565b60006156ef826156c8565b6156f981856156d3565b9350615709818560208601613658565b61571281613682565b840191505092915050565b60006080820190506157326000830187613783565b61573f6020830186613783565b61574c6040830185613819565b818103606083015261575e81846156e4565b905095945050505050565b600081519050615778816135ad565b92915050565b60006020828403121561579457615793613577565b5b60006157a284828501615769565b91505092915050565b7f4552433732313a206d696e7420746f20746865207a65726f2061646472657373600082015250565b60006157e1602083613647565b91506157ec826157ab565b602082019050919050565b60006020820190508181036000830152615810816157d4565b9050919050565b7f4552433732313a20746f6b656e20616c7265616479206d696e74656400000000600082015250565b600061584d601c83613647565b915061585882615817565b602082019050919050565b6000602082019050818103600083015261587c81615840565b905091905056fe46756c6c79206f6e2d636861696e2c2070726f6365647572616c6c792067656e6572617465642c20616e696d6174656420626c61636b20686f6c65732e4142434445464748494a4b4c4d4e4f505152535455565758595a6162636465666768696a6b6c6d6e6f707172737475767778797a303132333435363738392b2fa26469706673582212202f0cd360ab5d88e44863188c29d130dd1e5ad4a3d3d5482437963e48167408cd64736f6c63430008100033",
  "libraries": {
    "utils": "0xc0B9fc91b9007a8770225FC4c5c93A5f0D0B7904"
  },
  "devdoc": {
    "kind": "dev",
    "methods": {
      "approve(address,uint256)": {
        "details": "See {IERC721-approve}."
      },
      "balanceOf(address)": {
        "details": "See {IERC721-balanceOf}."
      },
      "blackHoleForTokenId(uint256)": {
        "params": {
          "_tokenId": "ID of the token."
        },
        "returns": {
          "_0": "BlackHole Structured representation of the token."
        }
      },
      "blackHolesForTokenIds(uint256[])": {
        "params": {
          "tokenIds": "List of token IDs."
        }
      },
      "constructor": {
        "details": "Constructs a new instance of the contract.",
        "params": {
          "_mergeOpenTimestamp": "Timestamp when merging is open.",
          "_name": "Name of the ERC721 token.",
          "_renderer": "Address of the Renderer contract.",
          "_symbol": "Symbol of the ERC721 token.",
          "_unmigratedBlackHoles": "Address of Black Holes contract."
        }
      },
      "getAdjustmentForMass(uint256)": {
        "params": {
          "_mass": "Mass to calculate the adjustment for."
        },
        "returns": {
          "_0": "Adjustment."
        }
      },
      "getApproved(uint256)": {
        "details": "See {IERC721-getApproved}."
      },
      "isApprovedForAll(address,address)": {
        "details": "See {IERC721-isApprovedForAll}."
      },
      "merge(uint256[])": {
        "params": {
          "tokens": "List of token IDs to merge. The first token in the list is the target."
        }
      },
      "mint(uint256[])": {
        "params": {
          "tokenIds": "The Edition token IDs you want to migrate."
        }
      },
      "name()": {
        "details": "See {IERC721Metadata-name}."
      },
      "nameForBlackHoleLevel(uint256)": {
        "params": {
          "_level": "Level of the black hole."
        },
        "returns": {
          "_0": "name of the black hole level."
        }
      },
      "owner()": {
        "details": "Returns the address of the current owner."
      },
      "ownerOf(uint256)": {
        "details": "See {IERC721-ownerOf}."
      },
      "renounceOwnership()": {
        "details": "Leaves the contract without owner. It will not be possible to call `onlyOwner` functions anymore. Can only be called by the current owner. NOTE: Renouncing ownership will leave the contract without an owner, thereby removing any functionality that is only available to the owner."
      },
      "safeTransferFrom(address,address,uint256)": {
        "details": "See {IERC721-safeTransferFrom}."
      },
      "safeTransferFrom(address,address,uint256,bytes)": {
        "details": "See {IERC721-safeTransferFrom}."
      },
      "setApprovalForAll(address,bool)": {
        "details": "See {IERC721-setApprovalForAll}."
      },
      "setMergeOpenTimestamp(uint256)": {
        "params": {
          "_mergeOpenTimestamp": "Timestamp when merging is open."
        }
      },
      "supportsInterface(bytes4)": {
        "details": "See {IERC165-supportsInterface}."
      },
      "symbol()": {
        "details": "See {IERC721Metadata-symbol}."
      },
      "tokenURI(uint256)": {
        "params": {
          "_tokenId": "ID of the token to get the URI for."
        },
        "returns": {
          "_0": "Token URI."
        }
      },
      "transferFrom(address,address,uint256)": {
        "details": "See {IERC721-transferFrom}."
      },
      "transferOwnership(address)": {
        "details": "Transfers ownership of the contract to a new account (`newOwner`). Can only be called by the current owner."
      }
    },
    "version": 1
  },
  "userdoc": {
    "kind": "user",
    "methods": {
      "blackHoleForTokenId(uint256)": {
        "notice": "Get the structured representation of a token by its ID."
      },
      "blackHolesForTokenIds(uint256[])": {
        "notice": "Returns Black Holes for a list of token IDs."
      },
      "getAdjustmentForMass(uint256)": {
        "notice": "Gets adjustment for a given mass."
      },
      "getUpgradeIntervals()": {
        "notice": "Returns the mass required to upgrade to the next level for each level."
      },
      "isMergingEnabled()": {
        "notice": "Returns whether merging is enabled or not."
      },
      "levelForMass(uint256)": {
        "notice": "Gets the level for a given mass."
      },
      "merge(uint256[])": {
        "notice": "Merges a list of tokens into a single token."
      },
      "mint(uint256[])": {
        "notice": "Migrate Black Holes to Voidable Black Holes by burning the Black Holes.         Requires the Approval of this contract on the Edition contract."
      },
      "nameForBlackHoleLevel(uint256)": {
        "notice": "Returns the name of a black hole level."
      },
      "setMergeOpenTimestamp(uint256)": {
        "notice": "Sets the merging delay."
      },
      "tokenURI(uint256)": {
        "notice": "Returns the token URI for a given token ID."
      },
      "totalBurned()": {
        "notice": "Returns total number of tokens burned."
      },
      "totalMinted()": {
        "notice": "Returns total number of tokens minted."
      },
      "totalSupply()": {
        "notice": "Returns how many tokens this contract manages."
      }
    },
    "version": 1
  },
  "storageLayout": {
    "storage": [
      {
        "astId": 138,
        "contract": "contracts/VoidableBlackHoles.sol:VoidableBlackHoles",
        "label": "_name",
        "offset": 0,
        "slot": "0",
        "type": "t_string_storage"
      },
      {
        "astId": 140,
        "contract": "contracts/VoidableBlackHoles.sol:VoidableBlackHoles",
        "label": "_symbol",
        "offset": 0,
        "slot": "1",
        "type": "t_string_storage"
      },
      {
        "astId": 144,
        "contract": "contracts/VoidableBlackHoles.sol:VoidableBlackHoles",
        "label": "_owners",
        "offset": 0,
        "slot": "2",
        "type": "t_mapping(t_uint256,t_address)"
      },
      {
        "astId": 148,
        "contract": "contracts/VoidableBlackHoles.sol:VoidableBlackHoles",
        "label": "_balances",
        "offset": 0,
        "slot": "3",
        "type": "t_mapping(t_address,t_uint256)"
      },
      {
        "astId": 152,
        "contract": "contracts/VoidableBlackHoles.sol:VoidableBlackHoles",
        "label": "_tokenApprovals",
        "offset": 0,
        "slot": "4",
        "type": "t_mapping(t_uint256,t_address)"
      },
      {
        "astId": 158,
        "contract": "contracts/VoidableBlackHoles.sol:VoidableBlackHoles",
        "label": "_operatorApprovals",
        "offset": 0,
        "slot": "5",
        "type": "t_mapping(t_address,t_mapping(t_address,t_bool))"
      },
      {
        "astId": 7,
        "contract": "contracts/VoidableBlackHoles.sol:VoidableBlackHoles",
        "label": "_owner",
        "offset": 0,
        "slot": "6",
        "type": "t_address"
      },
      {
        "astId": 5468,
        "contract": "contracts/VoidableBlackHoles.sol:VoidableBlackHoles",
        "label": "mergeOpenTimestamp",
        "offset": 0,
        "slot": "7",
        "type": "t_uint256"
      },
      {
        "astId": 5472,
        "contract": "contracts/VoidableBlackHoles.sol:VoidableBlackHoles",
        "label": "massesConsumed",
        "offset": 0,
        "slot": "8",
        "type": "t_mapping(t_uint256,t_uint256)"
      },
      {
        "astId": 5475,
        "contract": "contracts/VoidableBlackHoles.sol:VoidableBlackHoles",
        "label": "renderer",
        "offset": 0,
        "slot": "9",
        "type": "t_contract(Renderer)5016"
      },
      {
        "astId": 5478,
        "contract": "contracts/VoidableBlackHoles.sol:VoidableBlackHoles",
        "label": "unmigratedBlackHoles",
        "offset": 0,
        "slot": "10",
        "type": "t_contract(BlackHoles)3685"
      },
      {
        "astId": 5480,
        "contract": "contracts/VoidableBlackHoles.sol:VoidableBlackHoles",
        "label": "minted",
        "offset": 0,
        "slot": "11",
        "type": "t_uint256"
      },
      {
        "astId": 5482,
        "contract": "contracts/VoidableBlackHoles.sol:VoidableBlackHoles",
        "label": "burned",
        "offset": 0,
        "slot": "12",
        "type": "t_uint256"
      }
    ],
    "types": {
      "t_address": {
        "encoding": "inplace",
        "label": "address",
        "numberOfBytes": "20"
      },
      "t_bool": {
        "encoding": "inplace",
        "label": "bool",
        "numberOfBytes": "1"
      },
      "t_contract(BlackHoles)3685": {
        "encoding": "inplace",
        "label": "contract BlackHoles",
        "numberOfBytes": "20"
      },
      "t_contract(Renderer)5016": {
        "encoding": "inplace",
        "label": "contract Renderer",
        "numberOfBytes": "20"
      },
      "t_mapping(t_address,t_bool)": {
        "encoding": "mapping",
        "key": "t_address",
        "label": "mapping(address => bool)",
        "numberOfBytes": "32",
        "value": "t_bool"
      },
      "t_mapping(t_address,t_mapping(t_address,t_bool))": {
        "encoding": "mapping",
        "key": "t_address",
        "label": "mapping(address => mapping(address => bool))",
        "numberOfBytes": "32",
        "value": "t_mapping(t_address,t_bool)"
      },
      "t_mapping(t_address,t_uint256)": {
        "encoding": "mapping",
        "key": "t_address",
        "label": "mapping(address => uint256)",
        "numberOfBytes": "32",
        "value": "t_uint256"
      },
      "t_mapping(t_uint256,t_address)": {
        "encoding": "mapping",
        "key": "t_uint256",
        "label": "mapping(uint256 => address)",
        "numberOfBytes": "32",
        "value": "t_address"
      },
      "t_mapping(t_uint256,t_uint256)": {
        "encoding": "mapping",
        "key": "t_uint256",
        "label": "mapping(uint256 => uint256)",
        "numberOfBytes": "32",
        "value": "t_uint256"
      },
      "t_string_storage": {
        "encoding": "bytes",
        "label": "string",
        "numberOfBytes": "32"
      },
      "t_uint256": {
        "encoding": "inplace",
        "label": "uint256",
        "numberOfBytes": "32"
      }
    }
  }
}