{
  "address": "0xa64ef8878946028f8DFAC653d0806B71917a717E",
  "abi": [
    {
      "inputs": [
        {
          "internalType": "string",
          "name": "_name",
          "type": "string"
        },
        {
          "internalType": "string",
          "name": "_symbol",
          "type": "string"
        },
        {
          "internalType": "uint256",
          "name": "_mergeOpenTimestamp",
          "type": "uint256"
        },
        {
          "internalType": "address",
          "name": "_renderer",
          "type": "address"
        },
        {
          "internalType": "address",
          "name": "_unmigratedBlackHoles",
          "type": "address"
        },
        {
          "internalType": "address",
          "name": "_voidableBlackHoles",
          "type": "address"
        }
      ],
      "stateMutability": "nonpayable",
      "type": "constructor"
    },
    {
      "inputs": [],
      "name": "NotAllowed",
      "type": "error"
    },
    {
      "inputs": [],
      "name": "NotBlackHolesContract",
      "type": "error"
    },
    {
      "inputs": [],
      "name": "URIQueryForNonexistentToken",
      "type": "error"
    },
    {
      "anonymous": false,
      "inputs": [
        {
          "indexed": true,
          "internalType": "address",
          "name": "owner",
          "type": "address"
        },
        {
          "indexed": true,
          "internalType": "address",
          "name": "approved",
          "type": "address"
        },
        {
          "indexed": true,
          "internalType": "uint256",
          "name": "tokenId",
          "type": "uint256"
        }
      ],
      "name": "Approval",
      "type": "event"
    },
    {
      "anonymous": false,
      "inputs": [
        {
          "indexed": true,
          "internalType": "address",
          "name": "owner",
          "type": "address"
        },
        {
          "indexed": true,
          "internalType": "address",
          "name": "operator",
          "type": "address"
        },
        {
          "indexed": false,
          "internalType": "bool",
          "name": "approved",
          "type": "bool"
        }
      ],
      "name": "ApprovalForAll",
      "type": "event"
    },
    {
      "anonymous": false,
      "inputs": [
        {
          "indexed": false,
          "internalType": "uint256",
          "name": "_fromTokenId",
          "type": "uint256"
        },
        {
          "indexed": false,
          "internalType": "uint256",
          "name": "_toTokenId",
          "type": "uint256"
        }
      ],
      "name": "BatchMetadataUpdate",
      "type": "event"
    },
    {
      "anonymous": false,
      "inputs": [
        {
          "indexed": false,
          "internalType": "uint256",
          "name": "_tokenId",
          "type": "uint256"
        }
      ],
      "name": "MetadataUpdate",
      "type": "event"
    },
    {
      "anonymous": false,
      "inputs": [
        {
          "indexed": true,
          "internalType": "address",
          "name": "previousOwner",
          "type": "address"
        },
        {
          "indexed": true,
          "internalType": "address",
          "name": "newOwner",
          "type": "address"
        }
      ],
      "name": "OwnershipTransferred",
      "type": "event"
    },
    {
      "anonymous": false,
      "inputs": [
        {
          "indexed": true,
          "internalType": "address",
          "name": "from",
          "type": "address"
        },
        {
          "indexed": true,
          "internalType": "address",
          "name": "to",
          "type": "address"
        },
        {
          "indexed": true,
          "internalType": "uint256",
          "name": "tokenId",
          "type": "uint256"
        }
      ],
      "name": "Transfer",
      "type": "event"
    },
    {
      "inputs": [
        {
          "internalType": "address",
          "name": "to",
          "type": "address"
        },
        {
          "internalType": "uint256",
          "name": "tokenId",
          "type": "uint256"
        }
      ],
      "name": "approve",
      "outputs": [],
      "stateMutability": "nonpayable",
      "type": "function"
    },
    {
      "inputs": [
        {
          "internalType": "address",
          "name": "owner",
          "type": "address"
        }
      ],
      "name": "balanceOf",
      "outputs": [
        {
          "internalType": "uint256",
          "name": "",
          "type": "uint256"
        }
      ],
      "stateMutability": "view",
      "type": "function"
    },
    {
      "inputs": [
        {
          "internalType": "uint256",
          "name": "targetId",
          "type": "uint256"
        },
        {
          "internalType": "uint256",
          "name": "totalMass",
          "type": "uint256"
        }
      ],
      "name": "blackHoleForMass",
      "outputs": [
        {
          "components": [
            {
              "internalType": "uint256",
              "name": "tokenId",
              "type": "uint256"
            },
            {
              "internalType": "uint256",
              "name": "level",
              "type": "uint256"
            },
            {
              "internalType": "uint256",
              "name": "size",
              "type": "uint256"
            },
            {
              "internalType": "uint256",
              "name": "mass",
              "type": "uint256"
            },
            {
              "internalType": "uint256",
              "name": "adjustment",
              "type": "uint256"
            },
            {
              "internalType": "string",
              "name": "name",
              "type": "string"
            }
          ],
          "internalType": "struct BlackHole",
          "name": "",
          "type": "tuple"
        },
        {
          "internalType": "string",
          "name": "",
          "type": "string"
        }
      ],
      "stateMutability": "view",
      "type": "function"
    },
    {
      "inputs": [
        {
          "internalType": "uint256",
          "name": "_tokenId",
          "type": "uint256"
        }
      ],
      "name": "blackHoleForTokenId",
      "outputs": [
        {
          "components": [
            {
              "internalType": "uint256",
              "name": "tokenId",
              "type": "uint256"
            },
            {
              "internalType": "uint256",
              "name": "level",
              "type": "uint256"
            },
            {
              "internalType": "uint256",
              "name": "size",
              "type": "uint256"
            },
            {
              "internalType": "uint256",
              "name": "mass",
              "type": "uint256"
            },
            {
              "internalType": "uint256",
              "name": "adjustment",
              "type": "uint256"
            },
            {
              "internalType": "string",
              "name": "name",
              "type": "string"
            }
          ],
          "internalType": "struct BlackHole",
          "name": "",
          "type": "tuple"
        }
      ],
      "stateMutability": "view",
      "type": "function"
    },
    {
      "inputs": [
        {
          "internalType": "uint256[]",
          "name": "tokenIds",
          "type": "uint256[]"
        }
      ],
      "name": "blackHolesForTokenIds",
      "outputs": [
        {
          "components": [
            {
              "internalType": "uint256",
              "name": "tokenId",
              "type": "uint256"
            },
            {
              "internalType": "uint256",
              "name": "level",
              "type": "uint256"
            },
            {
              "internalType": "uint256",
              "name": "size",
              "type": "uint256"
            },
            {
              "internalType": "uint256",
              "name": "mass",
              "type": "uint256"
            },
            {
              "internalType": "uint256",
              "name": "adjustment",
              "type": "uint256"
            },
            {
              "internalType": "string",
              "name": "name",
              "type": "string"
            }
          ],
          "internalType": "struct BlackHole[]",
          "name": "",
          "type": "tuple[]"
        }
      ],
      "stateMutability": "view",
      "type": "function"
    },
    {
      "inputs": [
        {
          "internalType": "uint256",
          "name": "_mass",
          "type": "uint256"
        }
      ],
      "name": "getAdjustmentForMass",
      "outputs": [
        {
          "internalType": "uint256",
          "name": "",
          "type": "uint256"
        }
      ],
      "stateMutability": "view",
      "type": "function"
    },
    {
      "inputs": [
        {
          "internalType": "uint256",
          "name": "tokenId",
          "type": "uint256"
        }
      ],
      "name": "getApproved",
      "outputs": [
        {
          "internalType": "address",
          "name": "",
          "type": "address"
        }
      ],
      "stateMutability": "view",
      "type": "function"
    },
    {
      "inputs": [],
      "name": "getUpgradeIntervals",
      "outputs": [
        {
          "internalType": "uint256[]",
          "name": "",
          "type": "uint256[]"
        }
      ],
      "stateMutability": "view",
      "type": "function"
    },
    {
      "inputs": [
        {
          "internalType": "address",
          "name": "owner",
          "type": "address"
        },
        {
          "internalType": "address",
          "name": "operator",
          "type": "address"
        }
      ],
      "name": "isApprovedForAll",
      "outputs": [
        {
          "internalType": "bool",
          "name": "",
          "type": "bool"
        }
      ],
      "stateMutability": "view",
      "type": "function"
    },
    {
      "inputs": [],
      "name": "isMergingEnabled",
      "outputs": [
        {
          "internalType": "bool",
          "name": "",
          "type": "bool"
        }
      ],
      "stateMutability": "view",
      "type": "function"
    },
    {
      "inputs": [
        {
          "internalType": "uint256",
          "name": "_mass",
          "type": "uint256"
        }
      ],
      "name": "levelForMass",
      "outputs": [
        {
          "internalType": "uint256",
          "name": "",
          "type": "uint256"
        }
      ],
      "stateMutability": "view",
      "type": "function"
    },
    {
      "inputs": [
        {
          "internalType": "uint256",
          "name": "_tokenId",
          "type": "uint256"
        }
      ],
      "name": "massForTokenId",
      "outputs": [
        {
          "internalType": "uint256",
          "name": "",
          "type": "uint256"
        }
      ],
      "stateMutability": "view",
      "type": "function"
    },
    {
      "inputs": [
        {
          "internalType": "uint256",
          "name": "",
          "type": "uint256"
        }
      ],
      "name": "massesConsumed",
      "outputs": [
        {
          "internalType": "uint256",
          "name": "",
          "type": "uint256"
        }
      ],
      "stateMutability": "view",
      "type": "function"
    },
    {
      "inputs": [
        {
          "internalType": "uint256[]",
          "name": "tokens",
          "type": "uint256[]"
        }
      ],
      "name": "merge",
      "outputs": [],
      "stateMutability": "nonpayable",
      "type": "function"
    },
    {
      "inputs": [],
      "name": "mergeOpenTimestamp",
      "outputs": [
        {
          "internalType": "uint256",
          "name": "",
          "type": "uint256"
        }
      ],
      "stateMutability": "view",
      "type": "function"
    },
    {
      "inputs": [
        {
          "internalType": "contract IBlackHoles",
          "name": "blackHoles",
          "type": "address"
        },
        {
          "internalType": "uint256[]",
          "name": "tokenIds",
          "type": "uint256[]"
        }
      ],
      "name": "migrate",
      "outputs": [],
      "stateMutability": "nonpayable",
      "type": "function"
    },
    {
      "inputs": [],
      "name": "name",
      "outputs": [
        {
          "internalType": "string",
          "name": "",
          "type": "string"
        }
      ],
      "stateMutability": "view",
      "type": "function"
    },
    {
      "inputs": [
        {
          "internalType": "uint256",
          "name": "_level",
          "type": "uint256"
        }
      ],
      "name": "nameForBlackHoleLevel",
      "outputs": [
        {
          "internalType": "string",
          "name": "",
          "type": "string"
        }
      ],
      "stateMutability": "view",
      "type": "function"
    },
    {
      "inputs": [],
      "name": "owner",
      "outputs": [
        {
          "internalType": "address",
          "name": "",
          "type": "address"
        }
      ],
      "stateMutability": "view",
      "type": "function"
    },
    {
      "inputs": [
        {
          "internalType": "uint256",
          "name": "tokenId",
          "type": "uint256"
        }
      ],
      "name": "ownerOf",
      "outputs": [
        {
          "internalType": "address",
          "name": "",
          "type": "address"
        }
      ],
      "stateMutability": "view",
      "type": "function"
    },
    {
      "inputs": [],
      "name": "renderer",
      "outputs": [
        {
          "internalType": "contract IRenderer",
          "name": "",
          "type": "address"
        }
      ],
      "stateMutability": "view",
      "type": "function"
    },
    {
      "inputs": [],
      "name": "renounceOwnership",
      "outputs": [],
      "stateMutability": "nonpayable",
      "type": "function"
    },
    {
      "inputs": [
        {
          "internalType": "address",
          "name": "from",
          "type": "address"
        },
        {
          "internalType": "address",
          "name": "to",
          "type": "address"
        },
        {
          "internalType": "uint256",
          "name": "tokenId",
          "type": "uint256"
        }
      ],
      "name": "safeTransferFrom",
      "outputs": [],
      "stateMutability": "nonpayable",
      "type": "function"
    },
    {
      "inputs": [
        {
          "internalType": "address",
          "name": "from",
          "type": "address"
        },
        {
          "internalType": "address",
          "name": "to",
          "type": "address"
        },
        {
          "internalType": "uint256",
          "name": "tokenId",
          "type": "uint256"
        },
        {
          "internalType": "bytes",
          "name": "data",
          "type": "bytes"
        }
      ],
      "name": "safeTransferFrom",
      "outputs": [],
      "stateMutability": "nonpayable",
      "type": "function"
    },
    {
      "inputs": [
        {
          "internalType": "address",
          "name": "operator",
          "type": "address"
        },
        {
          "internalType": "bool",
          "name": "approved",
          "type": "bool"
        }
      ],
      "name": "setApprovalForAll",
      "outputs": [],
      "stateMutability": "nonpayable",
      "type": "function"
    },
    {
      "inputs": [
        {
          "internalType": "uint256",
          "name": "_mergeOpenTimestamp",
          "type": "uint256"
        }
      ],
      "name": "setMergeOpenTimestamp",
      "outputs": [],
      "stateMutability": "nonpayable",
      "type": "function"
    },
    {
      "inputs": [
        {
          "internalType": "bytes4",
          "name": "interfaceId",
          "type": "bytes4"
        }
      ],
      "name": "supportsInterface",
      "outputs": [
        {
          "internalType": "bool",
          "name": "",
          "type": "bool"
        }
      ],
      "stateMutability": "view",
      "type": "function"
    },
    {
      "inputs": [],
      "name": "symbol",
      "outputs": [
        {
          "internalType": "string",
          "name": "",
          "type": "string"
        }
      ],
      "stateMutability": "view",
      "type": "function"
    },
    {
      "inputs": [
        {
          "internalType": "uint256",
          "name": "_tokenId",
          "type": "uint256"
        }
      ],
      "name": "tokenURI",
      "outputs": [
        {
          "internalType": "string",
          "name": "",
          "type": "string"
        }
      ],
      "stateMutability": "view",
      "type": "function"
    },
    {
      "inputs": [],
      "name": "totalBurned",
      "outputs": [
        {
          "internalType": "uint256",
          "name": "",
          "type": "uint256"
        }
      ],
      "stateMutability": "view",
      "type": "function"
    },
    {
      "inputs": [],
      "name": "totalMinted",
      "outputs": [
        {
          "internalType": "uint256",
          "name": "",
          "type": "uint256"
        }
      ],
      "stateMutability": "view",
      "type": "function"
    },
    {
      "inputs": [],
      "name": "totalSupply",
      "outputs": [
        {
          "internalType": "uint256",
          "name": "",
          "type": "uint256"
        }
      ],
      "stateMutability": "view",
      "type": "function"
    },
    {
      "inputs": [
        {
          "internalType": "address",
          "name": "from",
          "type": "address"
        },
        {
          "internalType": "address",
          "name": "to",
          "type": "address"
        },
        {
          "internalType": "uint256",
          "name": "tokenId",
          "type": "uint256"
        }
      ],
      "name": "transferFrom",
      "outputs": [],
      "stateMutability": "nonpayable",
      "type": "function"
    },
    {
      "inputs": [
        {
          "internalType": "address",
          "name": "newOwner",
          "type": "address"
        }
      ],
      "name": "transferOwnership",
      "outputs": [],
      "stateMutability": "nonpayable",
      "type": "function"
    },
    {
      "inputs": [],
      "name": "unmigratedBlackHoles",
      "outputs": [
        {
          "internalType": "contract IBlackHoles",
          "name": "",
          "type": "address"
        }
      ],
      "stateMutability": "view",
      "type": "function"
    },
    {
      "inputs": [],
      "name": "voidableBlackHoles",
      "outputs": [
        {
          "internalType": "contract IBlackHoles",
          "name": "",
          "type": "address"
        }
      ],
      "stateMutability": "view",
      "type": "function"
    }
  ],
  "transactionHash": "0x4de961179bf9252978f0d3cad4cb453686a84498e0f39e2489c858819f2844ed",
  "args": [
    "BlackHolesV2",
    "BLACKHOLESV2",
    "1677487007",
    "0xA811607554419977bb372fA3a2Ec9bBc81575FB4",
    "0x742B809625FB777CC9A332bb61249481FaE59092",
    "0x545015Ea44aa108974c554A809f208d40e8383aD"
  ],
  "numDeployments": 1,
  "solcInputHash": "427cac182baa21319e48c83302b3e3ba",
  "bytecode": "0x60806040523480156200001157600080fd5b50604051620062163803806200621683398181016040528101906200003791906200045a565b8585818181600090816200004c919062000775565b5080600190816200005e919062000775565b505050505062000083620000776200015960201b60201c565b6200016160201b60201c565b8360078190555082600960006101000a81548173ffffffffffffffffffffffffffffffffffffffff021916908373ffffffffffffffffffffffffffffffffffffffff16021790555081600a60006101000a81548173ffffffffffffffffffffffffffffffffffffffff021916908373ffffffffffffffffffffffffffffffffffffffff16021790555080600b60006101000a81548173ffffffffffffffffffffffffffffffffffffffff021916908373ffffffffffffffffffffffffffffffffffffffff1602179055505050505050506200085c565b600033905090565b6000600660009054906101000a900473ffffffffffffffffffffffffffffffffffffffff16905081600660006101000a81548173ffffffffffffffffffffffffffffffffffffffff021916908373ffffffffffffffffffffffffffffffffffffffff1602179055508173ffffffffffffffffffffffffffffffffffffffff168173ffffffffffffffffffffffffffffffffffffffff167f8be0079c531659141344cd1fd0a4f28419497f9722a3daafe3b4186f6b6457e060405160405180910390a35050565b6000604051905090565b600080fd5b600080fd5b600080fd5b600080fd5b6000601f19601f8301169050919050565b7f4e487b7100000000000000000000000000000000000000000000000000000000600052604160045260246000fd5b620002908262000245565b810181811067ffffffffffffffff82111715620002b257620002b162000256565b5b80604052505050565b6000620002c762000227565b9050620002d5828262000285565b919050565b600067ffffffffffffffff821115620002f857620002f762000256565b5b620003038262000245565b9050602081019050919050565b60005b838110156200033057808201518184015260208101905062000313565b60008484015250505050565b6000620003536200034d84620002da565b620002bb565b90508281526020810184848401111562000372576200037162000240565b5b6200037f84828562000310565b509392505050565b600082601f8301126200039f576200039e6200023b565b5b8151620003b18482602086016200033c565b91505092915050565b6000819050919050565b620003cf81620003ba565b8114620003db57600080fd5b50565b600081519050620003ef81620003c4565b92915050565b600073ffffffffffffffffffffffffffffffffffffffff82169050919050565b60006200042282620003f5565b9050919050565b620004348162000415565b81146200044057600080fd5b50565b600081519050620004548162000429565b92915050565b60008060008060008060c087890312156200047a576200047962000231565b5b600087015167ffffffffffffffff8111156200049b576200049a62000236565b5b620004a989828a0162000387565b965050602087015167ffffffffffffffff811115620004cd57620004cc62000236565b5b620004db89828a0162000387565b9550506040620004ee89828a01620003de565b94505060606200050189828a0162000443565b93505060806200051489828a0162000443565b92505060a06200052789828a0162000443565b9150509295509295509295565b600081519050919050565b7f4e487b7100000000000000000000000000000000000000000000000000000000600052602260045260246000fd5b600060028204905060018216806200058757607f821691505b6020821081036200059d576200059c6200053f565b5b50919050565b60008190508160005260206000209050919050565b60006020601f8301049050919050565b600082821b905092915050565b600060088302620006077fffffffffffffffffffffffffffffffffffffffffffffffffffffffffffffffff82620005c8565b620006138683620005c8565b95508019841693508086168417925050509392505050565b6000819050919050565b600062000656620006506200064a84620003ba565b6200062b565b620003ba565b9050919050565b6000819050919050565b620006728362000635565b6200068a62000681826200065d565b848454620005d5565b825550505050565b600090565b620006a162000692565b620006ae81848462000667565b505050565b5b81811015620006d657620006ca60008262000697565b600181019050620006b4565b5050565b601f8211156200072557620006ef81620005a3565b620006fa84620005b8565b810160208510156200070a578190505b620007226200071985620005b8565b830182620006b3565b50505b505050565b600082821c905092915050565b60006200074a600019846008026200072a565b1980831691505092915050565b600062000765838362000737565b9150826002028217905092915050565b620007808262000534565b67ffffffffffffffff8111156200079c576200079b62000256565b5b620007a882546200056e565b620007b5828285620006da565b600060209050601f831160018114620007ed5760008415620007d8578287015190505b620007e4858262000757565b86555062000854565b601f198416620007fd86620005a3565b60005b82811015620008275784890151825560018201915060208501945060208101905062000800565b8683101562000847578489015162000843601f89168262000737565b8355505b6001600288020188555050505b505050505050565b6159aa806200086c6000396000f3fe608060405234801561001057600080fd5b506004361061021c5760003560e01c806389327f2811610125578063c87b56dd116100ad578063d89135cd1161007c578063d89135cd1461068c578063de62d842146106aa578063e985e9c5146106c6578063f224d8ad146106f6578063f2fde38b146107145761021c565b8063c87b56dd146105de578063ca714e5b1461060e578063cbad78491461063e578063cd3fdaab1461066e5761021c565b806395d89b41116100f457806395d89b411461053a578063a22cb46514610558578063a2309ff814610574578063b4449b2614610592578063b88d4fde146105c25761021c565b806389327f28146104b05780638ada6b0f146104e05780638b3578c6146104fe5780638da5cb5b1461051c5761021c565b806342842e0e116101a85780636352211e116101775780636352211e146103fa57806365847f211461042a57806370a0823114610446578063715018a6146104765780637752e368146104805761021c565b806342842e0e146103725780634337baba1461038e578063444269bd146103ac5780635e23a763146103ca5761021c565b8063095ea7b3116101ef578063095ea7b3146102d05780630b56c029146102ec57806318160ddd1461030857806318f58b731461032657806323b872dd146103565761021c565b806301e292571461022157806301ffc9a71461025257806306fdde0314610282578063081812fc146102a0575b600080fd5b61023b6004803603810190610236919061364b565b610730565b6040516102499291906137fd565b60405180910390f35b61026c6004803603810190610267919061388c565b6108fc565b60405161027991906138d4565b60405180910390f35b61028a61095d565b60405161029791906138ef565b60405180910390f35b6102ba60048036038101906102b59190613911565b6109ef565b6040516102c7919061397f565b60405180910390f35b6102ea60048036038101906102e591906139c6565b610a35565b005b61030660048036038101906103019190613911565b610b4c565b005b610310610b5e565b60405161031d9190613a15565b60405180910390f35b610340600480360381019061033b9190613b78565b610b75565b60405161034d9190613d0c565b60405180910390f35b610370600480360381019061036b9190613d2e565b610c3a565b005b61038c60048036038101906103879190613d2e565b610c9a565b005b610396610cba565b6040516103a39190613de0565b60405180910390f35b6103b4610ce0565b6040516103c19190613eaa565b60405180910390f35b6103e460048036038101906103df9190613911565b611069565b6040516103f19190613a15565b60405180910390f35b610414600480360381019061040f9190613911565b611092565b604051610421919061397f565b60405180910390f35b610444600480360381019061043f9190613f0a565b611118565b005b610460600480360381019061045b9190613f66565b611585565b60405161046d9190613a15565b60405180910390f35b61047e61163c565b005b61049a60048036038101906104959190613911565b611650565b6040516104a79190613a15565b60405180910390f35b6104ca60048036038101906104c59190613911565b611668565b6040516104d79190613a15565b60405180910390f35b6104e861185a565b6040516104f59190613fb4565b60405180910390f35b610506611880565b60405161051391906138d4565b60405180910390f35b61052461188c565b604051610531919061397f565b60405180910390f35b6105426118b6565b60405161054f91906138ef565b60405180910390f35b610572600480360381019061056d9190613ffb565b611948565b005b61057c61195e565b6040516105899190613a15565b60405180910390f35b6105ac60048036038101906105a79190613911565b611968565b6040516105b991906138ef565b60405180910390f35b6105dc60048036038101906105d791906140f0565b611a12565b005b6105f860048036038101906105f39190613911565b611a74565b60405161060591906138ef565b60405180910390f35b61062860048036038101906106239190613911565b611c5b565b6040516106359190614173565b60405180910390f35b61065860048036038101906106539190613911565b611d82565b6040516106659190613a15565b60405180910390f35b610676611e4e565b6040516106839190613a15565b60405180910390f35b610694611e54565b6040516106a19190613a15565b60405180910390f35b6106c460048036038101906106bf9190613b78565b611e5e565b005b6106e060048036038101906106db9190614195565b61212c565b6040516106ed91906138d4565b60405180910390f35b6106fe6121c0565b60405161070b9190613de0565b60405180910390f35b61072e60048036038101906107299190613f66565b6121e6565b005b6107386135cb565b60606000839050600061074a82611d82565b9050600061075782611968565b9050600061076484611668565b905060006040518060c001604052808a815260200185815260200185600a61078c9190614204565b6002600960009054906101000a900473ffffffffffffffffffffffffffffffffffffffff1673ffffffffffffffffffffffffffffffffffffffff1663030ac5256040518163ffffffff1660e01b8152600401602060405180830381865afa1580156107fb573d6000803e3d6000fd5b505050506040513d601f19601f8201168201806040525081019061081f919061424d565b61082991906142a9565b6108339190614204565b815260200186815260200183815260200184815250905080600960009054906101000a900473ffffffffffffffffffffffffffffffffffffffff1673ffffffffffffffffffffffffffffffffffffffff1663cfeb9a02836040518263ffffffff1660e01b81526004016108a69190614173565b600060405180830381865afa1580156108c3573d6000803e3d6000fd5b505050506040513d6000823e3d601f19601f820116820180604052508101906108ec919061437b565b9650965050505050509250929050565b6000634906490660e01b7bffffffffffffffffffffffffffffffffffffffffffffffffffffffff1916827bffffffffffffffffffffffffffffffffffffffffffffffffffffffff19161480610956575061095582612269565b5b9050919050565b60606000805461096c906143f3565b80601f0160208091040260200160405190810160405280929190818152602001828054610998906143f3565b80156109e55780601f106109ba576101008083540402835291602001916109e5565b820191906000526020600020905b8154815290600101906020018083116109c857829003601f168201915b5050505050905090565b60006109fa8261234b565b6004600083815260200190815260200160002060009054906101000a900473ffffffffffffffffffffffffffffffffffffffff169050919050565b6000610a4082611092565b90508073ffffffffffffffffffffffffffffffffffffffff168373ffffffffffffffffffffffffffffffffffffffff1603610ab0576040517f08c379a0000000000000000000000000000000000000000000000000000000008152600401610aa790614496565b60405180910390fd5b8073ffffffffffffffffffffffffffffffffffffffff16610acf612396565b73ffffffffffffffffffffffffffffffffffffffff161480610afe5750610afd81610af8612396565b61212c565b5b610b3d576040517f08c379a0000000000000000000000000000000000000000000000000000000008152600401610b3490614528565b60405180910390fd5b610b47838361239e565b505050565b610b54612457565b8060078190555050565b6000600d54600c54610b709190614204565b905090565b60606000825167ffffffffffffffff811115610b9457610b93613a35565b5b604051908082528060200260200182016040528015610bcd57816020015b610bba6135cb565b815260200190600190039081610bb25790505b50905060005b8351811015610c3057610bff848281518110610bf257610bf1614548565b5b6020026020010151611c5b565b828281518110610c1257610c11614548565b5b60200260200101819052508080610c2890614577565b915050610bd3565b5080915050919050565b610c4b610c45612396565b826124d5565b610c8a576040517f08c379a0000000000000000000000000000000000000000000000000000000008152600401610c8190614631565b60405180910390fd5b610c9583838361256a565b505050565b610cb583838360405180602001604052806000815250611a12565b505050565b600b60009054906101000a900473ffffffffffffffffffffffffffffffffffffffff1681565b60606000610ecd6001600a60009054906101000a900473ffffffffffffffffffffffffffffffffffffffff1673ffffffffffffffffffffffffffffffffffffffff1663a49062d46040518163ffffffff1660e01b8152600401602060405180830381865afa158015610d56573d6000803e3d6000fd5b505050506040513d601f19601f82011682018060405250810190610d7a919061424d565b610d849190614204565b6002610d909190614784565b600a60009054906101000a900473ffffffffffffffffffffffffffffffffffffffff1673ffffffffffffffffffffffffffffffffffffffff16635056af056040518163ffffffff1660e01b8152600401602060405180830381865afa158015610dfd573d6000803e3d6000fd5b505050506040513d601f19601f82011682018060405250810190610e21919061424d565b600a60009054906101000a900473ffffffffffffffffffffffffffffffffffffffff1673ffffffffffffffffffffffffffffffffffffffff1663a2309ff86040518163ffffffff1660e01b8152600401602060405180830381865afa158015610e8e573d6000803e3d6000fd5b505050506040513d601f19601f82011682018060405250810190610eb2919061424d565b610ebc91906142a9565b610ec691906142a9565b6002612863565b905060006001600a60009054906101000a900473ffffffffffffffffffffffffffffffffffffffff1673ffffffffffffffffffffffffffffffffffffffff1663a49062d46040518163ffffffff1660e01b8152600401602060405180830381865afa158015610f40573d6000803e3d6000fd5b505050506040513d601f19601f82011682018060405250810190610f64919061424d565b610f6e91906147cf565b67ffffffffffffffff811115610f8757610f86613a35565b5b604051908082528060200260200182016040528015610fb55781602001602082028036833780820191505090505b509050600581600081518110610fce57610fcd614548565b5b602002602001018181525050600282610fe79190614803565b81600181518110610ffb57610ffa614548565b5b6020026020010181815250506003826110149190614803565b8160028151811061102857611027614548565b5b6020026020010181815250506008826110419190614803565b8160038151811061105557611054614548565b5b602002602001018181525050809250505090565b60006001600860008481526020019081526020016000205461108b91906147cf565b9050919050565b60008061109e8361287c565b9050600073ffffffffffffffffffffffffffffffffffffffff168173ffffffffffffffffffffffffffffffffffffffff160361110f576040517f08c379a0000000000000000000000000000000000000000000000000000000008152600401611106906148a9565b60405180910390fd5b80915050919050565b600a60009054906101000a900473ffffffffffffffffffffffffffffffffffffffff1673ffffffffffffffffffffffffffffffffffffffff168273ffffffffffffffffffffffffffffffffffffffff1614806111c15750600b60009054906101000a900473ffffffffffffffffffffffffffffffffffffffff1673ffffffffffffffffffffffffffffffffffffffff168273ffffffffffffffffffffffffffffffffffffffff16145b6111f7576040517f7615210d00000000000000000000000000000000000000000000000000000000815260040160405180910390fd5b60008151905060005b8181101561156657600083828151811061121d5761121c614548565b5b6020026020010151905060008573ffffffffffffffffffffffffffffffffffffffff16636352211e836040518263ffffffff1660e01b81526004016112629190613a15565b602060405180830381865afa15801561127f573d6000803e3d6000fd5b505050506040513d601f19601f820116820180604052508101906112a391906148de565b90503373ffffffffffffffffffffffffffffffffffffffff168173ffffffffffffffffffffffffffffffffffffffff161415801561135a57508573ffffffffffffffffffffffffffffffffffffffff1663e985e9c582336040518363ffffffff1660e01b815260040161131792919061490b565b602060405180830381865afa158015611334573d6000803e3d6000fd5b505050506040513d601f19601f820116820180604052508101906113589190614949565b155b801561140b57503373ffffffffffffffffffffffffffffffffffffffff168673ffffffffffffffffffffffffffffffffffffffff1663081812fc846040518263ffffffff1660e01b81526004016113b19190613a15565b602060405180830381865afa1580156113ce573d6000803e3d6000fd5b505050506040513d601f19601f820116820180604052508101906113f291906148de565b73ffffffffffffffffffffffffffffffffffffffff1614155b15611442576040517f3d693ada00000000000000000000000000000000000000000000000000000000815260040160405180910390fd5b60018673ffffffffffffffffffffffffffffffffffffffff16635e23a763846040518263ffffffff1660e01b815260040161147d9190613a15565b602060405180830381865afa15801561149a573d6000803e3d6000fd5b505050506040513d601f19601f820116820180604052508101906114be919061424d565b6114c89190614204565b60086000848152602001908152602001600020819055508573ffffffffffffffffffffffffffffffffffffffff166323b872dd826001856040518463ffffffff1660e01b815260040161151d93929190614976565b600060405180830381600087803b15801561153757600080fd5b505af115801561154b573d6000803e3d6000fd5b5050505061155933836128b9565b8260010192505050611200565b5080600c600082825461157991906147cf565b92505081905550505050565b60008073ffffffffffffffffffffffffffffffffffffffff168273ffffffffffffffffffffffffffffffffffffffff16036115f5576040517f08c379a00000000000000000000000000000000000000000000000000000000081526004016115ec90614a1f565b60405180910390fd5b600360008373ffffffffffffffffffffffffffffffffffffffff1673ffffffffffffffffffffffffffffffffffffffff168152602001908152602001600020549050919050565b611644612457565b61164e60006128d7565b565b60086020528060005260406000206000915090505481565b60008061167483611d82565b9050600a60009054906101000a900473ffffffffffffffffffffffffffffffffffffffff1673ffffffffffffffffffffffffffffffffffffffff1663a49062d46040518163ffffffff1660e01b8152600401602060405180830381865afa1580156116e3573d6000803e3d6000fd5b505050506040513d601f19601f82011682018060405250810190611707919061424d565b8103611717576000915050611855565b600060149050600080611728610ce0565b905060008403611797578260028260008151811061174957611748614548565b5b602002602001015161175b9190614204565b6001886117689190614204565b8561177290614a49565b61177c9190614a91565b6117869190614ba8565b6117909190614c12565b915061184d565b826001826001876117a89190614204565b815181106117b9576117b8614548565b5b60200260200101518387815181106117d4576117d3614548565b5b60200260200101516117e69190614204565b6117f09190614204565b826001876117fe9190614204565b8151811061180f5761180e614548565b5b6020026020010151886118229190614204565b8561182c90614a49565b6118369190614a91565b6118409190614ba8565b61184a9190614c12565b91505b819450505050505b919050565b600960009054906101000a900473ffffffffffffffffffffffffffffffffffffffff1681565b60006007544211905090565b6000600660009054906101000a900473ffffffffffffffffffffffffffffffffffffffff16905090565b6060600180546118c5906143f3565b80601f01602080910402602001604051908101604052809291908181526020018280546118f1906143f3565b801561193e5780601f106119135761010080835404028352916020019161193e565b820191906000526020600020905b81548152906001019060200180831161192157829003601f168201915b5050505050905090565b61195a611953612396565b838361299d565b5050565b6000600c54905090565b6060600a60009054906101000a900473ffffffffffffffffffffffffffffffffffffffff1673ffffffffffffffffffffffffffffffffffffffff1663b4449b26836040518263ffffffff1660e01b81526004016119c59190613a15565b600060405180830381865afa1580156119e2573d6000803e3d6000fd5b505050506040513d6000823e3d601f19601f82011682018060405250810190611a0b919061437b565b9050919050565b611a23611a1d612396565b836124d5565b611a62576040517f08c379a0000000000000000000000000000000000000000000000000000000008152600401611a5990614631565b60405180910390fd5b611a6e84848484612b09565b50505050565b6060611a7f82612b65565b611ab5576040517fa14c4b5000000000000000000000000000000000000000000000000000000000815260040160405180910390fd5b6000611ac083612ba6565b604051602001611ad09190614cde565b6040516020818303038152906040529050600060405180608001604052806057815260200161591e6057913990506000611b0985611c5b565b90506000600960009054906101000a900473ffffffffffffffffffffffffffffffffffffffff1673ffffffffffffffffffffffffffffffffffffffff1663cfeb9a02836040518263ffffffff1660e01b8152600401611b689190614173565b600060405180830381865afa158015611b85573d6000803e3d6000fd5b505050506040513d6000823e3d601f19601f82011682018060405250810190611bae919061437b565b90506000611bbf8360200151612ba6565b8360a00151611bd18560600151612ba6565b604051602001611be393929190614ea2565b60405160208183030381529060405290506000858583611c0286612d2e565b604051602001611c159493929190615122565b6040516020818303038152906040529050611c2f81612d2e565b604051602001611c3f91906151ee565b6040516020818303038152906040529650505050505050919050565b611c636135cb565b6000611c6e83611069565b90506000611c7b82611d82565b90506000611c8882611968565b90506000611c9584611668565b90506040518060c0016040528087815260200184815260200184600a611cbb9190614204565b6002600960009054906101000a900473ffffffffffffffffffffffffffffffffffffffff1673ffffffffffffffffffffffffffffffffffffffff1663030ac5256040518163ffffffff1660e01b8152600401602060405180830381865afa158015611d2a573d6000803e3d6000fd5b505050506040513d601f19601f82011682018060405250810190611d4e919061424d565b611d5891906142a9565b611d629190614204565b815260200185815260200182815260200183815250945050505050919050565b600080611d8d610ce0565b905080600081518110611da357611da2614548565b5b6020026020010151831015611dbc576000915050611e49565b80600181518110611dd057611dcf614548565b5b6020026020010151831015611de9576001915050611e49565b80600281518110611dfd57611dfc614548565b5b6020026020010151831015611e16576002915050611e49565b80600381518110611e2a57611e29614548565b5b6020026020010151831015611e43576003915050611e49565b60049150505b919050565b60075481565b6000600d54905090565b611e66611880565b611ea5576040517f08c379a0000000000000000000000000000000000000000000000000000000008152600401611e9c9061525c565b60405180910390fd5b6001815111611ee9576040517f08c379a0000000000000000000000000000000000000000000000000000000008152600401611ee0906152c8565b60405180910390fd5b600081600081518110611eff57611efe614548565b5b602002602001015190503373ffffffffffffffffffffffffffffffffffffffff16611f4483600081518110611f3757611f36614548565b5b6020026020010151611092565b73ffffffffffffffffffffffffffffffffffffffff1614611f9a576040517f08c379a0000000000000000000000000000000000000000000000000000000008152600401611f9190615334565b60405180910390fd5b600080600190505b8351811015612099573373ffffffffffffffffffffffffffffffffffffffff16611fe5858381518110611fd857611fd7614548565b5b6020026020010151611092565b73ffffffffffffffffffffffffffffffffffffffff161461203b576040517f08c379a0000000000000000000000000000000000000000000000000000000008152600401612032906153a0565b60405180910390fd5b61205e84828151811061205157612050614548565b5b6020026020010151611069565b8261206991906147cf565b915061208e84828151811061208157612080614548565b5b6020026020010151612ec5565b806001019050611fa2565b50600183516120a89190614204565b63ffffffff16600d60008282546120bf91906147cf565b92505081905550806008600084815260200190815260200160002060008282546120e991906147cf565b925050819055507ff8e1a15aba9398e019f0b49df1a4fde98ee17ae345cb5f6b5e2c27f5033e8ce78260405161211f9190613a15565b60405180910390a1505050565b6000600560008473ffffffffffffffffffffffffffffffffffffffff1673ffffffffffffffffffffffffffffffffffffffff16815260200190815260200160002060008373ffffffffffffffffffffffffffffffffffffffff1673ffffffffffffffffffffffffffffffffffffffff16815260200190815260200160002060009054906101000a900460ff16905092915050565b600a60009054906101000a900473ffffffffffffffffffffffffffffffffffffffff1681565b6121ee612457565b600073ffffffffffffffffffffffffffffffffffffffff168173ffffffffffffffffffffffffffffffffffffffff160361225d576040517f08c379a000000000000000000000000000000000000000000000000000000000815260040161225490615432565b60405180910390fd5b612266816128d7565b50565b60007f80ac58cd000000000000000000000000000000000000000000000000000000007bffffffffffffffffffffffffffffffffffffffffffffffffffffffff1916827bffffffffffffffffffffffffffffffffffffffffffffffffffffffff1916148061233457507f5b5e139f000000000000000000000000000000000000000000000000000000007bffffffffffffffffffffffffffffffffffffffffffffffffffffffff1916827bffffffffffffffffffffffffffffffffffffffffffffffffffffffff1916145b80612344575061234382613013565b5b9050919050565b61235481612b65565b612393576040517f08c379a000000000000000000000000000000000000000000000000000000000815260040161238a906148a9565b60405180910390fd5b50565b600033905090565b816004600083815260200190815260200160002060006101000a81548173ffffffffffffffffffffffffffffffffffffffff021916908373ffffffffffffffffffffffffffffffffffffffff160217905550808273ffffffffffffffffffffffffffffffffffffffff1661241183611092565b73ffffffffffffffffffffffffffffffffffffffff167f8c5be1e5ebec7d5bd14f71427d1e84f3dd0314c0f7b2291e5b200ac8c7c3b92560405160405180910390a45050565b61245f612396565b73ffffffffffffffffffffffffffffffffffffffff1661247d61188c565b73ffffffffffffffffffffffffffffffffffffffff16146124d3576040517f08c379a00000000000000000000000000000000000000000000000000000000081526004016124ca9061549e565b60405180910390fd5b565b6000806124e183611092565b90508073ffffffffffffffffffffffffffffffffffffffff168473ffffffffffffffffffffffffffffffffffffffff1614806125235750612522818561212c565b5b8061256157508373ffffffffffffffffffffffffffffffffffffffff16612549846109ef565b73ffffffffffffffffffffffffffffffffffffffff16145b91505092915050565b8273ffffffffffffffffffffffffffffffffffffffff1661258a82611092565b73ffffffffffffffffffffffffffffffffffffffff16146125e0576040517f08c379a00000000000000000000000000000000000000000000000000000000081526004016125d790615530565b60405180910390fd5b600073ffffffffffffffffffffffffffffffffffffffff168273ffffffffffffffffffffffffffffffffffffffff160361264f576040517f08c379a0000000000000000000000000000000000000000000000000000000008152600401612646906155c2565b60405180910390fd5b61265c838383600161307d565b8273ffffffffffffffffffffffffffffffffffffffff1661267c82611092565b73ffffffffffffffffffffffffffffffffffffffff16146126d2576040517f08c379a00000000000000000000000000000000000000000000000000000000081526004016126c990615530565b60405180910390fd5b6004600082815260200190815260200160002060006101000a81549073ffffffffffffffffffffffffffffffffffffffff02191690556001600360008573ffffffffffffffffffffffffffffffffffffffff1673ffffffffffffffffffffffffffffffffffffffff168152602001908152602001600020600082825403925050819055506001600360008473ffffffffffffffffffffffffffffffffffffffff1673ffffffffffffffffffffffffffffffffffffffff16815260200190815260200160002060008282540192505081905550816002600083815260200190815260200160002060006101000a81548173ffffffffffffffffffffffffffffffffffffffff021916908373ffffffffffffffffffffffffffffffffffffffff160217905550808273ffffffffffffffffffffffffffffffffffffffff168473ffffffffffffffffffffffffffffffffffffffff167fddf252ad1be2c89b69c2b068fc378daa952ba7f163c4a11628f55a4df523b3ef60405160405180910390a461285e83838360016131a3565b505050565b60008183116128725781612874565b825b905092915050565b60006002600083815260200190815260200160002060009054906101000a900473ffffffffffffffffffffffffffffffffffffffff169050919050565b6128d38282604051806020016040528060008152506131a9565b5050565b6000600660009054906101000a900473ffffffffffffffffffffffffffffffffffffffff16905081600660006101000a81548173ffffffffffffffffffffffffffffffffffffffff021916908373ffffffffffffffffffffffffffffffffffffffff1602179055508173ffffffffffffffffffffffffffffffffffffffff168173ffffffffffffffffffffffffffffffffffffffff167f8be0079c531659141344cd1fd0a4f28419497f9722a3daafe3b4186f6b6457e060405160405180910390a35050565b8173ffffffffffffffffffffffffffffffffffffffff168373ffffffffffffffffffffffffffffffffffffffff1603612a0b576040517f08c379a0000000000000000000000000000000000000000000000000000000008152600401612a029061562e565b60405180910390fd5b80600560008573ffffffffffffffffffffffffffffffffffffffff1673ffffffffffffffffffffffffffffffffffffffff16815260200190815260200160002060008473ffffffffffffffffffffffffffffffffffffffff1673ffffffffffffffffffffffffffffffffffffffff16815260200190815260200160002060006101000a81548160ff0219169083151502179055508173ffffffffffffffffffffffffffffffffffffffff168373ffffffffffffffffffffffffffffffffffffffff167f17307eab39ab6107e8899845ad3d59bd9653f200f220920489ca2b5937696c3183604051612afc91906138d4565b60405180910390a3505050565b612b1484848461256a565b612b2084848484613204565b612b5f576040517f08c379a0000000000000000000000000000000000000000000000000000000008152600401612b56906156c0565b60405180910390fd5b50505050565b60008073ffffffffffffffffffffffffffffffffffffffff16612b878361287c565b73ffffffffffffffffffffffffffffffffffffffff1614159050919050565b606060008203612bed576040518060400160405280600181526020017f30000000000000000000000000000000000000000000000000000000000000008152509050612d29565b600082905060005b60008214612c1f578080612c0890614577565b915050600a82612c1891906142a9565b9150612bf5565b60008167ffffffffffffffff811115612c3b57612c3a613a35565b5b6040519080825280601f01601f191660200182016040528015612c6d5781602001600182028036833780820191505090505b50905060008290505b60008614612d2157600181612c8b9190614204565b90506000600a8088612c9d91906142a9565b612ca79190614803565b87612cb29190614204565b6030612cbe91906156ed565b905060008160f81b905080848481518110612cdc57612cdb614548565b5b60200101907effffffffffffffffffffffffffffffffffffffffffffffffffffffffffffff1916908160001a905350600a88612d1891906142a9565b97505050612c76565b819450505050505b919050565b606060008251905060008103612d565760405180602001604052806000815250915050612ec0565b60006003600283612d6791906147cf565b612d7191906142a9565b6004612d7d9190614803565b90506000602082612d8e91906147cf565b67ffffffffffffffff811115612da757612da6613a35565b5b6040519080825280601f01601f191660200182016040528015612dd95781602001600182028036833780820191505090505b50905060006040518060600160405280604081526020016158de604091399050600181016020830160005b86811015612e7d5760038101905062ffffff818a015116603f8160121c168401518060081b905060ff603f83600c1c1686015116810190508060081b905060ff603f8360061c1686015116810190508060081b905060ff603f831686015116810190508060e01b90508084526004840193505050612e04565b506003860660018114612e975760028114612ea757612eb2565b613d3d60f01b6002830352612eb2565b603d60f81b60018303525b508484525050819450505050505b919050565b6000612ed082611092565b9050612ee081600084600161307d565b612ee982611092565b90506004600083815260200190815260200160002060006101000a81549073ffffffffffffffffffffffffffffffffffffffff02191690556001600360008373ffffffffffffffffffffffffffffffffffffffff1673ffffffffffffffffffffffffffffffffffffffff168152602001908152602001600020600082825403925050819055506002600083815260200190815260200160002060006101000a81549073ffffffffffffffffffffffffffffffffffffffff021916905581600073ffffffffffffffffffffffffffffffffffffffff168273ffffffffffffffffffffffffffffffffffffffff167fddf252ad1be2c89b69c2b068fc378daa952ba7f163c4a11628f55a4df523b3ef60405160405180910390a461300f8160008460016131a3565b5050565b60007f01ffc9a7000000000000000000000000000000000000000000000000000000007bffffffffffffffffffffffffffffffffffffffffffffffffffffffff1916827bffffffffffffffffffffffffffffffffffffffffffffffffffffffff1916149050919050565b600181111561319d57600073ffffffffffffffffffffffffffffffffffffffff168473ffffffffffffffffffffffffffffffffffffffff16146131115780600360008673ffffffffffffffffffffffffffffffffffffffff1673ffffffffffffffffffffffffffffffffffffffff16815260200190815260200160002060008282546131099190614204565b925050819055505b600073ffffffffffffffffffffffffffffffffffffffff168373ffffffffffffffffffffffffffffffffffffffff161461319c5780600360008573ffffffffffffffffffffffffffffffffffffffff1673ffffffffffffffffffffffffffffffffffffffff168152602001908152602001600020600082825461319491906147cf565b925050819055505b5b50505050565b50505050565b6131b3838361338b565b6131c06000848484613204565b6131ff576040517f08c379a00000000000000000000000000000000000000000000000000000000081526004016131f6906156c0565b60405180910390fd5b505050565b60006132258473ffffffffffffffffffffffffffffffffffffffff166135a8565b1561337e578373ffffffffffffffffffffffffffffffffffffffff1663150b7a0261324e612396565b8786866040518563ffffffff1660e01b81526004016132709493929190615777565b6020604051808303816000875af19250505080156132ac57506040513d601f19601f820116820180604052508101906132a991906157d8565b60015b61332e573d80600081146132dc576040519150601f19603f3d011682016040523d82523d6000602084013e6132e1565b606091505b506000815103613326576040517f08c379a000000000000000000000000000000000000000000000000000000000815260040161331d906156c0565b60405180910390fd5b805181602001fd5b63150b7a0260e01b7bffffffffffffffffffffffffffffffffffffffffffffffffffffffff1916817bffffffffffffffffffffffffffffffffffffffffffffffffffffffff191614915050613383565b600190505b949350505050565b600073ffffffffffffffffffffffffffffffffffffffff168273ffffffffffffffffffffffffffffffffffffffff16036133fa576040517f08c379a00000000000000000000000000000000000000000000000000000000081526004016133f190615851565b60405180910390fd5b61340381612b65565b15613443576040517f08c379a000000000000000000000000000000000000000000000000000000000815260040161343a906158bd565b60405180910390fd5b61345160008383600161307d565b61345a81612b65565b1561349a576040517f08c379a0000000000000000000000000000000000000000000000000000000008152600401613491906158bd565b60405180910390fd5b6001600360008473ffffffffffffffffffffffffffffffffffffffff1673ffffffffffffffffffffffffffffffffffffffff16815260200190815260200160002060008282540192505081905550816002600083815260200190815260200160002060006101000a81548173ffffffffffffffffffffffffffffffffffffffff021916908373ffffffffffffffffffffffffffffffffffffffff160217905550808273ffffffffffffffffffffffffffffffffffffffff16600073ffffffffffffffffffffffffffffffffffffffff167fddf252ad1be2c89b69c2b068fc378daa952ba7f163c4a11628f55a4df523b3ef60405160405180910390a46135a46000838360016131a3565b5050565b6000808273ffffffffffffffffffffffffffffffffffffffff163b119050919050565b6040518060c001604052806000815260200160008152602001600081526020016000815260200160008152602001606081525090565b6000604051905090565b600080fd5b600080fd5b6000819050919050565b61362881613615565b811461363357600080fd5b50565b6000813590506136458161361f565b92915050565b600080604083850312156136625761366161360b565b5b600061367085828601613636565b925050602061368185828601613636565b9150509250929050565b61369481613615565b82525050565b600081519050919050565b600082825260208201905092915050565b60005b838110156136d45780820151818401526020810190506136b9565b60008484015250505050565b6000601f19601f8301169050919050565b60006136fc8261369a565b61370681856136a5565b93506137168185602086016136b6565b61371f816136e0565b840191505092915050565b600060c083016000830151613742600086018261368b565b506020830151613755602086018261368b565b506040830151613768604086018261368b565b50606083015161377b606086018261368b565b50608083015161378e608086018261368b565b5060a083015184820360a08601526137a682826136f1565b9150508091505092915050565b600082825260208201905092915050565b60006137cf8261369a565b6137d981856137b3565b93506137e98185602086016136b6565b6137f2816136e0565b840191505092915050565b60006040820190508181036000830152613817818561372a565b9050818103602083015261382b81846137c4565b90509392505050565b60007fffffffff0000000000000000000000000000000000000000000000000000000082169050919050565b61386981613834565b811461387457600080fd5b50565b60008135905061388681613860565b92915050565b6000602082840312156138a2576138a161360b565b5b60006138b084828501613877565b91505092915050565b60008115159050919050565b6138ce816138b9565b82525050565b60006020820190506138e960008301846138c5565b92915050565b6000602082019050818103600083015261390981846137c4565b905092915050565b6000602082840312156139275761392661360b565b5b600061393584828501613636565b91505092915050565b600073ffffffffffffffffffffffffffffffffffffffff82169050919050565b60006139698261393e565b9050919050565b6139798161395e565b82525050565b60006020820190506139946000830184613970565b92915050565b6139a38161395e565b81146139ae57600080fd5b50565b6000813590506139c08161399a565b92915050565b600080604083850312156139dd576139dc61360b565b5b60006139eb858286016139b1565b92505060206139fc85828601613636565b9150509250929050565b613a0f81613615565b82525050565b6000602082019050613a2a6000830184613a06565b92915050565b600080fd5b7f4e487b7100000000000000000000000000000000000000000000000000000000600052604160045260246000fd5b613a6d826136e0565b810181811067ffffffffffffffff82111715613a8c57613a8b613a35565b5b80604052505050565b6000613a9f613601565b9050613aab8282613a64565b919050565b600067ffffffffffffffff821115613acb57613aca613a35565b5b602082029050602081019050919050565b600080fd5b6000613af4613aef84613ab0565b613a95565b90508083825260208201905060208402830185811115613b1757613b16613adc565b5b835b81811015613b405780613b2c8882613636565b845260208401935050602081019050613b19565b5050509392505050565b600082601f830112613b5f57613b5e613a30565b5b8135613b6f848260208601613ae1565b91505092915050565b600060208284031215613b8e57613b8d61360b565b5b600082013567ffffffffffffffff811115613bac57613bab613610565b5b613bb884828501613b4a565b91505092915050565b600081519050919050565b600082825260208201905092915050565b6000819050602082019050919050565b600060c083016000830151613c05600086018261368b565b506020830151613c18602086018261368b565b506040830151613c2b604086018261368b565b506060830151613c3e606086018261368b565b506080830151613c51608086018261368b565b5060a083015184820360a0860152613c6982826136f1565b9150508091505092915050565b6000613c828383613bed565b905092915050565b6000602082019050919050565b6000613ca282613bc1565b613cac8185613bcc565b935083602082028501613cbe85613bdd565b8060005b85811015613cfa5784840389528151613cdb8582613c76565b9450613ce683613c8a565b925060208a01995050600181019050613cc2565b50829750879550505050505092915050565b60006020820190508181036000830152613d268184613c97565b905092915050565b600080600060608486031215613d4757613d4661360b565b5b6000613d55868287016139b1565b9350506020613d66868287016139b1565b9250506040613d7786828701613636565b9150509250925092565b6000819050919050565b6000613da6613da1613d9c8461393e565b613d81565b61393e565b9050919050565b6000613db882613d8b565b9050919050565b6000613dca82613dad565b9050919050565b613dda81613dbf565b82525050565b6000602082019050613df56000830184613dd1565b92915050565b600081519050919050565b600082825260208201905092915050565b6000819050602082019050919050565b6000613e33838361368b565b60208301905092915050565b6000602082019050919050565b6000613e5782613dfb565b613e618185613e06565b9350613e6c83613e17565b8060005b83811015613e9d578151613e848882613e27565b9750613e8f83613e3f565b925050600181019050613e70565b5085935050505092915050565b60006020820190508181036000830152613ec48184613e4c565b905092915050565b6000613ed78261395e565b9050919050565b613ee781613ecc565b8114613ef257600080fd5b50565b600081359050613f0481613ede565b92915050565b60008060408385031215613f2157613f2061360b565b5b6000613f2f85828601613ef5565b925050602083013567ffffffffffffffff811115613f5057613f4f613610565b5b613f5c85828601613b4a565b9150509250929050565b600060208284031215613f7c57613f7b61360b565b5b6000613f8a848285016139b1565b91505092915050565b6000613f9e82613dad565b9050919050565b613fae81613f93565b82525050565b6000602082019050613fc96000830184613fa5565b92915050565b613fd8816138b9565b8114613fe357600080fd5b50565b600081359050613ff581613fcf565b92915050565b600080604083850312156140125761401161360b565b5b6000614020858286016139b1565b925050602061403185828601613fe6565b9150509250929050565b600080fd5b600067ffffffffffffffff82111561405b5761405a613a35565b5b614064826136e0565b9050602081019050919050565b82818337600083830152505050565b600061409361408e84614040565b613a95565b9050828152602081018484840111156140af576140ae61403b565b5b6140ba848285614071565b509392505050565b600082601f8301126140d7576140d6613a30565b5b81356140e7848260208601614080565b91505092915050565b6000806000806080858703121561410a5761410961360b565b5b6000614118878288016139b1565b9450506020614129878288016139b1565b935050604061413a87828801613636565b925050606085013567ffffffffffffffff81111561415b5761415a613610565b5b614167878288016140c2565b91505092959194509250565b6000602082019050818103600083015261418d818461372a565b905092915050565b600080604083850312156141ac576141ab61360b565b5b60006141ba858286016139b1565b92505060206141cb858286016139b1565b9150509250929050565b7f4e487b7100000000000000000000000000000000000000000000000000000000600052601160045260246000fd5b600061420f82613615565b915061421a83613615565b9250828203905081811115614232576142316141d5565b5b92915050565b6000815190506142478161361f565b92915050565b6000602082840312156142635761426261360b565b5b600061427184828501614238565b91505092915050565b7f4e487b7100000000000000000000000000000000000000000000000000000000600052601260045260246000fd5b60006142b482613615565b91506142bf83613615565b9250826142cf576142ce61427a565b5b828204905092915050565b600067ffffffffffffffff8211156142f5576142f4613a35565b5b6142fe826136e0565b9050602081019050919050565b600061431e614319846142da565b613a95565b90508281526020810184848401111561433a5761433961403b565b5b6143458482856136b6565b509392505050565b600082601f83011261436257614361613a30565b5b815161437284826020860161430b565b91505092915050565b6000602082840312156143915761439061360b565b5b600082015167ffffffffffffffff8111156143af576143ae613610565b5b6143bb8482850161434d565b91505092915050565b7f4e487b7100000000000000000000000000000000000000000000000000000000600052602260045260246000fd5b6000600282049050600182168061440b57607f821691505b60208210810361441e5761441d6143c4565b5b50919050565b7f4552433732313a20617070726f76616c20746f2063757272656e74206f776e6560008201527f7200000000000000000000000000000000000000000000000000000000000000602082015250565b60006144806021836137b3565b915061448b82614424565b604082019050919050565b600060208201905081810360008301526144af81614473565b9050919050565b7f4552433732313a20617070726f76652063616c6c6572206973206e6f7420746f60008201527f6b656e206f776e6572206f7220617070726f76656420666f7220616c6c000000602082015250565b6000614512603d836137b3565b915061451d826144b6565b604082019050919050565b6000602082019050818103600083015261454181614505565b9050919050565b7f4e487b7100000000000000000000000000000000000000000000000000000000600052603260045260246000fd5b600061458282613615565b91507fffffffffffffffffffffffffffffffffffffffffffffffffffffffffffffffff82036145b4576145b36141d5565b5b600182019050919050565b7f4552433732313a2063616c6c6572206973206e6f7420746f6b656e206f776e6560008201527f72206f7220617070726f76656400000000000000000000000000000000000000602082015250565b600061461b602d836137b3565b9150614626826145bf565b604082019050919050565b6000602082019050818103600083015261464a8161460e565b9050919050565b60008160011c9050919050565b6000808291508390505b60018511156146a857808604811115614684576146836141d5565b5b60018516156146935780820291505b80810290506146a185614651565b9450614668565b94509492505050565b6000826146c1576001905061477d565b816146cf576000905061477d565b81600181146146e557600281146146ef5761471e565b600191505061477d565b60ff841115614701576147006141d5565b5b8360020a915084821115614718576147176141d5565b5b5061477d565b5060208310610133831016604e8410600b84101617156147535782820a90508381111561474e5761474d6141d5565b5b61477d565b614760848484600161465e565b92509050818404811115614777576147766141d5565b5b81810290505b9392505050565b600061478f82613615565b915061479a83613615565b92506147c77fffffffffffffffffffffffffffffffffffffffffffffffffffffffffffffffff84846146b1565b905092915050565b60006147da82613615565b91506147e583613615565b92508282019050808211156147fd576147fc6141d5565b5b92915050565b600061480e82613615565b915061481983613615565b9250817fffffffffffffffffffffffffffffffffffffffffffffffffffffffffffffffff0483118215151615614852576148516141d5565b5b828202905092915050565b7f4552433732313a20696e76616c696420746f6b656e2049440000000000000000600082015250565b60006148936018836137b3565b915061489e8261485d565b602082019050919050565b600060208201905081810360008301526148c281614886565b9050919050565b6000815190506148d88161399a565b92915050565b6000602082840312156148f4576148f361360b565b5b6000614902848285016148c9565b91505092915050565b60006040820190506149206000830185613970565b61492d6020830184613970565b9392505050565b60008151905061494381613fcf565b92915050565b60006020828403121561495f5761495e61360b565b5b600061496d84828501614934565b91505092915050565b600060608201905061498b6000830186613970565b6149986020830185613970565b6149a56040830184613a06565b949350505050565b7f4552433732313a2061646472657373207a65726f206973206e6f74206120766160008201527f6c6964206f776e65720000000000000000000000000000000000000000000000602082015250565b6000614a096029836137b3565b9150614a14826149ad565b604082019050919050565b60006020820190508181036000830152614a38816149fc565b9050919050565b6000819050919050565b6000614a5482614a3f565b91507f80000000000000000000000000000000000000000000000000000000000000008203614a8657614a856141d5565b5b816000039050919050565b6000614a9c82614a3f565b9150614aa783614a3f565b9250827f7fffffffffffffffffffffffffffffffffffffffffffffffffffffffffffffff0482116000841360008413161615614ae657614ae56141d5565b5b817f80000000000000000000000000000000000000000000000000000000000000000583126000841260008413161615614b2357614b226141d5565b5b827f80000000000000000000000000000000000000000000000000000000000000000582126000841360008412161615614b6057614b5f6141d5565b5b827f7fffffffffffffffffffffffffffffffffffffffffffffffffffffffffffffff0582126000841260008412161615614b9d57614b9c6141d5565b5b828202905092915050565b6000614bb382614a3f565b9150614bbe83614a3f565b925082614bce57614bcd61427a565b5b600160000383147f800000000000000000000000000000000000000000000000000000000000000083141615614c0757614c066141d5565b5b828205905092915050565b6000614c1d82614a3f565b9150614c2883614a3f565b925082820190508281121560008312168382126000841215161715614c5057614c4f6141d5565b5b92915050565b600081905092915050565b7f426c61636b486f6c652023000000000000000000000000000000000000000000600082015250565b6000614c97600b83614c56565b9150614ca282614c61565b600b82019050919050565b6000614cb88261369a565b614cc28185614c56565b9350614cd28185602086016136b6565b80840191505092915050565b6000614ce982614c8a565b9150614cf58284614cad565b915081905092915050565b7f5b00000000000000000000000000000000000000000000000000000000000000815250565b7f7b2274726169745f74797065223a20224c6576656c222c202276616c7565223a60008201527f2000000000000000000000000000000000000000000000000000000000000000602082015250565b6000614d82602183614c56565b9150614d8d82614d26565b602182019050919050565b7f7d2c000000000000000000000000000000000000000000000000000000000000815250565b7f7b2274726169745f74797065223a20224e616d65222c202276616c7565223a2060008201527f2200000000000000000000000000000000000000000000000000000000000000602082015250565b6000614e1a602183614c56565b9150614e2582614dbe565b602182019050919050565b7f227d2c0000000000000000000000000000000000000000000000000000000000815250565b7f7b2274726169745f74797065223a20224d617373222c202276616c7565223a20815250565b7f7d5d000000000000000000000000000000000000000000000000000000000000815250565b6000614ead82614d00565b600182019150614ebc82614d75565b9150614ec88286614cad565b9150614ed382614d98565b600282019150614ee282614e0d565b9150614eee8285614cad565b9150614ef982614e30565b600382019150614f0882614e56565b602082019150614f188284614cad565b9150614f2382614e7c565b600282019150819050949350505050565b7f7b226e616d65223a220000000000000000000000000000000000000000000000600082015250565b6000614f6a600983614c56565b9150614f7582614f34565b600982019050919050565b7f222c226465736372697074696f6e223a22000000000000000000000000000000600082015250565b6000614fb6601183614c56565b9150614fc182614f80565b601182019050919050565b7f222c000000000000000000000000000000000000000000000000000000000000600082015250565b6000615002600283614c56565b915061500d82614fcc565b600282019050919050565b7f2261747472696275746573223a20000000000000000000000000000000000000600082015250565b600061504e600e83614c56565b915061505982615018565b600e82019050919050565b7f2c2022696d616765223a2022646174613a696d6167652f7376672b786d6c3b6260008201527f61736536342c0000000000000000000000000000000000000000000000000000602082015250565b60006150c0602683614c56565b91506150cb82615064565b602682019050919050565b7f227d000000000000000000000000000000000000000000000000000000000000600082015250565b600061510c600283614c56565b9150615117826150d6565b600282019050919050565b600061512d82614f5d565b91506151398287614cad565b915061514482614fa9565b91506151508286614cad565b915061515b82614ff5565b915061516682615041565b91506151728285614cad565b915061517d826150b3565b91506151898284614cad565b9150615194826150ff565b915081905095945050505050565b7f646174613a6170706c69636174696f6e2f6a736f6e3b6261736536342c000000600082015250565b60006151d8601d83614c56565b91506151e3826151a2565b601d82019050919050565b60006151f9826151cb565b91506152058284614cad565b915081905092915050565b7f4d657267696e67206e6f7420656e61626c656400000000000000000000000000600082015250565b60006152466013836137b3565b915061525182615210565b602082019050919050565b6000602082019050818103600083015261527581615239565b9050919050565b7f4d757374206d65726765206174206c65617374203220746f6b656e7300000000600082015250565b60006152b2601c836137b3565b91506152bd8261527c565b602082019050919050565b600060208201905081810360008301526152e1816152a5565b9050919050565b7f4d757374206f776e20616c6c20746f6b656e7320287461726765742900000000600082015250565b600061531e601c836137b3565b9150615329826152e8565b602082019050919050565b6000602082019050818103600083015261534d81615311565b9050919050565b7f4d757374206f776e20616c6c20746f6b656e7320286275726e29000000000000600082015250565b600061538a601a836137b3565b915061539582615354565b602082019050919050565b600060208201905081810360008301526153b98161537d565b9050919050565b7f4f776e61626c653a206e6577206f776e657220697320746865207a65726f206160008201527f6464726573730000000000000000000000000000000000000000000000000000602082015250565b600061541c6026836137b3565b9150615427826153c0565b604082019050919050565b6000602082019050818103600083015261544b8161540f565b9050919050565b7f4f776e61626c653a2063616c6c6572206973206e6f7420746865206f776e6572600082015250565b60006154886020836137b3565b915061549382615452565b602082019050919050565b600060208201905081810360008301526154b78161547b565b9050919050565b7f4552433732313a207472616e736665722066726f6d20696e636f72726563742060008201527f6f776e6572000000000000000000000000000000000000000000000000000000602082015250565b600061551a6025836137b3565b9150615525826154be565b604082019050919050565b600060208201905081810360008301526155498161550d565b9050919050565b7f4552433732313a207472616e7366657220746f20746865207a65726f2061646460008201527f7265737300000000000000000000000000000000000000000000000000000000602082015250565b60006155ac6024836137b3565b91506155b782615550565b604082019050919050565b600060208201905081810360008301526155db8161559f565b9050919050565b7f4552433732313a20617070726f766520746f2063616c6c657200000000000000600082015250565b60006156186019836137b3565b9150615623826155e2565b602082019050919050565b600060208201905081810360008301526156478161560b565b9050919050565b7f4552433732313a207472616e7366657220746f206e6f6e20455243373231526560008201527f63656976657220696d706c656d656e7465720000000000000000000000000000602082015250565b60006156aa6032836137b3565b91506156b58261564e565b604082019050919050565b600060208201905081810360008301526156d98161569d565b9050919050565b600060ff82169050919050565b60006156f8826156e0565b9150615703836156e0565b9250828201905060ff81111561571c5761571b6141d5565b5b92915050565b600081519050919050565b600082825260208201905092915050565b600061574982615722565b615753818561572d565b93506157638185602086016136b6565b61576c816136e0565b840191505092915050565b600060808201905061578c6000830187613970565b6157996020830186613970565b6157a66040830185613a06565b81810360608301526157b8818461573e565b905095945050505050565b6000815190506157d281613860565b92915050565b6000602082840312156157ee576157ed61360b565b5b60006157fc848285016157c3565b91505092915050565b7f4552433732313a206d696e7420746f20746865207a65726f2061646472657373600082015250565b600061583b6020836137b3565b915061584682615805565b602082019050919050565b6000602082019050818103600083015261586a8161582e565b9050919050565b7f4552433732313a20746f6b656e20616c7265616479206d696e74656400000000600082015250565b60006158a7601c836137b3565b91506158b282615871565b602082019050919050565b600060208201905081810360008301526158d68161589a565b905091905056fe4142434445464748494a4b4c4d4e4f505152535455565758595a6162636465666768696a6b6c6d6e6f707172737475767778797a303132333435363738392b2f46756c6c79206f6e2d636861696e2c2070726f6365647572616c6c792067656e6572617465642c20616e696d6174656420626c61636b20686f6c65732e204265796f6e6420746865206576656e7420686f72697a6f6e2ea2646970667358221220ba35539b6a20e12fafc0c72c0e5490be2f07c5196f300731356e8a059173a8ea64736f6c63430008100033",
  "libraries": {
    "utils": "0xBFAb047349E5d8A6BC4A714970Ca1C80D6BAc978"
  },
  "devdoc": {
    "kind": "dev",
    "methods": {
      "approve(address,uint256)": {
        "details": "See {IERC721-approve}."
      },
      "balanceOf(address)": {
        "details": "See {IERC721-balanceOf}."
      },
      "blackHoleForMass(uint256,uint256)": {
        "params": {
          "totalMass": "mass of tokens to merge."
        },
        "returns": {
          "_0": "BlackHole struct of new Black Hole.",
          "_1": "SVG of new Black Hole."
        }
      },
      "blackHoleForTokenId(uint256)": {
        "params": {
          "_tokenId": "ID of the token."
        },
        "returns": {
          "_0": "BlackHole Structured representation of the token."
        }
      },
      "blackHolesForTokenIds(uint256[])": {
        "params": {
          "tokenIds": "List of token IDs."
        }
      },
      "constructor": {
        "details": "Constructs a new instance of the contract.",
        "params": {
          "_mergeOpenTimestamp": "Timestamp when merging is open.",
          "_name": "Name of the ERC721 token.",
          "_renderer": "Address of the Renderer contract.",
          "_symbol": "Symbol of the ERC721 token.",
          "_unmigratedBlackHoles": "Address of Black Holes contract."
        }
      },
      "getAdjustmentForMass(uint256)": {
        "params": {
          "_mass": "Mass to calculate the adjustment for."
        },
        "returns": {
          "_0": "Adjustment."
        }
      },
      "getApproved(uint256)": {
        "details": "See {IERC721-getApproved}."
      },
      "isApprovedForAll(address,address)": {
        "details": "See {IERC721-isApprovedForAll}."
      },
      "merge(uint256[])": {
        "params": {
          "tokens": "List of token IDs to merge. The first token in the list is the target."
        }
      },
      "migrate(address,uint256[])": {
        "params": {
          "tokenIds": "The Edition token IDs you want to migrate."
        }
      },
      "name()": {
        "details": "See {IERC721Metadata-name}."
      },
      "nameForBlackHoleLevel(uint256)": {
        "params": {
          "_level": "Level of the black hole."
        },
        "returns": {
          "_0": "name of the black hole level."
        }
      },
      "owner()": {
        "details": "Returns the address of the current owner."
      },
      "ownerOf(uint256)": {
        "details": "See {IERC721-ownerOf}."
      },
      "renounceOwnership()": {
        "details": "Leaves the contract without owner. It will not be possible to call `onlyOwner` functions anymore. Can only be called by the current owner. NOTE: Renouncing ownership will leave the contract without an owner, thereby removing any functionality that is only available to the owner."
      },
      "safeTransferFrom(address,address,uint256)": {
        "details": "See {IERC721-safeTransferFrom}."
      },
      "safeTransferFrom(address,address,uint256,bytes)": {
        "details": "See {IERC721-safeTransferFrom}."
      },
      "setApprovalForAll(address,bool)": {
        "details": "See {IERC721-setApprovalForAll}."
      },
      "setMergeOpenTimestamp(uint256)": {
        "params": {
          "_mergeOpenTimestamp": "Timestamp when merging is open."
        }
      },
      "supportsInterface(bytes4)": {
        "details": "See {IERC165-supportsInterface}."
      },
      "symbol()": {
        "details": "See {IERC721Metadata-symbol}."
      },
      "tokenURI(uint256)": {
        "params": {
          "_tokenId": "ID of the token to get the URI for."
        },
        "returns": {
          "_0": "Token URI."
        }
      },
      "transferFrom(address,address,uint256)": {
        "details": "See {IERC721-transferFrom}."
      },
      "transferOwnership(address)": {
        "details": "Transfers ownership of the contract to a new account (`newOwner`). Can only be called by the current owner."
      }
    },
    "version": 1
  },
  "userdoc": {
    "kind": "user",
    "methods": {
      "blackHoleForMass(uint256,uint256)": {
        "notice": "Simulates the merge for an array of tokens."
      },
      "blackHoleForTokenId(uint256)": {
        "notice": "Get the structured representation of a token by its ID."
      },
      "blackHolesForTokenIds(uint256[])": {
        "notice": "Returns Black Holes for a list of token IDs."
      },
      "getAdjustmentForMass(uint256)": {
        "notice": "Gets adjustment for a given mass."
      },
      "getUpgradeIntervals()": {
        "notice": "Returns the mass required to upgrade to the next level for each level."
      },
      "isMergingEnabled()": {
        "notice": "Returns whether merging is enabled or not."
      },
      "levelForMass(uint256)": {
        "notice": "Gets the level for a given mass."
      },
      "merge(uint256[])": {
        "notice": "Merges a list of tokens into a single token."
      },
      "migrate(address,uint256[])": {
        "notice": "Migrate Black Holes to Voidable Black Holes by burning the Black Holes.         Requires the Approval of this contract on the Edition contract."
      },
      "nameForBlackHoleLevel(uint256)": {
        "notice": "Returns the name of a black hole level."
      },
      "setMergeOpenTimestamp(uint256)": {
        "notice": "Sets the merging delay."
      },
      "tokenURI(uint256)": {
        "notice": "Returns the token URI for a given token ID."
      },
      "totalBurned()": {
        "notice": "Returns total number of tokens burned."
      },
      "totalMinted()": {
        "notice": "Returns total number of tokens minted."
      },
      "totalSupply()": {
        "notice": "Returns how many tokens this contract manages."
      }
    },
    "version": 1
  },
  "storageLayout": {
    "storage": [
      {
        "astId": 141,
        "contract": "contracts/BlackHolesV2.sol:BlackHolesV2",
        "label": "_name",
        "offset": 0,
        "slot": "0",
        "type": "t_string_storage"
      },
      {
        "astId": 143,
        "contract": "contracts/BlackHolesV2.sol:BlackHolesV2",
        "label": "_symbol",
        "offset": 0,
        "slot": "1",
        "type": "t_string_storage"
      },
      {
        "astId": 147,
        "contract": "contracts/BlackHolesV2.sol:BlackHolesV2",
        "label": "_owners",
        "offset": 0,
        "slot": "2",
        "type": "t_mapping(t_uint256,t_address)"
      },
      {
        "astId": 151,
        "contract": "contracts/BlackHolesV2.sol:BlackHolesV2",
        "label": "_balances",
        "offset": 0,
        "slot": "3",
        "type": "t_mapping(t_address,t_uint256)"
      },
      {
        "astId": 155,
        "contract": "contracts/BlackHolesV2.sol:BlackHolesV2",
        "label": "_tokenApprovals",
        "offset": 0,
        "slot": "4",
        "type": "t_mapping(t_uint256,t_address)"
      },
      {
        "astId": 161,
        "contract": "contracts/BlackHolesV2.sol:BlackHolesV2",
        "label": "_operatorApprovals",
        "offset": 0,
        "slot": "5",
        "type": "t_mapping(t_address,t_mapping(t_address,t_bool))"
      },
      {
        "astId": 7,
        "contract": "contracts/BlackHolesV2.sol:BlackHolesV2",
        "label": "_owner",
        "offset": 0,
        "slot": "6",
        "type": "t_address"
      },
      {
        "astId": 2672,
        "contract": "contracts/BlackHolesV2.sol:BlackHolesV2",
        "label": "mergeOpenTimestamp",
        "offset": 0,
        "slot": "7",
        "type": "t_uint256"
      },
      {
        "astId": 2676,
        "contract": "contracts/BlackHolesV2.sol:BlackHolesV2",
        "label": "massesConsumed",
        "offset": 0,
        "slot": "8",
        "type": "t_mapping(t_uint256,t_uint256)"
      },
      {
        "astId": 2679,
        "contract": "contracts/BlackHolesV2.sol:BlackHolesV2",
        "label": "renderer",
        "offset": 0,
        "slot": "9",
        "type": "t_contract(IRenderer)4131"
      },
      {
        "astId": 2682,
        "contract": "contracts/BlackHolesV2.sol:BlackHolesV2",
        "label": "unmigratedBlackHoles",
        "offset": 0,
        "slot": "10",
        "type": "t_contract(IBlackHoles)4114"
      },
      {
        "astId": 2685,
        "contract": "contracts/BlackHolesV2.sol:BlackHolesV2",
        "label": "voidableBlackHoles",
        "offset": 0,
        "slot": "11",
        "type": "t_contract(IBlackHoles)4114"
      },
      {
        "astId": 2687,
        "contract": "contracts/BlackHolesV2.sol:BlackHolesV2",
        "label": "minted",
        "offset": 0,
        "slot": "12",
        "type": "t_uint256"
      },
      {
        "astId": 2689,
        "contract": "contracts/BlackHolesV2.sol:BlackHolesV2",
        "label": "burned",
        "offset": 0,
        "slot": "13",
        "type": "t_uint256"
      }
    ],
    "types": {
      "t_address": {
        "encoding": "inplace",
        "label": "address",
        "numberOfBytes": "20"
      },
      "t_bool": {
        "encoding": "inplace",
        "label": "bool",
        "numberOfBytes": "1"
      },
      "t_contract(IBlackHoles)4114": {
        "encoding": "inplace",
        "label": "contract IBlackHoles",
        "numberOfBytes": "20"
      },
      "t_contract(IRenderer)4131": {
        "encoding": "inplace",
        "label": "contract IRenderer",
        "numberOfBytes": "20"
      },
      "t_mapping(t_address,t_bool)": {
        "encoding": "mapping",
        "key": "t_address",
        "label": "mapping(address => bool)",
        "numberOfBytes": "32",
        "value": "t_bool"
      },
      "t_mapping(t_address,t_mapping(t_address,t_bool))": {
        "encoding": "mapping",
        "key": "t_address",
        "label": "mapping(address => mapping(address => bool))",
        "numberOfBytes": "32",
        "value": "t_mapping(t_address,t_bool)"
      },
      "t_mapping(t_address,t_uint256)": {
        "encoding": "mapping",
        "key": "t_address",
        "label": "mapping(address => uint256)",
        "numberOfBytes": "32",
        "value": "t_uint256"
      },
      "t_mapping(t_uint256,t_address)": {
        "encoding": "mapping",
        "key": "t_uint256",
        "label": "mapping(uint256 => address)",
        "numberOfBytes": "32",
        "value": "t_address"
      },
      "t_mapping(t_uint256,t_uint256)": {
        "encoding": "mapping",
        "key": "t_uint256",
        "label": "mapping(uint256 => uint256)",
        "numberOfBytes": "32",
        "value": "t_uint256"
      },
      "t_string_storage": {
        "encoding": "bytes",
        "label": "string",
        "numberOfBytes": "32"
      },
      "t_uint256": {
        "encoding": "inplace",
        "label": "uint256",
        "numberOfBytes": "32"
      }
    }
  }
}