{
  "address": "0x545015Ea44aa108974c554A809f208d40e8383aD",
  "abi": [
    {
      "inputs": [
        {
          "internalType": "string",
          "name": "_name",
          "type": "string"
        },
        {
          "internalType": "string",
          "name": "_symbol",
          "type": "string"
        },
        {
          "internalType": "uint256",
          "name": "_mergeOpenTimestamp",
          "type": "uint256"
        },
        {
          "internalType": "address",
          "name": "_renderer",
          "type": "address"
        },
        {
          "internalType": "address",
          "name": "_unmigratedBlackHoles",
          "type": "address"
        }
      ],
      "stateMutability": "nonpayable",
      "type": "constructor"
    },
    {
      "inputs": [],
      "name": "NotAllowed",
      "type": "error"
    },
    {
      "inputs": [],
      "name": "URIQueryForNonexistentToken",
      "type": "error"
    },
    {
      "anonymous": false,
      "inputs": [
        {
          "indexed": true,
          "internalType": "address",
          "name": "owner",
          "type": "address"
        },
        {
          "indexed": true,
          "internalType": "address",
          "name": "approved",
          "type": "address"
        },
        {
          "indexed": true,
          "internalType": "uint256",
          "name": "tokenId",
          "type": "uint256"
        }
      ],
      "name": "Approval",
      "type": "event"
    },
    {
      "anonymous": false,
      "inputs": [
        {
          "indexed": true,
          "internalType": "address",
          "name": "owner",
          "type": "address"
        },
        {
          "indexed": true,
          "internalType": "address",
          "name": "operator",
          "type": "address"
        },
        {
          "indexed": false,
          "internalType": "bool",
          "name": "approved",
          "type": "bool"
        }
      ],
      "name": "ApprovalForAll",
      "type": "event"
    },
    {
      "anonymous": false,
      "inputs": [
        {
          "indexed": false,
          "internalType": "uint256",
          "name": "_fromTokenId",
          "type": "uint256"
        },
        {
          "indexed": false,
          "internalType": "uint256",
          "name": "_toTokenId",
          "type": "uint256"
        }
      ],
      "name": "BatchMetadataUpdate",
      "type": "event"
    },
    {
      "anonymous": false,
      "inputs": [
        {
          "indexed": false,
          "internalType": "uint256",
          "name": "_tokenId",
          "type": "uint256"
        }
      ],
      "name": "MetadataUpdate",
      "type": "event"
    },
    {
      "anonymous": false,
      "inputs": [
        {
          "indexed": true,
          "internalType": "address",
          "name": "previousOwner",
          "type": "address"
        },
        {
          "indexed": true,
          "internalType": "address",
          "name": "newOwner",
          "type": "address"
        }
      ],
      "name": "OwnershipTransferred",
      "type": "event"
    },
    {
      "anonymous": false,
      "inputs": [
        {
          "indexed": true,
          "internalType": "address",
          "name": "from",
          "type": "address"
        },
        {
          "indexed": true,
          "internalType": "address",
          "name": "to",
          "type": "address"
        },
        {
          "indexed": true,
          "internalType": "uint256",
          "name": "tokenId",
          "type": "uint256"
        }
      ],
      "name": "Transfer",
      "type": "event"
    },
    {
      "inputs": [
        {
          "internalType": "address",
          "name": "to",
          "type": "address"
        },
        {
          "internalType": "uint256",
          "name": "tokenId",
          "type": "uint256"
        }
      ],
      "name": "approve",
      "outputs": [],
      "stateMutability": "nonpayable",
      "type": "function"
    },
    {
      "inputs": [
        {
          "internalType": "address",
          "name": "owner",
          "type": "address"
        }
      ],
      "name": "balanceOf",
      "outputs": [
        {
          "internalType": "uint256",
          "name": "",
          "type": "uint256"
        }
      ],
      "stateMutability": "view",
      "type": "function"
    },
    {
      "inputs": [
        {
          "internalType": "uint256",
          "name": "_tokenId",
          "type": "uint256"
        }
      ],
      "name": "blackHoleForTokenId",
      "outputs": [
        {
          "components": [
            {
              "internalType": "uint256",
              "name": "tokenId",
              "type": "uint256"
            },
            {
              "internalType": "uint256",
              "name": "level",
              "type": "uint256"
            },
            {
              "internalType": "uint256",
              "name": "size",
              "type": "uint256"
            },
            {
              "internalType": "uint256",
              "name": "mass",
              "type": "uint256"
            },
            {
              "internalType": "uint256",
              "name": "adjustment",
              "type": "uint256"
            },
            {
              "internalType": "string",
              "name": "name",
              "type": "string"
            }
          ],
          "internalType": "struct BlackHole",
          "name": "",
          "type": "tuple"
        }
      ],
      "stateMutability": "view",
      "type": "function"
    },
    {
      "inputs": [
        {
          "internalType": "uint256[]",
          "name": "tokenIds",
          "type": "uint256[]"
        }
      ],
      "name": "blackHolesForTokenIds",
      "outputs": [
        {
          "components": [
            {
              "internalType": "uint256",
              "name": "tokenId",
              "type": "uint256"
            },
            {
              "internalType": "uint256",
              "name": "level",
              "type": "uint256"
            },
            {
              "internalType": "uint256",
              "name": "size",
              "type": "uint256"
            },
            {
              "internalType": "uint256",
              "name": "mass",
              "type": "uint256"
            },
            {
              "internalType": "uint256",
              "name": "adjustment",
              "type": "uint256"
            },
            {
              "internalType": "string",
              "name": "name",
              "type": "string"
            }
          ],
          "internalType": "struct BlackHole[]",
          "name": "",
          "type": "tuple[]"
        }
      ],
      "stateMutability": "view",
      "type": "function"
    },
    {
      "inputs": [
        {
          "internalType": "uint256",
          "name": "tokenId",
          "type": "uint256"
        }
      ],
      "name": "burn",
      "outputs": [],
      "stateMutability": "nonpayable",
      "type": "function"
    },
    {
      "inputs": [
        {
          "internalType": "uint256",
          "name": "_mass",
          "type": "uint256"
        }
      ],
      "name": "getAdjustmentForMass",
      "outputs": [
        {
          "internalType": "uint256",
          "name": "",
          "type": "uint256"
        }
      ],
      "stateMutability": "view",
      "type": "function"
    },
    {
      "inputs": [
        {
          "internalType": "uint256",
          "name": "tokenId",
          "type": "uint256"
        }
      ],
      "name": "getApproved",
      "outputs": [
        {
          "internalType": "address",
          "name": "",
          "type": "address"
        }
      ],
      "stateMutability": "view",
      "type": "function"
    },
    {
      "inputs": [],
      "name": "getUpgradeIntervals",
      "outputs": [
        {
          "internalType": "uint256[]",
          "name": "",
          "type": "uint256[]"
        }
      ],
      "stateMutability": "view",
      "type": "function"
    },
    {
      "inputs": [
        {
          "internalType": "address",
          "name": "owner",
          "type": "address"
        },
        {
          "internalType": "address",
          "name": "operator",
          "type": "address"
        }
      ],
      "name": "isApprovedForAll",
      "outputs": [
        {
          "internalType": "bool",
          "name": "",
          "type": "bool"
        }
      ],
      "stateMutability": "view",
      "type": "function"
    },
    {
      "inputs": [],
      "name": "isMergingEnabled",
      "outputs": [
        {
          "internalType": "bool",
          "name": "",
          "type": "bool"
        }
      ],
      "stateMutability": "view",
      "type": "function"
    },
    {
      "inputs": [
        {
          "internalType": "uint256",
          "name": "_mass",
          "type": "uint256"
        }
      ],
      "name": "levelForMass",
      "outputs": [
        {
          "internalType": "uint256",
          "name": "",
          "type": "uint256"
        }
      ],
      "stateMutability": "view",
      "type": "function"
    },
    {
      "inputs": [
        {
          "internalType": "uint256",
          "name": "_tokenId",
          "type": "uint256"
        }
      ],
      "name": "massForTokenId",
      "outputs": [
        {
          "internalType": "uint256",
          "name": "",
          "type": "uint256"
        }
      ],
      "stateMutability": "view",
      "type": "function"
    },
    {
      "inputs": [
        {
          "internalType": "uint256",
          "name": "",
          "type": "uint256"
        }
      ],
      "name": "massesConsumed",
      "outputs": [
        {
          "internalType": "uint256",
          "name": "",
          "type": "uint256"
        }
      ],
      "stateMutability": "view",
      "type": "function"
    },
    {
      "inputs": [
        {
          "internalType": "uint256[]",
          "name": "tokens",
          "type": "uint256[]"
        }
      ],
      "name": "merge",
      "outputs": [],
      "stateMutability": "nonpayable",
      "type": "function"
    },
    {
      "inputs": [],
      "name": "mergeOpenTimestamp",
      "outputs": [
        {
          "internalType": "uint256",
          "name": "",
          "type": "uint256"
        }
      ],
      "stateMutability": "view",
      "type": "function"
    },
    {
      "inputs": [
        {
          "internalType": "uint256[]",
          "name": "tokenIds",
          "type": "uint256[]"
        }
      ],
      "name": "mint",
      "outputs": [],
      "stateMutability": "nonpayable",
      "type": "function"
    },
    {
      "inputs": [],
      "name": "name",
      "outputs": [
        {
          "internalType": "string",
          "name": "",
          "type": "string"
        }
      ],
      "stateMutability": "view",
      "type": "function"
    },
    {
      "inputs": [
        {
          "internalType": "uint256",
          "name": "_level",
          "type": "uint256"
        }
      ],
      "name": "nameForBlackHoleLevel",
      "outputs": [
        {
          "internalType": "string",
          "name": "",
          "type": "string"
        }
      ],
      "stateMutability": "view",
      "type": "function"
    },
    {
      "inputs": [],
      "name": "owner",
      "outputs": [
        {
          "internalType": "address",
          "name": "",
          "type": "address"
        }
      ],
      "stateMutability": "view",
      "type": "function"
    },
    {
      "inputs": [
        {
          "internalType": "uint256",
          "name": "tokenId",
          "type": "uint256"
        }
      ],
      "name": "ownerOf",
      "outputs": [
        {
          "internalType": "address",
          "name": "",
          "type": "address"
        }
      ],
      "stateMutability": "view",
      "type": "function"
    },
    {
      "inputs": [],
      "name": "renderer",
      "outputs": [
        {
          "internalType": "contract Renderer",
          "name": "",
          "type": "address"
        }
      ],
      "stateMutability": "view",
      "type": "function"
    },
    {
      "inputs": [],
      "name": "renounceOwnership",
      "outputs": [],
      "stateMutability": "nonpayable",
      "type": "function"
    },
    {
      "inputs": [
        {
          "internalType": "address",
          "name": "from",
          "type": "address"
        },
        {
          "internalType": "address",
          "name": "to",
          "type": "address"
        },
        {
          "internalType": "uint256",
          "name": "tokenId",
          "type": "uint256"
        }
      ],
      "name": "safeTransferFrom",
      "outputs": [],
      "stateMutability": "nonpayable",
      "type": "function"
    },
    {
      "inputs": [
        {
          "internalType": "address",
          "name": "from",
          "type": "address"
        },
        {
          "internalType": "address",
          "name": "to",
          "type": "address"
        },
        {
          "internalType": "uint256",
          "name": "tokenId",
          "type": "uint256"
        },
        {
          "internalType": "bytes",
          "name": "data",
          "type": "bytes"
        }
      ],
      "name": "safeTransferFrom",
      "outputs": [],
      "stateMutability": "nonpayable",
      "type": "function"
    },
    {
      "inputs": [
        {
          "internalType": "address",
          "name": "operator",
          "type": "address"
        },
        {
          "internalType": "bool",
          "name": "approved",
          "type": "bool"
        }
      ],
      "name": "setApprovalForAll",
      "outputs": [],
      "stateMutability": "nonpayable",
      "type": "function"
    },
    {
      "inputs": [
        {
          "internalType": "uint256",
          "name": "_mergeOpenTimestamp",
          "type": "uint256"
        }
      ],
      "name": "setMergeOpenTimestamp",
      "outputs": [],
      "stateMutability": "nonpayable",
      "type": "function"
    },
    {
      "inputs": [
        {
          "internalType": "uint256[]",
          "name": "tokens",
          "type": "uint256[]"
        }
      ],
      "name": "simulateMerge",
      "outputs": [
        {
          "components": [
            {
              "internalType": "uint256",
              "name": "tokenId",
              "type": "uint256"
            },
            {
              "internalType": "uint256",
              "name": "level",
              "type": "uint256"
            },
            {
              "internalType": "uint256",
              "name": "size",
              "type": "uint256"
            },
            {
              "internalType": "uint256",
              "name": "mass",
              "type": "uint256"
            },
            {
              "internalType": "uint256",
              "name": "adjustment",
              "type": "uint256"
            },
            {
              "internalType": "string",
              "name": "name",
              "type": "string"
            }
          ],
          "internalType": "struct BlackHole",
          "name": "",
          "type": "tuple"
        },
        {
          "internalType": "string",
          "name": "",
          "type": "string"
        }
      ],
      "stateMutability": "view",
      "type": "function"
    },
    {
      "inputs": [
        {
          "internalType": "bytes4",
          "name": "interfaceId",
          "type": "bytes4"
        }
      ],
      "name": "supportsInterface",
      "outputs": [
        {
          "internalType": "bool",
          "name": "",
          "type": "bool"
        }
      ],
      "stateMutability": "view",
      "type": "function"
    },
    {
      "inputs": [],
      "name": "symbol",
      "outputs": [
        {
          "internalType": "string",
          "name": "",
          "type": "string"
        }
      ],
      "stateMutability": "view",
      "type": "function"
    },
    {
      "inputs": [
        {
          "internalType": "uint256",
          "name": "_tokenId",
          "type": "uint256"
        }
      ],
      "name": "tokenURI",
      "outputs": [
        {
          "internalType": "string",
          "name": "",
          "type": "string"
        }
      ],
      "stateMutability": "view",
      "type": "function"
    },
    {
      "inputs": [],
      "name": "totalBurned",
      "outputs": [
        {
          "internalType": "uint256",
          "name": "",
          "type": "uint256"
        }
      ],
      "stateMutability": "view",
      "type": "function"
    },
    {
      "inputs": [],
      "name": "totalMinted",
      "outputs": [
        {
          "internalType": "uint256",
          "name": "",
          "type": "uint256"
        }
      ],
      "stateMutability": "view",
      "type": "function"
    },
    {
      "inputs": [],
      "name": "totalSupply",
      "outputs": [
        {
          "internalType": "uint256",
          "name": "",
          "type": "uint256"
        }
      ],
      "stateMutability": "view",
      "type": "function"
    },
    {
      "inputs": [
        {
          "internalType": "address",
          "name": "from",
          "type": "address"
        },
        {
          "internalType": "address",
          "name": "to",
          "type": "address"
        },
        {
          "internalType": "uint256",
          "name": "tokenId",
          "type": "uint256"
        }
      ],
      "name": "transferFrom",
      "outputs": [],
      "stateMutability": "nonpayable",
      "type": "function"
    },
    {
      "inputs": [
        {
          "internalType": "address",
          "name": "newOwner",
          "type": "address"
        }
      ],
      "name": "transferOwnership",
      "outputs": [],
      "stateMutability": "nonpayable",
      "type": "function"
    },
    {
      "inputs": [],
      "name": "unmigratedBlackHoles",
      "outputs": [
        {
          "internalType": "contract BlackHoles",
          "name": "",
          "type": "address"
        }
      ],
      "stateMutability": "view",
      "type": "function"
    }
  ],
  "transactionHash": "0x2faa5572996d89400ae043e0d981d97ea6f445a015444ad92f60cca0dad879ab",
  "args": [
    "Voidable BlackHoles",
    "BLACKHOLESVOID",
    "1677268607",
    "0xA811607554419977bb372fA3a2Ec9bBc81575FB4",
    "0x742B809625FB777CC9A332bb61249481FaE59092"
  ],
  "numDeployments": 1,
  "solcInputHash": "c8bf6f4e286b9f72bc88f1b5973af80b",
  "bytecode": "0x60806040523480156200001157600080fd5b50604051620061c6380380620061c6833981810160405281019062000037919062000418565b8484818181600090816200004c91906200071f565b5080600190816200005e91906200071f565b505050505062000083620000776200011760201b60201c565b6200011f60201b60201c565b8260078190555081600960006101000a81548173ffffffffffffffffffffffffffffffffffffffff021916908373ffffffffffffffffffffffffffffffffffffffff16021790555080600a60006101000a81548173ffffffffffffffffffffffffffffffffffffffff021916908373ffffffffffffffffffffffffffffffffffffffff160217905550505050505062000806565b600033905090565b6000600660009054906101000a900473ffffffffffffffffffffffffffffffffffffffff16905081600660006101000a81548173ffffffffffffffffffffffffffffffffffffffff021916908373ffffffffffffffffffffffffffffffffffffffff1602179055508173ffffffffffffffffffffffffffffffffffffffff168173ffffffffffffffffffffffffffffffffffffffff167f8be0079c531659141344cd1fd0a4f28419497f9722a3daafe3b4186f6b6457e060405160405180910390a35050565b6000604051905090565b600080fd5b600080fd5b600080fd5b600080fd5b6000601f19601f8301169050919050565b7f4e487b7100000000000000000000000000000000000000000000000000000000600052604160045260246000fd5b6200024e8262000203565b810181811067ffffffffffffffff8211171562000270576200026f62000214565b5b80604052505050565b600062000285620001e5565b905062000293828262000243565b919050565b600067ffffffffffffffff821115620002b657620002b562000214565b5b620002c18262000203565b9050602081019050919050565b60005b83811015620002ee578082015181840152602081019050620002d1565b60008484015250505050565b6000620003116200030b8462000298565b62000279565b90508281526020810184848401111562000330576200032f620001fe565b5b6200033d848285620002ce565b509392505050565b600082601f8301126200035d576200035c620001f9565b5b81516200036f848260208601620002fa565b91505092915050565b6000819050919050565b6200038d8162000378565b81146200039957600080fd5b50565b600081519050620003ad8162000382565b92915050565b600073ffffffffffffffffffffffffffffffffffffffff82169050919050565b6000620003e082620003b3565b9050919050565b620003f281620003d3565b8114620003fe57600080fd5b50565b6000815190506200041281620003e7565b92915050565b600080600080600060a08688031215620004375762000436620001ef565b5b600086015167ffffffffffffffff811115620004585762000457620001f4565b5b620004668882890162000345565b955050602086015167ffffffffffffffff8111156200048a5762000489620001f4565b5b620004988882890162000345565b9450506040620004ab888289016200039c565b9350506060620004be8882890162000401565b9250506080620004d18882890162000401565b9150509295509295909350565b600081519050919050565b7f4e487b7100000000000000000000000000000000000000000000000000000000600052602260045260246000fd5b600060028204905060018216806200053157607f821691505b602082108103620005475762000546620004e9565b5b50919050565b60008190508160005260206000209050919050565b60006020601f8301049050919050565b600082821b905092915050565b600060088302620005b17fffffffffffffffffffffffffffffffffffffffffffffffffffffffffffffffff8262000572565b620005bd868362000572565b95508019841693508086168417925050509392505050565b6000819050919050565b600062000600620005fa620005f48462000378565b620005d5565b62000378565b9050919050565b6000819050919050565b6200061c83620005df565b620006346200062b8262000607565b8484546200057f565b825550505050565b600090565b6200064b6200063c565b6200065881848462000611565b505050565b5b8181101562000680576200067460008262000641565b6001810190506200065e565b5050565b601f821115620006cf5762000699816200054d565b620006a48462000562565b81016020851015620006b4578190505b620006cc620006c38562000562565b8301826200065d565b50505b505050565b600082821c905092915050565b6000620006f460001984600802620006d4565b1980831691505092915050565b60006200070f8383620006e1565b9150826002028217905092915050565b6200072a82620004de565b67ffffffffffffffff81111562000746576200074562000214565b5b62000752825462000518565b6200075f82828562000684565b600060209050601f83116001811462000797576000841562000782578287015190505b6200078e858262000701565b865550620007fe565b601f198416620007a7866200054d565b60005b82811015620007d157848901518255600182019150602085019450602081019050620007aa565b86831015620007f15784890151620007ed601f891682620006e1565b8355505b6001600288020188555050505b505050505050565b6159b080620008166000396000f3fe608060405234801561001057600080fd5b506004361061021c5760003560e01c80638b3578c611610125578063ca714e5b116100ad578063de62d8421161007c578063de62d8421461068c578063e985e9c5146106a8578063f224d8ad146106d8578063f2fde38b146106f6578063f8e93ef9146107125761021c565b8063ca714e5b146105f0578063cbad784914610620578063cd3fdaab14610650578063d89135cd1461066e5761021c565b8063a2309ff8116100f4578063a2309ff814610525578063b4449b2614610543578063b4648b0c14610573578063b88d4fde146105a4578063c87b56dd146105c05761021c565b80638b3578c6146104af5780638da5cb5b146104cd57806395d89b41146104eb578063a22cb465146105095761021c565b806342966c68116101a857806370a082311161017757806370a08231146103f7578063715018a6146104275780637752e3681461043157806389327f28146104615780638ada6b0f146104915761021c565b806342966c681461035d578063444269bd146103795780635e23a763146103975780636352211e146103c75761021c565b80630b56c029116101ef5780630b56c029146102bb57806318160ddd146102d757806318f58b73146102f557806323b872dd1461032557806342842e0e146103415761021c565b806301ffc9a71461022157806306fdde0314610251578063081812fc1461026f578063095ea7b31461029f575b600080fd5b61023b6004803603810190610236919061363f565b61072e565b6040516102489190613687565b60405180910390f35b61025961078f565b6040516102669190613732565b60405180910390f35b6102896004803603810190610284919061378a565b610821565b60405161029691906137f8565b60405180910390f35b6102b960048036038101906102b4919061383f565b610867565b005b6102d560048036038101906102d0919061378a565b61097e565b005b6102df610990565b6040516102ec919061388e565b60405180910390f35b61030f600480360381019061030a91906139f1565b6109a7565b60405161031c9190613bde565b60405180910390f35b61033f600480360381019061033a9190613c00565b610a6c565b005b61035b60048036038101906103569190613c00565b610acc565b005b6103776004803603810190610372919061378a565b610aec565b005b610381610b88565b60405161038e9190613d02565b60405180910390f35b6103b160048036038101906103ac919061378a565b610f11565b6040516103be919061388e565b60405180910390f35b6103e160048036038101906103dc919061378a565b610f3a565b6040516103ee91906137f8565b60405180910390f35b610411600480360381019061040c9190613d24565b610fc0565b60405161041e919061388e565b60405180910390f35b61042f611077565b005b61044b6004803603810190610446919061378a565b61108b565b604051610458919061388e565b60405180910390f35b61047b6004803603810190610476919061378a565b6110a3565b604051610488919061388e565b60405180910390f35b610499611295565b6040516104a69190613db0565b60405180910390f35b6104b76112bb565b6040516104c49190613687565b60405180910390f35b6104d56112c7565b6040516104e291906137f8565b60405180910390f35b6104f36112f1565b6040516105009190613732565b60405180910390f35b610523600480360381019061051e9190613df7565b611383565b005b61052d611399565b60405161053a919061388e565b60405180910390f35b61055d6004803603810190610558919061378a565b6113a3565b60405161056a9190613732565b60405180910390f35b61058d600480360381019061058891906139f1565b61144d565b60405161059b929190613ec0565b60405180910390f35b6105be60048036038101906105b99190613fac565b611699565b005b6105da60048036038101906105d5919061378a565b6116fb565b6040516105e79190613732565b60405180910390f35b61060a6004803603810190610605919061378a565b6118e2565b604051610617919061402f565b60405180910390f35b61063a6004803603810190610635919061378a565b611a09565b604051610647919061388e565b60405180910390f35b610658611ad5565b604051610665919061388e565b60405180910390f35b610676611adb565b604051610683919061388e565b60405180910390f35b6106a660048036038101906106a191906139f1565b611ae5565b005b6106c260048036038101906106bd9190614051565b611d87565b6040516106cf9190613687565b60405180910390f35b6106e0611e1b565b6040516106ed91906140b2565b60405180910390f35b610710600480360381019061070b9190613d24565b611e41565b005b61072c60048036038101906107279190614128565b611ec4565b005b6000634906490660e01b7bffffffffffffffffffffffffffffffffffffffffffffffffffffffff1916827bffffffffffffffffffffffffffffffffffffffffffffffffffffffff1916148061078857506107878261223b565b5b9050919050565b60606000805461079e906141a4565b80601f01602080910402602001604051908101604052809291908181526020018280546107ca906141a4565b80156108175780601f106107ec57610100808354040283529160200191610817565b820191906000526020600020905b8154815290600101906020018083116107fa57829003601f168201915b5050505050905090565b600061082c8261231d565b6004600083815260200190815260200160002060009054906101000a900473ffffffffffffffffffffffffffffffffffffffff169050919050565b600061087282610f3a565b90508073ffffffffffffffffffffffffffffffffffffffff168373ffffffffffffffffffffffffffffffffffffffff16036108e2576040517f08c379a00000000000000000000000000000000000000000000000000000000081526004016108d990614247565b60405180910390fd5b8073ffffffffffffffffffffffffffffffffffffffff16610901612368565b73ffffffffffffffffffffffffffffffffffffffff161480610930575061092f8161092a612368565b611d87565b5b61096f576040517f08c379a0000000000000000000000000000000000000000000000000000000008152600401610966906142d9565b60405180910390fd5b6109798383612370565b505050565b610986612429565b8060078190555050565b6000600c54600b546109a29190614328565b905090565b60606000825167ffffffffffffffff8111156109c6576109c56138ae565b5b6040519080825280602002602001820160405280156109ff57816020015b6109ec61359d565b8152602001906001900390816109e45790505b50905060005b8351811015610a6257610a31848281518110610a2457610a2361435c565b5b60200260200101516118e2565b828281518110610a4457610a4361435c565b5b60200260200101819052508080610a5a9061438b565b915050610a05565b5080915050919050565b610a7d610a77612368565b826124a7565b610abc576040517f08c379a0000000000000000000000000000000000000000000000000000000008152600401610ab390614445565b60405180910390fd5b610ac783838361253c565b505050565b610ae783838360405180602001604052806000815250611699565b505050565b3373ffffffffffffffffffffffffffffffffffffffff16610b0c82610f3a565b73ffffffffffffffffffffffffffffffffffffffff1614610b62576040517f08c379a0000000000000000000000000000000000000000000000000000000008152600401610b59906144b1565b60405180910390fd5b6001600c6000828254610b7591906144d1565b92505081905550610b8581612835565b50565b60606000610d756001600a60009054906101000a900473ffffffffffffffffffffffffffffffffffffffff1673ffffffffffffffffffffffffffffffffffffffff1663a49062d46040518163ffffffff1660e01b8152600401602060405180830381865afa158015610bfe573d6000803e3d6000fd5b505050506040513d601f19601f82011682018060405250810190610c22919061451a565b610c2c9190614328565b6002610c38919061467a565b600a60009054906101000a900473ffffffffffffffffffffffffffffffffffffffff1673ffffffffffffffffffffffffffffffffffffffff16635056af056040518163ffffffff1660e01b8152600401602060405180830381865afa158015610ca5573d6000803e3d6000fd5b505050506040513d601f19601f82011682018060405250810190610cc9919061451a565b600a60009054906101000a900473ffffffffffffffffffffffffffffffffffffffff1673ffffffffffffffffffffffffffffffffffffffff1663a2309ff86040518163ffffffff1660e01b8152600401602060405180830381865afa158015610d36573d6000803e3d6000fd5b505050506040513d601f19601f82011682018060405250810190610d5a919061451a565b610d6491906146f4565b610d6e91906146f4565b6002612983565b905060006001600a60009054906101000a900473ffffffffffffffffffffffffffffffffffffffff1673ffffffffffffffffffffffffffffffffffffffff1663a49062d46040518163ffffffff1660e01b8152600401602060405180830381865afa158015610de8573d6000803e3d6000fd5b505050506040513d601f19601f82011682018060405250810190610e0c919061451a565b610e1691906144d1565b67ffffffffffffffff811115610e2f57610e2e6138ae565b5b604051908082528060200260200182016040528015610e5d5781602001602082028036833780820191505090505b509050600581600081518110610e7657610e7561435c565b5b602002602001018181525050600282610e8f9190614725565b81600181518110610ea357610ea261435c565b5b602002602001018181525050600482610ebc9190614725565b81600281518110610ed057610ecf61435c565b5b602002602001018181525050600882610ee99190614725565b81600381518110610efd57610efc61435c565b5b602002602001018181525050809250505090565b600060016008600084815260200190815260200160002054610f3391906144d1565b9050919050565b600080610f468361299c565b9050600073ffffffffffffffffffffffffffffffffffffffff168173ffffffffffffffffffffffffffffffffffffffff1603610fb7576040517f08c379a0000000000000000000000000000000000000000000000000000000008152600401610fae906147cb565b60405180910390fd5b80915050919050565b60008073ffffffffffffffffffffffffffffffffffffffff168273ffffffffffffffffffffffffffffffffffffffff1603611030576040517f08c379a00000000000000000000000000000000000000000000000000000000081526004016110279061485d565b60405180910390fd5b600360008373ffffffffffffffffffffffffffffffffffffffff1673ffffffffffffffffffffffffffffffffffffffff168152602001908152602001600020549050919050565b61107f612429565b61108960006129d9565b565b60086020528060005260406000206000915090505481565b6000806110af83611a09565b9050600a60009054906101000a900473ffffffffffffffffffffffffffffffffffffffff1673ffffffffffffffffffffffffffffffffffffffff1663a49062d46040518163ffffffff1660e01b8152600401602060405180830381865afa15801561111e573d6000803e3d6000fd5b505050506040513d601f19601f82011682018060405250810190611142919061451a565b8103611152576000915050611290565b600060149050600080611163610b88565b9050600084036111d257826002826000815181106111845761118361435c565b5b60200260200101516111969190614328565b6001886111a39190614328565b856111ad90614887565b6111b791906148cf565b6111c191906149e6565b6111cb9190614a50565b9150611288565b826001826001876111e39190614328565b815181106111f4576111f361435c565b5b602002602001015183878151811061120f5761120e61435c565b5b60200260200101516112219190614328565b61122b9190614328565b826001876112399190614328565b8151811061124a5761124961435c565b5b60200260200101518861125d9190614328565b8561126790614887565b61127191906148cf565b61127b91906149e6565b6112859190614a50565b91505b819450505050505b919050565b600960009054906101000a900473ffffffffffffffffffffffffffffffffffffffff1681565b60006007544211905090565b6000600660009054906101000a900473ffffffffffffffffffffffffffffffffffffffff16905090565b606060018054611300906141a4565b80601f016020809104026020016040519081016040528092919081815260200182805461132c906141a4565b80156113795780601f1061134e57610100808354040283529160200191611379565b820191906000526020600020905b81548152906001019060200180831161135c57829003601f168201915b5050505050905090565b61139561138e612368565b8383612a9f565b5050565b6000600b54905090565b6060600a60009054906101000a900473ffffffffffffffffffffffffffffffffffffffff1673ffffffffffffffffffffffffffffffffffffffff1663b4449b26836040518263ffffffff1660e01b8152600401611400919061388e565b600060405180830381865afa15801561141d573d6000803e3d6000fd5b505050506040513d6000823e3d601f19601f820116820180604052508101906114469190614b35565b9050919050565b61145561359d565b606060008360008151811061146d5761146c61435c565b5b60200260200101519050600080600190505b85518110156114c3576114ab86828151811061149e5761149d61435c565b5b6020026020010151610f11565b826114b691906144d1565b915080600101905061147f565b506000816114d084610f11565b6114da91906144d1565b905060006114e782611a09565b905060006114f4826113a3565b90506000611501846110a3565b905060006040518060c0016040528088815260200185815260200185600a6115299190614328565b6002600960009054906101000a900473ffffffffffffffffffffffffffffffffffffffff1673ffffffffffffffffffffffffffffffffffffffff1663030ac5256040518163ffffffff1660e01b8152600401602060405180830381865afa158015611598573d6000803e3d6000fd5b505050506040513d601f19601f820116820180604052508101906115bc919061451a565b6115c691906146f4565b6115d09190614328565b815260200186815260200183815260200184815250905080600960009054906101000a900473ffffffffffffffffffffffffffffffffffffffff1673ffffffffffffffffffffffffffffffffffffffff1663cfeb9a02836040518263ffffffff1660e01b8152600401611643919061402f565b600060405180830381865afa158015611660573d6000803e3d6000fd5b505050506040513d6000823e3d601f19601f820116820180604052508101906116899190614b35565b9850985050505050505050915091565b6116aa6116a4612368565b836124a7565b6116e9576040517f08c379a00000000000000000000000000000000000000000000000000000000081526004016116e090614445565b60405180910390fd5b6116f584848484612c0b565b50505050565b606061170682612c67565b61173c576040517fa14c4b5000000000000000000000000000000000000000000000000000000000815260040160405180910390fd5b600061174783612ca8565b6040516020016117579190614c06565b604051602081830303815290604052905060006040518060800160405280605181526020016158ea6051913990506000611790856118e2565b90506000600960009054906101000a900473ffffffffffffffffffffffffffffffffffffffff1673ffffffffffffffffffffffffffffffffffffffff1663cfeb9a02836040518263ffffffff1660e01b81526004016117ef919061402f565b600060405180830381865afa15801561180c573d6000803e3d6000fd5b505050506040513d6000823e3d601f19601f820116820180604052508101906118359190614b35565b905060006118468360200151612ca8565b8360a001516118588560600151612ca8565b60405160200161186a93929190614dca565b6040516020818303038152906040529050600085858361188986612e30565b60405160200161189c949392919061504a565b60405160208183030381529060405290506118b681612e30565b6040516020016118c69190615116565b6040516020818303038152906040529650505050505050919050565b6118ea61359d565b60006118f583610f11565b9050600061190282611a09565b9050600061190f826113a3565b9050600061191c846110a3565b90506040518060c0016040528087815260200184815260200184600a6119429190614328565b6002600960009054906101000a900473ffffffffffffffffffffffffffffffffffffffff1673ffffffffffffffffffffffffffffffffffffffff1663030ac5256040518163ffffffff1660e01b8152600401602060405180830381865afa1580156119b1573d6000803e3d6000fd5b505050506040513d601f19601f820116820180604052508101906119d5919061451a565b6119df91906146f4565b6119e99190614328565b815260200185815260200182815260200183815250945050505050919050565b600080611a14610b88565b905080600081518110611a2a57611a2961435c565b5b6020026020010151831015611a43576000915050611ad0565b80600181518110611a5757611a5661435c565b5b6020026020010151831015611a70576001915050611ad0565b80600281518110611a8457611a8361435c565b5b6020026020010151831015611a9d576002915050611ad0565b80600381518110611ab157611ab061435c565b5b6020026020010151831015611aca576003915050611ad0565b60049150505b919050565b60075481565b6000600c54905090565b611aed6112bb565b611b2c576040517f08c379a0000000000000000000000000000000000000000000000000000000008152600401611b2390615184565b60405180910390fd5b6001815111611b70576040517f08c379a0000000000000000000000000000000000000000000000000000000008152600401611b67906151f0565b60405180910390fd5b600081600081518110611b8657611b8561435c565b5b602002602001015190503373ffffffffffffffffffffffffffffffffffffffff16611bcb83600081518110611bbe57611bbd61435c565b5b6020026020010151610f3a565b73ffffffffffffffffffffffffffffffffffffffff1614611c21576040517f08c379a0000000000000000000000000000000000000000000000000000000008152600401611c189061525c565b60405180910390fd5b600080600190505b8351811015611d20573373ffffffffffffffffffffffffffffffffffffffff16611c6c858381518110611c5f57611c5e61435c565b5b6020026020010151610f3a565b73ffffffffffffffffffffffffffffffffffffffff1614611cc2576040517f08c379a0000000000000000000000000000000000000000000000000000000008152600401611cb9906152c8565b60405180910390fd5b611ce5848281518110611cd857611cd761435c565b5b6020026020010151610f11565b82611cf091906144d1565b9150611d15848281518110611d0857611d0761435c565b5b6020026020010151612835565b806001019050611c29565b5080600860008481526020019081526020016000206000828254611d4491906144d1565b925050819055507ff8e1a15aba9398e019f0b49df1a4fde98ee17ae345cb5f6b5e2c27f5033e8ce782604051611d7a919061388e565b60405180910390a1505050565b6000600560008473ffffffffffffffffffffffffffffffffffffffff1673ffffffffffffffffffffffffffffffffffffffff16815260200190815260200160002060008373ffffffffffffffffffffffffffffffffffffffff1673ffffffffffffffffffffffffffffffffffffffff16815260200190815260200160002060009054906101000a900460ff16905092915050565b600a60009054906101000a900473ffffffffffffffffffffffffffffffffffffffff1681565b611e49612429565b600073ffffffffffffffffffffffffffffffffffffffff168173ffffffffffffffffffffffffffffffffffffffff1603611eb8576040517f08c379a0000000000000000000000000000000000000000000000000000000008152600401611eaf9061535a565b60405180910390fd5b611ec1816129d9565b50565b600082829050905060005b8181101561221f576000848483818110611eec57611eeb61435c565b5b9050602002013590506000600a60009054906101000a900473ffffffffffffffffffffffffffffffffffffffff1673ffffffffffffffffffffffffffffffffffffffff16636352211e836040518263ffffffff1660e01b8152600401611f52919061388e565b602060405180830381865afa158015611f6f573d6000803e3d6000fd5b505050506040513d601f19601f82011682018060405250810190611f93919061538f565b90503373ffffffffffffffffffffffffffffffffffffffff168173ffffffffffffffffffffffffffffffffffffffff161415801561206c5750600a60009054906101000a900473ffffffffffffffffffffffffffffffffffffffff1673ffffffffffffffffffffffffffffffffffffffff1663e985e9c582336040518363ffffffff1660e01b81526004016120299291906153bc565b602060405180830381865afa158015612046573d6000803e3d6000fd5b505050506040513d601f19601f8201168201806040525081019061206a91906153fa565b155b801561213f57503373ffffffffffffffffffffffffffffffffffffffff16600a60009054906101000a900473ffffffffffffffffffffffffffffffffffffffff1673ffffffffffffffffffffffffffffffffffffffff1663081812fc846040518263ffffffff1660e01b81526004016120e5919061388e565b602060405180830381865afa158015612102573d6000803e3d6000fd5b505050506040513d601f19601f82011682018060405250810190612126919061538f565b73ffffffffffffffffffffffffffffffffffffffff1614155b15612176576040517f3d693ada00000000000000000000000000000000000000000000000000000000815260040160405180910390fd5b600a60009054906101000a900473ffffffffffffffffffffffffffffffffffffffff1673ffffffffffffffffffffffffffffffffffffffff166323b872dd826001856040518463ffffffff1660e01b81526004016121d693929190615427565b600060405180830381600087803b1580156121f057600080fd5b505af1158015612204573d6000803e3d6000fd5b505050506122123383612fc7565b8260010192505050611ecf565b508063ffffffff16600b60008282540192505081905550505050565b60007f80ac58cd000000000000000000000000000000000000000000000000000000007bffffffffffffffffffffffffffffffffffffffffffffffffffffffff1916827bffffffffffffffffffffffffffffffffffffffffffffffffffffffff1916148061230657507f5b5e139f000000000000000000000000000000000000000000000000000000007bffffffffffffffffffffffffffffffffffffffffffffffffffffffff1916827bffffffffffffffffffffffffffffffffffffffffffffffffffffffff1916145b80612316575061231582612fe5565b5b9050919050565b61232681612c67565b612365576040517f08c379a000000000000000000000000000000000000000000000000000000000815260040161235c906147cb565b60405180910390fd5b50565b600033905090565b816004600083815260200190815260200160002060006101000a81548173ffffffffffffffffffffffffffffffffffffffff021916908373ffffffffffffffffffffffffffffffffffffffff160217905550808273ffffffffffffffffffffffffffffffffffffffff166123e383610f3a565b73ffffffffffffffffffffffffffffffffffffffff167f8c5be1e5ebec7d5bd14f71427d1e84f3dd0314c0f7b2291e5b200ac8c7c3b92560405160405180910390a45050565b612431612368565b73ffffffffffffffffffffffffffffffffffffffff1661244f6112c7565b73ffffffffffffffffffffffffffffffffffffffff16146124a5576040517f08c379a000000000000000000000000000000000000000000000000000000000815260040161249c906154aa565b60405180910390fd5b565b6000806124b383610f3a565b90508073ffffffffffffffffffffffffffffffffffffffff168473ffffffffffffffffffffffffffffffffffffffff1614806124f557506124f48185611d87565b5b8061253357508373ffffffffffffffffffffffffffffffffffffffff1661251b84610821565b73ffffffffffffffffffffffffffffffffffffffff16145b91505092915050565b8273ffffffffffffffffffffffffffffffffffffffff1661255c82610f3a565b73ffffffffffffffffffffffffffffffffffffffff16146125b2576040517f08c379a00000000000000000000000000000000000000000000000000000000081526004016125a99061553c565b60405180910390fd5b600073ffffffffffffffffffffffffffffffffffffffff168273ffffffffffffffffffffffffffffffffffffffff1603612621576040517f08c379a0000000000000000000000000000000000000000000000000000000008152600401612618906155ce565b60405180910390fd5b61262e838383600161304f565b8273ffffffffffffffffffffffffffffffffffffffff1661264e82610f3a565b73ffffffffffffffffffffffffffffffffffffffff16146126a4576040517f08c379a000000000000000000000000000000000000000000000000000000000815260040161269b9061553c565b60405180910390fd5b6004600082815260200190815260200160002060006101000a81549073ffffffffffffffffffffffffffffffffffffffff02191690556001600360008573ffffffffffffffffffffffffffffffffffffffff1673ffffffffffffffffffffffffffffffffffffffff168152602001908152602001600020600082825403925050819055506001600360008473ffffffffffffffffffffffffffffffffffffffff1673ffffffffffffffffffffffffffffffffffffffff16815260200190815260200160002060008282540192505081905550816002600083815260200190815260200160002060006101000a81548173ffffffffffffffffffffffffffffffffffffffff021916908373ffffffffffffffffffffffffffffffffffffffff160217905550808273ffffffffffffffffffffffffffffffffffffffff168473ffffffffffffffffffffffffffffffffffffffff167fddf252ad1be2c89b69c2b068fc378daa952ba7f163c4a11628f55a4df523b3ef60405160405180910390a46128308383836001613175565b505050565b600061284082610f3a565b905061285081600084600161304f565b61285982610f3a565b90506004600083815260200190815260200160002060006101000a81549073ffffffffffffffffffffffffffffffffffffffff02191690556001600360008373ffffffffffffffffffffffffffffffffffffffff1673ffffffffffffffffffffffffffffffffffffffff168152602001908152602001600020600082825403925050819055506002600083815260200190815260200160002060006101000a81549073ffffffffffffffffffffffffffffffffffffffff021916905581600073ffffffffffffffffffffffffffffffffffffffff168273ffffffffffffffffffffffffffffffffffffffff167fddf252ad1be2c89b69c2b068fc378daa952ba7f163c4a11628f55a4df523b3ef60405160405180910390a461297f816000846001613175565b5050565b60008183116129925781612994565b825b905092915050565b60006002600083815260200190815260200160002060009054906101000a900473ffffffffffffffffffffffffffffffffffffffff169050919050565b6000600660009054906101000a900473ffffffffffffffffffffffffffffffffffffffff16905081600660006101000a81548173ffffffffffffffffffffffffffffffffffffffff021916908373ffffffffffffffffffffffffffffffffffffffff1602179055508173ffffffffffffffffffffffffffffffffffffffff168173ffffffffffffffffffffffffffffffffffffffff167f8be0079c531659141344cd1fd0a4f28419497f9722a3daafe3b4186f6b6457e060405160405180910390a35050565b8173ffffffffffffffffffffffffffffffffffffffff168373ffffffffffffffffffffffffffffffffffffffff1603612b0d576040517f08c379a0000000000000000000000000000000000000000000000000000000008152600401612b049061563a565b60405180910390fd5b80600560008573ffffffffffffffffffffffffffffffffffffffff1673ffffffffffffffffffffffffffffffffffffffff16815260200190815260200160002060008473ffffffffffffffffffffffffffffffffffffffff1673ffffffffffffffffffffffffffffffffffffffff16815260200190815260200160002060006101000a81548160ff0219169083151502179055508173ffffffffffffffffffffffffffffffffffffffff168373ffffffffffffffffffffffffffffffffffffffff167f17307eab39ab6107e8899845ad3d59bd9653f200f220920489ca2b5937696c3183604051612bfe9190613687565b60405180910390a3505050565b612c1684848461253c565b612c228484848461317b565b612c61576040517f08c379a0000000000000000000000000000000000000000000000000000000008152600401612c58906156cc565b60405180910390fd5b50505050565b60008073ffffffffffffffffffffffffffffffffffffffff16612c898361299c565b73ffffffffffffffffffffffffffffffffffffffff1614159050919050565b606060008203612cef576040518060400160405280600181526020017f30000000000000000000000000000000000000000000000000000000000000008152509050612e2b565b600082905060005b60008214612d21578080612d0a9061438b565b915050600a82612d1a91906146f4565b9150612cf7565b60008167ffffffffffffffff811115612d3d57612d3c6138ae565b5b6040519080825280601f01601f191660200182016040528015612d6f5781602001600182028036833780820191505090505b50905060008290505b60008614612e2357600181612d8d9190614328565b90506000600a8088612d9f91906146f4565b612da99190614725565b87612db49190614328565b6030612dc091906156f9565b905060008160f81b905080848481518110612dde57612ddd61435c565b5b60200101907effffffffffffffffffffffffffffffffffffffffffffffffffffffffffffff1916908160001a905350600a88612e1a91906146f4565b97505050612d78565b819450505050505b919050565b606060008251905060008103612e585760405180602001604052806000815250915050612fc2565b60006003600283612e6991906144d1565b612e7391906146f4565b6004612e7f9190614725565b90506000602082612e9091906144d1565b67ffffffffffffffff811115612ea957612ea86138ae565b5b6040519080825280601f01601f191660200182016040528015612edb5781602001600182028036833780820191505090505b509050600060405180606001604052806040815260200161593b604091399050600181016020830160005b86811015612f7f5760038101905062ffffff818a015116603f8160121c168401518060081b905060ff603f83600c1c1686015116810190508060081b905060ff603f8360061c1686015116810190508060081b905060ff603f831686015116810190508060e01b90508084526004840193505050612f06565b506003860660018114612f995760028114612fa957612fb4565b613d3d60f01b6002830352612fb4565b603d60f81b60018303525b508484525050819450505050505b919050565b612fe1828260405180602001604052806000815250613302565b5050565b60007f01ffc9a7000000000000000000000000000000000000000000000000000000007bffffffffffffffffffffffffffffffffffffffffffffffffffffffff1916827bffffffffffffffffffffffffffffffffffffffffffffffffffffffff1916149050919050565b600181111561316f57600073ffffffffffffffffffffffffffffffffffffffff168473ffffffffffffffffffffffffffffffffffffffff16146130e35780600360008673ffffffffffffffffffffffffffffffffffffffff1673ffffffffffffffffffffffffffffffffffffffff16815260200190815260200160002060008282546130db9190614328565b925050819055505b600073ffffffffffffffffffffffffffffffffffffffff168373ffffffffffffffffffffffffffffffffffffffff161461316e5780600360008573ffffffffffffffffffffffffffffffffffffffff1673ffffffffffffffffffffffffffffffffffffffff168152602001908152602001600020600082825461316691906144d1565b925050819055505b5b50505050565b50505050565b600061319c8473ffffffffffffffffffffffffffffffffffffffff1661335d565b156132f5578373ffffffffffffffffffffffffffffffffffffffff1663150b7a026131c5612368565b8786866040518563ffffffff1660e01b81526004016131e79493929190615783565b6020604051808303816000875af192505050801561322357506040513d601f19601f8201168201806040525081019061322091906157e4565b60015b6132a5573d8060008114613253576040519150601f19603f3d011682016040523d82523d6000602084013e613258565b606091505b50600081510361329d576040517f08c379a0000000000000000000000000000000000000000000000000000000008152600401613294906156cc565b60405180910390fd5b805181602001fd5b63150b7a0260e01b7bffffffffffffffffffffffffffffffffffffffffffffffffffffffff1916817bffffffffffffffffffffffffffffffffffffffffffffffffffffffff1916149150506132fa565b600190505b949350505050565b61330c8383613380565b613319600084848461317b565b613358576040517f08c379a000000000000000000000000000000000000000000000000000000000815260040161334f906156cc565b60405180910390fd5b505050565b6000808273ffffffffffffffffffffffffffffffffffffffff163b119050919050565b600073ffffffffffffffffffffffffffffffffffffffff168273ffffffffffffffffffffffffffffffffffffffff16036133ef576040517f08c379a00000000000000000000000000000000000000000000000000000000081526004016133e69061585d565b60405180910390fd5b6133f881612c67565b15613438576040517f08c379a000000000000000000000000000000000000000000000000000000000815260040161342f906158c9565b60405180910390fd5b61344660008383600161304f565b61344f81612c67565b1561348f576040517f08c379a0000000000000000000000000000000000000000000000000000000008152600401613486906158c9565b60405180910390fd5b6001600360008473ffffffffffffffffffffffffffffffffffffffff1673ffffffffffffffffffffffffffffffffffffffff16815260200190815260200160002060008282540192505081905550816002600083815260200190815260200160002060006101000a81548173ffffffffffffffffffffffffffffffffffffffff021916908373ffffffffffffffffffffffffffffffffffffffff160217905550808273ffffffffffffffffffffffffffffffffffffffff16600073ffffffffffffffffffffffffffffffffffffffff167fddf252ad1be2c89b69c2b068fc378daa952ba7f163c4a11628f55a4df523b3ef60405160405180910390a4613599600083836001613175565b5050565b6040518060c001604052806000815260200160008152602001600081526020016000815260200160008152602001606081525090565b6000604051905090565b600080fd5b600080fd5b60007fffffffff0000000000000000000000000000000000000000000000000000000082169050919050565b61361c816135e7565b811461362757600080fd5b50565b60008135905061363981613613565b92915050565b600060208284031215613655576136546135dd565b5b60006136638482850161362a565b91505092915050565b60008115159050919050565b6136818161366c565b82525050565b600060208201905061369c6000830184613678565b92915050565b600081519050919050565b600082825260208201905092915050565b60005b838110156136dc5780820151818401526020810190506136c1565b60008484015250505050565b6000601f19601f8301169050919050565b6000613704826136a2565b61370e81856136ad565b935061371e8185602086016136be565b613727816136e8565b840191505092915050565b6000602082019050818103600083015261374c81846136f9565b905092915050565b6000819050919050565b61376781613754565b811461377257600080fd5b50565b6000813590506137848161375e565b92915050565b6000602082840312156137a05761379f6135dd565b5b60006137ae84828501613775565b91505092915050565b600073ffffffffffffffffffffffffffffffffffffffff82169050919050565b60006137e2826137b7565b9050919050565b6137f2816137d7565b82525050565b600060208201905061380d60008301846137e9565b92915050565b61381c816137d7565b811461382757600080fd5b50565b60008135905061383981613813565b92915050565b60008060408385031215613856576138556135dd565b5b60006138648582860161382a565b925050602061387585828601613775565b9150509250929050565b61388881613754565b82525050565b60006020820190506138a3600083018461387f565b92915050565b600080fd5b7f4e487b7100000000000000000000000000000000000000000000000000000000600052604160045260246000fd5b6138e6826136e8565b810181811067ffffffffffffffff82111715613905576139046138ae565b5b80604052505050565b60006139186135d3565b905061392482826138dd565b919050565b600067ffffffffffffffff821115613944576139436138ae565b5b602082029050602081019050919050565b600080fd5b600061396d61396884613929565b61390e565b905080838252602082019050602084028301858111156139905761398f613955565b5b835b818110156139b957806139a58882613775565b845260208401935050602081019050613992565b5050509392505050565b600082601f8301126139d8576139d76138a9565b5b81356139e884826020860161395a565b91505092915050565b600060208284031215613a0757613a066135dd565b5b600082013567ffffffffffffffff811115613a2557613a246135e2565b5b613a31848285016139c3565b91505092915050565b600081519050919050565b600082825260208201905092915050565b6000819050602082019050919050565b613a6f81613754565b82525050565b600082825260208201905092915050565b6000613a91826136a2565b613a9b8185613a75565b9350613aab8185602086016136be565b613ab4816136e8565b840191505092915050565b600060c083016000830151613ad76000860182613a66565b506020830151613aea6020860182613a66565b506040830151613afd6040860182613a66565b506060830151613b106060860182613a66565b506080830151613b236080860182613a66565b5060a083015184820360a0860152613b3b8282613a86565b9150508091505092915050565b6000613b548383613abf565b905092915050565b6000602082019050919050565b6000613b7482613a3a565b613b7e8185613a45565b935083602082028501613b9085613a56565b8060005b85811015613bcc5784840389528151613bad8582613b48565b9450613bb883613b5c565b925060208a01995050600181019050613b94565b50829750879550505050505092915050565b60006020820190508181036000830152613bf88184613b69565b905092915050565b600080600060608486031215613c1957613c186135dd565b5b6000613c278682870161382a565b9350506020613c388682870161382a565b9250506040613c4986828701613775565b9150509250925092565b600081519050919050565b600082825260208201905092915050565b6000819050602082019050919050565b6000613c8b8383613a66565b60208301905092915050565b6000602082019050919050565b6000613caf82613c53565b613cb98185613c5e565b9350613cc483613c6f565b8060005b83811015613cf5578151613cdc8882613c7f565b9750613ce783613c97565b925050600181019050613cc8565b5085935050505092915050565b60006020820190508181036000830152613d1c8184613ca4565b905092915050565b600060208284031215613d3a57613d396135dd565b5b6000613d488482850161382a565b91505092915050565b6000819050919050565b6000613d76613d71613d6c846137b7565b613d51565b6137b7565b9050919050565b6000613d8882613d5b565b9050919050565b6000613d9a82613d7d565b9050919050565b613daa81613d8f565b82525050565b6000602082019050613dc56000830184613da1565b92915050565b613dd48161366c565b8114613ddf57600080fd5b50565b600081359050613df181613dcb565b92915050565b60008060408385031215613e0e57613e0d6135dd565b5b6000613e1c8582860161382a565b9250506020613e2d85828601613de2565b9150509250929050565b600060c083016000830151613e4f6000860182613a66565b506020830151613e626020860182613a66565b506040830151613e756040860182613a66565b506060830151613e886060860182613a66565b506080830151613e9b6080860182613a66565b5060a083015184820360a0860152613eb38282613a86565b9150508091505092915050565b60006040820190508181036000830152613eda8185613e37565b90508181036020830152613eee81846136f9565b90509392505050565b600080fd5b600067ffffffffffffffff821115613f1757613f166138ae565b5b613f20826136e8565b9050602081019050919050565b82818337600083830152505050565b6000613f4f613f4a84613efc565b61390e565b905082815260208101848484011115613f6b57613f6a613ef7565b5b613f76848285613f2d565b509392505050565b600082601f830112613f9357613f926138a9565b5b8135613fa3848260208601613f3c565b91505092915050565b60008060008060808587031215613fc657613fc56135dd565b5b6000613fd48782880161382a565b9450506020613fe58782880161382a565b9350506040613ff687828801613775565b925050606085013567ffffffffffffffff811115614017576140166135e2565b5b61402387828801613f7e565b91505092959194509250565b600060208201905081810360008301526140498184613e37565b905092915050565b60008060408385031215614068576140676135dd565b5b60006140768582860161382a565b92505060206140878582860161382a565b9150509250929050565b600061409c82613d7d565b9050919050565b6140ac81614091565b82525050565b60006020820190506140c760008301846140a3565b92915050565b600080fd5b60008083601f8401126140e8576140e76138a9565b5b8235905067ffffffffffffffff811115614105576141046140cd565b5b60208301915083602082028301111561412157614120613955565b5b9250929050565b6000806020838503121561413f5761413e6135dd565b5b600083013567ffffffffffffffff81111561415d5761415c6135e2565b5b614169858286016140d2565b92509250509250929050565b7f4e487b7100000000000000000000000000000000000000000000000000000000600052602260045260246000fd5b600060028204905060018216806141bc57607f821691505b6020821081036141cf576141ce614175565b5b50919050565b7f4552433732313a20617070726f76616c20746f2063757272656e74206f776e6560008201527f7200000000000000000000000000000000000000000000000000000000000000602082015250565b60006142316021836136ad565b915061423c826141d5565b604082019050919050565b6000602082019050818103600083015261426081614224565b9050919050565b7f4552433732313a20617070726f76652063616c6c6572206973206e6f7420746f60008201527f6b656e206f776e6572206f7220617070726f76656420666f7220616c6c000000602082015250565b60006142c3603d836136ad565b91506142ce82614267565b604082019050919050565b600060208201905081810360008301526142f2816142b6565b9050919050565b7f4e487b7100000000000000000000000000000000000000000000000000000000600052601160045260246000fd5b600061433382613754565b915061433e83613754565b9250828203905081811115614356576143556142f9565b5b92915050565b7f4e487b7100000000000000000000000000000000000000000000000000000000600052603260045260246000fd5b600061439682613754565b91507fffffffffffffffffffffffffffffffffffffffffffffffffffffffffffffffff82036143c8576143c76142f9565b5b600182019050919050565b7f4552433732313a2063616c6c6572206973206e6f7420746f6b656e206f776e6560008201527f72206f7220617070726f76656400000000000000000000000000000000000000602082015250565b600061442f602d836136ad565b915061443a826143d3565b604082019050919050565b6000602082019050818103600083015261445e81614422565b9050919050565b7f4d757374206f776e20746f6b656e000000000000000000000000000000000000600082015250565b600061449b600e836136ad565b91506144a682614465565b602082019050919050565b600060208201905081810360008301526144ca8161448e565b9050919050565b60006144dc82613754565b91506144e783613754565b92508282019050808211156144ff576144fe6142f9565b5b92915050565b6000815190506145148161375e565b92915050565b6000602082840312156145305761452f6135dd565b5b600061453e84828501614505565b91505092915050565b60008160011c9050919050565b6000808291508390505b600185111561459e5780860481111561457a576145796142f9565b5b60018516156145895780820291505b808102905061459785614547565b945061455e565b94509492505050565b6000826145b75760019050614673565b816145c55760009050614673565b81600181146145db57600281146145e557614614565b6001915050614673565b60ff8411156145f7576145f66142f9565b5b8360020a91508482111561460e5761460d6142f9565b5b50614673565b5060208310610133831016604e8410600b84101617156146495782820a905083811115614644576146436142f9565b5b614673565b6146568484846001614554565b9250905081840481111561466d5761466c6142f9565b5b81810290505b9392505050565b600061468582613754565b915061469083613754565b92506146bd7fffffffffffffffffffffffffffffffffffffffffffffffffffffffffffffffff84846145a7565b905092915050565b7f4e487b7100000000000000000000000000000000000000000000000000000000600052601260045260246000fd5b60006146ff82613754565b915061470a83613754565b92508261471a576147196146c5565b5b828204905092915050565b600061473082613754565b915061473b83613754565b9250817fffffffffffffffffffffffffffffffffffffffffffffffffffffffffffffffff0483118215151615614774576147736142f9565b5b828202905092915050565b7f4552433732313a20696e76616c696420746f6b656e2049440000000000000000600082015250565b60006147b56018836136ad565b91506147c08261477f565b602082019050919050565b600060208201905081810360008301526147e4816147a8565b9050919050565b7f4552433732313a2061646472657373207a65726f206973206e6f74206120766160008201527f6c6964206f776e65720000000000000000000000000000000000000000000000602082015250565b60006148476029836136ad565b9150614852826147eb565b604082019050919050565b600060208201905081810360008301526148768161483a565b9050919050565b6000819050919050565b60006148928261487d565b91507f800000000000000000000000000000000000000000000000000000000000000082036148c4576148c36142f9565b5b816000039050919050565b60006148da8261487d565b91506148e58361487d565b9250827f7fffffffffffffffffffffffffffffffffffffffffffffffffffffffffffffff0482116000841360008413161615614924576149236142f9565b5b817f80000000000000000000000000000000000000000000000000000000000000000583126000841260008413161615614961576149606142f9565b5b827f8000000000000000000000000000000000000000000000000000000000000000058212600084136000841216161561499e5761499d6142f9565b5b827f7fffffffffffffffffffffffffffffffffffffffffffffffffffffffffffffff05821260008412600084121616156149db576149da6142f9565b5b828202905092915050565b60006149f18261487d565b91506149fc8361487d565b925082614a0c57614a0b6146c5565b5b600160000383147f800000000000000000000000000000000000000000000000000000000000000083141615614a4557614a446142f9565b5b828205905092915050565b6000614a5b8261487d565b9150614a668361487d565b925082820190508281121560008312168382126000841215161715614a8e57614a8d6142f9565b5b92915050565b600067ffffffffffffffff821115614aaf57614aae6138ae565b5b614ab8826136e8565b9050602081019050919050565b6000614ad8614ad384614a94565b61390e565b905082815260208101848484011115614af457614af3613ef7565b5b614aff8482856136be565b509392505050565b600082601f830112614b1c57614b1b6138a9565b5b8151614b2c848260208601614ac5565b91505092915050565b600060208284031215614b4b57614b4a6135dd565b5b600082015167ffffffffffffffff811115614b6957614b686135e2565b5b614b7584828501614b07565b91505092915050565b600081905092915050565b7f566f696461626c6520426c61636b486f6c652023000000000000000000000000600082015250565b6000614bbf601483614b7e565b9150614bca82614b89565b601482019050919050565b6000614be0826136a2565b614bea8185614b7e565b9350614bfa8185602086016136be565b80840191505092915050565b6000614c1182614bb2565b9150614c1d8284614bd5565b915081905092915050565b7f5b00000000000000000000000000000000000000000000000000000000000000815250565b7f7b2274726169745f74797065223a20224c6576656c222c202276616c7565223a60008201527f2000000000000000000000000000000000000000000000000000000000000000602082015250565b6000614caa602183614b7e565b9150614cb582614c4e565b602182019050919050565b7f7d2c000000000000000000000000000000000000000000000000000000000000815250565b7f7b2274726169745f74797065223a20224e616d65222c202276616c7565223a2060008201527f2200000000000000000000000000000000000000000000000000000000000000602082015250565b6000614d42602183614b7e565b9150614d4d82614ce6565b602182019050919050565b7f227d2c0000000000000000000000000000000000000000000000000000000000815250565b7f7b2274726169745f74797065223a20224d617373222c202276616c7565223a20815250565b7f7d5d000000000000000000000000000000000000000000000000000000000000815250565b6000614dd582614c28565b600182019150614de482614c9d565b9150614df08286614bd5565b9150614dfb82614cc0565b600282019150614e0a82614d35565b9150614e168285614bd5565b9150614e2182614d58565b600382019150614e3082614d7e565b602082019150614e408284614bd5565b9150614e4b82614da4565b600282019150819050949350505050565b7f7b226e616d65223a220000000000000000000000000000000000000000000000600082015250565b6000614e92600983614b7e565b9150614e9d82614e5c565b600982019050919050565b7f222c226465736372697074696f6e223a22000000000000000000000000000000600082015250565b6000614ede601183614b7e565b9150614ee982614ea8565b601182019050919050565b7f222c000000000000000000000000000000000000000000000000000000000000600082015250565b6000614f2a600283614b7e565b9150614f3582614ef4565b600282019050919050565b7f2261747472696275746573223a20000000000000000000000000000000000000600082015250565b6000614f76600e83614b7e565b9150614f8182614f40565b600e82019050919050565b7f2c2022696d616765223a2022646174613a696d6167652f7376672b786d6c3b6260008201527f61736536342c0000000000000000000000000000000000000000000000000000602082015250565b6000614fe8602683614b7e565b9150614ff382614f8c565b602682019050919050565b7f227d000000000000000000000000000000000000000000000000000000000000600082015250565b6000615034600283614b7e565b915061503f82614ffe565b600282019050919050565b600061505582614e85565b91506150618287614bd5565b915061506c82614ed1565b91506150788286614bd5565b915061508382614f1d565b915061508e82614f69565b915061509a8285614bd5565b91506150a582614fdb565b91506150b18284614bd5565b91506150bc82615027565b915081905095945050505050565b7f646174613a6170706c69636174696f6e2f6a736f6e3b6261736536342c000000600082015250565b6000615100601d83614b7e565b915061510b826150ca565b601d82019050919050565b6000615121826150f3565b915061512d8284614bd5565b915081905092915050565b7f4d657267696e67206e6f7420656e61626c656400000000000000000000000000600082015250565b600061516e6013836136ad565b915061517982615138565b602082019050919050565b6000602082019050818103600083015261519d81615161565b9050919050565b7f4d757374206d65726765206174206c65617374203220746f6b656e7300000000600082015250565b60006151da601c836136ad565b91506151e5826151a4565b602082019050919050565b60006020820190508181036000830152615209816151cd565b9050919050565b7f4d757374206f776e20616c6c20746f6b656e7320287461726765742900000000600082015250565b6000615246601c836136ad565b915061525182615210565b602082019050919050565b6000602082019050818103600083015261527581615239565b9050919050565b7f4d757374206f776e20616c6c20746f6b656e7320286275726e29000000000000600082015250565b60006152b2601a836136ad565b91506152bd8261527c565b602082019050919050565b600060208201905081810360008301526152e1816152a5565b9050919050565b7f4f776e61626c653a206e6577206f776e657220697320746865207a65726f206160008201527f6464726573730000000000000000000000000000000000000000000000000000602082015250565b60006153446026836136ad565b915061534f826152e8565b604082019050919050565b6000602082019050818103600083015261537381615337565b9050919050565b60008151905061538981613813565b92915050565b6000602082840312156153a5576153a46135dd565b5b60006153b38482850161537a565b91505092915050565b60006040820190506153d160008301856137e9565b6153de60208301846137e9565b9392505050565b6000815190506153f481613dcb565b92915050565b6000602082840312156154105761540f6135dd565b5b600061541e848285016153e5565b91505092915050565b600060608201905061543c60008301866137e9565b61544960208301856137e9565b615456604083018461387f565b949350505050565b7f4f776e61626c653a2063616c6c6572206973206e6f7420746865206f776e6572600082015250565b60006154946020836136ad565b915061549f8261545e565b602082019050919050565b600060208201905081810360008301526154c381615487565b9050919050565b7f4552433732313a207472616e736665722066726f6d20696e636f72726563742060008201527f6f776e6572000000000000000000000000000000000000000000000000000000602082015250565b60006155266025836136ad565b9150615531826154ca565b604082019050919050565b6000602082019050818103600083015261555581615519565b9050919050565b7f4552433732313a207472616e7366657220746f20746865207a65726f2061646460008201527f7265737300000000000000000000000000000000000000000000000000000000602082015250565b60006155b86024836136ad565b91506155c38261555c565b604082019050919050565b600060208201905081810360008301526155e7816155ab565b9050919050565b7f4552433732313a20617070726f766520746f2063616c6c657200000000000000600082015250565b60006156246019836136ad565b915061562f826155ee565b602082019050919050565b6000602082019050818103600083015261565381615617565b9050919050565b7f4552433732313a207472616e7366657220746f206e6f6e20455243373231526560008201527f63656976657220696d706c656d656e7465720000000000000000000000000000602082015250565b60006156b66032836136ad565b91506156c18261565a565b604082019050919050565b600060208201905081810360008301526156e5816156a9565b9050919050565b600060ff82169050919050565b6000615704826156ec565b915061570f836156ec565b9250828201905060ff811115615728576157276142f9565b5b92915050565b600081519050919050565b600082825260208201905092915050565b60006157558261572e565b61575f8185615739565b935061576f8185602086016136be565b615778816136e8565b840191505092915050565b600060808201905061579860008301876137e9565b6157a560208301866137e9565b6157b2604083018561387f565b81810360608301526157c4818461574a565b905095945050505050565b6000815190506157de81613613565b92915050565b6000602082840312156157fa576157f96135dd565b5b6000615808848285016157cf565b91505092915050565b7f4552433732313a206d696e7420746f20746865207a65726f2061646472657373600082015250565b60006158476020836136ad565b915061585282615811565b602082019050919050565b600060208201905081810360008301526158768161583a565b9050919050565b7f4552433732313a20746f6b656e20616c7265616479206d696e74656400000000600082015250565b60006158b3601c836136ad565b91506158be8261587d565b602082019050919050565b600060208201905081810360008301526158e2816158a6565b905091905056fe46756c6c79206f6e2d636861696e2c2070726f6365647572616c6c792067656e6572617465642c20616e696d6174656420626c61636b20686f6c65732e20526561647920746f206265206d65726765642e4142434445464748494a4b4c4d4e4f505152535455565758595a6162636465666768696a6b6c6d6e6f707172737475767778797a303132333435363738392b2fa2646970667358221220ad3878c7c96ca1a7669b5436af28cc385667045dcf907e58e85a39d36007692f64736f6c63430008100033",
  "libraries": {
    "utils": "0xBFAb047349E5d8A6BC4A714970Ca1C80D6BAc978"
  },
  "devdoc": {
    "kind": "dev",
    "methods": {
      "approve(address,uint256)": {
        "details": "See {IERC721-approve}."
      },
      "balanceOf(address)": {
        "details": "See {IERC721-balanceOf}."
      },
      "blackHoleForTokenId(uint256)": {
        "params": {
          "_tokenId": "ID of the token."
        },
        "returns": {
          "_0": "BlackHole Structured representation of the token."
        }
      },
      "blackHolesForTokenIds(uint256[])": {
        "params": {
          "tokenIds": "List of token IDs."
        }
      },
      "constructor": {
        "details": "Constructs a new instance of the contract.",
        "params": {
          "_mergeOpenTimestamp": "Timestamp when merging is open.",
          "_name": "Name of the ERC721 token.",
          "_renderer": "Address of the Renderer contract.",
          "_symbol": "Symbol of the ERC721 token.",
          "_unmigratedBlackHoles": "Address of Black Holes contract."
        }
      },
      "getAdjustmentForMass(uint256)": {
        "params": {
          "_mass": "Mass to calculate the adjustment for."
        },
        "returns": {
          "_0": "Adjustment."
        }
      },
      "getApproved(uint256)": {
        "details": "See {IERC721-getApproved}."
      },
      "isApprovedForAll(address,address)": {
        "details": "See {IERC721-isApprovedForAll}."
      },
      "merge(uint256[])": {
        "params": {
          "tokens": "List of token IDs to merge. The first token in the list is the target."
        }
      },
      "mint(uint256[])": {
        "params": {
          "tokenIds": "The Edition token IDs you want to migrate."
        }
      },
      "name()": {
        "details": "See {IERC721Metadata-name}."
      },
      "nameForBlackHoleLevel(uint256)": {
        "params": {
          "_level": "Level of the black hole."
        },
        "returns": {
          "_0": "name of the black hole level."
        }
      },
      "owner()": {
        "details": "Returns the address of the current owner."
      },
      "ownerOf(uint256)": {
        "details": "See {IERC721-ownerOf}."
      },
      "renounceOwnership()": {
        "details": "Leaves the contract without owner. It will not be possible to call `onlyOwner` functions anymore. Can only be called by the current owner. NOTE: Renouncing ownership will leave the contract without an owner, thereby removing any functionality that is only available to the owner."
      },
      "safeTransferFrom(address,address,uint256)": {
        "details": "See {IERC721-safeTransferFrom}."
      },
      "safeTransferFrom(address,address,uint256,bytes)": {
        "details": "See {IERC721-safeTransferFrom}."
      },
      "setApprovalForAll(address,bool)": {
        "details": "See {IERC721-setApprovalForAll}."
      },
      "setMergeOpenTimestamp(uint256)": {
        "params": {
          "_mergeOpenTimestamp": "Timestamp when merging is open."
        }
      },
      "simulateMerge(uint256[])": {
        "params": {
          "tokens": "Array of tokens to merge."
        },
        "returns": {
          "_0": "BlackHole struct of new Black Hole.",
          "_1": "SVG of new Black Hole."
        }
      },
      "supportsInterface(bytes4)": {
        "details": "See {IERC165-supportsInterface}."
      },
      "symbol()": {
        "details": "See {IERC721Metadata-symbol}."
      },
      "tokenURI(uint256)": {
        "params": {
          "_tokenId": "ID of the token to get the URI for."
        },
        "returns": {
          "_0": "Token URI."
        }
      },
      "transferFrom(address,address,uint256)": {
        "details": "See {IERC721-transferFrom}."
      },
      "transferOwnership(address)": {
        "details": "Transfers ownership of the contract to a new account (`newOwner`). Can only be called by the current owner."
      }
    },
    "version": 1
  },
  "userdoc": {
    "kind": "user",
    "methods": {
      "blackHoleForTokenId(uint256)": {
        "notice": "Get the structured representation of a token by its ID."
      },
      "blackHolesForTokenIds(uint256[])": {
        "notice": "Returns Black Holes for a list of token IDs."
      },
      "getAdjustmentForMass(uint256)": {
        "notice": "Gets adjustment for a given mass."
      },
      "getUpgradeIntervals()": {
        "notice": "Returns the mass required to upgrade to the next level for each level."
      },
      "isMergingEnabled()": {
        "notice": "Returns whether merging is enabled or not."
      },
      "levelForMass(uint256)": {
        "notice": "Gets the level for a given mass."
      },
      "merge(uint256[])": {
        "notice": "Merges a list of tokens into a single token."
      },
      "mint(uint256[])": {
        "notice": "Migrate Black Holes to Voidable Black Holes by burning the Black Holes.         Requires the Approval of this contract on the Edition contract."
      },
      "nameForBlackHoleLevel(uint256)": {
        "notice": "Returns the name of a black hole level."
      },
      "setMergeOpenTimestamp(uint256)": {
        "notice": "Sets the merging delay."
      },
      "simulateMerge(uint256[])": {
        "notice": "Simulates the merge for an array of tokens."
      },
      "tokenURI(uint256)": {
        "notice": "Returns the token URI for a given token ID."
      },
      "totalBurned()": {
        "notice": "Returns total number of tokens burned."
      },
      "totalMinted()": {
        "notice": "Returns total number of tokens minted."
      },
      "totalSupply()": {
        "notice": "Returns how many tokens this contract manages."
      }
    },
    "version": 1
  },
  "storageLayout": {
    "storage": [
      {
        "astId": 141,
        "contract": "contracts/VoidableBlackHoles.sol:VoidableBlackHoles",
        "label": "_name",
        "offset": 0,
        "slot": "0",
        "type": "t_string_storage"
      },
      {
        "astId": 143,
        "contract": "contracts/VoidableBlackHoles.sol:VoidableBlackHoles",
        "label": "_symbol",
        "offset": 0,
        "slot": "1",
        "type": "t_string_storage"
      },
      {
        "astId": 147,
        "contract": "contracts/VoidableBlackHoles.sol:VoidableBlackHoles",
        "label": "_owners",
        "offset": 0,
        "slot": "2",
        "type": "t_mapping(t_uint256,t_address)"
      },
      {
        "astId": 151,
        "contract": "contracts/VoidableBlackHoles.sol:VoidableBlackHoles",
        "label": "_balances",
        "offset": 0,
        "slot": "3",
        "type": "t_mapping(t_address,t_uint256)"
      },
      {
        "astId": 155,
        "contract": "contracts/VoidableBlackHoles.sol:VoidableBlackHoles",
        "label": "_tokenApprovals",
        "offset": 0,
        "slot": "4",
        "type": "t_mapping(t_uint256,t_address)"
      },
      {
        "astId": 161,
        "contract": "contracts/VoidableBlackHoles.sol:VoidableBlackHoles",
        "label": "_operatorApprovals",
        "offset": 0,
        "slot": "5",
        "type": "t_mapping(t_address,t_mapping(t_address,t_bool))"
      },
      {
        "astId": 7,
        "contract": "contracts/VoidableBlackHoles.sol:VoidableBlackHoles",
        "label": "_owner",
        "offset": 0,
        "slot": "6",
        "type": "t_address"
      },
      {
        "astId": 5468,
        "contract": "contracts/VoidableBlackHoles.sol:VoidableBlackHoles",
        "label": "mergeOpenTimestamp",
        "offset": 0,
        "slot": "7",
        "type": "t_uint256"
      },
      {
        "astId": 5472,
        "contract": "contracts/VoidableBlackHoles.sol:VoidableBlackHoles",
        "label": "massesConsumed",
        "offset": 0,
        "slot": "8",
        "type": "t_mapping(t_uint256,t_uint256)"
      },
      {
        "astId": 5475,
        "contract": "contracts/VoidableBlackHoles.sol:VoidableBlackHoles",
        "label": "renderer",
        "offset": 0,
        "slot": "9",
        "type": "t_contract(Renderer)5019"
      },
      {
        "astId": 5478,
        "contract": "contracts/VoidableBlackHoles.sol:VoidableBlackHoles",
        "label": "unmigratedBlackHoles",
        "offset": 0,
        "slot": "10",
        "type": "t_contract(BlackHoles)3688"
      },
      {
        "astId": 5480,
        "contract": "contracts/VoidableBlackHoles.sol:VoidableBlackHoles",
        "label": "minted",
        "offset": 0,
        "slot": "11",
        "type": "t_uint256"
      },
      {
        "astId": 5482,
        "contract": "contracts/VoidableBlackHoles.sol:VoidableBlackHoles",
        "label": "burned",
        "offset": 0,
        "slot": "12",
        "type": "t_uint256"
      }
    ],
    "types": {
      "t_address": {
        "encoding": "inplace",
        "label": "address",
        "numberOfBytes": "20"
      },
      "t_bool": {
        "encoding": "inplace",
        "label": "bool",
        "numberOfBytes": "1"
      },
      "t_contract(BlackHoles)3688": {
        "encoding": "inplace",
        "label": "contract BlackHoles",
        "numberOfBytes": "20"
      },
      "t_contract(Renderer)5019": {
        "encoding": "inplace",
        "label": "contract Renderer",
        "numberOfBytes": "20"
      },
      "t_mapping(t_address,t_bool)": {
        "encoding": "mapping",
        "key": "t_address",
        "label": "mapping(address => bool)",
        "numberOfBytes": "32",
        "value": "t_bool"
      },
      "t_mapping(t_address,t_mapping(t_address,t_bool))": {
        "encoding": "mapping",
        "key": "t_address",
        "label": "mapping(address => mapping(address => bool))",
        "numberOfBytes": "32",
        "value": "t_mapping(t_address,t_bool)"
      },
      "t_mapping(t_address,t_uint256)": {
        "encoding": "mapping",
        "key": "t_address",
        "label": "mapping(address => uint256)",
        "numberOfBytes": "32",
        "value": "t_uint256"
      },
      "t_mapping(t_uint256,t_address)": {
        "encoding": "mapping",
        "key": "t_uint256",
        "label": "mapping(uint256 => address)",
        "numberOfBytes": "32",
        "value": "t_address"
      },
      "t_mapping(t_uint256,t_uint256)": {
        "encoding": "mapping",
        "key": "t_uint256",
        "label": "mapping(uint256 => uint256)",
        "numberOfBytes": "32",
        "value": "t_uint256"
      },
      "t_string_storage": {
        "encoding": "bytes",
        "label": "string",
        "numberOfBytes": "32"
      },
      "t_uint256": {
        "encoding": "inplace",
        "label": "uint256",
        "numberOfBytes": "32"
      }
    }
  }
}